{
	"SimpleStorage/Practice2.sol": {
		"Practice2": {
			"abi": [
				{
					"inputs": [
						{
							"internalType": "string",
							"name": "_name",
							"type": "string"
						},
						{
							"internalType": "uint256",
							"name": "_age",
							"type": "uint256"
						}
					],
					"name": "addDataSet",
					"outputs": [],
					"stateMutability": "nonpayable",
					"type": "function"
				},
				{
					"inputs": [
						{
							"internalType": "int256",
							"name": "a",
							"type": "int256"
						},
						{
							"internalType": "int256",
							"name": "b",
							"type": "int256"
						}
					],
					"name": "addNum",
					"outputs": [
						{
							"internalType": "int256",
							"name": "",
							"type": "int256"
						}
					],
					"stateMutability": "pure",
					"type": "function"
				},
				{
					"inputs": [
						{
							"internalType": "uint256",
							"name": "",
							"type": "uint256"
						}
					],
					"name": "listOfDataSet",
					"outputs": [
						{
							"internalType": "string",
							"name": "name",
							"type": "string"
						},
						{
							"internalType": "uint256",
							"name": "age",
							"type": "uint256"
						}
					],
					"stateMutability": "view",
					"type": "function"
				},
				{
					"inputs": [
						{
							"internalType": "string",
							"name": "",
							"type": "string"
						}
					],
					"name": "nameToAge",
					"outputs": [
						{
							"internalType": "uint256",
							"name": "",
							"type": "uint256"
						}
					],
					"stateMutability": "view",
					"type": "function"
				},
				{
					"inputs": [],
					"name": "num",
					"outputs": [
						{
							"internalType": "int256",
							"name": "",
							"type": "int256"
						}
					],
					"stateMutability": "view",
					"type": "function"
				},
				{
					"inputs": [
						{
							"internalType": "int256",
							"name": "_num",
							"type": "int256"
						}
					],
					"name": "setNum",
					"outputs": [],
					"stateMutability": "nonpayable",
					"type": "function"
				},
				{
					"inputs": [],
					"name": "viewNum",
					"outputs": [
						{
							"internalType": "int256",
							"name": "",
							"type": "int256"
						}
					],
					"stateMutability": "view",
					"type": "function"
				}
			],
			"devdoc": {
				"kind": "dev",
				"methods": {},
				"version": 1
			},
			"evm": {
				"assembly": "    /* \"SimpleStorage/Practice2.sol\":63:693  contract Practice2{... */\n  mstore(0x40, 0x80)\n  callvalue\n  dup1\n  iszero\n  tag_1\n  jumpi\n  revert(0x00, 0x00)\ntag_1:\n  pop\n  dataSize(sub_0)\n  dup1\n  dataOffset(sub_0)\n  0x00\n  codecopy\n  0x00\n  return\nstop\n\nsub_0: assembly {\n        /* \"SimpleStorage/Practice2.sol\":63:693  contract Practice2{... */\n      mstore(0x40, 0x80)\n      callvalue\n      dup1\n      iszero\n      tag_1\n      jumpi\n      revert(0x00, 0x00)\n    tag_1:\n      pop\n      jumpi(tag_2, lt(calldatasize, 0x04))\n      shr(0xe0, calldataload(0x00))\n      dup1\n      0x54c5b148\n      gt\n      tag_10\n      jumpi\n      dup1\n      0x54c5b148\n      eq\n      tag_6\n      jumpi\n      dup1\n      0x6a5aa5ec\n      eq\n      tag_7\n      jumpi\n      dup1\n      0x90c3ee4d\n      eq\n      tag_8\n      jumpi\n      dup1\n      0xc8dc4ef8\n      eq\n      tag_9\n      jumpi\n      jump(tag_2)\n    tag_10:\n      dup1\n      0x19e9a181\n      eq\n      tag_3\n      jumpi\n      dup1\n      0x1a8cd568\n      eq\n      tag_4\n      jumpi\n      dup1\n      0x4e70b1dc\n      eq\n      tag_5\n      jumpi\n    tag_2:\n      revert(0x00, 0x00)\n        /* \"SimpleStorage/Practice2.sol\":599:686  function addNum(int a , int b) public pure returns(int256){... */\n    tag_3:\n      tag_11\n      0x04\n      dup1\n      calldatasize\n      sub\n      dup2\n      add\n      swap1\n      tag_12\n      swap2\n      swap1\n      tag_13\n      jump\t// in\n    tag_12:\n      tag_14\n      jump\t// in\n    tag_11:\n      mload(0x40)\n      tag_15\n      swap2\n      swap1\n      tag_16\n      jump\t// in\n    tag_15:\n      mload(0x40)\n      dup1\n      swap2\n      sub\n      swap1\n      return\n        /* \"SimpleStorage/Practice2.sol\":233:263  dataSet[] public listOfDataSet */\n    tag_4:\n      tag_17\n      0x04\n      dup1\n      calldatasize\n      sub\n      dup2\n      add\n      swap1\n      tag_18\n      swap2\n      swap1\n      tag_19\n      jump\t// in\n    tag_18:\n      tag_20\n      jump\t// in\n    tag_17:\n      mload(0x40)\n      tag_21\n      swap3\n      swap2\n      swap1\n      tag_22\n      jump\t// in\n    tag_21:\n      mload(0x40)\n      dup1\n      swap2\n      sub\n      swap1\n      return\n        /* \"SimpleStorage/Practice2.sol\":88:105  int256 public num */\n    tag_5:\n      tag_23\n      tag_24\n      jump\t// in\n    tag_23:\n      mload(0x40)\n      tag_25\n      swap2\n      swap1\n      tag_16\n      jump\t// in\n    tag_25:\n      mload(0x40)\n      dup1\n      swap2\n      sub\n      swap1\n      return\n        /* \"SimpleStorage/Practice2.sol\":516:591  function viewNum() public view returns(int256){... */\n    tag_6:\n      tag_26\n      tag_27\n      jump\t// in\n    tag_26:\n      mload(0x40)\n      tag_28\n      swap2\n      swap1\n      tag_16\n      jump\t// in\n    tag_28:\n      mload(0x40)\n      dup1\n      swap2\n      sub\n      swap1\n      return\n        /* \"SimpleStorage/Practice2.sol\":272:336  function setNum(int256 _num) public{... */\n    tag_7:\n      tag_29\n      0x04\n      dup1\n      calldatasize\n      sub\n      dup2\n      add\n      swap1\n      tag_30\n      swap2\n      swap1\n      tag_31\n      jump\t// in\n    tag_30:\n      tag_32\n      jump\t// in\n    tag_29:\n      stop\n        /* \"SimpleStorage/Practice2.sol\":181:224  mapping(string => uint256) public nameToAge */\n    tag_8:\n      tag_33\n      0x04\n      dup1\n      calldatasize\n      sub\n      dup2\n      add\n      swap1\n      tag_34\n      swap2\n      swap1\n      tag_35\n      jump\t// in\n    tag_34:\n      tag_36\n      jump\t// in\n    tag_33:\n      mload(0x40)\n      tag_37\n      swap2\n      swap1\n      tag_38\n      jump\t// in\n    tag_37:\n      mload(0x40)\n      dup1\n      swap2\n      sub\n      swap1\n      return\n        /* \"SimpleStorage/Practice2.sol\":344:484  function addDataSet(string memory _name , uint _age) public{... */\n    tag_9:\n      tag_39\n      0x04\n      dup1\n      calldatasize\n      sub\n      dup2\n      add\n      swap1\n      tag_40\n      swap2\n      swap1\n      tag_41\n      jump\t// in\n    tag_40:\n      tag_42\n      jump\t// in\n    tag_39:\n      stop\n        /* \"SimpleStorage/Practice2.sol\":599:686  function addNum(int a , int b) public pure returns(int256){... */\n    tag_14:\n        /* \"SimpleStorage/Practice2.sol\":650:656  int256 */\n      0x00\n        /* \"SimpleStorage/Practice2.sol\":677:678  b */\n      dup2\n        /* \"SimpleStorage/Practice2.sol\":675:676  a */\n      dup4\n        /* \"SimpleStorage/Practice2.sol\":675:678  a+b */\n      tag_44\n      swap2\n      swap1\n      tag_45\n      jump\t// in\n    tag_44:\n        /* \"SimpleStorage/Practice2.sol\":668:678  return a+b */\n      swap1\n      pop\n        /* \"SimpleStorage/Practice2.sol\":599:686  function addNum(int a , int b) public pure returns(int256){... */\n      swap3\n      swap2\n      pop\n      pop\n      jump\t// out\n        /* \"SimpleStorage/Practice2.sol\":233:263  dataSet[] public listOfDataSet */\n    tag_20:\n      0x02\n      dup2\n      dup2\n      sload\n      dup2\n      lt\n      tag_46\n      jumpi\n      0x00\n      dup1\n      revert\n    tag_46:\n      swap1\n      0x00\n      mstore\n      keccak256(0x00, 0x20)\n      swap1\n      0x02\n      mul\n      add\n      0x00\n      swap2\n      pop\n      swap1\n      pop\n      dup1\n      0x00\n      add\n      dup1\n      sload\n      tag_48\n      swap1\n      tag_49\n      jump\t// in\n    tag_48:\n      dup1\n      0x1f\n      add\n      0x20\n      dup1\n      swap2\n      div\n      mul\n      0x20\n      add\n      mload(0x40)\n      swap1\n      dup2\n      add\n      0x40\n      mstore\n      dup1\n      swap3\n      swap2\n      swap1\n      dup2\n      dup2\n      mstore\n      0x20\n      add\n      dup3\n      dup1\n      sload\n      tag_50\n      swap1\n      tag_49\n      jump\t// in\n    tag_50:\n      dup1\n      iszero\n      tag_51\n      jumpi\n      dup1\n      0x1f\n      lt\n      tag_52\n      jumpi\n      0x0100\n      dup1\n      dup4\n      sload\n      div\n      mul\n      dup4\n      mstore\n      swap2\n      0x20\n      add\n      swap2\n      jump(tag_51)\n    tag_52:\n      dup3\n      add\n      swap2\n      swap1\n      0x00\n      mstore\n      keccak256(0x00, 0x20)\n      swap1\n    tag_53:\n      dup2\n      sload\n      dup2\n      mstore\n      swap1\n      0x01\n      add\n      swap1\n      0x20\n      add\n      dup1\n      dup4\n      gt\n      tag_53\n      jumpi\n      dup3\n      swap1\n      sub\n      0x1f\n      and\n      dup3\n      add\n      swap2\n    tag_51:\n      pop\n      pop\n      pop\n      pop\n      pop\n      swap1\n      dup1\n      0x01\n      add\n      sload\n      swap1\n      pop\n      dup3\n      jump\t// out\n        /* \"SimpleStorage/Practice2.sol\":88:105  int256 public num */\n    tag_24:\n      sload(0x00)\n      dup2\n      jump\t// out\n        /* \"SimpleStorage/Practice2.sol\":516:591  function viewNum() public view returns(int256){... */\n    tag_27:\n        /* \"SimpleStorage/Practice2.sol\":555:561  int256 */\n      0x00\n        /* \"SimpleStorage/Practice2.sol\":580:583  num */\n      sload(0x00)\n        /* \"SimpleStorage/Practice2.sol\":573:583  return num */\n      swap1\n      pop\n        /* \"SimpleStorage/Practice2.sol\":516:591  function viewNum() public view returns(int256){... */\n      swap1\n      jump\t// out\n        /* \"SimpleStorage/Practice2.sol\":272:336  function setNum(int256 _num) public{... */\n    tag_32:\n        /* \"SimpleStorage/Practice2.sol\":324:328  _num */\n      dup1\n        /* \"SimpleStorage/Practice2.sol\":318:321  num */\n      0x00\n        /* \"SimpleStorage/Practice2.sol\":318:328  num = _num */\n      dup2\n      swap1\n      sstore\n      pop\n        /* \"SimpleStorage/Practice2.sol\":272:336  function setNum(int256 _num) public{... */\n      pop\n      jump\t// out\n        /* \"SimpleStorage/Practice2.sol\":181:224  mapping(string => uint256) public nameToAge */\n    tag_36:\n      0x01\n      dup2\n      dup1\n      mload\n      0x20\n      dup2\n      add\n      dup3\n      add\n      dup1\n      mload\n      dup5\n      dup3\n      mstore\n      0x20\n      dup4\n      add\n      0x20\n      dup6\n      add\n      keccak256\n      dup2\n      dup4\n      mstore\n      dup1\n      swap6\n      pop\n      pop\n      pop\n      pop\n      pop\n      pop\n      0x00\n      swap2\n      pop\n      swap1\n      pop\n      sload\n      dup2\n      jump\t// out\n        /* \"SimpleStorage/Practice2.sol\":344:484  function addDataSet(string memory _name , uint _age) public{... */\n    tag_42:\n        /* \"SimpleStorage/Practice2.sol\":410:423  listOfDataSet */\n      0x02\n        /* \"SimpleStorage/Practice2.sol\":429:448  dataSet(_name,_age) */\n      mload(0x40)\n      dup1\n      0x40\n      add\n      0x40\n      mstore\n      dup1\n        /* \"SimpleStorage/Practice2.sol\":437:442  _name */\n      dup5\n        /* \"SimpleStorage/Practice2.sol\":429:448  dataSet(_name,_age) */\n      dup2\n      mstore\n      0x20\n      add\n        /* \"SimpleStorage/Practice2.sol\":443:447  _age */\n      dup4\n        /* \"SimpleStorage/Practice2.sol\":429:448  dataSet(_name,_age) */\n      dup2\n      mstore\n      pop\n        /* \"SimpleStorage/Practice2.sol\":410:449  listOfDataSet.push(dataSet(_name,_age)) */\n      swap1\n      dup1\n      0x01\n      dup2\n      sload\n      add\n      dup1\n      dup3\n      sstore\n      dup1\n      swap2\n      pop\n      pop\n      0x01\n      swap1\n      sub\n      swap1\n      0x00\n      mstore\n      keccak256(0x00, 0x20)\n      swap1\n      0x02\n      mul\n      add\n      0x00\n      swap1\n      swap2\n      swap1\n      swap2\n      swap1\n      swap2\n      pop\n      0x00\n      dup3\n      add\n      mload\n      dup2\n      0x00\n      add\n      swap1\n      dup2\n      tag_58\n      swap2\n      swap1\n      tag_59\n      jump\t// in\n    tag_58:\n      pop\n      0x20\n      dup3\n      add\n      mload\n      dup2\n      0x01\n      add\n      sstore\n      pop\n      pop\n        /* \"SimpleStorage/Practice2.sol\":474:478  _age */\n      dup1\n        /* \"SimpleStorage/Practice2.sol\":455:464  nameToAge */\n      0x01\n        /* \"SimpleStorage/Practice2.sol\":465:470  _name */\n      dup4\n        /* \"SimpleStorage/Practice2.sol\":455:471  nameToAge[_name] */\n      mload(0x40)\n      tag_60\n      swap2\n      swap1\n      tag_61\n      jump\t// in\n    tag_60:\n      swap1\n      dup2\n      mstore\n      0x20\n      add\n      mload(0x40)\n      dup1\n      swap2\n      sub\n      swap1\n      keccak256\n        /* \"SimpleStorage/Practice2.sol\":455:478  nameToAge[_name] = _age */\n      dup2\n      swap1\n      sstore\n      pop\n        /* \"SimpleStorage/Practice2.sol\":344:484  function addDataSet(string memory _name , uint _age) public{... */\n      pop\n      pop\n      jump\t// out\n        /* \"#utility.yul\":7:82   */\n    tag_62:\n        /* \"#utility.yul\":40:46   */\n      0x00\n        /* \"#utility.yul\":73:75   */\n      0x40\n        /* \"#utility.yul\":67:76   */\n      mload\n        /* \"#utility.yul\":57:76   */\n      swap1\n      pop\n        /* \"#utility.yul\":7:82   */\n      swap1\n      jump\t// out\n        /* \"#utility.yul\":88:205   */\n    tag_63:\n        /* \"#utility.yul\":197:198   */\n      0x00\n        /* \"#utility.yul\":194:195   */\n      0x00\n        /* \"#utility.yul\":187:199   */\n      revert\n        /* \"#utility.yul\":211:328   */\n    tag_64:\n        /* \"#utility.yul\":320:321   */\n      0x00\n        /* \"#utility.yul\":317:318   */\n      0x00\n        /* \"#utility.yul\":310:322   */\n      revert\n        /* \"#utility.yul\":334:410   */\n    tag_65:\n        /* \"#utility.yul\":370:377   */\n      0x00\n        /* \"#utility.yul\":399:404   */\n      dup2\n        /* \"#utility.yul\":388:404   */\n      swap1\n      pop\n        /* \"#utility.yul\":334:410   */\n      swap2\n      swap1\n      pop\n      jump\t// out\n        /* \"#utility.yul\":416:536   */\n    tag_66:\n        /* \"#utility.yul\":488:511   */\n      tag_112\n        /* \"#utility.yul\":505:510   */\n      dup2\n        /* \"#utility.yul\":488:511   */\n      tag_65\n      jump\t// in\n    tag_112:\n        /* \"#utility.yul\":481:486   */\n      dup2\n        /* \"#utility.yul\":478:512   */\n      eq\n        /* \"#utility.yul\":468:530   */\n      tag_113\n      jumpi\n        /* \"#utility.yul\":526:527   */\n      0x00\n        /* \"#utility.yul\":523:524   */\n      0x00\n        /* \"#utility.yul\":516:528   */\n      revert\n        /* \"#utility.yul\":468:530   */\n    tag_113:\n        /* \"#utility.yul\":416:536   */\n      pop\n      jump\t// out\n        /* \"#utility.yul\":542:679   */\n    tag_67:\n        /* \"#utility.yul\":587:592   */\n      0x00\n        /* \"#utility.yul\":625:631   */\n      dup2\n        /* \"#utility.yul\":612:632   */\n      calldataload\n        /* \"#utility.yul\":603:632   */\n      swap1\n      pop\n        /* \"#utility.yul\":641:673   */\n      tag_115\n        /* \"#utility.yul\":667:672   */\n      dup2\n        /* \"#utility.yul\":641:673   */\n      tag_66\n      jump\t// in\n    tag_115:\n        /* \"#utility.yul\":542:679   */\n      swap3\n      swap2\n      pop\n      pop\n      jump\t// out\n        /* \"#utility.yul\":685:1155   */\n    tag_13:\n        /* \"#utility.yul\":751:757   */\n      0x00\n        /* \"#utility.yul\":759:765   */\n      0x00\n        /* \"#utility.yul\":808:810   */\n      0x40\n        /* \"#utility.yul\":796:805   */\n      dup4\n        /* \"#utility.yul\":787:794   */\n      dup6\n        /* \"#utility.yul\":783:806   */\n      sub\n        /* \"#utility.yul\":779:811   */\n      slt\n        /* \"#utility.yul\":776:895   */\n      iszero\n      tag_117\n      jumpi\n        /* \"#utility.yul\":814:893   */\n      tag_118\n      tag_63\n      jump\t// in\n    tag_118:\n        /* \"#utility.yul\":776:895   */\n    tag_117:\n        /* \"#utility.yul\":934:935   */\n      0x00\n        /* \"#utility.yul\":959:1011   */\n      tag_119\n        /* \"#utility.yul\":1003:1010   */\n      dup6\n        /* \"#utility.yul\":994:1000   */\n      dup3\n        /* \"#utility.yul\":983:992   */\n      dup7\n        /* \"#utility.yul\":979:1001   */\n      add\n        /* \"#utility.yul\":959:1011   */\n      tag_67\n      jump\t// in\n    tag_119:\n        /* \"#utility.yul\":949:1011   */\n      swap3\n      pop\n        /* \"#utility.yul\":905:1021   */\n      pop\n        /* \"#utility.yul\":1060:1062   */\n      0x20\n        /* \"#utility.yul\":1086:1138   */\n      tag_120\n        /* \"#utility.yul\":1130:1137   */\n      dup6\n        /* \"#utility.yul\":1121:1127   */\n      dup3\n        /* \"#utility.yul\":1110:1119   */\n      dup7\n        /* \"#utility.yul\":1106:1128   */\n      add\n        /* \"#utility.yul\":1086:1138   */\n      tag_67\n      jump\t// in\n    tag_120:\n        /* \"#utility.yul\":1076:1138   */\n      swap2\n      pop\n        /* \"#utility.yul\":1031:1148   */\n      pop\n        /* \"#utility.yul\":685:1155   */\n      swap3\n      pop\n      swap3\n      swap1\n      pop\n      jump\t// out\n        /* \"#utility.yul\":1161:1276   */\n    tag_68:\n        /* \"#utility.yul\":1246:1269   */\n      tag_122\n        /* \"#utility.yul\":1263:1268   */\n      dup2\n        /* \"#utility.yul\":1246:1269   */\n      tag_65\n      jump\t// in\n    tag_122:\n        /* \"#utility.yul\":1241:1244   */\n      dup3\n        /* \"#utility.yul\":1234:1270   */\n      mstore\n        /* \"#utility.yul\":1161:1276   */\n      pop\n      pop\n      jump\t// out\n        /* \"#utility.yul\":1282:1500   */\n    tag_16:\n        /* \"#utility.yul\":1373:1377   */\n      0x00\n        /* \"#utility.yul\":1411:1413   */\n      0x20\n        /* \"#utility.yul\":1400:1409   */\n      dup3\n        /* \"#utility.yul\":1396:1414   */\n      add\n        /* \"#utility.yul\":1388:1414   */\n      swap1\n      pop\n        /* \"#utility.yul\":1424:1493   */\n      tag_124\n        /* \"#utility.yul\":1490:1491   */\n      0x00\n        /* \"#utility.yul\":1479:1488   */\n      dup4\n        /* \"#utility.yul\":1475:1492   */\n      add\n        /* \"#utility.yul\":1466:1472   */\n      dup5\n        /* \"#utility.yul\":1424:1493   */\n      tag_68\n      jump\t// in\n    tag_124:\n        /* \"#utility.yul\":1282:1500   */\n      swap3\n      swap2\n      pop\n      pop\n      jump\t// out\n        /* \"#utility.yul\":1506:1583   */\n    tag_69:\n        /* \"#utility.yul\":1543:1550   */\n      0x00\n        /* \"#utility.yul\":1572:1577   */\n      dup2\n        /* \"#utility.yul\":1561:1577   */\n      swap1\n      pop\n        /* \"#utility.yul\":1506:1583   */\n      swap2\n      swap1\n      pop\n      jump\t// out\n        /* \"#utility.yul\":1589:1711   */\n    tag_70:\n        /* \"#utility.yul\":1662:1686   */\n      tag_127\n        /* \"#utility.yul\":1680:1685   */\n      dup2\n        /* \"#utility.yul\":1662:1686   */\n      tag_69\n      jump\t// in\n    tag_127:\n        /* \"#utility.yul\":1655:1660   */\n      dup2\n        /* \"#utility.yul\":1652:1687   */\n      eq\n        /* \"#utility.yul\":1642:1705   */\n      tag_128\n      jumpi\n        /* \"#utility.yul\":1701:1702   */\n      0x00\n        /* \"#utility.yul\":1698:1699   */\n      0x00\n        /* \"#utility.yul\":1691:1703   */\n      revert\n        /* \"#utility.yul\":1642:1705   */\n    tag_128:\n        /* \"#utility.yul\":1589:1711   */\n      pop\n      jump\t// out\n        /* \"#utility.yul\":1717:1856   */\n    tag_71:\n        /* \"#utility.yul\":1763:1768   */\n      0x00\n        /* \"#utility.yul\":1801:1807   */\n      dup2\n        /* \"#utility.yul\":1788:1808   */\n      calldataload\n        /* \"#utility.yul\":1779:1808   */\n      swap1\n      pop\n        /* \"#utility.yul\":1817:1850   */\n      tag_130\n        /* \"#utility.yul\":1844:1849   */\n      dup2\n        /* \"#utility.yul\":1817:1850   */\n      tag_70\n      jump\t// in\n    tag_130:\n        /* \"#utility.yul\":1717:1856   */\n      swap3\n      swap2\n      pop\n      pop\n      jump\t// out\n        /* \"#utility.yul\":1862:2191   */\n    tag_19:\n        /* \"#utility.yul\":1921:1927   */\n      0x00\n        /* \"#utility.yul\":1970:1972   */\n      0x20\n        /* \"#utility.yul\":1958:1967   */\n      dup3\n        /* \"#utility.yul\":1949:1956   */\n      dup5\n        /* \"#utility.yul\":1945:1968   */\n      sub\n        /* \"#utility.yul\":1941:1973   */\n      slt\n        /* \"#utility.yul\":1938:2057   */\n      iszero\n      tag_132\n      jumpi\n        /* \"#utility.yul\":1976:2055   */\n      tag_133\n      tag_63\n      jump\t// in\n    tag_133:\n        /* \"#utility.yul\":1938:2057   */\n    tag_132:\n        /* \"#utility.yul\":2096:2097   */\n      0x00\n        /* \"#utility.yul\":2121:2174   */\n      tag_134\n        /* \"#utility.yul\":2166:2173   */\n      dup5\n        /* \"#utility.yul\":2157:2163   */\n      dup3\n        /* \"#utility.yul\":2146:2155   */\n      dup6\n        /* \"#utility.yul\":2142:2164   */\n      add\n        /* \"#utility.yul\":2121:2174   */\n      tag_71\n      jump\t// in\n    tag_134:\n        /* \"#utility.yul\":2111:2174   */\n      swap2\n      pop\n        /* \"#utility.yul\":2067:2184   */\n      pop\n        /* \"#utility.yul\":1862:2191   */\n      swap3\n      swap2\n      pop\n      pop\n      jump\t// out\n        /* \"#utility.yul\":2197:2296   */\n    tag_72:\n        /* \"#utility.yul\":2249:2255   */\n      0x00\n        /* \"#utility.yul\":2283:2288   */\n      dup2\n        /* \"#utility.yul\":2277:2289   */\n      mload\n        /* \"#utility.yul\":2267:2289   */\n      swap1\n      pop\n        /* \"#utility.yul\":2197:2296   */\n      swap2\n      swap1\n      pop\n      jump\t// out\n        /* \"#utility.yul\":2302:2471   */\n    tag_73:\n        /* \"#utility.yul\":2386:2397   */\n      0x00\n        /* \"#utility.yul\":2420:2426   */\n      dup3\n        /* \"#utility.yul\":2415:2418   */\n      dup3\n        /* \"#utility.yul\":2408:2427   */\n      mstore\n        /* \"#utility.yul\":2460:2464   */\n      0x20\n        /* \"#utility.yul\":2455:2458   */\n      dup3\n        /* \"#utility.yul\":2451:2465   */\n      add\n        /* \"#utility.yul\":2436:2465   */\n      swap1\n      pop\n        /* \"#utility.yul\":2302:2471   */\n      swap3\n      swap2\n      pop\n      pop\n      jump\t// out\n        /* \"#utility.yul\":2477:2616   */\n    tag_74:\n        /* \"#utility.yul\":2566:2572   */\n      dup3\n        /* \"#utility.yul\":2561:2564   */\n      dup2\n        /* \"#utility.yul\":2556:2559   */\n      dup4\n        /* \"#utility.yul\":2550:2573   */\n      mcopy\n        /* \"#utility.yul\":2607:2608   */\n      0x00\n        /* \"#utility.yul\":2598:2604   */\n      dup4\n        /* \"#utility.yul\":2593:2596   */\n      dup4\n        /* \"#utility.yul\":2589:2605   */\n      add\n        /* \"#utility.yul\":2582:2609   */\n      mstore\n        /* \"#utility.yul\":2477:2616   */\n      pop\n      pop\n      pop\n      jump\t// out\n        /* \"#utility.yul\":2622:2724   */\n    tag_75:\n        /* \"#utility.yul\":2663:2669   */\n      0x00\n        /* \"#utility.yul\":2714:2716   */\n      0x1f\n        /* \"#utility.yul\":2710:2717   */\n      not\n        /* \"#utility.yul\":2705:2707   */\n      0x1f\n        /* \"#utility.yul\":2698:2703   */\n      dup4\n        /* \"#utility.yul\":2694:2708   */\n      add\n        /* \"#utility.yul\":2690:2718   */\n      and\n        /* \"#utility.yul\":2680:2718   */\n      swap1\n      pop\n        /* \"#utility.yul\":2622:2724   */\n      swap2\n      swap1\n      pop\n      jump\t// out\n        /* \"#utility.yul\":2730:3107   */\n    tag_76:\n        /* \"#utility.yul\":2818:2821   */\n      0x00\n        /* \"#utility.yul\":2846:2885   */\n      tag_140\n        /* \"#utility.yul\":2879:2884   */\n      dup3\n        /* \"#utility.yul\":2846:2885   */\n      tag_72\n      jump\t// in\n    tag_140:\n        /* \"#utility.yul\":2901:2972   */\n      tag_141\n        /* \"#utility.yul\":2965:2971   */\n      dup2\n        /* \"#utility.yul\":2960:2963   */\n      dup6\n        /* \"#utility.yul\":2901:2972   */\n      tag_73\n      jump\t// in\n    tag_141:\n        /* \"#utility.yul\":2894:2972   */\n      swap4\n      pop\n        /* \"#utility.yul\":2981:3046   */\n      tag_142\n        /* \"#utility.yul\":3039:3045   */\n      dup2\n        /* \"#utility.yul\":3034:3037   */\n      dup6\n        /* \"#utility.yul\":3027:3031   */\n      0x20\n        /* \"#utility.yul\":3020:3025   */\n      dup7\n        /* \"#utility.yul\":3016:3032   */\n      add\n        /* \"#utility.yul\":2981:3046   */\n      tag_74\n      jump\t// in\n    tag_142:\n        /* \"#utility.yul\":3071:3100   */\n      tag_143\n        /* \"#utility.yul\":3093:3099   */\n      dup2\n        /* \"#utility.yul\":3071:3100   */\n      tag_75\n      jump\t// in\n    tag_143:\n        /* \"#utility.yul\":3066:3069   */\n      dup5\n        /* \"#utility.yul\":3062:3101   */\n      add\n        /* \"#utility.yul\":3055:3101   */\n      swap2\n      pop\n        /* \"#utility.yul\":2822:3107   */\n      pop\n        /* \"#utility.yul\":2730:3107   */\n      swap3\n      swap2\n      pop\n      pop\n      jump\t// out\n        /* \"#utility.yul\":3113:3231   */\n    tag_77:\n        /* \"#utility.yul\":3200:3224   */\n      tag_145\n        /* \"#utility.yul\":3218:3223   */\n      dup2\n        /* \"#utility.yul\":3200:3224   */\n      tag_69\n      jump\t// in\n    tag_145:\n        /* \"#utility.yul\":3195:3198   */\n      dup3\n        /* \"#utility.yul\":3188:3225   */\n      mstore\n        /* \"#utility.yul\":3113:3231   */\n      pop\n      pop\n      jump\t// out\n        /* \"#utility.yul\":3237:3660   */\n    tag_22:\n        /* \"#utility.yul\":3378:3382   */\n      0x00\n        /* \"#utility.yul\":3416:3418   */\n      0x40\n        /* \"#utility.yul\":3405:3414   */\n      dup3\n        /* \"#utility.yul\":3401:3419   */\n      add\n        /* \"#utility.yul\":3393:3419   */\n      swap1\n      pop\n        /* \"#utility.yul\":3465:3474   */\n      dup2\n        /* \"#utility.yul\":3459:3463   */\n      dup2\n        /* \"#utility.yul\":3455:3475   */\n      sub\n        /* \"#utility.yul\":3451:3452   */\n      0x00\n        /* \"#utility.yul\":3440:3449   */\n      dup4\n        /* \"#utility.yul\":3436:3453   */\n      add\n        /* \"#utility.yul\":3429:3476   */\n      mstore\n        /* \"#utility.yul\":3493:3571   */\n      tag_147\n        /* \"#utility.yul\":3566:3570   */\n      dup2\n        /* \"#utility.yul\":3557:3563   */\n      dup6\n        /* \"#utility.yul\":3493:3571   */\n      tag_76\n      jump\t// in\n    tag_147:\n        /* \"#utility.yul\":3485:3571   */\n      swap1\n      pop\n        /* \"#utility.yul\":3581:3653   */\n      tag_148\n        /* \"#utility.yul\":3649:3651   */\n      0x20\n        /* \"#utility.yul\":3638:3647   */\n      dup4\n        /* \"#utility.yul\":3634:3652   */\n      add\n        /* \"#utility.yul\":3625:3631   */\n      dup5\n        /* \"#utility.yul\":3581:3653   */\n      tag_77\n      jump\t// in\n    tag_148:\n        /* \"#utility.yul\":3237:3660   */\n      swap4\n      swap3\n      pop\n      pop\n      pop\n      jump\t// out\n        /* \"#utility.yul\":3666:3993   */\n    tag_31:\n        /* \"#utility.yul\":3724:3730   */\n      0x00\n        /* \"#utility.yul\":3773:3775   */\n      0x20\n        /* \"#utility.yul\":3761:3770   */\n      dup3\n        /* \"#utility.yul\":3752:3759   */\n      dup5\n        /* \"#utility.yul\":3748:3771   */\n      sub\n        /* \"#utility.yul\":3744:3776   */\n      slt\n        /* \"#utility.yul\":3741:3860   */\n      iszero\n      tag_150\n      jumpi\n        /* \"#utility.yul\":3779:3858   */\n      tag_151\n      tag_63\n      jump\t// in\n    tag_151:\n        /* \"#utility.yul\":3741:3860   */\n    tag_150:\n        /* \"#utility.yul\":3899:3900   */\n      0x00\n        /* \"#utility.yul\":3924:3976   */\n      tag_152\n        /* \"#utility.yul\":3968:3975   */\n      dup5\n        /* \"#utility.yul\":3959:3965   */\n      dup3\n        /* \"#utility.yul\":3948:3957   */\n      dup6\n        /* \"#utility.yul\":3944:3966   */\n      add\n        /* \"#utility.yul\":3924:3976   */\n      tag_67\n      jump\t// in\n    tag_152:\n        /* \"#utility.yul\":3914:3976   */\n      swap2\n      pop\n        /* \"#utility.yul\":3870:3986   */\n      pop\n        /* \"#utility.yul\":3666:3993   */\n      swap3\n      swap2\n      pop\n      pop\n      jump\t// out\n        /* \"#utility.yul\":3999:4116   */\n    tag_78:\n        /* \"#utility.yul\":4108:4109   */\n      0x00\n        /* \"#utility.yul\":4105:4106   */\n      0x00\n        /* \"#utility.yul\":4098:4110   */\n      revert\n        /* \"#utility.yul\":4122:4239   */\n    tag_79:\n        /* \"#utility.yul\":4231:4232   */\n      0x00\n        /* \"#utility.yul\":4228:4229   */\n      0x00\n        /* \"#utility.yul\":4221:4233   */\n      revert\n        /* \"#utility.yul\":4245:4425   */\n    tag_80:\n        /* \"#utility.yul\":4293:4370   */\n      0x4e487b7100000000000000000000000000000000000000000000000000000000\n        /* \"#utility.yul\":4290:4291   */\n      0x00\n        /* \"#utility.yul\":4283:4371   */\n      mstore\n        /* \"#utility.yul\":4390:4394   */\n      0x41\n        /* \"#utility.yul\":4387:4388   */\n      0x04\n        /* \"#utility.yul\":4380:4395   */\n      mstore\n        /* \"#utility.yul\":4414:4418   */\n      0x24\n        /* \"#utility.yul\":4411:4412   */\n      0x00\n        /* \"#utility.yul\":4404:4419   */\n      revert\n        /* \"#utility.yul\":4431:4712   */\n    tag_81:\n        /* \"#utility.yul\":4514:4541   */\n      tag_157\n        /* \"#utility.yul\":4536:4540   */\n      dup3\n        /* \"#utility.yul\":4514:4541   */\n      tag_75\n      jump\t// in\n    tag_157:\n        /* \"#utility.yul\":4506:4512   */\n      dup2\n        /* \"#utility.yul\":4502:4542   */\n      add\n        /* \"#utility.yul\":4644:4650   */\n      dup2\n        /* \"#utility.yul\":4632:4642   */\n      dup2\n        /* \"#utility.yul\":4629:4651   */\n      lt\n        /* \"#utility.yul\":4608:4626   */\n      0xffffffffffffffff\n        /* \"#utility.yul\":4596:4606   */\n      dup3\n        /* \"#utility.yul\":4593:4627   */\n      gt\n        /* \"#utility.yul\":4590:4652   */\n      or\n        /* \"#utility.yul\":4587:4675   */\n      iszero\n      tag_158\n      jumpi\n        /* \"#utility.yul\":4655:4673   */\n      tag_159\n      tag_80\n      jump\t// in\n    tag_159:\n        /* \"#utility.yul\":4587:4675   */\n    tag_158:\n        /* \"#utility.yul\":4695:4705   */\n      dup1\n        /* \"#utility.yul\":4691:4693   */\n      0x40\n        /* \"#utility.yul\":4684:4706   */\n      mstore\n        /* \"#utility.yul\":4474:4712   */\n      pop\n        /* \"#utility.yul\":4431:4712   */\n      pop\n      pop\n      jump\t// out\n        /* \"#utility.yul\":4718:4847   */\n    tag_82:\n        /* \"#utility.yul\":4752:4758   */\n      0x00\n        /* \"#utility.yul\":4779:4799   */\n      tag_161\n      tag_62\n      jump\t// in\n    tag_161:\n        /* \"#utility.yul\":4769:4799   */\n      swap1\n      pop\n        /* \"#utility.yul\":4808:4841   */\n      tag_162\n        /* \"#utility.yul\":4836:4840   */\n      dup3\n        /* \"#utility.yul\":4828:4834   */\n      dup3\n        /* \"#utility.yul\":4808:4841   */\n      tag_81\n      jump\t// in\n    tag_162:\n        /* \"#utility.yul\":4718:4847   */\n      swap2\n      swap1\n      pop\n      jump\t// out\n        /* \"#utility.yul\":4853:5161   */\n    tag_83:\n        /* \"#utility.yul\":4915:4919   */\n      0x00\n        /* \"#utility.yul\":5005:5023   */\n      0xffffffffffffffff\n        /* \"#utility.yul\":4997:5003   */\n      dup3\n        /* \"#utility.yul\":4994:5024   */\n      gt\n        /* \"#utility.yul\":4991:5047   */\n      iszero\n      tag_164\n      jumpi\n        /* \"#utility.yul\":5027:5045   */\n      tag_165\n      tag_80\n      jump\t// in\n    tag_165:\n        /* \"#utility.yul\":4991:5047   */\n    tag_164:\n        /* \"#utility.yul\":5065:5094   */\n      tag_166\n        /* \"#utility.yul\":5087:5093   */\n      dup3\n        /* \"#utility.yul\":5065:5094   */\n      tag_75\n      jump\t// in\n    tag_166:\n        /* \"#utility.yul\":5057:5094   */\n      swap1\n      pop\n        /* \"#utility.yul\":5149:5153   */\n      0x20\n        /* \"#utility.yul\":5143:5147   */\n      dup2\n        /* \"#utility.yul\":5139:5154   */\n      add\n        /* \"#utility.yul\":5131:5154   */\n      swap1\n      pop\n        /* \"#utility.yul\":4853:5161   */\n      swap2\n      swap1\n      pop\n      jump\t// out\n        /* \"#utility.yul\":5167:5315   */\n    tag_84:\n        /* \"#utility.yul\":5265:5271   */\n      dup3\n        /* \"#utility.yul\":5260:5263   */\n      dup2\n        /* \"#utility.yul\":5255:5258   */\n      dup4\n        /* \"#utility.yul\":5242:5272   */\n      calldatacopy\n        /* \"#utility.yul\":5306:5307   */\n      0x00\n        /* \"#utility.yul\":5297:5303   */\n      dup4\n        /* \"#utility.yul\":5292:5295   */\n      dup4\n        /* \"#utility.yul\":5288:5304   */\n      add\n        /* \"#utility.yul\":5281:5308   */\n      mstore\n        /* \"#utility.yul\":5167:5315   */\n      pop\n      pop\n      pop\n      jump\t// out\n        /* \"#utility.yul\":5321:5746   */\n    tag_85:\n        /* \"#utility.yul\":5399:5404   */\n      0x00\n        /* \"#utility.yul\":5424:5490   */\n      tag_169\n        /* \"#utility.yul\":5440:5489   */\n      tag_170\n        /* \"#utility.yul\":5482:5488   */\n      dup5\n        /* \"#utility.yul\":5440:5489   */\n      tag_83\n      jump\t// in\n    tag_170:\n        /* \"#utility.yul\":5424:5490   */\n      tag_82\n      jump\t// in\n    tag_169:\n        /* \"#utility.yul\":5415:5490   */\n      swap1\n      pop\n        /* \"#utility.yul\":5513:5519   */\n      dup3\n        /* \"#utility.yul\":5506:5511   */\n      dup2\n        /* \"#utility.yul\":5499:5520   */\n      mstore\n        /* \"#utility.yul\":5551:5555   */\n      0x20\n        /* \"#utility.yul\":5544:5549   */\n      dup2\n        /* \"#utility.yul\":5540:5556   */\n      add\n        /* \"#utility.yul\":5589:5592   */\n      dup5\n        /* \"#utility.yul\":5580:5586   */\n      dup5\n        /* \"#utility.yul\":5575:5578   */\n      dup5\n        /* \"#utility.yul\":5571:5587   */\n      add\n        /* \"#utility.yul\":5568:5593   */\n      gt\n        /* \"#utility.yul\":5565:5677   */\n      iszero\n      tag_171\n      jumpi\n        /* \"#utility.yul\":5596:5675   */\n      tag_172\n      tag_79\n      jump\t// in\n    tag_172:\n        /* \"#utility.yul\":5565:5677   */\n    tag_171:\n        /* \"#utility.yul\":5686:5740   */\n      tag_173\n        /* \"#utility.yul\":5733:5739   */\n      dup5\n        /* \"#utility.yul\":5728:5731   */\n      dup3\n        /* \"#utility.yul\":5723:5726   */\n      dup6\n        /* \"#utility.yul\":5686:5740   */\n      tag_84\n      jump\t// in\n    tag_173:\n        /* \"#utility.yul\":5405:5746   */\n      pop\n        /* \"#utility.yul\":5321:5746   */\n      swap4\n      swap3\n      pop\n      pop\n      pop\n      jump\t// out\n        /* \"#utility.yul\":5766:6106   */\n    tag_86:\n        /* \"#utility.yul\":5822:5827   */\n      0x00\n        /* \"#utility.yul\":5871:5874   */\n      dup3\n        /* \"#utility.yul\":5864:5868   */\n      0x1f\n        /* \"#utility.yul\":5856:5862   */\n      dup4\n        /* \"#utility.yul\":5852:5869   */\n      add\n        /* \"#utility.yul\":5848:5875   */\n      slt\n        /* \"#utility.yul\":5838:5960   */\n      tag_175\n      jumpi\n        /* \"#utility.yul\":5879:5958   */\n      tag_176\n      tag_78\n      jump\t// in\n    tag_176:\n        /* \"#utility.yul\":5838:5960   */\n    tag_175:\n        /* \"#utility.yul\":5996:6002   */\n      dup2\n        /* \"#utility.yul\":5983:6003   */\n      calldataload\n        /* \"#utility.yul\":6021:6100   */\n      tag_177\n        /* \"#utility.yul\":6096:6099   */\n      dup5\n        /* \"#utility.yul\":6088:6094   */\n      dup3\n        /* \"#utility.yul\":6081:6085   */\n      0x20\n        /* \"#utility.yul\":6073:6079   */\n      dup7\n        /* \"#utility.yul\":6069:6086   */\n      add\n        /* \"#utility.yul\":6021:6100   */\n      tag_85\n      jump\t// in\n    tag_177:\n        /* \"#utility.yul\":6012:6100   */\n      swap2\n      pop\n        /* \"#utility.yul\":5828:6106   */\n      pop\n        /* \"#utility.yul\":5766:6106   */\n      swap3\n      swap2\n      pop\n      pop\n      jump\t// out\n        /* \"#utility.yul\":6112:6621   */\n    tag_35:\n        /* \"#utility.yul\":6181:6187   */\n      0x00\n        /* \"#utility.yul\":6230:6232   */\n      0x20\n        /* \"#utility.yul\":6218:6227   */\n      dup3\n        /* \"#utility.yul\":6209:6216   */\n      dup5\n        /* \"#utility.yul\":6205:6228   */\n      sub\n        /* \"#utility.yul\":6201:6233   */\n      slt\n        /* \"#utility.yul\":6198:6317   */\n      iszero\n      tag_179\n      jumpi\n        /* \"#utility.yul\":6236:6315   */\n      tag_180\n      tag_63\n      jump\t// in\n    tag_180:\n        /* \"#utility.yul\":6198:6317   */\n    tag_179:\n        /* \"#utility.yul\":6384:6385   */\n      0x00\n        /* \"#utility.yul\":6373:6382   */\n      dup3\n        /* \"#utility.yul\":6369:6386   */\n      add\n        /* \"#utility.yul\":6356:6387   */\n      calldataload\n        /* \"#utility.yul\":6414:6432   */\n      0xffffffffffffffff\n        /* \"#utility.yul\":6406:6412   */\n      dup2\n        /* \"#utility.yul\":6403:6433   */\n      gt\n        /* \"#utility.yul\":6400:6517   */\n      iszero\n      tag_181\n      jumpi\n        /* \"#utility.yul\":6436:6515   */\n      tag_182\n      tag_64\n      jump\t// in\n    tag_182:\n        /* \"#utility.yul\":6400:6517   */\n    tag_181:\n        /* \"#utility.yul\":6541:6604   */\n      tag_183\n        /* \"#utility.yul\":6596:6603   */\n      dup5\n        /* \"#utility.yul\":6587:6593   */\n      dup3\n        /* \"#utility.yul\":6576:6585   */\n      dup6\n        /* \"#utility.yul\":6572:6594   */\n      add\n        /* \"#utility.yul\":6541:6604   */\n      tag_86\n      jump\t// in\n    tag_183:\n        /* \"#utility.yul\":6531:6604   */\n      swap2\n      pop\n        /* \"#utility.yul\":6327:6614   */\n      pop\n        /* \"#utility.yul\":6112:6621   */\n      swap3\n      swap2\n      pop\n      pop\n      jump\t// out\n        /* \"#utility.yul\":6627:6849   */\n    tag_38:\n        /* \"#utility.yul\":6720:6724   */\n      0x00\n        /* \"#utility.yul\":6758:6760   */\n      0x20\n        /* \"#utility.yul\":6747:6756   */\n      dup3\n        /* \"#utility.yul\":6743:6761   */\n      add\n        /* \"#utility.yul\":6735:6761   */\n      swap1\n      pop\n        /* \"#utility.yul\":6771:6842   */\n      tag_185\n        /* \"#utility.yul\":6839:6840   */\n      0x00\n        /* \"#utility.yul\":6828:6837   */\n      dup4\n        /* \"#utility.yul\":6824:6841   */\n      add\n        /* \"#utility.yul\":6815:6821   */\n      dup5\n        /* \"#utility.yul\":6771:6842   */\n      tag_77\n      jump\t// in\n    tag_185:\n        /* \"#utility.yul\":6627:6849   */\n      swap3\n      swap2\n      pop\n      pop\n      jump\t// out\n        /* \"#utility.yul\":6855:7509   */\n    tag_41:\n        /* \"#utility.yul\":6933:6939   */\n      0x00\n        /* \"#utility.yul\":6941:6947   */\n      0x00\n        /* \"#utility.yul\":6990:6992   */\n      0x40\n        /* \"#utility.yul\":6978:6987   */\n      dup4\n        /* \"#utility.yul\":6969:6976   */\n      dup6\n        /* \"#utility.yul\":6965:6988   */\n      sub\n        /* \"#utility.yul\":6961:6993   */\n      slt\n        /* \"#utility.yul\":6958:7077   */\n      iszero\n      tag_187\n      jumpi\n        /* \"#utility.yul\":6996:7075   */\n      tag_188\n      tag_63\n      jump\t// in\n    tag_188:\n        /* \"#utility.yul\":6958:7077   */\n    tag_187:\n        /* \"#utility.yul\":7144:7145   */\n      0x00\n        /* \"#utility.yul\":7133:7142   */\n      dup4\n        /* \"#utility.yul\":7129:7146   */\n      add\n        /* \"#utility.yul\":7116:7147   */\n      calldataload\n        /* \"#utility.yul\":7174:7192   */\n      0xffffffffffffffff\n        /* \"#utility.yul\":7166:7172   */\n      dup2\n        /* \"#utility.yul\":7163:7193   */\n      gt\n        /* \"#utility.yul\":7160:7277   */\n      iszero\n      tag_189\n      jumpi\n        /* \"#utility.yul\":7196:7275   */\n      tag_190\n      tag_64\n      jump\t// in\n    tag_190:\n        /* \"#utility.yul\":7160:7277   */\n    tag_189:\n        /* \"#utility.yul\":7301:7364   */\n      tag_191\n        /* \"#utility.yul\":7356:7363   */\n      dup6\n        /* \"#utility.yul\":7347:7353   */\n      dup3\n        /* \"#utility.yul\":7336:7345   */\n      dup7\n        /* \"#utility.yul\":7332:7354   */\n      add\n        /* \"#utility.yul\":7301:7364   */\n      tag_86\n      jump\t// in\n    tag_191:\n        /* \"#utility.yul\":7291:7364   */\n      swap3\n      pop\n        /* \"#utility.yul\":7087:7374   */\n      pop\n        /* \"#utility.yul\":7413:7415   */\n      0x20\n        /* \"#utility.yul\":7439:7492   */\n      tag_192\n        /* \"#utility.yul\":7484:7491   */\n      dup6\n        /* \"#utility.yul\":7475:7481   */\n      dup3\n        /* \"#utility.yul\":7464:7473   */\n      dup7\n        /* \"#utility.yul\":7460:7482   */\n      add\n        /* \"#utility.yul\":7439:7492   */\n      tag_71\n      jump\t// in\n    tag_192:\n        /* \"#utility.yul\":7429:7492   */\n      swap2\n      pop\n        /* \"#utility.yul\":7384:7502   */\n      pop\n        /* \"#utility.yul\":6855:7509   */\n      swap3\n      pop\n      swap3\n      swap1\n      pop\n      jump\t// out\n        /* \"#utility.yul\":7515:7695   */\n    tag_87:\n        /* \"#utility.yul\":7563:7640   */\n      0x4e487b7100000000000000000000000000000000000000000000000000000000\n        /* \"#utility.yul\":7560:7561   */\n      0x00\n        /* \"#utility.yul\":7553:7641   */\n      mstore\n        /* \"#utility.yul\":7660:7664   */\n      0x11\n        /* \"#utility.yul\":7657:7658   */\n      0x04\n        /* \"#utility.yul\":7650:7665   */\n      mstore\n        /* \"#utility.yul\":7684:7688   */\n      0x24\n        /* \"#utility.yul\":7681:7682   */\n      0x00\n        /* \"#utility.yul\":7674:7689   */\n      revert\n        /* \"#utility.yul\":7701:8076   */\n    tag_45:\n        /* \"#utility.yul\":7740:7743   */\n      0x00\n        /* \"#utility.yul\":7759:7778   */\n      tag_195\n        /* \"#utility.yul\":7776:7777   */\n      dup3\n        /* \"#utility.yul\":7759:7778   */\n      tag_65\n      jump\t// in\n    tag_195:\n        /* \"#utility.yul\":7754:7778   */\n      swap2\n      pop\n        /* \"#utility.yul\":7792:7811   */\n      tag_196\n        /* \"#utility.yul\":7809:7810   */\n      dup4\n        /* \"#utility.yul\":7792:7811   */\n      tag_65\n      jump\t// in\n    tag_196:\n        /* \"#utility.yul\":7787:7811   */\n      swap3\n      pop\n        /* \"#utility.yul\":7834:7835   */\n      dup3\n        /* \"#utility.yul\":7831:7832   */\n      dup3\n        /* \"#utility.yul\":7827:7836   */\n      add\n        /* \"#utility.yul\":7820:7836   */\n      swap1\n      pop\n        /* \"#utility.yul\":8032:8033   */\n      dup3\n        /* \"#utility.yul\":8027:8030   */\n      dup2\n        /* \"#utility.yul\":8023:8034   */\n      slt\n        /* \"#utility.yul\":8016:8035   */\n      iszero\n        /* \"#utility.yul\":8012:8013   */\n      0x00\n        /* \"#utility.yul\":8009:8010   */\n      dup4\n        /* \"#utility.yul\":8005:8014   */\n      slt\n        /* \"#utility.yul\":8001:8036   */\n      and\n        /* \"#utility.yul\":7984:7985   */\n      dup4\n        /* \"#utility.yul\":7979:7982   */\n      dup3\n        /* \"#utility.yul\":7975:7986   */\n      slt\n        /* \"#utility.yul\":7970:7971   */\n      0x00\n        /* \"#utility.yul\":7967:7968   */\n      dup5\n        /* \"#utility.yul\":7963:7972   */\n      slt\n        /* \"#utility.yul\":7956:7973   */\n      iszero\n        /* \"#utility.yul\":7952:7987   */\n      and\n        /* \"#utility.yul\":7936:8046   */\n      or\n        /* \"#utility.yul\":7933:8069   */\n      iszero\n      tag_197\n      jumpi\n        /* \"#utility.yul\":8049:8067   */\n      tag_198\n      tag_87\n      jump\t// in\n    tag_198:\n        /* \"#utility.yul\":7933:8069   */\n    tag_197:\n        /* \"#utility.yul\":7701:8076   */\n      swap3\n      swap2\n      pop\n      pop\n      jump\t// out\n        /* \"#utility.yul\":8082:8262   */\n    tag_88:\n        /* \"#utility.yul\":8130:8207   */\n      0x4e487b7100000000000000000000000000000000000000000000000000000000\n        /* \"#utility.yul\":8127:8128   */\n      0x00\n        /* \"#utility.yul\":8120:8208   */\n      mstore\n        /* \"#utility.yul\":8227:8231   */\n      0x22\n        /* \"#utility.yul\":8224:8225   */\n      0x04\n        /* \"#utility.yul\":8217:8232   */\n      mstore\n        /* \"#utility.yul\":8251:8255   */\n      0x24\n        /* \"#utility.yul\":8248:8249   */\n      0x00\n        /* \"#utility.yul\":8241:8256   */\n      revert\n        /* \"#utility.yul\":8268:8588   */\n    tag_49:\n        /* \"#utility.yul\":8312:8318   */\n      0x00\n        /* \"#utility.yul\":8349:8350   */\n      0x02\n        /* \"#utility.yul\":8343:8347   */\n      dup3\n        /* \"#utility.yul\":8339:8351   */\n      div\n        /* \"#utility.yul\":8329:8351   */\n      swap1\n      pop\n        /* \"#utility.yul\":8396:8397   */\n      0x01\n        /* \"#utility.yul\":8390:8394   */\n      dup3\n        /* \"#utility.yul\":8386:8398   */\n      and\n        /* \"#utility.yul\":8417:8435   */\n      dup1\n        /* \"#utility.yul\":8407:8488   */\n      tag_201\n      jumpi\n        /* \"#utility.yul\":8473:8477   */\n      0x7f\n        /* \"#utility.yul\":8465:8471   */\n      dup3\n        /* \"#utility.yul\":8461:8478   */\n      and\n        /* \"#utility.yul\":8451:8478   */\n      swap2\n      pop\n        /* \"#utility.yul\":8407:8488   */\n    tag_201:\n        /* \"#utility.yul\":8535:8537   */\n      0x20\n        /* \"#utility.yul\":8527:8533   */\n      dup3\n        /* \"#utility.yul\":8524:8538   */\n      lt\n        /* \"#utility.yul\":8504:8522   */\n      dup2\n        /* \"#utility.yul\":8501:8539   */\n      sub\n        /* \"#utility.yul\":8498:8582   */\n      tag_202\n      jumpi\n        /* \"#utility.yul\":8554:8572   */\n      tag_203\n      tag_88\n      jump\t// in\n    tag_203:\n        /* \"#utility.yul\":8498:8582   */\n    tag_202:\n        /* \"#utility.yul\":8319:8588   */\n      pop\n        /* \"#utility.yul\":8268:8588   */\n      swap2\n      swap1\n      pop\n      jump\t// out\n        /* \"#utility.yul\":8594:8735   */\n    tag_89:\n        /* \"#utility.yul\":8643:8647   */\n      0x00\n        /* \"#utility.yul\":8666:8669   */\n      dup2\n        /* \"#utility.yul\":8658:8669   */\n      swap1\n      pop\n        /* \"#utility.yul\":8689:8692   */\n      dup2\n        /* \"#utility.yul\":8686:8687   */\n      0x00\n        /* \"#utility.yul\":8679:8693   */\n      mstore\n        /* \"#utility.yul\":8723:8727   */\n      0x20\n        /* \"#utility.yul\":8720:8721   */\n      0x00\n        /* \"#utility.yul\":8710:8728   */\n      keccak256\n        /* \"#utility.yul\":8702:8728   */\n      swap1\n      pop\n        /* \"#utility.yul\":8594:8735   */\n      swap2\n      swap1\n      pop\n      jump\t// out\n        /* \"#utility.yul\":8741:8834   */\n    tag_90:\n        /* \"#utility.yul\":8778:8784   */\n      0x00\n        /* \"#utility.yul\":8825:8827   */\n      0x20\n        /* \"#utility.yul\":8820:8822   */\n      0x1f\n        /* \"#utility.yul\":8813:8818   */\n      dup4\n        /* \"#utility.yul\":8809:8823   */\n      add\n        /* \"#utility.yul\":8805:8828   */\n      div\n        /* \"#utility.yul\":8795:8828   */\n      swap1\n      pop\n        /* \"#utility.yul\":8741:8834   */\n      swap2\n      swap1\n      pop\n      jump\t// out\n        /* \"#utility.yul\":8840:8947   */\n    tag_91:\n        /* \"#utility.yul\":8884:8892   */\n      0x00\n        /* \"#utility.yul\":8934:8939   */\n      dup3\n        /* \"#utility.yul\":8928:8932   */\n      dup3\n        /* \"#utility.yul\":8924:8940   */\n      shl\n        /* \"#utility.yul\":8903:8940   */\n      swap1\n      pop\n        /* \"#utility.yul\":8840:8947   */\n      swap3\n      swap2\n      pop\n      pop\n      jump\t// out\n        /* \"#utility.yul\":8953:9346   */\n    tag_92:\n        /* \"#utility.yul\":9022:9028   */\n      0x00\n        /* \"#utility.yul\":9072:9073   */\n      0x08\n        /* \"#utility.yul\":9060:9070   */\n      dup4\n        /* \"#utility.yul\":9056:9074   */\n      mul\n        /* \"#utility.yul\":9095:9192   */\n      tag_208\n        /* \"#utility.yul\":9125:9191   */\n      0xffffffffffffffffffffffffffffffffffffffffffffffffffffffffffffffff\n        /* \"#utility.yul\":9114:9123   */\n      dup3\n        /* \"#utility.yul\":9095:9192   */\n      tag_91\n      jump\t// in\n    tag_208:\n        /* \"#utility.yul\":9213:9252   */\n      tag_209\n        /* \"#utility.yul\":9243:9251   */\n      dup7\n        /* \"#utility.yul\":9232:9241   */\n      dup4\n        /* \"#utility.yul\":9213:9252   */\n      tag_91\n      jump\t// in\n    tag_209:\n        /* \"#utility.yul\":9201:9252   */\n      swap6\n      pop\n        /* \"#utility.yul\":9285:9289   */\n      dup1\n        /* \"#utility.yul\":9281:9290   */\n      not\n        /* \"#utility.yul\":9274:9279   */\n      dup5\n        /* \"#utility.yul\":9270:9291   */\n      and\n        /* \"#utility.yul\":9261:9291   */\n      swap4\n      pop\n        /* \"#utility.yul\":9334:9338   */\n      dup1\n        /* \"#utility.yul\":9324:9332   */\n      dup7\n        /* \"#utility.yul\":9320:9339   */\n      and\n        /* \"#utility.yul\":9313:9318   */\n      dup5\n        /* \"#utility.yul\":9310:9340   */\n      or\n        /* \"#utility.yul\":9300:9340   */\n      swap3\n      pop\n        /* \"#utility.yul\":9029:9346   */\n      pop\n      pop\n        /* \"#utility.yul\":8953:9346   */\n      swap4\n      swap3\n      pop\n      pop\n      pop\n      jump\t// out\n        /* \"#utility.yul\":9352:9412   */\n    tag_93:\n        /* \"#utility.yul\":9380:9383   */\n      0x00\n        /* \"#utility.yul\":9401:9406   */\n      dup2\n        /* \"#utility.yul\":9394:9406   */\n      swap1\n      pop\n        /* \"#utility.yul\":9352:9412   */\n      swap2\n      swap1\n      pop\n      jump\t// out\n        /* \"#utility.yul\":9418:9560   */\n    tag_94:\n        /* \"#utility.yul\":9468:9477   */\n      0x00\n        /* \"#utility.yul\":9501:9554   */\n      tag_212\n        /* \"#utility.yul\":9519:9553   */\n      tag_213\n        /* \"#utility.yul\":9528:9552   */\n      tag_214\n        /* \"#utility.yul\":9546:9551   */\n      dup5\n        /* \"#utility.yul\":9528:9552   */\n      tag_69\n      jump\t// in\n    tag_214:\n        /* \"#utility.yul\":9519:9553   */\n      tag_93\n      jump\t// in\n    tag_213:\n        /* \"#utility.yul\":9501:9554   */\n      tag_69\n      jump\t// in\n    tag_212:\n        /* \"#utility.yul\":9488:9554   */\n      swap1\n      pop\n        /* \"#utility.yul\":9418:9560   */\n      swap2\n      swap1\n      pop\n      jump\t// out\n        /* \"#utility.yul\":9566:9641   */\n    tag_95:\n        /* \"#utility.yul\":9609:9612   */\n      0x00\n        /* \"#utility.yul\":9630:9635   */\n      dup2\n        /* \"#utility.yul\":9623:9635   */\n      swap1\n      pop\n        /* \"#utility.yul\":9566:9641   */\n      swap2\n      swap1\n      pop\n      jump\t// out\n        /* \"#utility.yul\":9647:9916   */\n    tag_96:\n        /* \"#utility.yul\":9757:9796   */\n      tag_217\n        /* \"#utility.yul\":9788:9795   */\n      dup4\n        /* \"#utility.yul\":9757:9796   */\n      tag_94\n      jump\t// in\n    tag_217:\n        /* \"#utility.yul\":9818:9909   */\n      tag_218\n        /* \"#utility.yul\":9867:9908   */\n      tag_219\n        /* \"#utility.yul\":9891:9907   */\n      dup3\n        /* \"#utility.yul\":9867:9908   */\n      tag_95\n      jump\t// in\n    tag_219:\n        /* \"#utility.yul\":9859:9865   */\n      dup5\n        /* \"#utility.yul\":9852:9856   */\n      dup5\n        /* \"#utility.yul\":9846:9857   */\n      sload\n        /* \"#utility.yul\":9818:9909   */\n      tag_92\n      jump\t// in\n    tag_218:\n        /* \"#utility.yul\":9812:9816   */\n      dup3\n        /* \"#utility.yul\":9805:9910   */\n      sstore\n        /* \"#utility.yul\":9723:9916   */\n      pop\n        /* \"#utility.yul\":9647:9916   */\n      pop\n      pop\n      pop\n      jump\t// out\n        /* \"#utility.yul\":9922:9995   */\n    tag_97:\n        /* \"#utility.yul\":9967:9970   */\n      0x00\n        /* \"#utility.yul\":9988:9989   */\n      0x00\n        /* \"#utility.yul\":9981:9989   */\n      swap1\n      pop\n        /* \"#utility.yul\":9922:9995   */\n      swap1\n      jump\t// out\n        /* \"#utility.yul\":10001:10190   */\n    tag_98:\n        /* \"#utility.yul\":10078:10110   */\n      tag_222\n      tag_97\n      jump\t// in\n    tag_222:\n        /* \"#utility.yul\":10119:10184   */\n      tag_223\n        /* \"#utility.yul\":10177:10183   */\n      dup2\n        /* \"#utility.yul\":10169:10175   */\n      dup5\n        /* \"#utility.yul\":10163:10167   */\n      dup5\n        /* \"#utility.yul\":10119:10184   */\n      tag_96\n      jump\t// in\n    tag_223:\n        /* \"#utility.yul\":10054:10190   */\n      pop\n        /* \"#utility.yul\":10001:10190   */\n      pop\n      pop\n      jump\t// out\n        /* \"#utility.yul\":10196:10410   */\n    tag_99:\n        /* \"#utility.yul\":10281:10282   */\n      0x00\n        /* \"#utility.yul\":10266:10404   */\n    tag_225:\n        /* \"#utility.yul\":10291:10300   */\n      dup3\n        /* \"#utility.yul\":10288:10289   */\n      dup2\n        /* \"#utility.yul\":10285:10301   */\n      lt\n        /* \"#utility.yul\":10266:10404   */\n      iszero\n      tag_227\n      jumpi\n        /* \"#utility.yul\":10343:10394   */\n      tag_228\n        /* \"#utility.yul\":10392:10393   */\n      0x00\n        /* \"#utility.yul\":10388:10389   */\n      dup3\n        /* \"#utility.yul\":10377:10386   */\n      dup5\n        /* \"#utility.yul\":10373:10390   */\n      add\n        /* \"#utility.yul\":10343:10394   */\n      tag_98\n      jump\t// in\n    tag_228:\n        /* \"#utility.yul\":10316:10317   */\n      0x01\n        /* \"#utility.yul\":10313:10314   */\n      dup2\n        /* \"#utility.yul\":10309:10318   */\n      add\n        /* \"#utility.yul\":10304:10318   */\n      swap1\n      pop\n        /* \"#utility.yul\":10266:10404   */\n      jump(tag_225)\n    tag_227:\n        /* \"#utility.yul\":10270:10284   */\n      pop\n        /* \"#utility.yul\":10196:10410   */\n      pop\n      pop\n      jump\t// out\n        /* \"#utility.yul\":10416:11162   */\n    tag_100:\n        /* \"#utility.yul\":10517:10519   */\n      0x1f\n        /* \"#utility.yul\":10512:10515   */\n      dup3\n        /* \"#utility.yul\":10509:10520   */\n      gt\n        /* \"#utility.yul\":10506:11155   */\n      iszero\n      tag_230\n      jumpi\n        /* \"#utility.yul\":10546:10556   */\n      dup3\n        /* \"#utility.yul\":10541:10544   */\n      dup3\n        /* \"#utility.yul\":10538:10557   */\n      gt\n        /* \"#utility.yul\":10535:11145   */\n      iszero\n      tag_231\n      jumpi\n        /* \"#utility.yul\":10592:10630   */\n      tag_232\n        /* \"#utility.yul\":10624:10629   */\n      dup2\n        /* \"#utility.yul\":10592:10630   */\n      tag_89\n      jump\t// in\n    tag_232:\n        /* \"#utility.yul\":10667:10689   */\n      tag_233\n        /* \"#utility.yul\":10685:10688   */\n      dup4\n        /* \"#utility.yul\":10667:10689   */\n      tag_90\n      jump\t// in\n    tag_233:\n        /* \"#utility.yul\":10726:10755   */\n      tag_234\n        /* \"#utility.yul\":10744:10754   */\n      dup6\n        /* \"#utility.yul\":10726:10755   */\n      tag_90\n      jump\t// in\n    tag_234:\n        /* \"#utility.yul\":10916:10918   */\n      0x20\n        /* \"#utility.yul\":10904:10914   */\n      dup7\n        /* \"#utility.yul\":10901:10919   */\n      lt\n        /* \"#utility.yul\":10898:10977   */\n      iszero\n      tag_235\n      jumpi\n        /* \"#utility.yul\":10958:10959   */\n      0x00\n        /* \"#utility.yul\":10942:10959   */\n      swap1\n      pop\n        /* \"#utility.yul\":10898:10977   */\n    tag_235:\n        /* \"#utility.yul\":11027:11039   */\n      dup1\n        /* \"#utility.yul\":11017:11025   */\n      dup4\n        /* \"#utility.yul\":11013:11040   */\n      add\n        /* \"#utility.yul\":11057:11131   */\n      tag_236\n        /* \"#utility.yul\":11117:11129   */\n      dup3\n        /* \"#utility.yul\":11103:11115   */\n      dup5\n        /* \"#utility.yul\":11099:11130   */\n      sub\n        /* \"#utility.yul\":11086:11097   */\n      dup3\n        /* \"#utility.yul\":11057:11131   */\n      tag_99\n      jump\t// in\n    tag_236:\n        /* \"#utility.yul\":10558:11145   */\n      pop\n      pop\n      pop\n      pop\n        /* \"#utility.yul\":10535:11145   */\n    tag_231:\n        /* \"#utility.yul\":10506:11155   */\n    tag_230:\n        /* \"#utility.yul\":10416:11162   */\n      pop\n      pop\n      pop\n      jump\t// out\n        /* \"#utility.yul\":11168:11285   */\n    tag_101:\n        /* \"#utility.yul\":11222:11230   */\n      0x00\n        /* \"#utility.yul\":11272:11277   */\n      dup3\n        /* \"#utility.yul\":11266:11270   */\n      dup3\n        /* \"#utility.yul\":11262:11278   */\n      shr\n        /* \"#utility.yul\":11241:11278   */\n      swap1\n      pop\n        /* \"#utility.yul\":11168:11285   */\n      swap3\n      swap2\n      pop\n      pop\n      jump\t// out\n        /* \"#utility.yul\":11291:11460   */\n    tag_102:\n        /* \"#utility.yul\":11335:11341   */\n      0x00\n        /* \"#utility.yul\":11368:11419   */\n      tag_239\n        /* \"#utility.yul\":11416:11417   */\n      0x00\n        /* \"#utility.yul\":11412:11418   */\n      not\n        /* \"#utility.yul\":11404:11409   */\n      dup5\n        /* \"#utility.yul\":11401:11402   */\n      0x08\n        /* \"#utility.yul\":11397:11410   */\n      mul\n        /* \"#utility.yul\":11368:11419   */\n      tag_101\n      jump\t// in\n    tag_239:\n        /* \"#utility.yul\":11364:11420   */\n      not\n        /* \"#utility.yul\":11449:11453   */\n      dup1\n        /* \"#utility.yul\":11443:11447   */\n      dup4\n        /* \"#utility.yul\":11439:11454   */\n      and\n        /* \"#utility.yul\":11429:11454   */\n      swap2\n      pop\n        /* \"#utility.yul\":11342:11460   */\n      pop\n        /* \"#utility.yul\":11291:11460   */\n      swap3\n      swap2\n      pop\n      pop\n      jump\t// out\n        /* \"#utility.yul\":11465:11760   */\n    tag_103:\n        /* \"#utility.yul\":11541:11545   */\n      0x00\n        /* \"#utility.yul\":11687:11716   */\n      tag_241\n        /* \"#utility.yul\":11712:11715   */\n      dup4\n        /* \"#utility.yul\":11706:11710   */\n      dup4\n        /* \"#utility.yul\":11687:11716   */\n      tag_102\n      jump\t// in\n    tag_241:\n        /* \"#utility.yul\":11679:11716   */\n      swap2\n      pop\n        /* \"#utility.yul\":11749:11752   */\n      dup3\n        /* \"#utility.yul\":11746:11747   */\n      0x02\n        /* \"#utility.yul\":11742:11753   */\n      mul\n        /* \"#utility.yul\":11736:11740   */\n      dup3\n        /* \"#utility.yul\":11733:11754   */\n      or\n        /* \"#utility.yul\":11725:11754   */\n      swap1\n      pop\n        /* \"#utility.yul\":11465:11760   */\n      swap3\n      swap2\n      pop\n      pop\n      jump\t// out\n        /* \"#utility.yul\":11765:13160   */\n    tag_59:\n        /* \"#utility.yul\":11882:11919   */\n      tag_243\n        /* \"#utility.yul\":11915:11918   */\n      dup3\n        /* \"#utility.yul\":11882:11919   */\n      tag_72\n      jump\t// in\n    tag_243:\n        /* \"#utility.yul\":11984:12002   */\n      0xffffffffffffffff\n        /* \"#utility.yul\":11976:11982   */\n      dup2\n        /* \"#utility.yul\":11973:12003   */\n      gt\n        /* \"#utility.yul\":11970:12026   */\n      iszero\n      tag_244\n      jumpi\n        /* \"#utility.yul\":12006:12024   */\n      tag_245\n      tag_80\n      jump\t// in\n    tag_245:\n        /* \"#utility.yul\":11970:12026   */\n    tag_244:\n        /* \"#utility.yul\":12050:12088   */\n      tag_246\n        /* \"#utility.yul\":12082:12086   */\n      dup3\n        /* \"#utility.yul\":12076:12087   */\n      sload\n        /* \"#utility.yul\":12050:12088   */\n      tag_49\n      jump\t// in\n    tag_246:\n        /* \"#utility.yul\":12135:12202   */\n      tag_247\n        /* \"#utility.yul\":12195:12201   */\n      dup3\n        /* \"#utility.yul\":12187:12193   */\n      dup3\n        /* \"#utility.yul\":12181:12185   */\n      dup6\n        /* \"#utility.yul\":12135:12202   */\n      tag_100\n      jump\t// in\n    tag_247:\n        /* \"#utility.yul\":12229:12230   */\n      0x00\n        /* \"#utility.yul\":12253:12257   */\n      0x20\n        /* \"#utility.yul\":12240:12257   */\n      swap1\n      pop\n        /* \"#utility.yul\":12285:12287   */\n      0x1f\n        /* \"#utility.yul\":12277:12283   */\n      dup4\n        /* \"#utility.yul\":12274:12288   */\n      gt\n        /* \"#utility.yul\":12302:12303   */\n      0x01\n        /* \"#utility.yul\":12297:12915   */\n      dup2\n      eq\n      tag_249\n      jumpi\n        /* \"#utility.yul\":12959:12960   */\n      0x00\n        /* \"#utility.yul\":12976:12982   */\n      dup5\n        /* \"#utility.yul\":12973:13050   */\n      iszero\n      tag_250\n      jumpi\n        /* \"#utility.yul\":13025:13034   */\n      dup3\n        /* \"#utility.yul\":13020:13023   */\n      dup8\n        /* \"#utility.yul\":13016:13035   */\n      add\n        /* \"#utility.yul\":13010:13036   */\n      mload\n        /* \"#utility.yul\":13001:13036   */\n      swap1\n      pop\n        /* \"#utility.yul\":12973:13050   */\n    tag_250:\n        /* \"#utility.yul\":13076:13143   */\n      tag_251\n        /* \"#utility.yul\":13136:13142   */\n      dup6\n        /* \"#utility.yul\":13129:13134   */\n      dup3\n        /* \"#utility.yul\":13076:13143   */\n      tag_103\n      jump\t// in\n    tag_251:\n        /* \"#utility.yul\":13070:13074   */\n      dup7\n        /* \"#utility.yul\":13063:13144   */\n      sstore\n        /* \"#utility.yul\":12932:13154   */\n      pop\n        /* \"#utility.yul\":12267:13154   */\n      jump(tag_248)\n        /* \"#utility.yul\":12297:12915   */\n    tag_249:\n        /* \"#utility.yul\":12349:12353   */\n      0x1f\n        /* \"#utility.yul\":12345:12354   */\n      not\n        /* \"#utility.yul\":12337:12343   */\n      dup5\n        /* \"#utility.yul\":12333:12355   */\n      and\n        /* \"#utility.yul\":12383:12420   */\n      tag_252\n        /* \"#utility.yul\":12415:12419   */\n      dup7\n        /* \"#utility.yul\":12383:12420   */\n      tag_89\n      jump\t// in\n    tag_252:\n        /* \"#utility.yul\":12442:12443   */\n      0x00\n        /* \"#utility.yul\":12456:12664   */\n    tag_253:\n        /* \"#utility.yul\":12470:12477   */\n      dup3\n        /* \"#utility.yul\":12467:12468   */\n      dup2\n        /* \"#utility.yul\":12464:12478   */\n      lt\n        /* \"#utility.yul\":12456:12664   */\n      iszero\n      tag_255\n      jumpi\n        /* \"#utility.yul\":12549:12558   */\n      dup5\n        /* \"#utility.yul\":12544:12547   */\n      dup10\n        /* \"#utility.yul\":12540:12559   */\n      add\n        /* \"#utility.yul\":12534:12560   */\n      mload\n        /* \"#utility.yul\":12526:12532   */\n      dup3\n        /* \"#utility.yul\":12519:12561   */\n      sstore\n        /* \"#utility.yul\":12600:12601   */\n      0x01\n        /* \"#utility.yul\":12592:12598   */\n      dup3\n        /* \"#utility.yul\":12588:12602   */\n      add\n        /* \"#utility.yul\":12578:12602   */\n      swap2\n      pop\n        /* \"#utility.yul\":12647:12649   */\n      0x20\n        /* \"#utility.yul\":12636:12645   */\n      dup6\n        /* \"#utility.yul\":12632:12650   */\n      add\n        /* \"#utility.yul\":12619:12650   */\n      swap5\n      pop\n        /* \"#utility.yul\":12493:12497   */\n      0x20\n        /* \"#utility.yul\":12490:12491   */\n      dup2\n        /* \"#utility.yul\":12486:12498   */\n      add\n        /* \"#utility.yul\":12481:12498   */\n      swap1\n      pop\n        /* \"#utility.yul\":12456:12664   */\n      jump(tag_253)\n    tag_255:\n        /* \"#utility.yul\":12692:12698   */\n      dup7\n        /* \"#utility.yul\":12683:12690   */\n      dup4\n        /* \"#utility.yul\":12680:12699   */\n      lt\n        /* \"#utility.yul\":12677:12856   */\n      iszero\n      tag_256\n      jumpi\n        /* \"#utility.yul\":12750:12759   */\n      dup5\n        /* \"#utility.yul\":12745:12748   */\n      dup10\n        /* \"#utility.yul\":12741:12760   */\n      add\n        /* \"#utility.yul\":12735:12761   */\n      mload\n        /* \"#utility.yul\":12793:12841   */\n      tag_257\n        /* \"#utility.yul\":12835:12839   */\n      0x1f\n        /* \"#utility.yul\":12827:12833   */\n      dup10\n        /* \"#utility.yul\":12823:12840   */\n      and\n        /* \"#utility.yul\":12812:12821   */\n      dup3\n        /* \"#utility.yul\":12793:12841   */\n      tag_102\n      jump\t// in\n    tag_257:\n        /* \"#utility.yul\":12785:12791   */\n      dup4\n        /* \"#utility.yul\":12778:12842   */\n      sstore\n        /* \"#utility.yul\":12700:12856   */\n      pop\n        /* \"#utility.yul\":12677:12856   */\n    tag_256:\n        /* \"#utility.yul\":12902:12903   */\n      0x01\n        /* \"#utility.yul\":12898:12899   */\n      0x02\n        /* \"#utility.yul\":12890:12896   */\n      dup9\n        /* \"#utility.yul\":12886:12900   */\n      mul\n        /* \"#utility.yul\":12882:12904   */\n      add\n        /* \"#utility.yul\":12876:12880   */\n      dup9\n        /* \"#utility.yul\":12869:12905   */\n      sstore\n        /* \"#utility.yul\":12304:12915   */\n      pop\n      pop\n      pop\n        /* \"#utility.yul\":12267:13154   */\n    tag_248:\n      pop\n        /* \"#utility.yul\":11857:13160   */\n      pop\n      pop\n      pop\n        /* \"#utility.yul\":11765:13160   */\n      pop\n      pop\n      jump\t// out\n        /* \"#utility.yul\":13166:13314   */\n    tag_104:\n        /* \"#utility.yul\":13268:13279   */\n      0x00\n        /* \"#utility.yul\":13305:13308   */\n      dup2\n        /* \"#utility.yul\":13290:13308   */\n      swap1\n      pop\n        /* \"#utility.yul\":13166:13314   */\n      swap3\n      swap2\n      pop\n      pop\n      jump\t// out\n        /* \"#utility.yul\":13320:13710   */\n    tag_105:\n        /* \"#utility.yul\":13426:13429   */\n      0x00\n        /* \"#utility.yul\":13454:13493   */\n      tag_260\n        /* \"#utility.yul\":13487:13492   */\n      dup3\n        /* \"#utility.yul\":13454:13493   */\n      tag_72\n      jump\t// in\n    tag_260:\n        /* \"#utility.yul\":13509:13598   */\n      tag_261\n        /* \"#utility.yul\":13591:13597   */\n      dup2\n        /* \"#utility.yul\":13586:13589   */\n      dup6\n        /* \"#utility.yul\":13509:13598   */\n      tag_104\n      jump\t// in\n    tag_261:\n        /* \"#utility.yul\":13502:13598   */\n      swap4\n      pop\n        /* \"#utility.yul\":13607:13672   */\n      tag_262\n        /* \"#utility.yul\":13665:13671   */\n      dup2\n        /* \"#utility.yul\":13660:13663   */\n      dup6\n        /* \"#utility.yul\":13653:13657   */\n      0x20\n        /* \"#utility.yul\":13646:13651   */\n      dup7\n        /* \"#utility.yul\":13642:13658   */\n      add\n        /* \"#utility.yul\":13607:13672   */\n      tag_74\n      jump\t// in\n    tag_262:\n        /* \"#utility.yul\":13697:13703   */\n      dup1\n        /* \"#utility.yul\":13692:13695   */\n      dup5\n        /* \"#utility.yul\":13688:13704   */\n      add\n        /* \"#utility.yul\":13681:13704   */\n      swap2\n      pop\n        /* \"#utility.yul\":13430:13710   */\n      pop\n        /* \"#utility.yul\":13320:13710   */\n      swap3\n      swap2\n      pop\n      pop\n      jump\t// out\n        /* \"#utility.yul\":13716:13991   */\n    tag_61:\n        /* \"#utility.yul\":13848:13851   */\n      0x00\n        /* \"#utility.yul\":13870:13965   */\n      tag_264\n        /* \"#utility.yul\":13961:13964   */\n      dup3\n        /* \"#utility.yul\":13952:13958   */\n      dup5\n        /* \"#utility.yul\":13870:13965   */\n      tag_105\n      jump\t// in\n    tag_264:\n        /* \"#utility.yul\":13863:13965   */\n      swap2\n      pop\n        /* \"#utility.yul\":13982:13985   */\n      dup2\n        /* \"#utility.yul\":13975:13985   */\n      swap1\n      pop\n        /* \"#utility.yul\":13716:13991   */\n      swap3\n      swap2\n      pop\n      pop\n      jump\t// out\n\n    auxdata: 0xa2646970667358221220f13007e55f8d62041a2b10630662dacc3ef041d472053057ca706fdad6c7cc5164736f6c63430008220033\n}\n",
				"bytecode": {
					"linkReferences": {},
					"object": "6080604052348015600e575f5ffd5b50610aac8061001c5f395ff3fe608060405234801561000f575f5ffd5b506004361061007b575f3560e01c806354c5b1481161005957806354c5b148146100fe5780636a5aa5ec1461011c57806390c3ee4d14610138578063c8dc4ef8146101685761007b565b806319e9a1811461007f5780631a8cd568146100af5780634e70b1dc146100e0575b5f5ffd5b61009960048036038101906100949190610359565b610184565b6040516100a691906103a6565b60405180910390f35b6100c960048036038101906100c491906103f2565b610199565b6040516100d792919061049c565b60405180910390f35b6100e861024e565b6040516100f591906103a6565b60405180910390f35b610106610253565b60405161011391906103a6565b60405180910390f35b610136600480360381019061013191906104ca565b61025b565b005b610152600480360381019061014d9190610621565b610264565b60405161015f9190610668565b60405180910390f35b610182600480360381019061017d9190610681565b610291565b005b5f81836101919190610708565b905092915050565b600281815481106101a8575f80fd5b905f5260205f2090600202015f91509050805f0180546101c790610776565b80601f01602080910402602001604051908101604052809291908181526020018280546101f390610776565b801561023e5780601f106102155761010080835404028352916020019161023e565b820191905f5260205f20905b81548152906001019060200180831161022157829003601f168201915b5050505050908060010154905082565b5f5481565b5f5f54905090565b805f8190555050565b6001818051602081018201805184825260208301602085012081835280955050505050505f915090505481565b6002604051806040016040528084815260200183815250908060018154018082558091505060019003905f5260205f2090600202015f909190919091505f820151815f0190816102e19190610957565b50602082015181600101555050806001836040516102ff9190610a60565b9081526020016040518091039020819055505050565b5f604051905090565b5f5ffd5b5f5ffd5b5f819050919050565b61033881610326565b8114610342575f5ffd5b50565b5f813590506103538161032f565b92915050565b5f5f6040838503121561036f5761036e61031e565b5b5f61037c85828601610345565b925050602061038d85828601610345565b9150509250929050565b6103a081610326565b82525050565b5f6020820190506103b95f830184610397565b92915050565b5f819050919050565b6103d1816103bf565b81146103db575f5ffd5b50565b5f813590506103ec816103c8565b92915050565b5f602082840312156104075761040661031e565b5b5f610414848285016103de565b91505092915050565b5f81519050919050565b5f82825260208201905092915050565b8281835e5f83830152505050565b5f601f19601f8301169050919050565b5f61045f8261041d565b6104698185610427565b9350610479818560208601610437565b61048281610445565b840191505092915050565b610496816103bf565b82525050565b5f6040820190508181035f8301526104b48185610455565b90506104c3602083018461048d565b9392505050565b5f602082840312156104df576104de61031e565b5b5f6104ec84828501610345565b91505092915050565b5f5ffd5b5f5ffd5b7f4e487b71000000000000000000000000000000000000000000000000000000005f52604160045260245ffd5b61053382610445565b810181811067ffffffffffffffff82111715610552576105516104fd565b5b80604052505050565b5f610564610315565b9050610570828261052a565b919050565b5f67ffffffffffffffff82111561058f5761058e6104fd565b5b61059882610445565b9050602081019050919050565b828183375f83830152505050565b5f6105c56105c084610575565b61055b565b9050828152602081018484840111156105e1576105e06104f9565b5b6105ec8482856105a5565b509392505050565b5f82601f830112610608576106076104f5565b5b81356106188482602086016105b3565b91505092915050565b5f602082840312156106365761063561031e565b5b5f82013567ffffffffffffffff81111561065357610652610322565b5b61065f848285016105f4565b91505092915050565b5f60208201905061067b5f83018461048d565b92915050565b5f5f604083850312156106975761069661031e565b5b5f83013567ffffffffffffffff8111156106b4576106b3610322565b5b6106c0858286016105f4565b92505060206106d1858286016103de565b9150509250929050565b7f4e487b71000000000000000000000000000000000000000000000000000000005f52601160045260245ffd5b5f61071282610326565b915061071d83610326565b92508282019050828112155f8312168382125f841215161715610743576107426106db565b5b92915050565b7f4e487b71000000000000000000000000000000000000000000000000000000005f52602260045260245ffd5b5f600282049050600182168061078d57607f821691505b6020821081036107a05761079f610749565b5b50919050565b5f819050815f5260205f209050919050565b5f6020601f8301049050919050565b5f82821b905092915050565b5f600883026108027fffffffffffffffffffffffffffffffffffffffffffffffffffffffffffffffff826107c7565b61080c86836107c7565b95508019841693508086168417925050509392505050565b5f819050919050565b5f61084761084261083d846103bf565b610824565b6103bf565b9050919050565b5f819050919050565b6108608361082d565b61087461086c8261084e565b8484546107d3565b825550505050565b5f5f905090565b61088b61087c565b610896818484610857565b505050565b5f5b828110156108bc576108b15f828401610883565b60018101905061089d565b505050565b601f82111561090f578282111561090e576108db816107a6565b6108e4836107b8565b6108ed856107b8565b60208610156108fa575f90505b8083016109098284038261089b565b505050505b5b505050565b5f82821c905092915050565b5f61092f5f1984600802610914565b1980831691505092915050565b5f6109478383610920565b9150826002028217905092915050565b6109608261041d565b67ffffffffffffffff811115610979576109786104fd565b5b6109838254610776565b61098e8282856108c1565b5f60209050601f8311600181146109bf575f84156109ad578287015190505b6109b7858261093c565b865550610a1e565b601f1984166109cd866107a6565b5f5b828110156109f4578489015182556001820191506020850194506020810190506109cf565b86831015610a115784890151610a0d601f891682610920565b8355505b6001600288020188555050505b505050505050565b5f81905092915050565b5f610a3a8261041d565b610a448185610a26565b9350610a54818560208601610437565b80840191505092915050565b5f610a6b8284610a30565b91508190509291505056fea2646970667358221220f13007e55f8d62041a2b10630662dacc3ef041d472053057ca706fdad6c7cc5164736f6c63430008220033",
					"opcodes": "PUSH1 0x80 PUSH1 0x40 MSTORE CALLVALUE DUP1 ISZERO PUSH1 0xE JUMPI PUSH0 PUSH0 REVERT JUMPDEST POP PUSH2 0xAAC DUP1 PUSH2 0x1C PUSH0 CODECOPY PUSH0 RETURN INVALID PUSH1 0x80 PUSH1 0x40 MSTORE CALLVALUE DUP1 ISZERO PUSH2 0xF JUMPI PUSH0 PUSH0 REVERT JUMPDEST POP PUSH1 0x4 CALLDATASIZE LT PUSH2 0x7B JUMPI PUSH0 CALLDATALOAD PUSH1 0xE0 SHR DUP1 PUSH4 0x54C5B148 GT PUSH2 0x59 JUMPI DUP1 PUSH4 0x54C5B148 EQ PUSH2 0xFE JUMPI DUP1 PUSH4 0x6A5AA5EC EQ PUSH2 0x11C JUMPI DUP1 PUSH4 0x90C3EE4D EQ PUSH2 0x138 JUMPI DUP1 PUSH4 0xC8DC4EF8 EQ PUSH2 0x168 JUMPI PUSH2 0x7B JUMP JUMPDEST DUP1 PUSH4 0x19E9A181 EQ PUSH2 0x7F JUMPI DUP1 PUSH4 0x1A8CD568 EQ PUSH2 0xAF JUMPI DUP1 PUSH4 0x4E70B1DC EQ PUSH2 0xE0 JUMPI JUMPDEST PUSH0 PUSH0 REVERT JUMPDEST PUSH2 0x99 PUSH1 0x4 DUP1 CALLDATASIZE SUB DUP2 ADD SWAP1 PUSH2 0x94 SWAP2 SWAP1 PUSH2 0x359 JUMP JUMPDEST PUSH2 0x184 JUMP JUMPDEST PUSH1 0x40 MLOAD PUSH2 0xA6 SWAP2 SWAP1 PUSH2 0x3A6 JUMP JUMPDEST PUSH1 0x40 MLOAD DUP1 SWAP2 SUB SWAP1 RETURN JUMPDEST PUSH2 0xC9 PUSH1 0x4 DUP1 CALLDATASIZE SUB DUP2 ADD SWAP1 PUSH2 0xC4 SWAP2 SWAP1 PUSH2 0x3F2 JUMP JUMPDEST PUSH2 0x199 JUMP JUMPDEST PUSH1 0x40 MLOAD PUSH2 0xD7 SWAP3 SWAP2 SWAP1 PUSH2 0x49C JUMP JUMPDEST PUSH1 0x40 MLOAD DUP1 SWAP2 SUB SWAP1 RETURN JUMPDEST PUSH2 0xE8 PUSH2 0x24E JUMP JUMPDEST PUSH1 0x40 MLOAD PUSH2 0xF5 SWAP2 SWAP1 PUSH2 0x3A6 JUMP JUMPDEST PUSH1 0x40 MLOAD DUP1 SWAP2 SUB SWAP1 RETURN JUMPDEST PUSH2 0x106 PUSH2 0x253 JUMP JUMPDEST PUSH1 0x40 MLOAD PUSH2 0x113 SWAP2 SWAP1 PUSH2 0x3A6 JUMP JUMPDEST PUSH1 0x40 MLOAD DUP1 SWAP2 SUB SWAP1 RETURN JUMPDEST PUSH2 0x136 PUSH1 0x4 DUP1 CALLDATASIZE SUB DUP2 ADD SWAP1 PUSH2 0x131 SWAP2 SWAP1 PUSH2 0x4CA JUMP JUMPDEST PUSH2 0x25B JUMP JUMPDEST STOP JUMPDEST PUSH2 0x152 PUSH1 0x4 DUP1 CALLDATASIZE SUB DUP2 ADD SWAP1 PUSH2 0x14D SWAP2 SWAP1 PUSH2 0x621 JUMP JUMPDEST PUSH2 0x264 JUMP JUMPDEST PUSH1 0x40 MLOAD PUSH2 0x15F SWAP2 SWAP1 PUSH2 0x668 JUMP JUMPDEST PUSH1 0x40 MLOAD DUP1 SWAP2 SUB SWAP1 RETURN JUMPDEST PUSH2 0x182 PUSH1 0x4 DUP1 CALLDATASIZE SUB DUP2 ADD SWAP1 PUSH2 0x17D SWAP2 SWAP1 PUSH2 0x681 JUMP JUMPDEST PUSH2 0x291 JUMP JUMPDEST STOP JUMPDEST PUSH0 DUP2 DUP4 PUSH2 0x191 SWAP2 SWAP1 PUSH2 0x708 JUMP JUMPDEST SWAP1 POP SWAP3 SWAP2 POP POP JUMP JUMPDEST PUSH1 0x2 DUP2 DUP2 SLOAD DUP2 LT PUSH2 0x1A8 JUMPI PUSH0 DUP1 REVERT JUMPDEST SWAP1 PUSH0 MSTORE PUSH1 0x20 PUSH0 KECCAK256 SWAP1 PUSH1 0x2 MUL ADD PUSH0 SWAP2 POP SWAP1 POP DUP1 PUSH0 ADD DUP1 SLOAD PUSH2 0x1C7 SWAP1 PUSH2 0x776 JUMP JUMPDEST DUP1 PUSH1 0x1F ADD PUSH1 0x20 DUP1 SWAP2 DIV MUL PUSH1 0x20 ADD PUSH1 0x40 MLOAD SWAP1 DUP2 ADD PUSH1 0x40 MSTORE DUP1 SWAP3 SWAP2 SWAP1 DUP2 DUP2 MSTORE PUSH1 0x20 ADD DUP3 DUP1 SLOAD PUSH2 0x1F3 SWAP1 PUSH2 0x776 JUMP JUMPDEST DUP1 ISZERO PUSH2 0x23E JUMPI DUP1 PUSH1 0x1F LT PUSH2 0x215 JUMPI PUSH2 0x100 DUP1 DUP4 SLOAD DIV MUL DUP4 MSTORE SWAP2 PUSH1 0x20 ADD SWAP2 PUSH2 0x23E JUMP JUMPDEST DUP3 ADD SWAP2 SWAP1 PUSH0 MSTORE PUSH1 0x20 PUSH0 KECCAK256 SWAP1 JUMPDEST DUP2 SLOAD DUP2 MSTORE SWAP1 PUSH1 0x1 ADD SWAP1 PUSH1 0x20 ADD DUP1 DUP4 GT PUSH2 0x221 JUMPI DUP3 SWAP1 SUB PUSH1 0x1F AND DUP3 ADD SWAP2 JUMPDEST POP POP POP POP POP SWAP1 DUP1 PUSH1 0x1 ADD SLOAD SWAP1 POP DUP3 JUMP JUMPDEST PUSH0 SLOAD DUP2 JUMP JUMPDEST PUSH0 PUSH0 SLOAD SWAP1 POP SWAP1 JUMP JUMPDEST DUP1 PUSH0 DUP2 SWAP1 SSTORE POP POP JUMP JUMPDEST PUSH1 0x1 DUP2 DUP1 MLOAD PUSH1 0x20 DUP2 ADD DUP3 ADD DUP1 MLOAD DUP5 DUP3 MSTORE PUSH1 0x20 DUP4 ADD PUSH1 0x20 DUP6 ADD KECCAK256 DUP2 DUP4 MSTORE DUP1 SWAP6 POP POP POP POP POP POP PUSH0 SWAP2 POP SWAP1 POP SLOAD DUP2 JUMP JUMPDEST PUSH1 0x2 PUSH1 0x40 MLOAD DUP1 PUSH1 0x40 ADD PUSH1 0x40 MSTORE DUP1 DUP5 DUP2 MSTORE PUSH1 0x20 ADD DUP4 DUP2 MSTORE POP SWAP1 DUP1 PUSH1 0x1 DUP2 SLOAD ADD DUP1 DUP3 SSTORE DUP1 SWAP2 POP POP PUSH1 0x1 SWAP1 SUB SWAP1 PUSH0 MSTORE PUSH1 0x20 PUSH0 KECCAK256 SWAP1 PUSH1 0x2 MUL ADD PUSH0 SWAP1 SWAP2 SWAP1 SWAP2 SWAP1 SWAP2 POP PUSH0 DUP3 ADD MLOAD DUP2 PUSH0 ADD SWAP1 DUP2 PUSH2 0x2E1 SWAP2 SWAP1 PUSH2 0x957 JUMP JUMPDEST POP PUSH1 0x20 DUP3 ADD MLOAD DUP2 PUSH1 0x1 ADD SSTORE POP POP DUP1 PUSH1 0x1 DUP4 PUSH1 0x40 MLOAD PUSH2 0x2FF SWAP2 SWAP1 PUSH2 0xA60 JUMP JUMPDEST SWAP1 DUP2 MSTORE PUSH1 0x20 ADD PUSH1 0x40 MLOAD DUP1 SWAP2 SUB SWAP1 KECCAK256 DUP2 SWAP1 SSTORE POP POP POP JUMP JUMPDEST PUSH0 PUSH1 0x40 MLOAD SWAP1 POP SWAP1 JUMP JUMPDEST PUSH0 PUSH0 REVERT JUMPDEST PUSH0 PUSH0 REVERT JUMPDEST PUSH0 DUP2 SWAP1 POP SWAP2 SWAP1 POP JUMP JUMPDEST PUSH2 0x338 DUP2 PUSH2 0x326 JUMP JUMPDEST DUP2 EQ PUSH2 0x342 JUMPI PUSH0 PUSH0 REVERT JUMPDEST POP JUMP JUMPDEST PUSH0 DUP2 CALLDATALOAD SWAP1 POP PUSH2 0x353 DUP2 PUSH2 0x32F JUMP JUMPDEST SWAP3 SWAP2 POP POP JUMP JUMPDEST PUSH0 PUSH0 PUSH1 0x40 DUP4 DUP6 SUB SLT ISZERO PUSH2 0x36F JUMPI PUSH2 0x36E PUSH2 0x31E JUMP JUMPDEST JUMPDEST PUSH0 PUSH2 0x37C DUP6 DUP3 DUP7 ADD PUSH2 0x345 JUMP JUMPDEST SWAP3 POP POP PUSH1 0x20 PUSH2 0x38D DUP6 DUP3 DUP7 ADD PUSH2 0x345 JUMP JUMPDEST SWAP2 POP POP SWAP3 POP SWAP3 SWAP1 POP JUMP JUMPDEST PUSH2 0x3A0 DUP2 PUSH2 0x326 JUMP JUMPDEST DUP3 MSTORE POP POP JUMP JUMPDEST PUSH0 PUSH1 0x20 DUP3 ADD SWAP1 POP PUSH2 0x3B9 PUSH0 DUP4 ADD DUP5 PUSH2 0x397 JUMP JUMPDEST SWAP3 SWAP2 POP POP JUMP JUMPDEST PUSH0 DUP2 SWAP1 POP SWAP2 SWAP1 POP JUMP JUMPDEST PUSH2 0x3D1 DUP2 PUSH2 0x3BF JUMP JUMPDEST DUP2 EQ PUSH2 0x3DB JUMPI PUSH0 PUSH0 REVERT JUMPDEST POP JUMP JUMPDEST PUSH0 DUP2 CALLDATALOAD SWAP1 POP PUSH2 0x3EC DUP2 PUSH2 0x3C8 JUMP JUMPDEST SWAP3 SWAP2 POP POP JUMP JUMPDEST PUSH0 PUSH1 0x20 DUP3 DUP5 SUB SLT ISZERO PUSH2 0x407 JUMPI PUSH2 0x406 PUSH2 0x31E JUMP JUMPDEST JUMPDEST PUSH0 PUSH2 0x414 DUP5 DUP3 DUP6 ADD PUSH2 0x3DE JUMP JUMPDEST SWAP2 POP POP SWAP3 SWAP2 POP POP JUMP JUMPDEST PUSH0 DUP2 MLOAD SWAP1 POP SWAP2 SWAP1 POP JUMP JUMPDEST PUSH0 DUP3 DUP3 MSTORE PUSH1 0x20 DUP3 ADD SWAP1 POP SWAP3 SWAP2 POP POP JUMP JUMPDEST DUP3 DUP2 DUP4 MCOPY PUSH0 DUP4 DUP4 ADD MSTORE POP POP POP JUMP JUMPDEST PUSH0 PUSH1 0x1F NOT PUSH1 0x1F DUP4 ADD AND SWAP1 POP SWAP2 SWAP1 POP JUMP JUMPDEST PUSH0 PUSH2 0x45F DUP3 PUSH2 0x41D JUMP JUMPDEST PUSH2 0x469 DUP2 DUP6 PUSH2 0x427 JUMP JUMPDEST SWAP4 POP PUSH2 0x479 DUP2 DUP6 PUSH1 0x20 DUP7 ADD PUSH2 0x437 JUMP JUMPDEST PUSH2 0x482 DUP2 PUSH2 0x445 JUMP JUMPDEST DUP5 ADD SWAP2 POP POP SWAP3 SWAP2 POP POP JUMP JUMPDEST PUSH2 0x496 DUP2 PUSH2 0x3BF JUMP JUMPDEST DUP3 MSTORE POP POP JUMP JUMPDEST PUSH0 PUSH1 0x40 DUP3 ADD SWAP1 POP DUP2 DUP2 SUB PUSH0 DUP4 ADD MSTORE PUSH2 0x4B4 DUP2 DUP6 PUSH2 0x455 JUMP JUMPDEST SWAP1 POP PUSH2 0x4C3 PUSH1 0x20 DUP4 ADD DUP5 PUSH2 0x48D JUMP JUMPDEST SWAP4 SWAP3 POP POP POP JUMP JUMPDEST PUSH0 PUSH1 0x20 DUP3 DUP5 SUB SLT ISZERO PUSH2 0x4DF JUMPI PUSH2 0x4DE PUSH2 0x31E JUMP JUMPDEST JUMPDEST PUSH0 PUSH2 0x4EC DUP5 DUP3 DUP6 ADD PUSH2 0x345 JUMP JUMPDEST SWAP2 POP POP SWAP3 SWAP2 POP POP JUMP JUMPDEST PUSH0 PUSH0 REVERT JUMPDEST PUSH0 PUSH0 REVERT JUMPDEST PUSH32 0x4E487B7100000000000000000000000000000000000000000000000000000000 PUSH0 MSTORE PUSH1 0x41 PUSH1 0x4 MSTORE PUSH1 0x24 PUSH0 REVERT JUMPDEST PUSH2 0x533 DUP3 PUSH2 0x445 JUMP JUMPDEST DUP2 ADD DUP2 DUP2 LT PUSH8 0xFFFFFFFFFFFFFFFF DUP3 GT OR ISZERO PUSH2 0x552 JUMPI PUSH2 0x551 PUSH2 0x4FD JUMP JUMPDEST JUMPDEST DUP1 PUSH1 0x40 MSTORE POP POP POP JUMP JUMPDEST PUSH0 PUSH2 0x564 PUSH2 0x315 JUMP JUMPDEST SWAP1 POP PUSH2 0x570 DUP3 DUP3 PUSH2 0x52A JUMP JUMPDEST SWAP2 SWAP1 POP JUMP JUMPDEST PUSH0 PUSH8 0xFFFFFFFFFFFFFFFF DUP3 GT ISZERO PUSH2 0x58F JUMPI PUSH2 0x58E PUSH2 0x4FD JUMP JUMPDEST JUMPDEST PUSH2 0x598 DUP3 PUSH2 0x445 JUMP JUMPDEST SWAP1 POP PUSH1 0x20 DUP2 ADD SWAP1 POP SWAP2 SWAP1 POP JUMP JUMPDEST DUP3 DUP2 DUP4 CALLDATACOPY PUSH0 DUP4 DUP4 ADD MSTORE POP POP POP JUMP JUMPDEST PUSH0 PUSH2 0x5C5 PUSH2 0x5C0 DUP5 PUSH2 0x575 JUMP JUMPDEST PUSH2 0x55B JUMP JUMPDEST SWAP1 POP DUP3 DUP2 MSTORE PUSH1 0x20 DUP2 ADD DUP5 DUP5 DUP5 ADD GT ISZERO PUSH2 0x5E1 JUMPI PUSH2 0x5E0 PUSH2 0x4F9 JUMP JUMPDEST JUMPDEST PUSH2 0x5EC DUP5 DUP3 DUP6 PUSH2 0x5A5 JUMP JUMPDEST POP SWAP4 SWAP3 POP POP POP JUMP JUMPDEST PUSH0 DUP3 PUSH1 0x1F DUP4 ADD SLT PUSH2 0x608 JUMPI PUSH2 0x607 PUSH2 0x4F5 JUMP JUMPDEST JUMPDEST DUP2 CALLDATALOAD PUSH2 0x618 DUP5 DUP3 PUSH1 0x20 DUP7 ADD PUSH2 0x5B3 JUMP JUMPDEST SWAP2 POP POP SWAP3 SWAP2 POP POP JUMP JUMPDEST PUSH0 PUSH1 0x20 DUP3 DUP5 SUB SLT ISZERO PUSH2 0x636 JUMPI PUSH2 0x635 PUSH2 0x31E JUMP JUMPDEST JUMPDEST PUSH0 DUP3 ADD CALLDATALOAD PUSH8 0xFFFFFFFFFFFFFFFF DUP2 GT ISZERO PUSH2 0x653 JUMPI PUSH2 0x652 PUSH2 0x322 JUMP JUMPDEST JUMPDEST PUSH2 0x65F DUP5 DUP3 DUP6 ADD PUSH2 0x5F4 JUMP JUMPDEST SWAP2 POP POP SWAP3 SWAP2 POP POP JUMP JUMPDEST PUSH0 PUSH1 0x20 DUP3 ADD SWAP1 POP PUSH2 0x67B PUSH0 DUP4 ADD DUP5 PUSH2 0x48D JUMP JUMPDEST SWAP3 SWAP2 POP POP JUMP JUMPDEST PUSH0 PUSH0 PUSH1 0x40 DUP4 DUP6 SUB SLT ISZERO PUSH2 0x697 JUMPI PUSH2 0x696 PUSH2 0x31E JUMP JUMPDEST JUMPDEST PUSH0 DUP4 ADD CALLDATALOAD PUSH8 0xFFFFFFFFFFFFFFFF DUP2 GT ISZERO PUSH2 0x6B4 JUMPI PUSH2 0x6B3 PUSH2 0x322 JUMP JUMPDEST JUMPDEST PUSH2 0x6C0 DUP6 DUP3 DUP7 ADD PUSH2 0x5F4 JUMP JUMPDEST SWAP3 POP POP PUSH1 0x20 PUSH2 0x6D1 DUP6 DUP3 DUP7 ADD PUSH2 0x3DE JUMP JUMPDEST SWAP2 POP POP SWAP3 POP SWAP3 SWAP1 POP JUMP JUMPDEST PUSH32 0x4E487B7100000000000000000000000000000000000000000000000000000000 PUSH0 MSTORE PUSH1 0x11 PUSH1 0x4 MSTORE PUSH1 0x24 PUSH0 REVERT JUMPDEST PUSH0 PUSH2 0x712 DUP3 PUSH2 0x326 JUMP JUMPDEST SWAP2 POP PUSH2 0x71D DUP4 PUSH2 0x326 JUMP JUMPDEST SWAP3 POP DUP3 DUP3 ADD SWAP1 POP DUP3 DUP2 SLT ISZERO PUSH0 DUP4 SLT AND DUP4 DUP3 SLT PUSH0 DUP5 SLT ISZERO AND OR ISZERO PUSH2 0x743 JUMPI PUSH2 0x742 PUSH2 0x6DB JUMP JUMPDEST JUMPDEST SWAP3 SWAP2 POP POP JUMP JUMPDEST PUSH32 0x4E487B7100000000000000000000000000000000000000000000000000000000 PUSH0 MSTORE PUSH1 0x22 PUSH1 0x4 MSTORE PUSH1 0x24 PUSH0 REVERT JUMPDEST PUSH0 PUSH1 0x2 DUP3 DIV SWAP1 POP PUSH1 0x1 DUP3 AND DUP1 PUSH2 0x78D JUMPI PUSH1 0x7F DUP3 AND SWAP2 POP JUMPDEST PUSH1 0x20 DUP3 LT DUP2 SUB PUSH2 0x7A0 JUMPI PUSH2 0x79F PUSH2 0x749 JUMP JUMPDEST JUMPDEST POP SWAP2 SWAP1 POP JUMP JUMPDEST PUSH0 DUP2 SWAP1 POP DUP2 PUSH0 MSTORE PUSH1 0x20 PUSH0 KECCAK256 SWAP1 POP SWAP2 SWAP1 POP JUMP JUMPDEST PUSH0 PUSH1 0x20 PUSH1 0x1F DUP4 ADD DIV SWAP1 POP SWAP2 SWAP1 POP JUMP JUMPDEST PUSH0 DUP3 DUP3 SHL SWAP1 POP SWAP3 SWAP2 POP POP JUMP JUMPDEST PUSH0 PUSH1 0x8 DUP4 MUL PUSH2 0x802 PUSH32 0xFFFFFFFFFFFFFFFFFFFFFFFFFFFFFFFFFFFFFFFFFFFFFFFFFFFFFFFFFFFFFFFF DUP3 PUSH2 0x7C7 JUMP JUMPDEST PUSH2 0x80C DUP7 DUP4 PUSH2 0x7C7 JUMP JUMPDEST SWAP6 POP DUP1 NOT DUP5 AND SWAP4 POP DUP1 DUP7 AND DUP5 OR SWAP3 POP POP POP SWAP4 SWAP3 POP POP POP JUMP JUMPDEST PUSH0 DUP2 SWAP1 POP SWAP2 SWAP1 POP JUMP JUMPDEST PUSH0 PUSH2 0x847 PUSH2 0x842 PUSH2 0x83D DUP5 PUSH2 0x3BF JUMP JUMPDEST PUSH2 0x824 JUMP JUMPDEST PUSH2 0x3BF JUMP JUMPDEST SWAP1 POP SWAP2 SWAP1 POP JUMP JUMPDEST PUSH0 DUP2 SWAP1 POP SWAP2 SWAP1 POP JUMP JUMPDEST PUSH2 0x860 DUP4 PUSH2 0x82D JUMP JUMPDEST PUSH2 0x874 PUSH2 0x86C DUP3 PUSH2 0x84E JUMP JUMPDEST DUP5 DUP5 SLOAD PUSH2 0x7D3 JUMP JUMPDEST DUP3 SSTORE POP POP POP POP JUMP JUMPDEST PUSH0 PUSH0 SWAP1 POP SWAP1 JUMP JUMPDEST PUSH2 0x88B PUSH2 0x87C JUMP JUMPDEST PUSH2 0x896 DUP2 DUP5 DUP5 PUSH2 0x857 JUMP JUMPDEST POP POP POP JUMP JUMPDEST PUSH0 JUMPDEST DUP3 DUP2 LT ISZERO PUSH2 0x8BC JUMPI PUSH2 0x8B1 PUSH0 DUP3 DUP5 ADD PUSH2 0x883 JUMP JUMPDEST PUSH1 0x1 DUP2 ADD SWAP1 POP PUSH2 0x89D JUMP JUMPDEST POP POP POP JUMP JUMPDEST PUSH1 0x1F DUP3 GT ISZERO PUSH2 0x90F JUMPI DUP3 DUP3 GT ISZERO PUSH2 0x90E JUMPI PUSH2 0x8DB DUP2 PUSH2 0x7A6 JUMP JUMPDEST PUSH2 0x8E4 DUP4 PUSH2 0x7B8 JUMP JUMPDEST PUSH2 0x8ED DUP6 PUSH2 0x7B8 JUMP JUMPDEST PUSH1 0x20 DUP7 LT ISZERO PUSH2 0x8FA JUMPI PUSH0 SWAP1 POP JUMPDEST DUP1 DUP4 ADD PUSH2 0x909 DUP3 DUP5 SUB DUP3 PUSH2 0x89B JUMP JUMPDEST POP POP POP POP JUMPDEST JUMPDEST POP POP POP JUMP JUMPDEST PUSH0 DUP3 DUP3 SHR SWAP1 POP SWAP3 SWAP2 POP POP JUMP JUMPDEST PUSH0 PUSH2 0x92F PUSH0 NOT DUP5 PUSH1 0x8 MUL PUSH2 0x914 JUMP JUMPDEST NOT DUP1 DUP4 AND SWAP2 POP POP SWAP3 SWAP2 POP POP JUMP JUMPDEST PUSH0 PUSH2 0x947 DUP4 DUP4 PUSH2 0x920 JUMP JUMPDEST SWAP2 POP DUP3 PUSH1 0x2 MUL DUP3 OR SWAP1 POP SWAP3 SWAP2 POP POP JUMP JUMPDEST PUSH2 0x960 DUP3 PUSH2 0x41D JUMP JUMPDEST PUSH8 0xFFFFFFFFFFFFFFFF DUP2 GT ISZERO PUSH2 0x979 JUMPI PUSH2 0x978 PUSH2 0x4FD JUMP JUMPDEST JUMPDEST PUSH2 0x983 DUP3 SLOAD PUSH2 0x776 JUMP JUMPDEST PUSH2 0x98E DUP3 DUP3 DUP6 PUSH2 0x8C1 JUMP JUMPDEST PUSH0 PUSH1 0x20 SWAP1 POP PUSH1 0x1F DUP4 GT PUSH1 0x1 DUP2 EQ PUSH2 0x9BF JUMPI PUSH0 DUP5 ISZERO PUSH2 0x9AD JUMPI DUP3 DUP8 ADD MLOAD SWAP1 POP JUMPDEST PUSH2 0x9B7 DUP6 DUP3 PUSH2 0x93C JUMP JUMPDEST DUP7 SSTORE POP PUSH2 0xA1E JUMP JUMPDEST PUSH1 0x1F NOT DUP5 AND PUSH2 0x9CD DUP7 PUSH2 0x7A6 JUMP JUMPDEST PUSH0 JUMPDEST DUP3 DUP2 LT ISZERO PUSH2 0x9F4 JUMPI DUP5 DUP10 ADD MLOAD DUP3 SSTORE PUSH1 0x1 DUP3 ADD SWAP2 POP PUSH1 0x20 DUP6 ADD SWAP5 POP PUSH1 0x20 DUP2 ADD SWAP1 POP PUSH2 0x9CF JUMP JUMPDEST DUP7 DUP4 LT ISZERO PUSH2 0xA11 JUMPI DUP5 DUP10 ADD MLOAD PUSH2 0xA0D PUSH1 0x1F DUP10 AND DUP3 PUSH2 0x920 JUMP JUMPDEST DUP4 SSTORE POP JUMPDEST PUSH1 0x1 PUSH1 0x2 DUP9 MUL ADD DUP9 SSTORE POP POP POP JUMPDEST POP POP POP POP POP POP JUMP JUMPDEST PUSH0 DUP2 SWAP1 POP SWAP3 SWAP2 POP POP JUMP JUMPDEST PUSH0 PUSH2 0xA3A DUP3 PUSH2 0x41D JUMP JUMPDEST PUSH2 0xA44 DUP2 DUP6 PUSH2 0xA26 JUMP JUMPDEST SWAP4 POP PUSH2 0xA54 DUP2 DUP6 PUSH1 0x20 DUP7 ADD PUSH2 0x437 JUMP JUMPDEST DUP1 DUP5 ADD SWAP2 POP POP SWAP3 SWAP2 POP POP JUMP JUMPDEST PUSH0 PUSH2 0xA6B DUP3 DUP5 PUSH2 0xA30 JUMP JUMPDEST SWAP2 POP DUP2 SWAP1 POP SWAP3 SWAP2 POP POP JUMP INVALID LOG2 PUSH5 0x6970667358 0x22 SLT KECCAK256 CALL ADDRESS SMOD JUMPF 0x5F8D PUSH3 0x41A2B LT PUSH4 0x662DACC RETURNDATACOPY CREATE COINBASE 0xD4 PUSH19 0x53057CA706FDAD6C7CC5164736F6C63430008 0x22 STOP CALLER "
				},
				"gasEstimates": {
					"creation": {
						"codeDepositCost": "546400",
						"executionCost": "579",
						"totalCost": "546979"
					},
					"external": {
						"addDataSet(string,uint256)": "infinite",
						"addNum(int256,int256)": "infinite",
						"listOfDataSet(uint256)": "infinite",
						"nameToAge(string)": "infinite",
						"num()": "2469",
						"setNum(int256)": "22536",
						"viewNum()": "2431"
					}
				},
				"methodIdentifiers": {
					"addDataSet(string,uint256)": "c8dc4ef8",
					"addNum(int256,int256)": "19e9a181",
					"listOfDataSet(uint256)": "1a8cd568",
					"nameToAge(string)": "90c3ee4d",
					"num()": "4e70b1dc",
					"setNum(int256)": "6a5aa5ec",
					"viewNum()": "54c5b148"
				}
			},
			"storageLayout": {
				"storage": [
					{
						"astId": 3,
						"contract": "SimpleStorage/Practice2.sol:Practice2",
						"label": "num",
						"offset": 0,
						"slot": "0",
						"type": "t_int256"
					},
					{
						"astId": 12,
						"contract": "SimpleStorage/Practice2.sol:Practice2",
						"label": "nameToAge",
						"offset": 0,
						"slot": "1",
						"type": "t_mapping(t_string_memory_ptr,t_uint256)"
					},
					{
						"astId": 16,
						"contract": "SimpleStorage/Practice2.sol:Practice2",
						"label": "listOfDataSet",
						"offset": 0,
						"slot": "2",
						"type": "t_array(t_struct(dataSet)8_storage)dyn_storage"
					}
				],
				"types": {
					"t_array(t_struct(dataSet)8_storage)dyn_storage": {
						"base": "t_struct(dataSet)8_storage",
						"encoding": "dynamic_array",
						"label": "struct Practice2.dataSet[]",
						"numberOfBytes": "32"
					},
					"t_int256": {
						"encoding": "inplace",
						"label": "int256",
						"numberOfBytes": "32"
					},
					"t_mapping(t_string_memory_ptr,t_uint256)": {
						"encoding": "mapping",
						"key": "t_string_memory_ptr",
						"label": "mapping(string => uint256)",
						"numberOfBytes": "32",
						"value": "t_uint256"
					},
					"t_string_memory_ptr": {
						"encoding": "bytes",
						"label": "string",
						"numberOfBytes": "32"
					},
					"t_string_storage": {
						"encoding": "bytes",
						"label": "string",
						"numberOfBytes": "32"
					},
					"t_struct(dataSet)8_storage": {
						"encoding": "inplace",
						"label": "struct Practice2.dataSet",
						"members": [
							{
								"astId": 5,
								"contract": "SimpleStorage/Practice2.sol:Practice2",
								"label": "name",
								"offset": 0,
								"slot": "0",
								"type": "t_string_storage"
							},
							{
								"astId": 7,
								"contract": "SimpleStorage/Practice2.sol:Practice2",
								"label": "age",
								"offset": 0,
								"slot": "1",
								"type": "t_uint256"
							}
						],
						"numberOfBytes": "64"
					},
					"t_uint256": {
						"encoding": "inplace",
						"label": "uint256",
						"numberOfBytes": "32"
					}
				}
			},
			"userdoc": {
				"kind": "user",
				"methods": {},
				"version": 1
			}
		}
	}
}