{
	"Project/FundMe9Prac.sol": {
		"giveMeFund": {
			"abi": [
				{
					"inputs": [],
					"stateMutability": "nonpayable",
					"type": "constructor"
				},
				{
					"inputs": [
						{
							"internalType": "address",
							"name": "funders",
							"type": "address"
						}
					],
					"name": "AddToAmnt",
					"outputs": [
						{
							"internalType": "uint256",
							"name": "NetAmountPaid",
							"type": "uint256"
						}
					],
					"stateMutability": "view",
					"type": "function"
				},
				{
					"inputs": [
						{
							"internalType": "uint256",
							"name": "ethAmount",
							"type": "uint256"
						}
					],
					"name": "AmntInUsd",
					"outputs": [
						{
							"internalType": "uint256",
							"name": "",
							"type": "uint256"
						}
					],
					"stateMutability": "view",
					"type": "function"
				},
				{
					"inputs": [],
					"name": "Minimum_USD",
					"outputs": [
						{
							"internalType": "uint256",
							"name": "",
							"type": "uint256"
						}
					],
					"stateMutability": "view",
					"type": "function"
				},
				{
					"inputs": [
						{
							"internalType": "uint256",
							"name": "",
							"type": "uint256"
						}
					],
					"name": "UsersAddress",
					"outputs": [
						{
							"internalType": "address",
							"name": "",
							"type": "address"
						}
					],
					"stateMutability": "view",
					"type": "function"
				},
				{
					"inputs": [],
					"name": "fund",
					"outputs": [],
					"stateMutability": "payable",
					"type": "function"
				},
				{
					"inputs": [],
					"name": "getPrice",
					"outputs": [
						{
							"internalType": "uint256",
							"name": "",
							"type": "uint256"
						}
					],
					"stateMutability": "view",
					"type": "function"
				},
				{
					"inputs": [],
					"name": "owner",
					"outputs": [
						{
							"internalType": "address",
							"name": "",
							"type": "address"
						}
					],
					"stateMutability": "view",
					"type": "function"
				},
				{
					"inputs": [],
					"name": "withdraw",
					"outputs": [],
					"stateMutability": "nonpayable",
					"type": "function"
				}
			],
			"devdoc": {
				"kind": "dev",
				"methods": {},
				"version": 1
			},
			"evm": {
				"assembly": "    /* \"Project/FundMe9Prac.sol\":179:1550  contract giveMeFund{... */\n  mstore(0x40, 0x80)\n    /* \"Project/FundMe9Prac.sol\":382:424  constructor(){... */\n  callvalue\n  dup1\n  iszero\n  tag_1\n  jumpi\n  0x00\n  dup1\n  revert\ntag_1:\n  pop\n    /* \"Project/FundMe9Prac.sol\":410:420  msg.sender */\n  caller\n    /* \"Project/FundMe9Prac.sol\":402:407  owner */\n  0x02\n  0x00\n    /* \"Project/FundMe9Prac.sol\":402:420  owner = msg.sender */\n  0x0100\n  exp\n  dup2\n  sload\n  dup2\n  0xffffffffffffffffffffffffffffffffffffffff\n  mul\n  not\n  and\n  swap1\n  dup4\n  0xffffffffffffffffffffffffffffffffffffffff\n  and\n  mul\n  or\n  swap1\n  sstore\n  pop\n    /* \"Project/FundMe9Prac.sol\":179:1550  contract giveMeFund{... */\n  dataSize(sub_0)\n  dup1\n  dataOffset(sub_0)\n  0x00\n  codecopy\n  0x00\n  return\nstop\n\nsub_0: assembly {\n        /* \"Project/FundMe9Prac.sol\":179:1550  contract giveMeFund{... */\n      mstore(0x40, 0x80)\n      jumpi(tag_1, lt(calldatasize, 0x04))\n      shr(0xe0, calldataload(0x00))\n      dup1\n      0xb60d4288\n      gt\n      tag_10\n      jumpi\n      dup1\n      0xb60d4288\n      eq\n      tag_6\n      jumpi\n      dup1\n      0xbd6d2adb\n      eq\n      tag_7\n      jumpi\n      dup1\n      0xea8906e9\n      eq\n      tag_8\n      jumpi\n      dup1\n      0xf6d24a20\n      eq\n      tag_9\n      jumpi\n      jump(tag_1)\n    tag_10:\n      dup1\n      0x3ccfd60b\n      eq\n      tag_2\n      jumpi\n      dup1\n      0x819188cf\n      eq\n      tag_3\n      jumpi\n      dup1\n      0x8da5cb5b\n      eq\n      tag_4\n      jumpi\n      dup1\n      0x98d5fdca\n      eq\n      tag_5\n      jumpi\n    tag_1:\n      0x00\n      dup1\n      revert\n        /* \"Project/FundMe9Prac.sol\":1074:1444  function withdraw() public onlyOwner{... */\n    tag_2:\n      callvalue\n      dup1\n      iszero\n      tag_11\n      jumpi\n      0x00\n      dup1\n      revert\n    tag_11:\n      pop\n      tag_12\n      tag_13\n      jump\t// in\n    tag_12:\n      stop\n        /* \"Project/FundMe9Prac.sol\":254:283  address[] public UsersAddress */\n    tag_3:\n      callvalue\n      dup1\n      iszero\n      tag_14\n      jumpi\n      0x00\n      dup1\n      revert\n    tag_14:\n      pop\n      tag_15\n      0x04\n      dup1\n      calldatasize\n      sub\n      dup2\n      add\n      swap1\n      tag_16\n      swap2\n      swap1\n      tag_17\n      jump\t// in\n    tag_16:\n      tag_18\n      jump\t// in\n    tag_15:\n      mload(0x40)\n      tag_19\n      swap2\n      swap1\n      tag_20\n      jump\t// in\n    tag_19:\n      mload(0x40)\n      dup1\n      swap2\n      sub\n      swap1\n      return\n        /* \"Project/FundMe9Prac.sol\":357:377  address public owner */\n    tag_4:\n      callvalue\n      dup1\n      iszero\n      tag_21\n      jumpi\n      0x00\n      dup1\n      revert\n    tag_21:\n      pop\n      tag_22\n      tag_23\n      jump\t// in\n    tag_22:\n      mload(0x40)\n      tag_24\n      swap2\n      swap1\n      tag_20\n      jump\t// in\n    tag_24:\n      mload(0x40)\n      dup1\n      swap2\n      sub\n      swap1\n      return\n        /* \"Project/FundMe9Prac.sol\":656:848  function getPrice() public view returns(uint256){... */\n    tag_5:\n      callvalue\n      dup1\n      iszero\n      tag_25\n      jumpi\n      0x00\n      dup1\n      revert\n    tag_25:\n      pop\n      tag_26\n      tag_27\n      jump\t// in\n    tag_26:\n      mload(0x40)\n      tag_28\n      swap2\n      swap1\n      tag_29\n      jump\t// in\n    tag_28:\n      mload(0x40)\n      dup1\n      swap2\n      sub\n      swap1\n      return\n        /* \"Project/FundMe9Prac.sol\":428:652  function fund() public payable{... */\n    tag_6:\n      tag_30\n      tag_31\n      jump\t// in\n    tag_30:\n      stop\n        /* \"Project/FundMe9Prac.sol\":203:249  uint256 public constant Minimum_USD = 5 * 1e18 */\n    tag_7:\n      callvalue\n      dup1\n      iszero\n      tag_32\n      jumpi\n      0x00\n      dup1\n      revert\n    tag_32:\n      pop\n      tag_33\n      tag_34\n      jump\t// in\n    tag_33:\n      mload(0x40)\n      tag_35\n      swap2\n      swap1\n      tag_29\n      jump\t// in\n    tag_35:\n      mload(0x40)\n      dup1\n      swap2\n      sub\n      swap1\n      return\n        /* \"Project/FundMe9Prac.sol\":286:352  mapping(address funders => uint256 NetAmountPaid) public AddToAmnt */\n    tag_8:\n      callvalue\n      dup1\n      iszero\n      tag_36\n      jumpi\n      0x00\n      dup1\n      revert\n    tag_36:\n      pop\n      tag_37\n      0x04\n      dup1\n      calldatasize\n      sub\n      dup2\n      add\n      swap1\n      tag_38\n      swap2\n      swap1\n      tag_39\n      jump\t// in\n    tag_38:\n      tag_40\n      jump\t// in\n    tag_37:\n      mload(0x40)\n      tag_41\n      swap2\n      swap1\n      tag_29\n      jump\t// in\n    tag_41:\n      mload(0x40)\n      dup1\n      swap2\n      sub\n      swap1\n      return\n        /* \"Project/FundMe9Prac.sol\":852:1070  function AmntInUsd(uint256 ethAmount) public view returns(uint256){... */\n    tag_9:\n      callvalue\n      dup1\n      iszero\n      tag_42\n      jumpi\n      0x00\n      dup1\n      revert\n    tag_42:\n      pop\n      tag_43\n      0x04\n      dup1\n      calldatasize\n      sub\n      dup2\n      add\n      swap1\n      tag_44\n      swap2\n      swap1\n      tag_17\n      jump\t// in\n    tag_44:\n      tag_45\n      jump\t// in\n    tag_43:\n      mload(0x40)\n      tag_46\n      swap2\n      swap1\n      tag_29\n      jump\t// in\n    tag_46:\n      mload(0x40)\n      dup1\n      swap2\n      sub\n      swap1\n      return\n        /* \"Project/FundMe9Prac.sol\":1074:1444  function withdraw() public onlyOwner{... */\n    tag_13:\n        /* \"Project/FundMe9Prac.sol\":1494:1499  owner */\n      0x02\n      0x00\n      swap1\n      sload\n      swap1\n      0x0100\n      exp\n      swap1\n      div\n      0xffffffffffffffffffffffffffffffffffffffff\n      and\n        /* \"Project/FundMe9Prac.sol\":1480:1499  msg.sender == owner */\n      0xffffffffffffffffffffffffffffffffffffffff\n      and\n        /* \"Project/FundMe9Prac.sol\":1480:1490  msg.sender */\n      caller\n        /* \"Project/FundMe9Prac.sol\":1480:1499  msg.sender == owner */\n      0xffffffffffffffffffffffffffffffffffffffff\n      and\n      eq\n        /* \"Project/FundMe9Prac.sol\":1472:1538  require(msg.sender == owner , \"You aint an owner brooo,Hard Luck\") */\n      tag_48\n      jumpi\n      mload(0x40)\n      0x08c379a000000000000000000000000000000000000000000000000000000000\n      dup2\n      mstore\n      0x04\n      add\n      tag_49\n      swap1\n      tag_50\n      jump\t// in\n    tag_49:\n      mload(0x40)\n      dup1\n      swap2\n      sub\n      swap1\n      revert\n    tag_48:\n        /* \"Project/FundMe9Prac.sol\":1128:1134  uint i */\n      0x00\n        /* \"Project/FundMe9Prac.sol\":1124:1253  for(uint i = 0 ;i<UsersAddress.length ; i++){... */\n    tag_52:\n        /* \"Project/FundMe9Prac.sol\":1142:1154  UsersAddress */\n      0x00\n        /* \"Project/FundMe9Prac.sol\":1142:1161  UsersAddress.length */\n      dup1\n      sload\n      swap1\n      pop\n        /* \"Project/FundMe9Prac.sol\":1140:1141  i */\n      dup2\n        /* \"Project/FundMe9Prac.sol\":1140:1161  i<UsersAddress.length */\n      lt\n        /* \"Project/FundMe9Prac.sol\":1124:1253  for(uint i = 0 ;i<UsersAddress.length ; i++){... */\n      iszero\n      tag_53\n      jumpi\n        /* \"Project/FundMe9Prac.sol\":1179:1194  address funders */\n      0x00\n        /* \"Project/FundMe9Prac.sol\":1197:1209  UsersAddress */\n      dup1\n        /* \"Project/FundMe9Prac.sol\":1210:1211  i */\n      dup3\n        /* \"Project/FundMe9Prac.sol\":1197:1212  UsersAddress[i] */\n      dup2\n      sload\n      dup2\n      lt\n      tag_55\n      jumpi\n      tag_56\n      tag_57\n      jump\t// in\n    tag_56:\n    tag_55:\n      swap1\n      0x00\n      mstore\n      keccak256(0x00, 0x20)\n      add\n      0x00\n      swap1\n      sload\n      swap1\n      0x0100\n      exp\n      swap1\n      div\n      0xffffffffffffffffffffffffffffffffffffffff\n      and\n        /* \"Project/FundMe9Prac.sol\":1179:1212  address funders = UsersAddress[i] */\n      swap1\n      pop\n        /* \"Project/FundMe9Prac.sol\":1244:1245  0 */\n      0x00\n        /* \"Project/FundMe9Prac.sol\":1223:1232  AddToAmnt */\n      0x01\n        /* \"Project/FundMe9Prac.sol\":1223:1241  AddToAmnt[funders] */\n      0x00\n        /* \"Project/FundMe9Prac.sol\":1233:1240  funders */\n      dup4\n        /* \"Project/FundMe9Prac.sol\":1223:1241  AddToAmnt[funders] */\n      0xffffffffffffffffffffffffffffffffffffffff\n      and\n      0xffffffffffffffffffffffffffffffffffffffff\n      and\n      dup2\n      mstore\n      0x20\n      add\n      swap1\n      dup2\n      mstore\n      0x20\n      add\n      0x00\n      keccak256\n        /* \"Project/FundMe9Prac.sol\":1223:1245  AddToAmnt[funders] = 0 */\n      dup2\n      swap1\n      sstore\n      pop\n        /* \"Project/FundMe9Prac.sol\":1168:1253  {... */\n      pop\n        /* \"Project/FundMe9Prac.sol\":1164:1167  i++ */\n      dup1\n      dup1\n      0x01\n      add\n      swap2\n      pop\n      pop\n        /* \"Project/FundMe9Prac.sol\":1124:1253  for(uint i = 0 ;i<UsersAddress.length ; i++){... */\n      jump(tag_52)\n    tag_53:\n      pop\n        /* \"Project/FundMe9Prac.sol\":1290:1291  0 */\n      0x00\n        /* \"Project/FundMe9Prac.sol\":1276:1292  new address[](0) */\n      0xffffffffffffffff\n      dup2\n      gt\n      iszero\n      tag_59\n      jumpi\n      tag_60\n      tag_61\n      jump\t// in\n    tag_60:\n    tag_59:\n      mload(0x40)\n      swap1\n      dup1\n      dup3\n      mstore\n      dup1\n      0x20\n      mul\n      0x20\n      add\n      dup3\n      add\n      0x40\n      mstore\n      dup1\n      iszero\n      tag_62\n      jumpi\n      dup2\n      0x20\n      add\n      0x20\n      dup3\n      mul\n      dup1\n      calldatasize\n      dup4\n      calldatacopy\n      dup1\n      dup3\n      add\n      swap2\n      pop\n      pop\n      swap1\n      pop\n    tag_62:\n      pop\n        /* \"Project/FundMe9Prac.sol\":1261:1273  UsersAddress */\n      0x00\n        /* \"Project/FundMe9Prac.sol\":1261:1292  UsersAddress = new address[](0) */\n      swap1\n      dup2\n      tag_63\n      swap2\n      swap1\n      tag_64\n      jump\t// in\n    tag_63:\n      pop\n        /* \"Project/FundMe9Prac.sol\":1322:1335  bool sendSucc */\n      0x00\n        /* \"Project/FundMe9Prac.sol\":1349:1359  msg.sender */\n      caller\n        /* \"Project/FundMe9Prac.sol\":1341:1365  payable(msg.sender).call */\n      0xffffffffffffffffffffffffffffffffffffffff\n      and\n        /* \"Project/FundMe9Prac.sol\":1372:1393  address(this).balance */\n      selfbalance\n        /* \"Project/FundMe9Prac.sol\":1341:1398  payable(msg.sender).call{value:address(this).balance}(\"\") */\n      mload(0x40)\n      tag_65\n      swap1\n      tag_66\n      jump\t// in\n    tag_65:\n      0x00\n      mload(0x40)\n      dup1\n      dup4\n      sub\n      dup2\n      dup6\n      dup8\n      gas\n      call\n      swap3\n      pop\n      pop\n      pop\n      returndatasize\n      dup1\n      0x00\n      dup2\n      eq\n      tag_69\n      jumpi\n      mload(0x40)\n      swap2\n      pop\n      and(add(returndatasize, 0x3f), not(0x1f))\n      dup3\n      add\n      0x40\n      mstore\n      returndatasize\n      dup3\n      mstore\n      returndatasize\n      0x00\n      0x20\n      dup5\n      add\n      returndatacopy\n      jump(tag_68)\n    tag_69:\n      0x60\n      swap2\n      pop\n    tag_68:\n      pop\n        /* \"Project/FundMe9Prac.sol\":1321:1398  (bool sendSucc ,) = payable(msg.sender).call{value:address(this).balance}(\"\") */\n      pop\n      swap1\n      pop\n        /* \"Project/FundMe9Prac.sol\":1412:1420  sendSucc */\n      dup1\n        /* \"Project/FundMe9Prac.sol\":1404:1438  require(sendSucc , \"Trans Failed\") */\n      tag_70\n      jumpi\n      mload(0x40)\n      0x08c379a000000000000000000000000000000000000000000000000000000000\n      dup2\n      mstore\n      0x04\n      add\n      tag_71\n      swap1\n      tag_72\n      jump\t// in\n    tag_71:\n      mload(0x40)\n      dup1\n      swap2\n      sub\n      swap1\n      revert\n    tag_70:\n        /* \"Project/FundMe9Prac.sol\":1110:1444  {... */\n      pop\n        /* \"Project/FundMe9Prac.sol\":1074:1444  function withdraw() public onlyOwner{... */\n      jump\t// out\n        /* \"Project/FundMe9Prac.sol\":254:283  address[] public UsersAddress */\n    tag_18:\n      0x00\n      dup2\n      dup2\n      sload\n      dup2\n      lt\n      tag_73\n      jumpi\n      0x00\n      dup1\n      revert\n    tag_73:\n      swap1\n      0x00\n      mstore\n      keccak256(0x00, 0x20)\n      add\n      0x00\n      swap2\n      pop\n      sload\n      swap1\n      0x0100\n      exp\n      swap1\n      div\n      0xffffffffffffffffffffffffffffffffffffffff\n      and\n      dup2\n      jump\t// out\n        /* \"Project/FundMe9Prac.sol\":357:377  address public owner */\n    tag_23:\n      0x02\n      0x00\n      swap1\n      sload\n      swap1\n      0x0100\n      exp\n      swap1\n      div\n      0xffffffffffffffffffffffffffffffffffffffff\n      and\n      dup2\n      jump\t// out\n        /* \"Project/FundMe9Prac.sol\":656:848  function getPrice() public view returns(uint256){... */\n    tag_27:\n        /* \"Project/FundMe9Prac.sol\":696:703  uint256 */\n      0x00\n        /* \"Project/FundMe9Prac.sol\":711:723  int256 price */\n      dup1\n        /* \"Project/FundMe9Prac.sol\":752:794  0x5f4eC3Df9cbd43714FE2740f5E3616155c5b8419 */\n      0x5f4ec3df9cbd43714fe2740f5e3616155c5b8419\n        /* \"Project/FundMe9Prac.sol\":730:811  AggregatorV3Interface(0x5f4eC3Df9cbd43714FE2740f5E3616155c5b8419).latestRoundData */\n      0xffffffffffffffffffffffffffffffffffffffff\n      and\n      0xfeaf968c\n        /* \"Project/FundMe9Prac.sol\":730:813  AggregatorV3Interface(0x5f4eC3Df9cbd43714FE2740f5E3616155c5b8419).latestRoundData() */\n      mload(0x40)\n      dup2\n      0xffffffff\n      and\n      0xe0\n      shl\n      dup2\n      mstore\n      0x04\n      add\n      0xa0\n      mload(0x40)\n      dup1\n      dup4\n      sub\n      dup2\n      dup7\n      gas\n      staticcall\n      iszero\n      dup1\n      iszero\n      tag_77\n      jumpi\n      returndatasize\n      0x00\n      dup1\n      returndatacopy\n      revert(0x00, returndatasize)\n    tag_77:\n      pop\n      pop\n      pop\n      pop\n      mload(0x40)\n      returndatasize\n      not(0x1f)\n      0x1f\n      dup3\n      add\n      and\n      dup3\n      add\n      dup1\n      0x40\n      mstore\n      pop\n      dup2\n      add\n      swap1\n      tag_78\n      swap2\n      swap1\n      tag_79\n      jump\t// in\n    tag_78:\n        /* \"Project/FundMe9Prac.sol\":709:813  (,int256 price,,,) = AggregatorV3Interface(0x5f4eC3Df9cbd43714FE2740f5E3616155c5b8419).latestRoundData() */\n      pop\n      pop\n      pop\n      swap2\n      pop\n      pop\n        /* \"Project/FundMe9Prac.sol\":839:843  1e10 */\n      0x02540be400\n        /* \"Project/FundMe9Prac.sol\":833:838  price */\n      dup2\n        /* \"Project/FundMe9Prac.sol\":833:843  price*1e10 */\n      tag_80\n      swap2\n      swap1\n      tag_81\n      jump\t// in\n    tag_80:\n        /* \"Project/FundMe9Prac.sol\":818:844  return uint256(price*1e10) */\n      swap2\n      pop\n      pop\n        /* \"Project/FundMe9Prac.sol\":656:848  function getPrice() public view returns(uint256){... */\n      swap1\n      jump\t// out\n        /* \"Project/FundMe9Prac.sol\":428:652  function fund() public payable{... */\n    tag_31:\n        /* \"Project/FundMe9Prac.sol\":241:249  5 * 1e18 */\n      0x4563918244f40000\n        /* \"Project/FundMe9Prac.sol\":473:493  AmntInUsd(msg.value) */\n      tag_83\n        /* \"Project/FundMe9Prac.sol\":483:492  msg.value */\n      callvalue\n        /* \"Project/FundMe9Prac.sol\":473:482  AmntInUsd */\n      tag_45\n        /* \"Project/FundMe9Prac.sol\":473:493  AmntInUsd(msg.value) */\n      jump\t// in\n    tag_83:\n        /* \"Project/FundMe9Prac.sol\":473:505  AmntInUsd(msg.value)>Minimum_USD */\n      gt\n        /* \"Project/FundMe9Prac.sol\":465:546  require(AmntInUsd(msg.value)>Minimum_USD , \"Work hard and pay me more ETH brooo\") */\n      tag_84\n      jumpi\n      mload(0x40)\n      0x08c379a000000000000000000000000000000000000000000000000000000000\n      dup2\n      mstore\n      0x04\n      add\n      tag_85\n      swap1\n      tag_86\n      jump\t// in\n    tag_85:\n      mload(0x40)\n      dup1\n      swap2\n      sub\n      swap1\n      revert\n    tag_84:\n        /* \"Project/FundMe9Prac.sol\":553:565  UsersAddress */\n      0x00\n        /* \"Project/FundMe9Prac.sol\":571:581  msg.sender */\n      caller\n        /* \"Project/FundMe9Prac.sol\":553:582  UsersAddress.push(msg.sender) */\n      swap1\n      dup1\n      0x01\n      dup2\n      sload\n      add\n      dup1\n      dup3\n      sstore\n      dup1\n      swap2\n      pop\n      pop\n      0x01\n      swap1\n      sub\n      swap1\n      0x00\n      mstore\n      keccak256(0x00, 0x20)\n      add\n      0x00\n      swap1\n      swap2\n      swap1\n      swap2\n      swap1\n      swap2\n      0x0100\n      exp\n      dup2\n      sload\n      dup2\n      0xffffffffffffffffffffffffffffffffffffffff\n      mul\n      not\n      and\n      swap1\n      dup4\n      0xffffffffffffffffffffffffffffffffffffffff\n      and\n      mul\n      or\n      swap1\n      sstore\n      pop\n        /* \"Project/FundMe9Prac.sol\":637:646  msg.value */\n      callvalue\n        /* \"Project/FundMe9Prac.sol\":613:622  AddToAmnt */\n      0x01\n        /* \"Project/FundMe9Prac.sol\":613:634  AddToAmnt[msg.sender] */\n      0x00\n        /* \"Project/FundMe9Prac.sol\":623:633  msg.sender */\n      caller\n        /* \"Project/FundMe9Prac.sol\":613:634  AddToAmnt[msg.sender] */\n      0xffffffffffffffffffffffffffffffffffffffff\n      and\n      0xffffffffffffffffffffffffffffffffffffffff\n      and\n      dup2\n      mstore\n      0x20\n      add\n      swap1\n      dup2\n      mstore\n      0x20\n      add\n      0x00\n      keccak256\n      sload\n        /* \"Project/FundMe9Prac.sol\":613:646  AddToAmnt[msg.sender] + msg.value */\n      tag_88\n      swap2\n      swap1\n      tag_89\n      jump\t// in\n    tag_88:\n        /* \"Project/FundMe9Prac.sol\":589:598  AddToAmnt */\n      0x01\n        /* \"Project/FundMe9Prac.sol\":589:610  AddToAmnt[msg.sender] */\n      0x00\n        /* \"Project/FundMe9Prac.sol\":599:609  msg.sender */\n      caller\n        /* \"Project/FundMe9Prac.sol\":589:610  AddToAmnt[msg.sender] */\n      0xffffffffffffffffffffffffffffffffffffffff\n      and\n      0xffffffffffffffffffffffffffffffffffffffff\n      and\n      dup2\n      mstore\n      0x20\n      add\n      swap1\n      dup2\n      mstore\n      0x20\n      add\n      0x00\n      keccak256\n        /* \"Project/FundMe9Prac.sol\":589:646  AddToAmnt[msg.sender] = AddToAmnt[msg.sender] + msg.value */\n      dup2\n      swap1\n      sstore\n      pop\n        /* \"Project/FundMe9Prac.sol\":428:652  function fund() public payable{... */\n      jump\t// out\n        /* \"Project/FundMe9Prac.sol\":203:249  uint256 public constant Minimum_USD = 5 * 1e18 */\n    tag_34:\n        /* \"Project/FundMe9Prac.sol\":241:249  5 * 1e18 */\n      0x4563918244f40000\n        /* \"Project/FundMe9Prac.sol\":203:249  uint256 public constant Minimum_USD = 5 * 1e18 */\n      dup2\n      jump\t// out\n        /* \"Project/FundMe9Prac.sol\":286:352  mapping(address funders => uint256 NetAmountPaid) public AddToAmnt */\n    tag_40:\n      mstore(0x20, 0x01)\n      dup1\n      0x00\n      mstore\n      keccak256(0x00, 0x40)\n      0x00\n      swap2\n      pop\n      swap1\n      pop\n      sload\n      dup2\n      jump\t// out\n        /* \"Project/FundMe9Prac.sol\":852:1070  function AmntInUsd(uint256 ethAmount) public view returns(uint256){... */\n    tag_45:\n        /* \"Project/FundMe9Prac.sol\":910:917  uint256 */\n      0x00\n        /* \"Project/FundMe9Prac.sol\":925:952  uint256 singleEthPriceInUsd */\n      dup1\n        /* \"Project/FundMe9Prac.sol\":955:965  getPrice() */\n      tag_91\n        /* \"Project/FundMe9Prac.sol\":955:963  getPrice */\n      tag_27\n        /* \"Project/FundMe9Prac.sol\":955:965  getPrice() */\n      jump\t// in\n    tag_91:\n        /* \"Project/FundMe9Prac.sol\":925:965  uint256 singleEthPriceInUsd = getPrice() */\n      swap1\n      pop\n        /* \"Project/FundMe9Prac.sol\":972:992  uint TotalPriceInUsd */\n      0x00\n        /* \"Project/FundMe9Prac.sol\":1029:1033  1e18 */\n      0x0de0b6b3a7640000\n        /* \"Project/FundMe9Prac.sol\":1018:1027  ethAmount */\n      dup5\n        /* \"Project/FundMe9Prac.sol\":996:1015  singleEthPriceInUsd */\n      dup4\n        /* \"Project/FundMe9Prac.sol\":996:1027  singleEthPriceInUsd * ethAmount */\n      tag_92\n      swap2\n      swap1\n      tag_93\n      jump\t// in\n    tag_92:\n        /* \"Project/FundMe9Prac.sol\":995:1033  (singleEthPriceInUsd * ethAmount)/1e18 */\n      tag_94\n      swap2\n      swap1\n      tag_95\n      jump\t// in\n    tag_94:\n        /* \"Project/FundMe9Prac.sol\":972:1033  uint TotalPriceInUsd = (singleEthPriceInUsd * ethAmount)/1e18 */\n      swap1\n      pop\n        /* \"Project/FundMe9Prac.sol\":1049:1064  TotalPriceInUsd */\n      dup1\n        /* \"Project/FundMe9Prac.sol\":1042:1064  return TotalPriceInUsd */\n      swap3\n      pop\n      pop\n      pop\n        /* \"Project/FundMe9Prac.sol\":852:1070  function AmntInUsd(uint256 ethAmount) public view returns(uint256){... */\n      swap2\n      swap1\n      pop\n      jump\t// out\n        /* \"#utility.yul\":88:205   */\n    tag_97:\n        /* \"#utility.yul\":197:198   */\n      0x00\n        /* \"#utility.yul\":194:195   */\n      dup1\n        /* \"#utility.yul\":187:199   */\n      revert\n        /* \"#utility.yul\":334:411   */\n    tag_99:\n        /* \"#utility.yul\":371:378   */\n      0x00\n        /* \"#utility.yul\":400:405   */\n      dup2\n        /* \"#utility.yul\":389:405   */\n      swap1\n      pop\n        /* \"#utility.yul\":334:411   */\n      swap2\n      swap1\n      pop\n      jump\t// out\n        /* \"#utility.yul\":417:539   */\n    tag_100:\n        /* \"#utility.yul\":490:514   */\n      tag_159\n        /* \"#utility.yul\":508:513   */\n      dup2\n        /* \"#utility.yul\":490:514   */\n      tag_99\n      jump\t// in\n    tag_159:\n        /* \"#utility.yul\":483:488   */\n      dup2\n        /* \"#utility.yul\":480:515   */\n      eq\n        /* \"#utility.yul\":470:533   */\n      tag_160\n      jumpi\n        /* \"#utility.yul\":529:530   */\n      0x00\n        /* \"#utility.yul\":526:527   */\n      dup1\n        /* \"#utility.yul\":519:531   */\n      revert\n        /* \"#utility.yul\":470:533   */\n    tag_160:\n        /* \"#utility.yul\":417:539   */\n      pop\n      jump\t// out\n        /* \"#utility.yul\":545:684   */\n    tag_101:\n        /* \"#utility.yul\":591:596   */\n      0x00\n        /* \"#utility.yul\":629:635   */\n      dup2\n        /* \"#utility.yul\":616:636   */\n      calldataload\n        /* \"#utility.yul\":607:636   */\n      swap1\n      pop\n        /* \"#utility.yul\":645:678   */\n      tag_162\n        /* \"#utility.yul\":672:677   */\n      dup2\n        /* \"#utility.yul\":645:678   */\n      tag_100\n      jump\t// in\n    tag_162:\n        /* \"#utility.yul\":545:684   */\n      swap3\n      swap2\n      pop\n      pop\n      jump\t// out\n        /* \"#utility.yul\":690:1019   */\n    tag_17:\n        /* \"#utility.yul\":749:755   */\n      0x00\n        /* \"#utility.yul\":798:800   */\n      0x20\n        /* \"#utility.yul\":786:795   */\n      dup3\n        /* \"#utility.yul\":777:784   */\n      dup5\n        /* \"#utility.yul\":773:796   */\n      sub\n        /* \"#utility.yul\":769:801   */\n      slt\n        /* \"#utility.yul\":766:885   */\n      iszero\n      tag_164\n      jumpi\n        /* \"#utility.yul\":804:883   */\n      tag_165\n      tag_97\n      jump\t// in\n    tag_165:\n        /* \"#utility.yul\":766:885   */\n    tag_164:\n        /* \"#utility.yul\":924:925   */\n      0x00\n        /* \"#utility.yul\":949:1002   */\n      tag_166\n        /* \"#utility.yul\":994:1001   */\n      dup5\n        /* \"#utility.yul\":985:991   */\n      dup3\n        /* \"#utility.yul\":974:983   */\n      dup6\n        /* \"#utility.yul\":970:992   */\n      add\n        /* \"#utility.yul\":949:1002   */\n      tag_101\n      jump\t// in\n    tag_166:\n        /* \"#utility.yul\":939:1002   */\n      swap2\n      pop\n        /* \"#utility.yul\":895:1012   */\n      pop\n        /* \"#utility.yul\":690:1019   */\n      swap3\n      swap2\n      pop\n      pop\n      jump\t// out\n        /* \"#utility.yul\":1025:1151   */\n    tag_102:\n        /* \"#utility.yul\":1062:1069   */\n      0x00\n        /* \"#utility.yul\":1102:1144   */\n      0xffffffffffffffffffffffffffffffffffffffff\n        /* \"#utility.yul\":1095:1100   */\n      dup3\n        /* \"#utility.yul\":1091:1145   */\n      and\n        /* \"#utility.yul\":1080:1145   */\n      swap1\n      pop\n        /* \"#utility.yul\":1025:1151   */\n      swap2\n      swap1\n      pop\n      jump\t// out\n        /* \"#utility.yul\":1157:1253   */\n    tag_103:\n        /* \"#utility.yul\":1194:1201   */\n      0x00\n        /* \"#utility.yul\":1223:1247   */\n      tag_169\n        /* \"#utility.yul\":1241:1246   */\n      dup3\n        /* \"#utility.yul\":1223:1247   */\n      tag_102\n      jump\t// in\n    tag_169:\n        /* \"#utility.yul\":1212:1247   */\n      swap1\n      pop\n        /* \"#utility.yul\":1157:1253   */\n      swap2\n      swap1\n      pop\n      jump\t// out\n        /* \"#utility.yul\":1259:1377   */\n    tag_104:\n        /* \"#utility.yul\":1346:1370   */\n      tag_171\n        /* \"#utility.yul\":1364:1369   */\n      dup2\n        /* \"#utility.yul\":1346:1370   */\n      tag_103\n      jump\t// in\n    tag_171:\n        /* \"#utility.yul\":1341:1344   */\n      dup3\n        /* \"#utility.yul\":1334:1371   */\n      mstore\n        /* \"#utility.yul\":1259:1377   */\n      pop\n      pop\n      jump\t// out\n        /* \"#utility.yul\":1383:1605   */\n    tag_20:\n        /* \"#utility.yul\":1476:1480   */\n      0x00\n        /* \"#utility.yul\":1514:1516   */\n      0x20\n        /* \"#utility.yul\":1503:1512   */\n      dup3\n        /* \"#utility.yul\":1499:1517   */\n      add\n        /* \"#utility.yul\":1491:1517   */\n      swap1\n      pop\n        /* \"#utility.yul\":1527:1598   */\n      tag_173\n        /* \"#utility.yul\":1595:1596   */\n      0x00\n        /* \"#utility.yul\":1584:1593   */\n      dup4\n        /* \"#utility.yul\":1580:1597   */\n      add\n        /* \"#utility.yul\":1571:1577   */\n      dup5\n        /* \"#utility.yul\":1527:1598   */\n      tag_104\n      jump\t// in\n    tag_173:\n        /* \"#utility.yul\":1383:1605   */\n      swap3\n      swap2\n      pop\n      pop\n      jump\t// out\n        /* \"#utility.yul\":1611:1729   */\n    tag_105:\n        /* \"#utility.yul\":1698:1722   */\n      tag_175\n        /* \"#utility.yul\":1716:1721   */\n      dup2\n        /* \"#utility.yul\":1698:1722   */\n      tag_99\n      jump\t// in\n    tag_175:\n        /* \"#utility.yul\":1693:1696   */\n      dup3\n        /* \"#utility.yul\":1686:1723   */\n      mstore\n        /* \"#utility.yul\":1611:1729   */\n      pop\n      pop\n      jump\t// out\n        /* \"#utility.yul\":1735:1957   */\n    tag_29:\n        /* \"#utility.yul\":1828:1832   */\n      0x00\n        /* \"#utility.yul\":1866:1868   */\n      0x20\n        /* \"#utility.yul\":1855:1864   */\n      dup3\n        /* \"#utility.yul\":1851:1869   */\n      add\n        /* \"#utility.yul\":1843:1869   */\n      swap1\n      pop\n        /* \"#utility.yul\":1879:1950   */\n      tag_177\n        /* \"#utility.yul\":1947:1948   */\n      0x00\n        /* \"#utility.yul\":1936:1945   */\n      dup4\n        /* \"#utility.yul\":1932:1949   */\n      add\n        /* \"#utility.yul\":1923:1929   */\n      dup5\n        /* \"#utility.yul\":1879:1950   */\n      tag_105\n      jump\t// in\n    tag_177:\n        /* \"#utility.yul\":1735:1957   */\n      swap3\n      swap2\n      pop\n      pop\n      jump\t// out\n        /* \"#utility.yul\":1963:2085   */\n    tag_106:\n        /* \"#utility.yul\":2036:2060   */\n      tag_179\n        /* \"#utility.yul\":2054:2059   */\n      dup2\n        /* \"#utility.yul\":2036:2060   */\n      tag_103\n      jump\t// in\n    tag_179:\n        /* \"#utility.yul\":2029:2034   */\n      dup2\n        /* \"#utility.yul\":2026:2061   */\n      eq\n        /* \"#utility.yul\":2016:2079   */\n      tag_180\n      jumpi\n        /* \"#utility.yul\":2075:2076   */\n      0x00\n        /* \"#utility.yul\":2072:2073   */\n      dup1\n        /* \"#utility.yul\":2065:2077   */\n      revert\n        /* \"#utility.yul\":2016:2079   */\n    tag_180:\n        /* \"#utility.yul\":1963:2085   */\n      pop\n      jump\t// out\n        /* \"#utility.yul\":2091:2230   */\n    tag_107:\n        /* \"#utility.yul\":2137:2142   */\n      0x00\n        /* \"#utility.yul\":2175:2181   */\n      dup2\n        /* \"#utility.yul\":2162:2182   */\n      calldataload\n        /* \"#utility.yul\":2153:2182   */\n      swap1\n      pop\n        /* \"#utility.yul\":2191:2224   */\n      tag_182\n        /* \"#utility.yul\":2218:2223   */\n      dup2\n        /* \"#utility.yul\":2191:2224   */\n      tag_106\n      jump\t// in\n    tag_182:\n        /* \"#utility.yul\":2091:2230   */\n      swap3\n      swap2\n      pop\n      pop\n      jump\t// out\n        /* \"#utility.yul\":2236:2565   */\n    tag_39:\n        /* \"#utility.yul\":2295:2301   */\n      0x00\n        /* \"#utility.yul\":2344:2346   */\n      0x20\n        /* \"#utility.yul\":2332:2341   */\n      dup3\n        /* \"#utility.yul\":2323:2330   */\n      dup5\n        /* \"#utility.yul\":2319:2342   */\n      sub\n        /* \"#utility.yul\":2315:2347   */\n      slt\n        /* \"#utility.yul\":2312:2431   */\n      iszero\n      tag_184\n      jumpi\n        /* \"#utility.yul\":2350:2429   */\n      tag_185\n      tag_97\n      jump\t// in\n    tag_185:\n        /* \"#utility.yul\":2312:2431   */\n    tag_184:\n        /* \"#utility.yul\":2470:2471   */\n      0x00\n        /* \"#utility.yul\":2495:2548   */\n      tag_186\n        /* \"#utility.yul\":2540:2547   */\n      dup5\n        /* \"#utility.yul\":2531:2537   */\n      dup3\n        /* \"#utility.yul\":2520:2529   */\n      dup6\n        /* \"#utility.yul\":2516:2538   */\n      add\n        /* \"#utility.yul\":2495:2548   */\n      tag_107\n      jump\t// in\n    tag_186:\n        /* \"#utility.yul\":2485:2548   */\n      swap2\n      pop\n        /* \"#utility.yul\":2441:2558   */\n      pop\n        /* \"#utility.yul\":2236:2565   */\n      swap3\n      swap2\n      pop\n      pop\n      jump\t// out\n        /* \"#utility.yul\":2571:2740   */\n    tag_108:\n        /* \"#utility.yul\":2655:2666   */\n      0x00\n        /* \"#utility.yul\":2689:2695   */\n      dup3\n        /* \"#utility.yul\":2684:2687   */\n      dup3\n        /* \"#utility.yul\":2677:2696   */\n      mstore\n        /* \"#utility.yul\":2729:2733   */\n      0x20\n        /* \"#utility.yul\":2724:2727   */\n      dup3\n        /* \"#utility.yul\":2720:2734   */\n      add\n        /* \"#utility.yul\":2705:2734   */\n      swap1\n      pop\n        /* \"#utility.yul\":2571:2740   */\n      swap3\n      swap2\n      pop\n      pop\n      jump\t// out\n        /* \"#utility.yul\":2746:2966   */\n    tag_109:\n        /* \"#utility.yul\":2886:2920   */\n      0x596f752061696e7420616e206f776e65722062726f6f6f2c48617264204c7563\n        /* \"#utility.yul\":2882:2883   */\n      0x00\n        /* \"#utility.yul\":2874:2880   */\n      dup3\n        /* \"#utility.yul\":2870:2884   */\n      add\n        /* \"#utility.yul\":2863:2921   */\n      mstore\n        /* \"#utility.yul\":2955:2958   */\n      0x6b00000000000000000000000000000000000000000000000000000000000000\n        /* \"#utility.yul\":2950:2952   */\n      0x20\n        /* \"#utility.yul\":2942:2948   */\n      dup3\n        /* \"#utility.yul\":2938:2953   */\n      add\n        /* \"#utility.yul\":2931:2959   */\n      mstore\n        /* \"#utility.yul\":2746:2966   */\n      pop\n      jump\t// out\n        /* \"#utility.yul\":2972:3338   */\n    tag_110:\n        /* \"#utility.yul\":3114:3117   */\n      0x00\n        /* \"#utility.yul\":3135:3202   */\n      tag_190\n        /* \"#utility.yul\":3199:3201   */\n      0x21\n        /* \"#utility.yul\":3194:3197   */\n      dup4\n        /* \"#utility.yul\":3135:3202   */\n      tag_108\n      jump\t// in\n    tag_190:\n        /* \"#utility.yul\":3128:3202   */\n      swap2\n      pop\n        /* \"#utility.yul\":3211:3304   */\n      tag_191\n        /* \"#utility.yul\":3300:3303   */\n      dup3\n        /* \"#utility.yul\":3211:3304   */\n      tag_109\n      jump\t// in\n    tag_191:\n        /* \"#utility.yul\":3329:3331   */\n      0x40\n        /* \"#utility.yul\":3324:3327   */\n      dup3\n        /* \"#utility.yul\":3320:3332   */\n      add\n        /* \"#utility.yul\":3313:3332   */\n      swap1\n      pop\n        /* \"#utility.yul\":2972:3338   */\n      swap2\n      swap1\n      pop\n      jump\t// out\n        /* \"#utility.yul\":3344:3763   */\n    tag_50:\n        /* \"#utility.yul\":3510:3514   */\n      0x00\n        /* \"#utility.yul\":3548:3550   */\n      0x20\n        /* \"#utility.yul\":3537:3546   */\n      dup3\n        /* \"#utility.yul\":3533:3551   */\n      add\n        /* \"#utility.yul\":3525:3551   */\n      swap1\n      pop\n        /* \"#utility.yul\":3597:3606   */\n      dup2\n        /* \"#utility.yul\":3591:3595   */\n      dup2\n        /* \"#utility.yul\":3587:3607   */\n      sub\n        /* \"#utility.yul\":3583:3584   */\n      0x00\n        /* \"#utility.yul\":3572:3581   */\n      dup4\n        /* \"#utility.yul\":3568:3585   */\n      add\n        /* \"#utility.yul\":3561:3608   */\n      mstore\n        /* \"#utility.yul\":3625:3756   */\n      tag_193\n        /* \"#utility.yul\":3751:3755   */\n      dup2\n        /* \"#utility.yul\":3625:3756   */\n      tag_110\n      jump\t// in\n    tag_193:\n        /* \"#utility.yul\":3617:3756   */\n      swap1\n      pop\n        /* \"#utility.yul\":3344:3763   */\n      swap2\n      swap1\n      pop\n      jump\t// out\n        /* \"#utility.yul\":3769:3949   */\n    tag_57:\n        /* \"#utility.yul\":3817:3894   */\n      0x4e487b7100000000000000000000000000000000000000000000000000000000\n        /* \"#utility.yul\":3814:3815   */\n      0x00\n        /* \"#utility.yul\":3807:3895   */\n      mstore\n        /* \"#utility.yul\":3914:3918   */\n      0x32\n        /* \"#utility.yul\":3911:3912   */\n      0x04\n        /* \"#utility.yul\":3904:3919   */\n      mstore\n        /* \"#utility.yul\":3938:3942   */\n      0x24\n        /* \"#utility.yul\":3935:3936   */\n      0x00\n        /* \"#utility.yul\":3928:3943   */\n      revert\n        /* \"#utility.yul\":3955:4135   */\n    tag_61:\n        /* \"#utility.yul\":4003:4080   */\n      0x4e487b7100000000000000000000000000000000000000000000000000000000\n        /* \"#utility.yul\":4000:4001   */\n      0x00\n        /* \"#utility.yul\":3993:4081   */\n      mstore\n        /* \"#utility.yul\":4100:4104   */\n      0x41\n        /* \"#utility.yul\":4097:4098   */\n      0x04\n        /* \"#utility.yul\":4090:4105   */\n      mstore\n        /* \"#utility.yul\":4124:4128   */\n      0x24\n        /* \"#utility.yul\":4121:4122   */\n      0x00\n        /* \"#utility.yul\":4114:4129   */\n      revert\n        /* \"#utility.yul\":4141:4252   */\n    tag_111:\n        /* \"#utility.yul\":4205:4211   */\n      0x00\n        /* \"#utility.yul\":4239:4244   */\n      dup2\n        /* \"#utility.yul\":4233:4245   */\n      sload\n        /* \"#utility.yul\":4223:4245   */\n      swap1\n      pop\n        /* \"#utility.yul\":4141:4252   */\n      swap2\n      swap1\n      pop\n      jump\t// out\n        /* \"#utility.yul\":4258:4438   */\n    tag_112:\n        /* \"#utility.yul\":4306:4383   */\n      0x4e487b7100000000000000000000000000000000000000000000000000000000\n        /* \"#utility.yul\":4303:4304   */\n      0x00\n        /* \"#utility.yul\":4296:4384   */\n      mstore\n        /* \"#utility.yul\":4403:4407   */\n      0x11\n        /* \"#utility.yul\":4400:4401   */\n      0x04\n        /* \"#utility.yul\":4393:4408   */\n      mstore\n        /* \"#utility.yul\":4427:4431   */\n      0x24\n        /* \"#utility.yul\":4424:4425   */\n      0x00\n        /* \"#utility.yul\":4417:4432   */\n      revert\n        /* \"#utility.yul\":4444:4854   */\n    tag_93:\n        /* \"#utility.yul\":4484:4491   */\n      0x00\n        /* \"#utility.yul\":4507:4527   */\n      tag_199\n        /* \"#utility.yul\":4525:4526   */\n      dup3\n        /* \"#utility.yul\":4507:4527   */\n      tag_99\n      jump\t// in\n    tag_199:\n        /* \"#utility.yul\":4502:4527   */\n      swap2\n      pop\n        /* \"#utility.yul\":4541:4561   */\n      tag_200\n        /* \"#utility.yul\":4559:4560   */\n      dup4\n        /* \"#utility.yul\":4541:4561   */\n      tag_99\n      jump\t// in\n    tag_200:\n        /* \"#utility.yul\":4536:4561   */\n      swap3\n      pop\n        /* \"#utility.yul\":4596:4597   */\n      dup3\n        /* \"#utility.yul\":4593:4594   */\n      dup3\n        /* \"#utility.yul\":4589:4598   */\n      mul\n        /* \"#utility.yul\":4618:4648   */\n      tag_201\n        /* \"#utility.yul\":4636:4647   */\n      dup2\n        /* \"#utility.yul\":4618:4648   */\n      tag_99\n      jump\t// in\n    tag_201:\n        /* \"#utility.yul\":4607:4648   */\n      swap2\n      pop\n        /* \"#utility.yul\":4797:4798   */\n      dup3\n        /* \"#utility.yul\":4788:4795   */\n      dup3\n        /* \"#utility.yul\":4784:4799   */\n      div\n        /* \"#utility.yul\":4781:4782   */\n      dup5\n        /* \"#utility.yul\":4778:4800   */\n      eq\n        /* \"#utility.yul\":4758:4759   */\n      dup4\n        /* \"#utility.yul\":4751:4760   */\n      iszero\n        /* \"#utility.yul\":4731:4814   */\n      or\n        /* \"#utility.yul\":4708:4847   */\n      tag_202\n      jumpi\n        /* \"#utility.yul\":4827:4845   */\n      tag_203\n      tag_112\n      jump\t// in\n    tag_203:\n        /* \"#utility.yul\":4708:4847   */\n    tag_202:\n        /* \"#utility.yul\":4492:4854   */\n      pop\n        /* \"#utility.yul\":4444:4854   */\n      swap3\n      swap2\n      pop\n      pop\n      jump\t// out\n        /* \"#utility.yul\":4860:5063   */\n    tag_113:\n        /* \"#utility.yul\":4941:4945   */\n      0x00\n        /* \"#utility.yul\":4964:4970   */\n      dup2\n        /* \"#utility.yul\":4956:4970   */\n      swap1\n      pop\n        /* \"#utility.yul\":5054:5055   */\n      0x01\n        /* \"#utility.yul\":5049:5050   */\n      dup1\n        /* \"#utility.yul\":5046:5047   */\n      0x01\n        /* \"#utility.yul\":5042:5051   */\n      sub\n        /* \"#utility.yul\":5034:5040   */\n      dup4\n        /* \"#utility.yul\":5030:5052   */\n      add\n        /* \"#utility.yul\":5026:5056   */\n      div\n        /* \"#utility.yul\":5018:5056   */\n      swap1\n      pop\n        /* \"#utility.yul\":4860:5063   */\n      swap2\n      swap1\n      pop\n      jump\t// out\n        /* \"#utility.yul\":5068:5224   */\n    tag_114:\n        /* \"#utility.yul\":5132:5136   */\n      0x00\n        /* \"#utility.yul\":5155:5158   */\n      dup2\n        /* \"#utility.yul\":5147:5158   */\n      swap1\n      pop\n        /* \"#utility.yul\":5178:5181   */\n      dup2\n        /* \"#utility.yul\":5175:5176   */\n      0x00\n        /* \"#utility.yul\":5168:5182   */\n      mstore\n        /* \"#utility.yul\":5212:5216   */\n      0x20\n        /* \"#utility.yul\":5209:5210   */\n      0x00\n        /* \"#utility.yul\":5199:5217   */\n      keccak256\n        /* \"#utility.yul\":5191:5217   */\n      swap1\n      pop\n        /* \"#utility.yul\":5068:5224   */\n      swap2\n      swap1\n      pop\n      jump\t// out\n        /* \"#utility.yul\":5230:5337   */\n    tag_115:\n        /* \"#utility.yul\":5274:5282   */\n      0x00\n        /* \"#utility.yul\":5324:5329   */\n      dup3\n        /* \"#utility.yul\":5318:5322   */\n      dup3\n        /* \"#utility.yul\":5314:5330   */\n      shl\n        /* \"#utility.yul\":5293:5330   */\n      swap1\n      pop\n        /* \"#utility.yul\":5230:5337   */\n      swap3\n      swap2\n      pop\n      pop\n      jump\t// out\n        /* \"#utility.yul\":5343:5736   */\n    tag_116:\n        /* \"#utility.yul\":5412:5418   */\n      0x00\n        /* \"#utility.yul\":5462:5463   */\n      0x08\n        /* \"#utility.yul\":5450:5460   */\n      dup4\n        /* \"#utility.yul\":5446:5464   */\n      mul\n        /* \"#utility.yul\":5485:5582   */\n      tag_208\n        /* \"#utility.yul\":5515:5581   */\n      0xffffffffffffffffffffffffffffffffffffffffffffffffffffffffffffffff\n        /* \"#utility.yul\":5504:5513   */\n      dup3\n        /* \"#utility.yul\":5485:5582   */\n      tag_115\n      jump\t// in\n    tag_208:\n        /* \"#utility.yul\":5603:5642   */\n      tag_209\n        /* \"#utility.yul\":5633:5641   */\n      dup7\n        /* \"#utility.yul\":5622:5631   */\n      dup4\n        /* \"#utility.yul\":5603:5642   */\n      tag_115\n      jump\t// in\n    tag_209:\n        /* \"#utility.yul\":5591:5642   */\n      swap6\n      pop\n        /* \"#utility.yul\":5675:5679   */\n      dup1\n        /* \"#utility.yul\":5671:5680   */\n      not\n        /* \"#utility.yul\":5664:5669   */\n      dup5\n        /* \"#utility.yul\":5660:5681   */\n      and\n        /* \"#utility.yul\":5651:5681   */\n      swap4\n      pop\n        /* \"#utility.yul\":5724:5728   */\n      dup1\n        /* \"#utility.yul\":5714:5722   */\n      dup7\n        /* \"#utility.yul\":5710:5729   */\n      and\n        /* \"#utility.yul\":5703:5708   */\n      dup5\n        /* \"#utility.yul\":5700:5730   */\n      or\n        /* \"#utility.yul\":5690:5730   */\n      swap3\n      pop\n        /* \"#utility.yul\":5419:5736   */\n      pop\n      pop\n        /* \"#utility.yul\":5343:5736   */\n      swap4\n      swap3\n      pop\n      pop\n      pop\n      jump\t// out\n        /* \"#utility.yul\":5742:5802   */\n    tag_117:\n        /* \"#utility.yul\":5770:5773   */\n      0x00\n        /* \"#utility.yul\":5791:5796   */\n      dup2\n        /* \"#utility.yul\":5784:5796   */\n      swap1\n      pop\n        /* \"#utility.yul\":5742:5802   */\n      swap2\n      swap1\n      pop\n      jump\t// out\n        /* \"#utility.yul\":5808:5950   */\n    tag_118:\n        /* \"#utility.yul\":5858:5867   */\n      0x00\n        /* \"#utility.yul\":5891:5944   */\n      tag_212\n        /* \"#utility.yul\":5909:5943   */\n      tag_213\n        /* \"#utility.yul\":5918:5942   */\n      tag_214\n        /* \"#utility.yul\":5936:5941   */\n      dup5\n        /* \"#utility.yul\":5918:5942   */\n      tag_99\n      jump\t// in\n    tag_214:\n        /* \"#utility.yul\":5909:5943   */\n      tag_117\n      jump\t// in\n    tag_213:\n        /* \"#utility.yul\":5891:5944   */\n      tag_99\n      jump\t// in\n    tag_212:\n        /* \"#utility.yul\":5878:5944   */\n      swap1\n      pop\n        /* \"#utility.yul\":5808:5950   */\n      swap2\n      swap1\n      pop\n      jump\t// out\n        /* \"#utility.yul\":5956:6031   */\n    tag_119:\n        /* \"#utility.yul\":5999:6002   */\n      0x00\n        /* \"#utility.yul\":6020:6025   */\n      dup2\n        /* \"#utility.yul\":6013:6025   */\n      swap1\n      pop\n        /* \"#utility.yul\":5956:6031   */\n      swap2\n      swap1\n      pop\n      jump\t// out\n        /* \"#utility.yul\":6037:6306   */\n    tag_120:\n        /* \"#utility.yul\":6147:6186   */\n      tag_217\n        /* \"#utility.yul\":6178:6185   */\n      dup4\n        /* \"#utility.yul\":6147:6186   */\n      tag_118\n      jump\t// in\n    tag_217:\n        /* \"#utility.yul\":6208:6299   */\n      tag_218\n        /* \"#utility.yul\":6257:6298   */\n      tag_219\n        /* \"#utility.yul\":6281:6297   */\n      dup3\n        /* \"#utility.yul\":6257:6298   */\n      tag_119\n      jump\t// in\n    tag_219:\n        /* \"#utility.yul\":6249:6255   */\n      dup5\n        /* \"#utility.yul\":6242:6246   */\n      dup5\n        /* \"#utility.yul\":6236:6247   */\n      sload\n        /* \"#utility.yul\":6208:6299   */\n      tag_116\n      jump\t// in\n    tag_218:\n        /* \"#utility.yul\":6202:6206   */\n      dup3\n        /* \"#utility.yul\":6195:6300   */\n      sstore\n        /* \"#utility.yul\":6113:6306   */\n      pop\n        /* \"#utility.yul\":6037:6306   */\n      pop\n      pop\n      pop\n      jump\t// out\n        /* \"#utility.yul\":6312:6385   */\n    tag_121:\n        /* \"#utility.yul\":6357:6360   */\n      0x00\n        /* \"#utility.yul\":6312:6385   */\n      swap1\n      jump\t// out\n        /* \"#utility.yul\":6391:6580   */\n    tag_122:\n        /* \"#utility.yul\":6468:6500   */\n      tag_222\n      tag_121\n      jump\t// in\n    tag_222:\n        /* \"#utility.yul\":6509:6574   */\n      tag_223\n        /* \"#utility.yul\":6567:6573   */\n      dup2\n        /* \"#utility.yul\":6559:6565   */\n      dup5\n        /* \"#utility.yul\":6553:6557   */\n      dup5\n        /* \"#utility.yul\":6509:6574   */\n      tag_120\n      jump\t// in\n    tag_223:\n        /* \"#utility.yul\":6444:6580   */\n      pop\n        /* \"#utility.yul\":6391:6580   */\n      pop\n      pop\n      jump\t// out\n        /* \"#utility.yul\":6586:6801   */\n    tag_123:\n        /* \"#utility.yul\":6672:6673   */\n      0x00\n        /* \"#utility.yul\":6657:6795   */\n    tag_225:\n        /* \"#utility.yul\":6682:6691   */\n      dup3\n        /* \"#utility.yul\":6679:6680   */\n      dup2\n        /* \"#utility.yul\":6676:6692   */\n      lt\n        /* \"#utility.yul\":6657:6795   */\n      iszero\n      tag_227\n      jumpi\n        /* \"#utility.yul\":6734:6785   */\n      tag_228\n        /* \"#utility.yul\":6783:6784   */\n      0x00\n        /* \"#utility.yul\":6779:6780   */\n      dup3\n        /* \"#utility.yul\":6768:6777   */\n      dup5\n        /* \"#utility.yul\":6764:6781   */\n      add\n        /* \"#utility.yul\":6734:6785   */\n      tag_122\n      jump\t// in\n    tag_228:\n        /* \"#utility.yul\":6707:6708   */\n      0x01\n        /* \"#utility.yul\":6704:6705   */\n      dup2\n        /* \"#utility.yul\":6700:6709   */\n      add\n        /* \"#utility.yul\":6695:6709   */\n      swap1\n      pop\n        /* \"#utility.yul\":6657:6795   */\n      jump(tag_225)\n    tag_227:\n        /* \"#utility.yul\":6661:6675   */\n      pop\n        /* \"#utility.yul\":6586:6801   */\n      pop\n      pop\n      jump\t// out\n        /* \"#utility.yul\":7180:7820   */\n    tag_126:\n        /* \"#utility.yul\":7300:7303   */\n      dup2\n        /* \"#utility.yul\":7288:7298   */\n      dup4\n        /* \"#utility.yul\":7285:7304   */\n      lt\n        /* \"#utility.yul\":7282:7813   */\n      iszero\n      tag_233\n      jumpi\n        /* \"#utility.yul\":7391:7456   */\n      tag_234\n        /* \"#utility.yul\":7452:7455   */\n      dup3\n        /* \"#utility.yul\":7391:7456   */\n      tag_113\n      jump\t// in\n    tag_234:\n        /* \"#utility.yul\":7489:7561   */\n      tag_235\n        /* \"#utility.yul\":7550:7560   */\n      dup5\n        /* \"#utility.yul\":7489:7561   */\n      tag_113\n      jump\t// in\n    tag_235:\n        /* \"#utility.yul\":7596:7649   */\n      tag_236\n        /* \"#utility.yul\":7643:7648   */\n      dup4\n        /* \"#utility.yul\":7596:7649   */\n      tag_114\n      jump\t// in\n    tag_236:\n        /* \"#utility.yul\":7701:7713   */\n      dup2\n        /* \"#utility.yul\":7685:7699   */\n      dup2\n        /* \"#utility.yul\":7681:7714   */\n      add\n        /* \"#utility.yul\":7728:7803   */\n      tag_237\n        /* \"#utility.yul\":7789:7801   */\n      dup4\n        /* \"#utility.yul\":7775:7787   */\n      dup6\n        /* \"#utility.yul\":7771:7802   */\n      sub\n        /* \"#utility.yul\":7758:7769   */\n      dup3\n        /* \"#utility.yul\":7728:7803   */\n      tag_123\n      jump\t// in\n    tag_237:\n        /* \"#utility.yul\":7305:7813   */\n      pop\n      pop\n      pop\n      pop\n        /* \"#utility.yul\":7282:7813   */\n    tag_233:\n        /* \"#utility.yul\":7180:7820   */\n      pop\n      pop\n      pop\n      jump\t// out\n        /* \"#utility.yul\":7826:8214   */\n    tag_127:\n        /* \"#utility.yul\":7919:7939   */\n      0x010000000000000000\n        /* \"#utility.yul\":7911:7917   */\n      dup3\n        /* \"#utility.yul\":7908:7940   */\n      gt\n        /* \"#utility.yul\":7905:7983   */\n      iszero\n      tag_239\n      jumpi\n        /* \"#utility.yul\":7955:7973   */\n      tag_240\n      tag_61\n      jump\t// in\n    tag_240:\n        /* \"#utility.yul\":7905:7983   */\n    tag_239:\n        /* \"#utility.yul\":8007:8058   */\n      tag_241\n        /* \"#utility.yul\":8052:8057   */\n      dup2\n        /* \"#utility.yul\":8007:8058   */\n      tag_111\n      jump\t// in\n    tag_241:\n        /* \"#utility.yul\":8110:8116   */\n      dup3\n        /* \"#utility.yul\":8103:8108   */\n      dup3\n        /* \"#utility.yul\":8096:8117   */\n      sstore\n        /* \"#utility.yul\":8127:8207   */\n      tag_242\n        /* \"#utility.yul\":8200:8206   */\n      dup4\n        /* \"#utility.yul\":8192:8198   */\n      dup3\n        /* \"#utility.yul\":8185:8190   */\n      dup5\n        /* \"#utility.yul\":8127:8207   */\n      tag_126\n      jump\t// in\n    tag_242:\n        /* \"#utility.yul\":7895:8214   */\n      pop\n        /* \"#utility.yul\":7826:8214   */\n      pop\n      pop\n      jump\t// out\n        /* \"#utility.yul\":8219:8333   */\n    tag_128:\n        /* \"#utility.yul\":8286:8292   */\n      0x00\n        /* \"#utility.yul\":8320:8325   */\n      dup2\n        /* \"#utility.yul\":8314:8326   */\n      mload\n        /* \"#utility.yul\":8304:8326   */\n      swap1\n      pop\n        /* \"#utility.yul\":8219:8333   */\n      swap2\n      swap1\n      pop\n      jump\t// out\n        /* \"#utility.yul\":8339:8493   */\n    tag_129:\n        /* \"#utility.yul\":8382:8393   */\n      0x00\n        /* \"#utility.yul\":8418:8447   */\n      tag_245\n        /* \"#utility.yul\":8442:8445   */\n      dup3\n        /* \"#utility.yul\":8436:8446   */\n      mload\n        /* \"#utility.yul\":8418:8447   */\n      tag_103\n      jump\t// in\n    tag_245:\n        /* \"#utility.yul\":8481:8486   */\n      dup1\n        /* \"#utility.yul\":8457:8486   */\n      swap2\n      pop\n        /* \"#utility.yul\":8394:8493   */\n      pop\n        /* \"#utility.yul\":8339:8493   */\n      swap2\n      swap1\n      pop\n      jump\t// out\n        /* \"#utility.yul\":8499:8631   */\n    tag_130:\n        /* \"#utility.yul\":8566:8570   */\n      0x00\n        /* \"#utility.yul\":8589:8592   */\n      dup2\n        /* \"#utility.yul\":8581:8592   */\n      swap1\n      pop\n        /* \"#utility.yul\":8619:8623   */\n      0x20\n        /* \"#utility.yul\":8614:8617   */\n      dup3\n        /* \"#utility.yul\":8610:8624   */\n      add\n        /* \"#utility.yul\":8602:8624   */\n      swap1\n      pop\n        /* \"#utility.yul\":8499:8631   */\n      swap2\n      swap1\n      pop\n      jump\t// out\n        /* \"#utility.yul\":9770:9845   */\n    tag_137:\n        /* \"#utility.yul\":9813:9816   */\n      0x00\n        /* \"#utility.yul\":9834:9839   */\n      dup2\n        /* \"#utility.yul\":9827:9839   */\n      swap1\n      pop\n        /* \"#utility.yul\":9770:9845   */\n      swap2\n      swap1\n      pop\n      jump\t// out\n        /* \"#utility.yul\":9851:10852   */\n    tag_64:\n        /* \"#utility.yul\":9992:10044   */\n      tag_264\n        /* \"#utility.yul\":10040:10043   */\n      dup3\n        /* \"#utility.yul\":9992:10044   */\n      tag_128\n      jump\t// in\n    tag_264:\n        /* \"#utility.yul\":10109:10127   */\n      0xffffffffffffffff\n        /* \"#utility.yul\":10101:10107   */\n      dup2\n        /* \"#utility.yul\":10098:10128   */\n      gt\n        /* \"#utility.yul\":10095:10151   */\n      iszero\n      tag_265\n      jumpi\n        /* \"#utility.yul\":10131:10149   */\n      tag_266\n      tag_61\n      jump\t// in\n    tag_266:\n        /* \"#utility.yul\":10095:10151   */\n    tag_265:\n        /* \"#utility.yul\":10160:10217   */\n      tag_267\n        /* \"#utility.yul\":10210:10216   */\n      dup2\n        /* \"#utility.yul\":10205:10208   */\n      dup4\n        /* \"#utility.yul\":10160:10217   */\n      tag_127\n      jump\t// in\n    tag_267:\n        /* \"#utility.yul\":10241:10295   */\n      tag_268\n        /* \"#utility.yul\":10291:10294   */\n      dup4\n        /* \"#utility.yul\":10241:10295   */\n      tag_130\n      jump\t// in\n    tag_268:\n        /* \"#utility.yul\":10319:10370   */\n      tag_269\n        /* \"#utility.yul\":10366:10369   */\n      dup4\n        /* \"#utility.yul\":10319:10370   */\n      tag_114\n      jump\t// in\n    tag_269:\n        /* \"#utility.yul\":10409:10410   */\n      0x01\n        /* \"#utility.yul\":10401:10407   */\n      dup4\n        /* \"#utility.yul\":10397:10411   */\n      div\n        /* \"#utility.yul\":10436:10437   */\n      0x00\n        /* \"#utility.yul\":10421:10845   */\n    tag_270:\n        /* \"#utility.yul\":10446:10455   */\n      dup2\n        /* \"#utility.yul\":10443:10444   */\n      dup2\n        /* \"#utility.yul\":10440:10456   */\n      lt\n        /* \"#utility.yul\":10421:10845   */\n      iszero\n      tag_272\n      jumpi\n        /* \"#utility.yul\":10510:10511   */\n      0x00\n        /* \"#utility.yul\":10563:10596   */\n      tag_273\n        /* \"#utility.yul\":10589:10595   */\n      dup6\n        /* \"#utility.yul\":10563:10596   */\n      tag_129\n      jump\t// in\n    tag_273:\n        /* \"#utility.yul\":10631:10667   */\n      tag_274\n        /* \"#utility.yul\":10655:10666   */\n      dup2\n        /* \"#utility.yul\":10631:10667   */\n      tag_137\n      jump\t// in\n    tag_274:\n        /* \"#utility.yul\":10717:10726   */\n      dup1\n        /* \"#utility.yul\":10684:10726   */\n      swap3\n      pop\n        /* \"#utility.yul\":10766:10768   */\n      0x20\n        /* \"#utility.yul\":10758:10764   */\n      dup8\n        /* \"#utility.yul\":10754:10769   */\n      add\n        /* \"#utility.yul\":10744:10769   */\n      swap7\n      pop\n        /* \"#utility.yul\":10525:10784   */\n      pop\n      pop\n        /* \"#utility.yul\":10822:10834   */\n      dup1\n        /* \"#utility.yul\":10818:10819   */\n      dup3\n        /* \"#utility.yul\":10809:10816   */\n      dup6\n        /* \"#utility.yul\":10805:10820   */\n      add\n        /* \"#utility.yul\":10798:10835   */\n      sstore\n        /* \"#utility.yul\":10476:10845   */\n      pop\n        /* \"#utility.yul\":10471:10472   */\n      0x01\n        /* \"#utility.yul\":10468:10469   */\n      dup2\n        /* \"#utility.yul\":10464:10473   */\n      add\n        /* \"#utility.yul\":10459:10473   */\n      swap1\n      pop\n        /* \"#utility.yul\":10421:10845   */\n      jump(tag_270)\n    tag_272:\n        /* \"#utility.yul\":10425:10439   */\n      pop\n        /* \"#utility.yul\":9967:10852   */\n      pop\n      pop\n      pop\n      pop\n        /* \"#utility.yul\":9851:10852   */\n      pop\n      pop\n      jump\t// out\n        /* \"#utility.yul\":10858:11005   */\n    tag_138:\n        /* \"#utility.yul\":10959:10970   */\n      0x00\n        /* \"#utility.yul\":10996:10999   */\n      dup2\n        /* \"#utility.yul\":10981:10999   */\n      swap1\n      pop\n        /* \"#utility.yul\":10858:11005   */\n      swap3\n      swap2\n      pop\n      pop\n      jump\t// out\n        /* \"#utility.yul\":11011:11125   */\n    tag_139:\n      pop\n      jump\t// out\n        /* \"#utility.yul\":11131:11529   */\n    tag_140:\n        /* \"#utility.yul\":11290:11293   */\n      0x00\n        /* \"#utility.yul\":11311:11394   */\n      tag_278\n        /* \"#utility.yul\":11392:11393   */\n      0x00\n        /* \"#utility.yul\":11387:11390   */\n      dup4\n        /* \"#utility.yul\":11311:11394   */\n      tag_138\n      jump\t// in\n    tag_278:\n        /* \"#utility.yul\":11304:11394   */\n      swap2\n      pop\n        /* \"#utility.yul\":11403:11496   */\n      tag_279\n        /* \"#utility.yul\":11492:11495   */\n      dup3\n        /* \"#utility.yul\":11403:11496   */\n      tag_139\n      jump\t// in\n    tag_279:\n        /* \"#utility.yul\":11521:11522   */\n      0x00\n        /* \"#utility.yul\":11516:11519   */\n      dup3\n        /* \"#utility.yul\":11512:11523   */\n      add\n        /* \"#utility.yul\":11505:11523   */\n      swap1\n      pop\n        /* \"#utility.yul\":11131:11529   */\n      swap2\n      swap1\n      pop\n      jump\t// out\n        /* \"#utility.yul\":11535:11914   */\n    tag_66:\n        /* \"#utility.yul\":11719:11722   */\n      0x00\n        /* \"#utility.yul\":11741:11888   */\n      tag_281\n        /* \"#utility.yul\":11884:11887   */\n      dup3\n        /* \"#utility.yul\":11741:11888   */\n      tag_140\n      jump\t// in\n    tag_281:\n        /* \"#utility.yul\":11734:11888   */\n      swap2\n      pop\n        /* \"#utility.yul\":11905:11908   */\n      dup2\n        /* \"#utility.yul\":11898:11908   */\n      swap1\n      pop\n        /* \"#utility.yul\":11535:11914   */\n      swap2\n      swap1\n      pop\n      jump\t// out\n        /* \"#utility.yul\":11920:12082   */\n    tag_141:\n        /* \"#utility.yul\":12060:12074   */\n      0x5472616e73204661696c65640000000000000000000000000000000000000000\n        /* \"#utility.yul\":12056:12057   */\n      0x00\n        /* \"#utility.yul\":12048:12054   */\n      dup3\n        /* \"#utility.yul\":12044:12058   */\n      add\n        /* \"#utility.yul\":12037:12075   */\n      mstore\n        /* \"#utility.yul\":11920:12082   */\n      pop\n      jump\t// out\n        /* \"#utility.yul\":12088:12454   */\n    tag_142:\n        /* \"#utility.yul\":12230:12233   */\n      0x00\n        /* \"#utility.yul\":12251:12318   */\n      tag_284\n        /* \"#utility.yul\":12315:12317   */\n      0x0c\n        /* \"#utility.yul\":12310:12313   */\n      dup4\n        /* \"#utility.yul\":12251:12318   */\n      tag_108\n      jump\t// in\n    tag_284:\n        /* \"#utility.yul\":12244:12318   */\n      swap2\n      pop\n        /* \"#utility.yul\":12327:12420   */\n      tag_285\n        /* \"#utility.yul\":12416:12419   */\n      dup3\n        /* \"#utility.yul\":12327:12420   */\n      tag_141\n      jump\t// in\n    tag_285:\n        /* \"#utility.yul\":12445:12447   */\n      0x20\n        /* \"#utility.yul\":12440:12443   */\n      dup3\n        /* \"#utility.yul\":12436:12448   */\n      add\n        /* \"#utility.yul\":12429:12448   */\n      swap1\n      pop\n        /* \"#utility.yul\":12088:12454   */\n      swap2\n      swap1\n      pop\n      jump\t// out\n        /* \"#utility.yul\":12460:12879   */\n    tag_72:\n        /* \"#utility.yul\":12626:12630   */\n      0x00\n        /* \"#utility.yul\":12664:12666   */\n      0x20\n        /* \"#utility.yul\":12653:12662   */\n      dup3\n        /* \"#utility.yul\":12649:12667   */\n      add\n        /* \"#utility.yul\":12641:12667   */\n      swap1\n      pop\n        /* \"#utility.yul\":12713:12722   */\n      dup2\n        /* \"#utility.yul\":12707:12711   */\n      dup2\n        /* \"#utility.yul\":12703:12723   */\n      sub\n        /* \"#utility.yul\":12699:12700   */\n      0x00\n        /* \"#utility.yul\":12688:12697   */\n      dup4\n        /* \"#utility.yul\":12684:12701   */\n      add\n        /* \"#utility.yul\":12677:12724   */\n      mstore\n        /* \"#utility.yul\":12741:12872   */\n      tag_287\n        /* \"#utility.yul\":12867:12871   */\n      dup2\n        /* \"#utility.yul\":12741:12872   */\n      tag_142\n      jump\t// in\n    tag_287:\n        /* \"#utility.yul\":12733:12872   */\n      swap1\n      pop\n        /* \"#utility.yul\":12460:12879   */\n      swap2\n      swap1\n      pop\n      jump\t// out\n        /* \"#utility.yul\":12885:12990   */\n    tag_143:\n        /* \"#utility.yul\":12921:12928   */\n      0x00\n        /* \"#utility.yul\":12961:12983   */\n      0xffffffffffffffffffff\n        /* \"#utility.yul\":12954:12959   */\n      dup3\n        /* \"#utility.yul\":12950:12984   */\n      and\n        /* \"#utility.yul\":12939:12984   */\n      swap1\n      pop\n        /* \"#utility.yul\":12885:12990   */\n      swap2\n      swap1\n      pop\n      jump\t// out\n        /* \"#utility.yul\":12996:13116   */\n    tag_144:\n        /* \"#utility.yul\":13068:13091   */\n      tag_290\n        /* \"#utility.yul\":13085:13090   */\n      dup2\n        /* \"#utility.yul\":13068:13091   */\n      tag_143\n      jump\t// in\n    tag_290:\n        /* \"#utility.yul\":13061:13066   */\n      dup2\n        /* \"#utility.yul\":13058:13092   */\n      eq\n        /* \"#utility.yul\":13048:13110   */\n      tag_291\n      jumpi\n        /* \"#utility.yul\":13106:13107   */\n      0x00\n        /* \"#utility.yul\":13103:13104   */\n      dup1\n        /* \"#utility.yul\":13096:13108   */\n      revert\n        /* \"#utility.yul\":13048:13110   */\n    tag_291:\n        /* \"#utility.yul\":12996:13116   */\n      pop\n      jump\t// out\n        /* \"#utility.yul\":13122:13263   */\n    tag_145:\n        /* \"#utility.yul\":13178:13183   */\n      0x00\n        /* \"#utility.yul\":13209:13215   */\n      dup2\n        /* \"#utility.yul\":13203:13216   */\n      mload\n        /* \"#utility.yul\":13194:13216   */\n      swap1\n      pop\n        /* \"#utility.yul\":13225:13257   */\n      tag_293\n        /* \"#utility.yul\":13251:13256   */\n      dup2\n        /* \"#utility.yul\":13225:13257   */\n      tag_144\n      jump\t// in\n    tag_293:\n        /* \"#utility.yul\":13122:13263   */\n      swap3\n      swap2\n      pop\n      pop\n      jump\t// out\n        /* \"#utility.yul\":13269:13345   */\n    tag_146:\n        /* \"#utility.yul\":13305:13312   */\n      0x00\n        /* \"#utility.yul\":13334:13339   */\n      dup2\n        /* \"#utility.yul\":13323:13339   */\n      swap1\n      pop\n        /* \"#utility.yul\":13269:13345   */\n      swap2\n      swap1\n      pop\n      jump\t// out\n        /* \"#utility.yul\":13351:13471   */\n    tag_147:\n        /* \"#utility.yul\":13423:13446   */\n      tag_296\n        /* \"#utility.yul\":13440:13445   */\n      dup2\n        /* \"#utility.yul\":13423:13446   */\n      tag_146\n      jump\t// in\n    tag_296:\n        /* \"#utility.yul\":13416:13421   */\n      dup2\n        /* \"#utility.yul\":13413:13447   */\n      eq\n        /* \"#utility.yul\":13403:13465   */\n      tag_297\n      jumpi\n        /* \"#utility.yul\":13461:13462   */\n      0x00\n        /* \"#utility.yul\":13458:13459   */\n      dup1\n        /* \"#utility.yul\":13451:13463   */\n      revert\n        /* \"#utility.yul\":13403:13465   */\n    tag_297:\n        /* \"#utility.yul\":13351:13471   */\n      pop\n      jump\t// out\n        /* \"#utility.yul\":13477:13618   */\n    tag_148:\n        /* \"#utility.yul\":13533:13538   */\n      0x00\n        /* \"#utility.yul\":13564:13570   */\n      dup2\n        /* \"#utility.yul\":13558:13571   */\n      mload\n        /* \"#utility.yul\":13549:13571   */\n      swap1\n      pop\n        /* \"#utility.yul\":13580:13612   */\n      tag_299\n        /* \"#utility.yul\":13606:13611   */\n      dup2\n        /* \"#utility.yul\":13580:13612   */\n      tag_147\n      jump\t// in\n    tag_299:\n        /* \"#utility.yul\":13477:13618   */\n      swap3\n      swap2\n      pop\n      pop\n      jump\t// out\n        /* \"#utility.yul\":13624:13767   */\n    tag_149:\n        /* \"#utility.yul\":13681:13686   */\n      0x00\n        /* \"#utility.yul\":13712:13718   */\n      dup2\n        /* \"#utility.yul\":13706:13719   */\n      mload\n        /* \"#utility.yul\":13697:13719   */\n      swap1\n      pop\n        /* \"#utility.yul\":13728:13761   */\n      tag_301\n        /* \"#utility.yul\":13755:13760   */\n      dup2\n        /* \"#utility.yul\":13728:13761   */\n      tag_100\n      jump\t// in\n    tag_301:\n        /* \"#utility.yul\":13624:13767   */\n      swap3\n      swap2\n      pop\n      pop\n      jump\t// out\n        /* \"#utility.yul\":13773:14744   */\n    tag_79:\n        /* \"#utility.yul\":13876:13882   */\n      0x00\n        /* \"#utility.yul\":13884:13890   */\n      dup1\n        /* \"#utility.yul\":13892:13898   */\n      0x00\n        /* \"#utility.yul\":13900:13906   */\n      dup1\n        /* \"#utility.yul\":13908:13914   */\n      0x00\n        /* \"#utility.yul\":13957:13960   */\n      0xa0\n        /* \"#utility.yul\":13945:13954   */\n      dup7\n        /* \"#utility.yul\":13936:13943   */\n      dup9\n        /* \"#utility.yul\":13932:13955   */\n      sub\n        /* \"#utility.yul\":13928:13961   */\n      slt\n        /* \"#utility.yul\":13925:14045   */\n      iszero\n      tag_303\n      jumpi\n        /* \"#utility.yul\":13964:14043   */\n      tag_304\n      tag_97\n      jump\t// in\n    tag_304:\n        /* \"#utility.yul\":13925:14045   */\n    tag_303:\n        /* \"#utility.yul\":14084:14085   */\n      0x00\n        /* \"#utility.yul\":14109:14172   */\n      tag_305\n        /* \"#utility.yul\":14164:14171   */\n      dup9\n        /* \"#utility.yul\":14155:14161   */\n      dup3\n        /* \"#utility.yul\":14144:14153   */\n      dup10\n        /* \"#utility.yul\":14140:14162   */\n      add\n        /* \"#utility.yul\":14109:14172   */\n      tag_145\n      jump\t// in\n    tag_305:\n        /* \"#utility.yul\":14099:14172   */\n      swap6\n      pop\n        /* \"#utility.yul\":14055:14182   */\n      pop\n        /* \"#utility.yul\":14221:14223   */\n      0x20\n        /* \"#utility.yul\":14247:14310   */\n      tag_306\n        /* \"#utility.yul\":14302:14309   */\n      dup9\n        /* \"#utility.yul\":14293:14299   */\n      dup3\n        /* \"#utility.yul\":14282:14291   */\n      dup10\n        /* \"#utility.yul\":14278:14300   */\n      add\n        /* \"#utility.yul\":14247:14310   */\n      tag_148\n      jump\t// in\n    tag_306:\n        /* \"#utility.yul\":14237:14310   */\n      swap5\n      pop\n        /* \"#utility.yul\":14192:14320   */\n      pop\n        /* \"#utility.yul\":14359:14361   */\n      0x40\n        /* \"#utility.yul\":14385:14449   */\n      tag_307\n        /* \"#utility.yul\":14441:14448   */\n      dup9\n        /* \"#utility.yul\":14432:14438   */\n      dup3\n        /* \"#utility.yul\":14421:14430   */\n      dup10\n        /* \"#utility.yul\":14417:14439   */\n      add\n        /* \"#utility.yul\":14385:14449   */\n      tag_149\n      jump\t// in\n    tag_307:\n        /* \"#utility.yul\":14375:14449   */\n      swap4\n      pop\n        /* \"#utility.yul\":14330:14459   */\n      pop\n        /* \"#utility.yul\":14498:14500   */\n      0x60\n        /* \"#utility.yul\":14524:14588   */\n      tag_308\n        /* \"#utility.yul\":14580:14587   */\n      dup9\n        /* \"#utility.yul\":14571:14577   */\n      dup3\n        /* \"#utility.yul\":14560:14569   */\n      dup10\n        /* \"#utility.yul\":14556:14578   */\n      add\n        /* \"#utility.yul\":14524:14588   */\n      tag_149\n      jump\t// in\n    tag_308:\n        /* \"#utility.yul\":14514:14588   */\n      swap3\n      pop\n        /* \"#utility.yul\":14469:14598   */\n      pop\n        /* \"#utility.yul\":14637:14640   */\n      0x80\n        /* \"#utility.yul\":14664:14727   */\n      tag_309\n        /* \"#utility.yul\":14719:14726   */\n      dup9\n        /* \"#utility.yul\":14710:14716   */\n      dup3\n        /* \"#utility.yul\":14699:14708   */\n      dup10\n        /* \"#utility.yul\":14695:14717   */\n      add\n        /* \"#utility.yul\":14664:14727   */\n      tag_145\n      jump\t// in\n    tag_309:\n        /* \"#utility.yul\":14654:14727   */\n      swap2\n      pop\n        /* \"#utility.yul\":14608:14737   */\n      pop\n        /* \"#utility.yul\":13773:14744   */\n      swap3\n      swap6\n      pop\n      swap3\n      swap6\n      swap1\n      swap4\n      pop\n      jump\t// out\n        /* \"#utility.yul\":14750:15306   */\n    tag_81:\n        /* \"#utility.yul\":14789:14796   */\n      0x00\n        /* \"#utility.yul\":14812:14831   */\n      tag_311\n        /* \"#utility.yul\":14829:14830   */\n      dup3\n        /* \"#utility.yul\":14812:14831   */\n      tag_146\n      jump\t// in\n    tag_311:\n        /* \"#utility.yul\":14807:14831   */\n      swap2\n      pop\n        /* \"#utility.yul\":14845:14864   */\n      tag_312\n        /* \"#utility.yul\":14862:14863   */\n      dup4\n        /* \"#utility.yul\":14845:14864   */\n      tag_146\n      jump\t// in\n    tag_312:\n        /* \"#utility.yul\":14840:14864   */\n      swap3\n      pop\n        /* \"#utility.yul\":14899:14900   */\n      dup3\n        /* \"#utility.yul\":14896:14897   */\n      dup3\n        /* \"#utility.yul\":14892:14901   */\n      mul\n        /* \"#utility.yul\":14921:14950   */\n      tag_313\n        /* \"#utility.yul\":14938:14949   */\n      dup2\n        /* \"#utility.yul\":14921:14950   */\n      tag_146\n      jump\t// in\n    tag_313:\n        /* \"#utility.yul\":14910:14950   */\n      swap2\n      pop\n        /* \"#utility.yul\":15008:15074   */\n      0x8000000000000000000000000000000000000000000000000000000000000000\n        /* \"#utility.yul\":15005:15006   */\n      dup5\n        /* \"#utility.yul\":15002:15075   */\n      eq\n        /* \"#utility.yul\":14998:14999   */\n      0x00\n        /* \"#utility.yul\":14995:14996   */\n      dup5\n        /* \"#utility.yul\":14991:15000   */\n      slt\n        /* \"#utility.yul\":14987:15076   */\n      and\n        /* \"#utility.yul\":14984:15099   */\n      iszero\n      tag_314\n      jumpi\n        /* \"#utility.yul\":15079:15097   */\n      tag_315\n      tag_112\n      jump\t// in\n    tag_315:\n        /* \"#utility.yul\":14984:15099   */\n    tag_314:\n        /* \"#utility.yul\":15249:15250   */\n      dup3\n        /* \"#utility.yul\":15240:15247   */\n      dup3\n        /* \"#utility.yul\":15235:15251   */\n      sdiv\n        /* \"#utility.yul\":15232:15233   */\n      dup5\n        /* \"#utility.yul\":15229:15252   */\n      eq\n        /* \"#utility.yul\":15209:15210   */\n      dup4\n        /* \"#utility.yul\":15202:15211   */\n      iszero\n        /* \"#utility.yul\":15182:15266   */\n      or\n        /* \"#utility.yul\":15159:15299   */\n      tag_316\n      jumpi\n        /* \"#utility.yul\":15279:15297   */\n      tag_317\n      tag_112\n      jump\t// in\n    tag_317:\n        /* \"#utility.yul\":15159:15299   */\n    tag_316:\n        /* \"#utility.yul\":14797:15306   */\n      pop\n        /* \"#utility.yul\":14750:15306   */\n      swap3\n      swap2\n      pop\n      pop\n      jump\t// out\n        /* \"#utility.yul\":15312:15534   */\n    tag_150:\n        /* \"#utility.yul\":15452:15486   */\n      0x576f726b206861726420616e6420706179206d65206d6f726520455448206272\n        /* \"#utility.yul\":15448:15449   */\n      0x00\n        /* \"#utility.yul\":15440:15446   */\n      dup3\n        /* \"#utility.yul\":15436:15450   */\n      add\n        /* \"#utility.yul\":15429:15487   */\n      mstore\n        /* \"#utility.yul\":15521:15526   */\n      0x6f6f6f0000000000000000000000000000000000000000000000000000000000\n        /* \"#utility.yul\":15516:15518   */\n      0x20\n        /* \"#utility.yul\":15508:15514   */\n      dup3\n        /* \"#utility.yul\":15504:15519   */\n      add\n        /* \"#utility.yul\":15497:15527   */\n      mstore\n        /* \"#utility.yul\":15312:15534   */\n      pop\n      jump\t// out\n        /* \"#utility.yul\":15540:15906   */\n    tag_151:\n        /* \"#utility.yul\":15682:15685   */\n      0x00\n        /* \"#utility.yul\":15703:15770   */\n      tag_320\n        /* \"#utility.yul\":15767:15769   */\n      0x23\n        /* \"#utility.yul\":15762:15765   */\n      dup4\n        /* \"#utility.yul\":15703:15770   */\n      tag_108\n      jump\t// in\n    tag_320:\n        /* \"#utility.yul\":15696:15770   */\n      swap2\n      pop\n        /* \"#utility.yul\":15779:15872   */\n      tag_321\n        /* \"#utility.yul\":15868:15871   */\n      dup3\n        /* \"#utility.yul\":15779:15872   */\n      tag_150\n      jump\t// in\n    tag_321:\n        /* \"#utility.yul\":15897:15899   */\n      0x40\n        /* \"#utility.yul\":15892:15895   */\n      dup3\n        /* \"#utility.yul\":15888:15900   */\n      add\n        /* \"#utility.yul\":15881:15900   */\n      swap1\n      pop\n        /* \"#utility.yul\":15540:15906   */\n      swap2\n      swap1\n      pop\n      jump\t// out\n        /* \"#utility.yul\":15912:16331   */\n    tag_86:\n        /* \"#utility.yul\":16078:16082   */\n      0x00\n        /* \"#utility.yul\":16116:16118   */\n      0x20\n        /* \"#utility.yul\":16105:16114   */\n      dup3\n        /* \"#utility.yul\":16101:16119   */\n      add\n        /* \"#utility.yul\":16093:16119   */\n      swap1\n      pop\n        /* \"#utility.yul\":16165:16174   */\n      dup2\n        /* \"#utility.yul\":16159:16163   */\n      dup2\n        /* \"#utility.yul\":16155:16175   */\n      sub\n        /* \"#utility.yul\":16151:16152   */\n      0x00\n        /* \"#utility.yul\":16140:16149   */\n      dup4\n        /* \"#utility.yul\":16136:16153   */\n      add\n        /* \"#utility.yul\":16129:16176   */\n      mstore\n        /* \"#utility.yul\":16193:16324   */\n      tag_323\n        /* \"#utility.yul\":16319:16323   */\n      dup2\n        /* \"#utility.yul\":16193:16324   */\n      tag_151\n      jump\t// in\n    tag_323:\n        /* \"#utility.yul\":16185:16324   */\n      swap1\n      pop\n        /* \"#utility.yul\":15912:16331   */\n      swap2\n      swap1\n      pop\n      jump\t// out\n        /* \"#utility.yul\":16337:16528   */\n    tag_89:\n        /* \"#utility.yul\":16377:16380   */\n      0x00\n        /* \"#utility.yul\":16396:16416   */\n      tag_325\n        /* \"#utility.yul\":16414:16415   */\n      dup3\n        /* \"#utility.yul\":16396:16416   */\n      tag_99\n      jump\t// in\n    tag_325:\n        /* \"#utility.yul\":16391:16416   */\n      swap2\n      pop\n        /* \"#utility.yul\":16430:16450   */\n      tag_326\n        /* \"#utility.yul\":16448:16449   */\n      dup4\n        /* \"#utility.yul\":16430:16450   */\n      tag_99\n      jump\t// in\n    tag_326:\n        /* \"#utility.yul\":16425:16450   */\n      swap3\n      pop\n        /* \"#utility.yul\":16473:16474   */\n      dup3\n        /* \"#utility.yul\":16470:16471   */\n      dup3\n        /* \"#utility.yul\":16466:16475   */\n      add\n        /* \"#utility.yul\":16459:16475   */\n      swap1\n      pop\n        /* \"#utility.yul\":16494:16497   */\n      dup1\n        /* \"#utility.yul\":16491:16492   */\n      dup3\n        /* \"#utility.yul\":16488:16498   */\n      gt\n        /* \"#utility.yul\":16485:16521   */\n      iszero\n      tag_327\n      jumpi\n        /* \"#utility.yul\":16501:16519   */\n      tag_328\n      tag_112\n      jump\t// in\n    tag_328:\n        /* \"#utility.yul\":16485:16521   */\n    tag_327:\n        /* \"#utility.yul\":16337:16528   */\n      swap3\n      swap2\n      pop\n      pop\n      jump\t// out\n        /* \"#utility.yul\":16534:16714   */\n    tag_152:\n        /* \"#utility.yul\":16582:16659   */\n      0x4e487b7100000000000000000000000000000000000000000000000000000000\n        /* \"#utility.yul\":16579:16580   */\n      0x00\n        /* \"#utility.yul\":16572:16660   */\n      mstore\n        /* \"#utility.yul\":16679:16683   */\n      0x12\n        /* \"#utility.yul\":16676:16677   */\n      0x04\n        /* \"#utility.yul\":16669:16684   */\n      mstore\n        /* \"#utility.yul\":16703:16707   */\n      0x24\n        /* \"#utility.yul\":16700:16701   */\n      0x00\n        /* \"#utility.yul\":16693:16708   */\n      revert\n        /* \"#utility.yul\":16720:16905   */\n    tag_95:\n        /* \"#utility.yul\":16760:16761   */\n      0x00\n        /* \"#utility.yul\":16777:16797   */\n      tag_331\n        /* \"#utility.yul\":16795:16796   */\n      dup3\n        /* \"#utility.yul\":16777:16797   */\n      tag_99\n      jump\t// in\n    tag_331:\n        /* \"#utility.yul\":16772:16797   */\n      swap2\n      pop\n        /* \"#utility.yul\":16811:16831   */\n      tag_332\n        /* \"#utility.yul\":16829:16830   */\n      dup4\n        /* \"#utility.yul\":16811:16831   */\n      tag_99\n      jump\t// in\n    tag_332:\n        /* \"#utility.yul\":16806:16831   */\n      swap3\n      pop\n        /* \"#utility.yul\":16850:16851   */\n      dup3\n        /* \"#utility.yul\":16840:16875   */\n      tag_333\n      jumpi\n        /* \"#utility.yul\":16855:16873   */\n      tag_334\n      tag_152\n      jump\t// in\n    tag_334:\n        /* \"#utility.yul\":16840:16875   */\n    tag_333:\n        /* \"#utility.yul\":16897:16898   */\n      dup3\n        /* \"#utility.yul\":16894:16895   */\n      dup3\n        /* \"#utility.yul\":16890:16899   */\n      div\n        /* \"#utility.yul\":16885:16899   */\n      swap1\n      pop\n        /* \"#utility.yul\":16720:16905   */\n      swap3\n      swap2\n      pop\n      pop\n      jump\t// out\n\n    auxdata: 0xa26469706673582212207493f0eec806ce508756e67cef63387e730c2d5760191577e88b1f1e246f897f64736f6c63430008220033\n}\n",
				"bytecode": {
					"linkReferences": {},
					"object": "6080604052348015600f57600080fd5b5033600260006101000a81548173ffffffffffffffffffffffffffffffffffffffff021916908373ffffffffffffffffffffffffffffffffffffffff160217905550610f6f806100606000396000f3fe60806040526004361061007b5760003560e01c8063b60d42881161004e578063b60d42881461012a578063bd6d2adb14610134578063ea8906e91461015f578063f6d24a201461019c5761007b565b80633ccfd60b14610080578063819188cf146100975780638da5cb5b146100d457806398d5fdca146100ff575b600080fd5b34801561008c57600080fd5b506100956101d9565b005b3480156100a357600080fd5b506100be60048036038101906100b991906106fd565b610417565b6040516100cb919061076b565b60405180910390f35b3480156100e057600080fd5b506100e9610456565b6040516100f6919061076b565b60405180910390f35b34801561010b57600080fd5b5061011461047c565b6040516101219190610795565b60405180910390f35b61013261051f565b005b34801561014057600080fd5b50610149610664565b6040516101569190610795565b60405180910390f35b34801561016b57600080fd5b50610186600480360381019061018191906107dc565b610670565b6040516101939190610795565b60405180910390f35b3480156101a857600080fd5b506101c360048036038101906101be91906106fd565b610688565b6040516101d09190610795565b60405180910390f35b600260009054906101000a900473ffffffffffffffffffffffffffffffffffffffff1673ffffffffffffffffffffffffffffffffffffffff163373ffffffffffffffffffffffffffffffffffffffff1614610269576040517f08c379a00000000000000000000000000000000000000000000000000000000081526004016102609061088c565b60405180910390fd5b60005b60008054905081101561030e57600080828154811061028e5761028d6108ac565b5b9060005260206000200160009054906101000a900473ffffffffffffffffffffffffffffffffffffffff1690506000600160008373ffffffffffffffffffffffffffffffffffffffff1673ffffffffffffffffffffffffffffffffffffffff1681526020019081526020016000208190555050808060010191505061026c565b50600067ffffffffffffffff81111561032a576103296108db565b5b6040519080825280602002602001820160405280156103585781602001602082028036833780820191505090505b50600090816103679190610b5b565b5060003373ffffffffffffffffffffffffffffffffffffffff164760405161038e90610c12565b60006040518083038185875af1925050503d80600081146103cb576040519150601f19603f3d011682016040523d82523d6000602084013e6103d0565b606091505b5050905080610414576040517f08c379a000000000000000000000000000000000000000000000000000000000815260040161040b90610c73565b60405180910390fd5b50565b6000818154811061042757600080fd5b906000526020600020016000915054906101000a900473ffffffffffffffffffffffffffffffffffffffff1681565b600260009054906101000a900473ffffffffffffffffffffffffffffffffffffffff1681565b600080735f4ec3df9cbd43714fe2740f5e3616155c5b841973ffffffffffffffffffffffffffffffffffffffff1663feaf968c6040518163ffffffff1660e01b815260040160a060405180830381865afa1580156104de573d6000803e3d6000fd5b505050506040513d601f19601f820116820180604052508101906105029190610d20565b5050509150506402540be400816105199190610d9b565b91505090565b674563918244f4000061053134610688565b11610571576040517f08c379a000000000000000000000000000000000000000000000000000000000815260040161056890610e85565b60405180910390fd5b6000339080600181540180825580915050600190039060005260206000200160009091909190916101000a81548173ffffffffffffffffffffffffffffffffffffffff021916908373ffffffffffffffffffffffffffffffffffffffff16021790555034600160003373ffffffffffffffffffffffffffffffffffffffff1673ffffffffffffffffffffffffffffffffffffffff1681526020019081526020016000205461061f9190610ea5565b600160003373ffffffffffffffffffffffffffffffffffffffff1673ffffffffffffffffffffffffffffffffffffffff16815260200190815260200160002081905550565b674563918244f4000081565b60016020528060005260406000206000915090505481565b60008061069361047c565b90506000670de0b6b3a764000084836106ac9190610944565b6106b69190610f08565b90508092505050919050565b600080fd5b6000819050919050565b6106da816106c7565b81146106e557600080fd5b50565b6000813590506106f7816106d1565b92915050565b600060208284031215610713576107126106c2565b5b6000610721848285016106e8565b91505092915050565b600073ffffffffffffffffffffffffffffffffffffffff82169050919050565b60006107558261072a565b9050919050565b6107658161074a565b82525050565b6000602082019050610780600083018461075c565b92915050565b61078f816106c7565b82525050565b60006020820190506107aa6000830184610786565b92915050565b6107b98161074a565b81146107c457600080fd5b50565b6000813590506107d6816107b0565b92915050565b6000602082840312156107f2576107f16106c2565b5b6000610800848285016107c7565b91505092915050565b600082825260208201905092915050565b7f596f752061696e7420616e206f776e65722062726f6f6f2c48617264204c756360008201527f6b00000000000000000000000000000000000000000000000000000000000000602082015250565b6000610876602183610809565b91506108818261081a565b604082019050919050565b600060208201905081810360008301526108a581610869565b9050919050565b7f4e487b7100000000000000000000000000000000000000000000000000000000600052603260045260246000fd5b7f4e487b7100000000000000000000000000000000000000000000000000000000600052604160045260246000fd5b600081549050919050565b7f4e487b7100000000000000000000000000000000000000000000000000000000600052601160045260246000fd5b600061094f826106c7565b915061095a836106c7565b9250828202610968816106c7565b9150828204841483151761097f5761097e610915565b5b5092915050565b60008190506001806001038301049050919050565b60008190508160005260206000209050919050565b600082821b905092915050565b6000600883026109ed7fffffffffffffffffffffffffffffffffffffffffffffffffffffffffffffffff826109b0565b6109f786836109b0565b95508019841693508086168417925050509392505050565b6000819050919050565b6000610a34610a2f610a2a846106c7565b610a0f565b6106c7565b9050919050565b6000819050919050565b610a4e83610a19565b610a62610a5a82610a3b565b8484546109bd565b825550505050565b600090565b610a77610a6a565b610a82818484610a45565b505050565b60005b82811015610aaa57610a9f6000828401610a6f565b600181019050610a8a565b505050565b81831015610ae657610ac082610986565b610ac984610986565b610ad28361099b565b818101610ae183850382610a87565b505050505b505050565b68010000000000000000821115610b0557610b046108db565b5b610b0e8161090a565b828255610b1c838284610aaf565b505050565b600081519050919050565b6000610b38825161074a565b80915050919050565b6000819050602082019050919050565b6000819050919050565b610b6482610b21565b67ffffffffffffffff811115610b7d57610b7c6108db565b5b610b878183610aeb565b610b9083610b41565b610b998361099b565b6001830460005b81811015610bd8576000610bb385610b2c565b610bbc81610b51565b8092506020870196505050808285015550600181019050610ba0565b50505050505050565b600081905092915050565b50565b6000610bfc600083610be1565b9150610c0782610bec565b600082019050919050565b6000610c1d82610bef565b9150819050919050565b7f5472616e73204661696c65640000000000000000000000000000000000000000600082015250565b6000610c5d600c83610809565b9150610c6882610c27565b602082019050919050565b60006020820190508181036000830152610c8c81610c50565b9050919050565b600069ffffffffffffffffffff82169050919050565b610cb281610c93565b8114610cbd57600080fd5b50565b600081519050610ccf81610ca9565b92915050565b6000819050919050565b610ce881610cd5565b8114610cf357600080fd5b50565b600081519050610d0581610cdf565b92915050565b600081519050610d1a816106d1565b92915050565b600080600080600060a08688031215610d3c57610d3b6106c2565b5b6000610d4a88828901610cc0565b9550506020610d5b88828901610cf6565b9450506040610d6c88828901610d0b565b9350506060610d7d88828901610d0b565b9250506080610d8e88828901610cc0565b9150509295509295909350565b6000610da682610cd5565b9150610db183610cd5565b9250828202610dbf81610cd5565b91507f80000000000000000000000000000000000000000000000000000000000000008414600084121615610df757610df6610915565b5b8282058414831517610e0c57610e0b610915565b5b5092915050565b7f576f726b206861726420616e6420706179206d65206d6f72652045544820627260008201527f6f6f6f0000000000000000000000000000000000000000000000000000000000602082015250565b6000610e6f602383610809565b9150610e7a82610e13565b604082019050919050565b60006020820190508181036000830152610e9e81610e62565b9050919050565b6000610eb0826106c7565b9150610ebb836106c7565b9250828201905080821115610ed357610ed2610915565b5b92915050565b7f4e487b7100000000000000000000000000000000000000000000000000000000600052601260045260246000fd5b6000610f13826106c7565b9150610f1e836106c7565b925082610f2e57610f2d610ed9565b5b82820490509291505056fea26469706673582212207493f0eec806ce508756e67cef63387e730c2d5760191577e88b1f1e246f897f64736f6c63430008220033",
					"opcodes": "PUSH1 0x80 PUSH1 0x40 MSTORE CALLVALUE DUP1 ISZERO PUSH1 0xF JUMPI PUSH1 0x0 DUP1 REVERT JUMPDEST POP CALLER PUSH1 0x2 PUSH1 0x0 PUSH2 0x100 EXP DUP2 SLOAD DUP2 PUSH20 0xFFFFFFFFFFFFFFFFFFFFFFFFFFFFFFFFFFFFFFFF MUL NOT AND SWAP1 DUP4 PUSH20 0xFFFFFFFFFFFFFFFFFFFFFFFFFFFFFFFFFFFFFFFF AND MUL OR SWAP1 SSTORE POP PUSH2 0xF6F DUP1 PUSH2 0x60 PUSH1 0x0 CODECOPY PUSH1 0x0 RETURN INVALID PUSH1 0x80 PUSH1 0x40 MSTORE PUSH1 0x4 CALLDATASIZE LT PUSH2 0x7B JUMPI PUSH1 0x0 CALLDATALOAD PUSH1 0xE0 SHR DUP1 PUSH4 0xB60D4288 GT PUSH2 0x4E JUMPI DUP1 PUSH4 0xB60D4288 EQ PUSH2 0x12A JUMPI DUP1 PUSH4 0xBD6D2ADB EQ PUSH2 0x134 JUMPI DUP1 PUSH4 0xEA8906E9 EQ PUSH2 0x15F JUMPI DUP1 PUSH4 0xF6D24A20 EQ PUSH2 0x19C JUMPI PUSH2 0x7B JUMP JUMPDEST DUP1 PUSH4 0x3CCFD60B EQ PUSH2 0x80 JUMPI DUP1 PUSH4 0x819188CF EQ PUSH2 0x97 JUMPI DUP1 PUSH4 0x8DA5CB5B EQ PUSH2 0xD4 JUMPI DUP1 PUSH4 0x98D5FDCA EQ PUSH2 0xFF JUMPI JUMPDEST PUSH1 0x0 DUP1 REVERT JUMPDEST CALLVALUE DUP1 ISZERO PUSH2 0x8C JUMPI PUSH1 0x0 DUP1 REVERT JUMPDEST POP PUSH2 0x95 PUSH2 0x1D9 JUMP JUMPDEST STOP JUMPDEST CALLVALUE DUP1 ISZERO PUSH2 0xA3 JUMPI PUSH1 0x0 DUP1 REVERT JUMPDEST POP PUSH2 0xBE PUSH1 0x4 DUP1 CALLDATASIZE SUB DUP2 ADD SWAP1 PUSH2 0xB9 SWAP2 SWAP1 PUSH2 0x6FD JUMP JUMPDEST PUSH2 0x417 JUMP JUMPDEST PUSH1 0x40 MLOAD PUSH2 0xCB SWAP2 SWAP1 PUSH2 0x76B JUMP JUMPDEST PUSH1 0x40 MLOAD DUP1 SWAP2 SUB SWAP1 RETURN JUMPDEST CALLVALUE DUP1 ISZERO PUSH2 0xE0 JUMPI PUSH1 0x0 DUP1 REVERT JUMPDEST POP PUSH2 0xE9 PUSH2 0x456 JUMP JUMPDEST PUSH1 0x40 MLOAD PUSH2 0xF6 SWAP2 SWAP1 PUSH2 0x76B JUMP JUMPDEST PUSH1 0x40 MLOAD DUP1 SWAP2 SUB SWAP1 RETURN JUMPDEST CALLVALUE DUP1 ISZERO PUSH2 0x10B JUMPI PUSH1 0x0 DUP1 REVERT JUMPDEST POP PUSH2 0x114 PUSH2 0x47C JUMP JUMPDEST PUSH1 0x40 MLOAD PUSH2 0x121 SWAP2 SWAP1 PUSH2 0x795 JUMP JUMPDEST PUSH1 0x40 MLOAD DUP1 SWAP2 SUB SWAP1 RETURN JUMPDEST PUSH2 0x132 PUSH2 0x51F JUMP JUMPDEST STOP JUMPDEST CALLVALUE DUP1 ISZERO PUSH2 0x140 JUMPI PUSH1 0x0 DUP1 REVERT JUMPDEST POP PUSH2 0x149 PUSH2 0x664 JUMP JUMPDEST PUSH1 0x40 MLOAD PUSH2 0x156 SWAP2 SWAP1 PUSH2 0x795 JUMP JUMPDEST PUSH1 0x40 MLOAD DUP1 SWAP2 SUB SWAP1 RETURN JUMPDEST CALLVALUE DUP1 ISZERO PUSH2 0x16B JUMPI PUSH1 0x0 DUP1 REVERT JUMPDEST POP PUSH2 0x186 PUSH1 0x4 DUP1 CALLDATASIZE SUB DUP2 ADD SWAP1 PUSH2 0x181 SWAP2 SWAP1 PUSH2 0x7DC JUMP JUMPDEST PUSH2 0x670 JUMP JUMPDEST PUSH1 0x40 MLOAD PUSH2 0x193 SWAP2 SWAP1 PUSH2 0x795 JUMP JUMPDEST PUSH1 0x40 MLOAD DUP1 SWAP2 SUB SWAP1 RETURN JUMPDEST CALLVALUE DUP1 ISZERO PUSH2 0x1A8 JUMPI PUSH1 0x0 DUP1 REVERT JUMPDEST POP PUSH2 0x1C3 PUSH1 0x4 DUP1 CALLDATASIZE SUB DUP2 ADD SWAP1 PUSH2 0x1BE SWAP2 SWAP1 PUSH2 0x6FD JUMP JUMPDEST PUSH2 0x688 JUMP JUMPDEST PUSH1 0x40 MLOAD PUSH2 0x1D0 SWAP2 SWAP1 PUSH2 0x795 JUMP JUMPDEST PUSH1 0x40 MLOAD DUP1 SWAP2 SUB SWAP1 RETURN JUMPDEST PUSH1 0x2 PUSH1 0x0 SWAP1 SLOAD SWAP1 PUSH2 0x100 EXP SWAP1 DIV PUSH20 0xFFFFFFFFFFFFFFFFFFFFFFFFFFFFFFFFFFFFFFFF AND PUSH20 0xFFFFFFFFFFFFFFFFFFFFFFFFFFFFFFFFFFFFFFFF AND CALLER PUSH20 0xFFFFFFFFFFFFFFFFFFFFFFFFFFFFFFFFFFFFFFFF AND EQ PUSH2 0x269 JUMPI PUSH1 0x40 MLOAD PUSH32 0x8C379A000000000000000000000000000000000000000000000000000000000 DUP2 MSTORE PUSH1 0x4 ADD PUSH2 0x260 SWAP1 PUSH2 0x88C JUMP JUMPDEST PUSH1 0x40 MLOAD DUP1 SWAP2 SUB SWAP1 REVERT JUMPDEST PUSH1 0x0 JUMPDEST PUSH1 0x0 DUP1 SLOAD SWAP1 POP DUP2 LT ISZERO PUSH2 0x30E JUMPI PUSH1 0x0 DUP1 DUP3 DUP2 SLOAD DUP2 LT PUSH2 0x28E JUMPI PUSH2 0x28D PUSH2 0x8AC JUMP JUMPDEST JUMPDEST SWAP1 PUSH1 0x0 MSTORE PUSH1 0x20 PUSH1 0x0 KECCAK256 ADD PUSH1 0x0 SWAP1 SLOAD SWAP1 PUSH2 0x100 EXP SWAP1 DIV PUSH20 0xFFFFFFFFFFFFFFFFFFFFFFFFFFFFFFFFFFFFFFFF AND SWAP1 POP PUSH1 0x0 PUSH1 0x1 PUSH1 0x0 DUP4 PUSH20 0xFFFFFFFFFFFFFFFFFFFFFFFFFFFFFFFFFFFFFFFF AND PUSH20 0xFFFFFFFFFFFFFFFFFFFFFFFFFFFFFFFFFFFFFFFF AND DUP2 MSTORE PUSH1 0x20 ADD SWAP1 DUP2 MSTORE PUSH1 0x20 ADD PUSH1 0x0 KECCAK256 DUP2 SWAP1 SSTORE POP POP DUP1 DUP1 PUSH1 0x1 ADD SWAP2 POP POP PUSH2 0x26C JUMP JUMPDEST POP PUSH1 0x0 PUSH8 0xFFFFFFFFFFFFFFFF DUP2 GT ISZERO PUSH2 0x32A JUMPI PUSH2 0x329 PUSH2 0x8DB JUMP JUMPDEST JUMPDEST PUSH1 0x40 MLOAD SWAP1 DUP1 DUP3 MSTORE DUP1 PUSH1 0x20 MUL PUSH1 0x20 ADD DUP3 ADD PUSH1 0x40 MSTORE DUP1 ISZERO PUSH2 0x358 JUMPI DUP2 PUSH1 0x20 ADD PUSH1 0x20 DUP3 MUL DUP1 CALLDATASIZE DUP4 CALLDATACOPY DUP1 DUP3 ADD SWAP2 POP POP SWAP1 POP JUMPDEST POP PUSH1 0x0 SWAP1 DUP2 PUSH2 0x367 SWAP2 SWAP1 PUSH2 0xB5B JUMP JUMPDEST POP PUSH1 0x0 CALLER PUSH20 0xFFFFFFFFFFFFFFFFFFFFFFFFFFFFFFFFFFFFFFFF AND SELFBALANCE PUSH1 0x40 MLOAD PUSH2 0x38E SWAP1 PUSH2 0xC12 JUMP JUMPDEST PUSH1 0x0 PUSH1 0x40 MLOAD DUP1 DUP4 SUB DUP2 DUP6 DUP8 GAS CALL SWAP3 POP POP POP RETURNDATASIZE DUP1 PUSH1 0x0 DUP2 EQ PUSH2 0x3CB JUMPI PUSH1 0x40 MLOAD SWAP2 POP PUSH1 0x1F NOT PUSH1 0x3F RETURNDATASIZE ADD AND DUP3 ADD PUSH1 0x40 MSTORE RETURNDATASIZE DUP3 MSTORE RETURNDATASIZE PUSH1 0x0 PUSH1 0x20 DUP5 ADD RETURNDATACOPY PUSH2 0x3D0 JUMP JUMPDEST PUSH1 0x60 SWAP2 POP JUMPDEST POP POP SWAP1 POP DUP1 PUSH2 0x414 JUMPI PUSH1 0x40 MLOAD PUSH32 0x8C379A000000000000000000000000000000000000000000000000000000000 DUP2 MSTORE PUSH1 0x4 ADD PUSH2 0x40B SWAP1 PUSH2 0xC73 JUMP JUMPDEST PUSH1 0x40 MLOAD DUP1 SWAP2 SUB SWAP1 REVERT JUMPDEST POP JUMP JUMPDEST PUSH1 0x0 DUP2 DUP2 SLOAD DUP2 LT PUSH2 0x427 JUMPI PUSH1 0x0 DUP1 REVERT JUMPDEST SWAP1 PUSH1 0x0 MSTORE PUSH1 0x20 PUSH1 0x0 KECCAK256 ADD PUSH1 0x0 SWAP2 POP SLOAD SWAP1 PUSH2 0x100 EXP SWAP1 DIV PUSH20 0xFFFFFFFFFFFFFFFFFFFFFFFFFFFFFFFFFFFFFFFF AND DUP2 JUMP JUMPDEST PUSH1 0x2 PUSH1 0x0 SWAP1 SLOAD SWAP1 PUSH2 0x100 EXP SWAP1 DIV PUSH20 0xFFFFFFFFFFFFFFFFFFFFFFFFFFFFFFFFFFFFFFFF AND DUP2 JUMP JUMPDEST PUSH1 0x0 DUP1 PUSH20 0x5F4EC3DF9CBD43714FE2740F5E3616155C5B8419 PUSH20 0xFFFFFFFFFFFFFFFFFFFFFFFFFFFFFFFFFFFFFFFF AND PUSH4 0xFEAF968C PUSH1 0x40 MLOAD DUP2 PUSH4 0xFFFFFFFF AND PUSH1 0xE0 SHL DUP2 MSTORE PUSH1 0x4 ADD PUSH1 0xA0 PUSH1 0x40 MLOAD DUP1 DUP4 SUB DUP2 DUP7 GAS STATICCALL ISZERO DUP1 ISZERO PUSH2 0x4DE JUMPI RETURNDATASIZE PUSH1 0x0 DUP1 RETURNDATACOPY RETURNDATASIZE PUSH1 0x0 REVERT JUMPDEST POP POP POP POP PUSH1 0x40 MLOAD RETURNDATASIZE PUSH1 0x1F NOT PUSH1 0x1F DUP3 ADD AND DUP3 ADD DUP1 PUSH1 0x40 MSTORE POP DUP2 ADD SWAP1 PUSH2 0x502 SWAP2 SWAP1 PUSH2 0xD20 JUMP JUMPDEST POP POP POP SWAP2 POP POP PUSH5 0x2540BE400 DUP2 PUSH2 0x519 SWAP2 SWAP1 PUSH2 0xD9B JUMP JUMPDEST SWAP2 POP POP SWAP1 JUMP JUMPDEST PUSH8 0x4563918244F40000 PUSH2 0x531 CALLVALUE PUSH2 0x688 JUMP JUMPDEST GT PUSH2 0x571 JUMPI PUSH1 0x40 MLOAD PUSH32 0x8C379A000000000000000000000000000000000000000000000000000000000 DUP2 MSTORE PUSH1 0x4 ADD PUSH2 0x568 SWAP1 PUSH2 0xE85 JUMP JUMPDEST PUSH1 0x40 MLOAD DUP1 SWAP2 SUB SWAP1 REVERT JUMPDEST PUSH1 0x0 CALLER SWAP1 DUP1 PUSH1 0x1 DUP2 SLOAD ADD DUP1 DUP3 SSTORE DUP1 SWAP2 POP POP PUSH1 0x1 SWAP1 SUB SWAP1 PUSH1 0x0 MSTORE PUSH1 0x20 PUSH1 0x0 KECCAK256 ADD PUSH1 0x0 SWAP1 SWAP2 SWAP1 SWAP2 SWAP1 SWAP2 PUSH2 0x100 EXP DUP2 SLOAD DUP2 PUSH20 0xFFFFFFFFFFFFFFFFFFFFFFFFFFFFFFFFFFFFFFFF MUL NOT AND SWAP1 DUP4 PUSH20 0xFFFFFFFFFFFFFFFFFFFFFFFFFFFFFFFFFFFFFFFF AND MUL OR SWAP1 SSTORE POP CALLVALUE PUSH1 0x1 PUSH1 0x0 CALLER PUSH20 0xFFFFFFFFFFFFFFFFFFFFFFFFFFFFFFFFFFFFFFFF AND PUSH20 0xFFFFFFFFFFFFFFFFFFFFFFFFFFFFFFFFFFFFFFFF AND DUP2 MSTORE PUSH1 0x20 ADD SWAP1 DUP2 MSTORE PUSH1 0x20 ADD PUSH1 0x0 KECCAK256 SLOAD PUSH2 0x61F SWAP2 SWAP1 PUSH2 0xEA5 JUMP JUMPDEST PUSH1 0x1 PUSH1 0x0 CALLER PUSH20 0xFFFFFFFFFFFFFFFFFFFFFFFFFFFFFFFFFFFFFFFF AND PUSH20 0xFFFFFFFFFFFFFFFFFFFFFFFFFFFFFFFFFFFFFFFF AND DUP2 MSTORE PUSH1 0x20 ADD SWAP1 DUP2 MSTORE PUSH1 0x20 ADD PUSH1 0x0 KECCAK256 DUP2 SWAP1 SSTORE POP JUMP JUMPDEST PUSH8 0x4563918244F40000 DUP2 JUMP JUMPDEST PUSH1 0x1 PUSH1 0x20 MSTORE DUP1 PUSH1 0x0 MSTORE PUSH1 0x40 PUSH1 0x0 KECCAK256 PUSH1 0x0 SWAP2 POP SWAP1 POP SLOAD DUP2 JUMP JUMPDEST PUSH1 0x0 DUP1 PUSH2 0x693 PUSH2 0x47C JUMP JUMPDEST SWAP1 POP PUSH1 0x0 PUSH8 0xDE0B6B3A7640000 DUP5 DUP4 PUSH2 0x6AC SWAP2 SWAP1 PUSH2 0x944 JUMP JUMPDEST PUSH2 0x6B6 SWAP2 SWAP1 PUSH2 0xF08 JUMP JUMPDEST SWAP1 POP DUP1 SWAP3 POP POP POP SWAP2 SWAP1 POP JUMP JUMPDEST PUSH1 0x0 DUP1 REVERT JUMPDEST PUSH1 0x0 DUP2 SWAP1 POP SWAP2 SWAP1 POP JUMP JUMPDEST PUSH2 0x6DA DUP2 PUSH2 0x6C7 JUMP JUMPDEST DUP2 EQ PUSH2 0x6E5 JUMPI PUSH1 0x0 DUP1 REVERT JUMPDEST POP JUMP JUMPDEST PUSH1 0x0 DUP2 CALLDATALOAD SWAP1 POP PUSH2 0x6F7 DUP2 PUSH2 0x6D1 JUMP JUMPDEST SWAP3 SWAP2 POP POP JUMP JUMPDEST PUSH1 0x0 PUSH1 0x20 DUP3 DUP5 SUB SLT ISZERO PUSH2 0x713 JUMPI PUSH2 0x712 PUSH2 0x6C2 JUMP JUMPDEST JUMPDEST PUSH1 0x0 PUSH2 0x721 DUP5 DUP3 DUP6 ADD PUSH2 0x6E8 JUMP JUMPDEST SWAP2 POP POP SWAP3 SWAP2 POP POP JUMP JUMPDEST PUSH1 0x0 PUSH20 0xFFFFFFFFFFFFFFFFFFFFFFFFFFFFFFFFFFFFFFFF DUP3 AND SWAP1 POP SWAP2 SWAP1 POP JUMP JUMPDEST PUSH1 0x0 PUSH2 0x755 DUP3 PUSH2 0x72A JUMP JUMPDEST SWAP1 POP SWAP2 SWAP1 POP JUMP JUMPDEST PUSH2 0x765 DUP2 PUSH2 0x74A JUMP JUMPDEST DUP3 MSTORE POP POP JUMP JUMPDEST PUSH1 0x0 PUSH1 0x20 DUP3 ADD SWAP1 POP PUSH2 0x780 PUSH1 0x0 DUP4 ADD DUP5 PUSH2 0x75C JUMP JUMPDEST SWAP3 SWAP2 POP POP JUMP JUMPDEST PUSH2 0x78F DUP2 PUSH2 0x6C7 JUMP JUMPDEST DUP3 MSTORE POP POP JUMP JUMPDEST PUSH1 0x0 PUSH1 0x20 DUP3 ADD SWAP1 POP PUSH2 0x7AA PUSH1 0x0 DUP4 ADD DUP5 PUSH2 0x786 JUMP JUMPDEST SWAP3 SWAP2 POP POP JUMP JUMPDEST PUSH2 0x7B9 DUP2 PUSH2 0x74A JUMP JUMPDEST DUP2 EQ PUSH2 0x7C4 JUMPI PUSH1 0x0 DUP1 REVERT JUMPDEST POP JUMP JUMPDEST PUSH1 0x0 DUP2 CALLDATALOAD SWAP1 POP PUSH2 0x7D6 DUP2 PUSH2 0x7B0 JUMP JUMPDEST SWAP3 SWAP2 POP POP JUMP JUMPDEST PUSH1 0x0 PUSH1 0x20 DUP3 DUP5 SUB SLT ISZERO PUSH2 0x7F2 JUMPI PUSH2 0x7F1 PUSH2 0x6C2 JUMP JUMPDEST JUMPDEST PUSH1 0x0 PUSH2 0x800 DUP5 DUP3 DUP6 ADD PUSH2 0x7C7 JUMP JUMPDEST SWAP2 POP POP SWAP3 SWAP2 POP POP JUMP JUMPDEST PUSH1 0x0 DUP3 DUP3 MSTORE PUSH1 0x20 DUP3 ADD SWAP1 POP SWAP3 SWAP2 POP POP JUMP JUMPDEST PUSH32 0x596F752061696E7420616E206F776E65722062726F6F6F2C48617264204C7563 PUSH1 0x0 DUP3 ADD MSTORE PUSH32 0x6B00000000000000000000000000000000000000000000000000000000000000 PUSH1 0x20 DUP3 ADD MSTORE POP JUMP JUMPDEST PUSH1 0x0 PUSH2 0x876 PUSH1 0x21 DUP4 PUSH2 0x809 JUMP JUMPDEST SWAP2 POP PUSH2 0x881 DUP3 PUSH2 0x81A JUMP JUMPDEST PUSH1 0x40 DUP3 ADD SWAP1 POP SWAP2 SWAP1 POP JUMP JUMPDEST PUSH1 0x0 PUSH1 0x20 DUP3 ADD SWAP1 POP DUP2 DUP2 SUB PUSH1 0x0 DUP4 ADD MSTORE PUSH2 0x8A5 DUP2 PUSH2 0x869 JUMP JUMPDEST SWAP1 POP SWAP2 SWAP1 POP JUMP JUMPDEST PUSH32 0x4E487B7100000000000000000000000000000000000000000000000000000000 PUSH1 0x0 MSTORE PUSH1 0x32 PUSH1 0x4 MSTORE PUSH1 0x24 PUSH1 0x0 REVERT JUMPDEST PUSH32 0x4E487B7100000000000000000000000000000000000000000000000000000000 PUSH1 0x0 MSTORE PUSH1 0x41 PUSH1 0x4 MSTORE PUSH1 0x24 PUSH1 0x0 REVERT JUMPDEST PUSH1 0x0 DUP2 SLOAD SWAP1 POP SWAP2 SWAP1 POP JUMP JUMPDEST PUSH32 0x4E487B7100000000000000000000000000000000000000000000000000000000 PUSH1 0x0 MSTORE PUSH1 0x11 PUSH1 0x4 MSTORE PUSH1 0x24 PUSH1 0x0 REVERT JUMPDEST PUSH1 0x0 PUSH2 0x94F DUP3 PUSH2 0x6C7 JUMP JUMPDEST SWAP2 POP PUSH2 0x95A DUP4 PUSH2 0x6C7 JUMP JUMPDEST SWAP3 POP DUP3 DUP3 MUL PUSH2 0x968 DUP2 PUSH2 0x6C7 JUMP JUMPDEST SWAP2 POP DUP3 DUP3 DIV DUP5 EQ DUP4 ISZERO OR PUSH2 0x97F JUMPI PUSH2 0x97E PUSH2 0x915 JUMP JUMPDEST JUMPDEST POP SWAP3 SWAP2 POP POP JUMP JUMPDEST PUSH1 0x0 DUP2 SWAP1 POP PUSH1 0x1 DUP1 PUSH1 0x1 SUB DUP4 ADD DIV SWAP1 POP SWAP2 SWAP1 POP JUMP JUMPDEST PUSH1 0x0 DUP2 SWAP1 POP DUP2 PUSH1 0x0 MSTORE PUSH1 0x20 PUSH1 0x0 KECCAK256 SWAP1 POP SWAP2 SWAP1 POP JUMP JUMPDEST PUSH1 0x0 DUP3 DUP3 SHL SWAP1 POP SWAP3 SWAP2 POP POP JUMP JUMPDEST PUSH1 0x0 PUSH1 0x8 DUP4 MUL PUSH2 0x9ED PUSH32 0xFFFFFFFFFFFFFFFFFFFFFFFFFFFFFFFFFFFFFFFFFFFFFFFFFFFFFFFFFFFFFFFF DUP3 PUSH2 0x9B0 JUMP JUMPDEST PUSH2 0x9F7 DUP7 DUP4 PUSH2 0x9B0 JUMP JUMPDEST SWAP6 POP DUP1 NOT DUP5 AND SWAP4 POP DUP1 DUP7 AND DUP5 OR SWAP3 POP POP POP SWAP4 SWAP3 POP POP POP JUMP JUMPDEST PUSH1 0x0 DUP2 SWAP1 POP SWAP2 SWAP1 POP JUMP JUMPDEST PUSH1 0x0 PUSH2 0xA34 PUSH2 0xA2F PUSH2 0xA2A DUP5 PUSH2 0x6C7 JUMP JUMPDEST PUSH2 0xA0F JUMP JUMPDEST PUSH2 0x6C7 JUMP JUMPDEST SWAP1 POP SWAP2 SWAP1 POP JUMP JUMPDEST PUSH1 0x0 DUP2 SWAP1 POP SWAP2 SWAP1 POP JUMP JUMPDEST PUSH2 0xA4E DUP4 PUSH2 0xA19 JUMP JUMPDEST PUSH2 0xA62 PUSH2 0xA5A DUP3 PUSH2 0xA3B JUMP JUMPDEST DUP5 DUP5 SLOAD PUSH2 0x9BD JUMP JUMPDEST DUP3 SSTORE POP POP POP POP JUMP JUMPDEST PUSH1 0x0 SWAP1 JUMP JUMPDEST PUSH2 0xA77 PUSH2 0xA6A JUMP JUMPDEST PUSH2 0xA82 DUP2 DUP5 DUP5 PUSH2 0xA45 JUMP JUMPDEST POP POP POP JUMP JUMPDEST PUSH1 0x0 JUMPDEST DUP3 DUP2 LT ISZERO PUSH2 0xAAA JUMPI PUSH2 0xA9F PUSH1 0x0 DUP3 DUP5 ADD PUSH2 0xA6F JUMP JUMPDEST PUSH1 0x1 DUP2 ADD SWAP1 POP PUSH2 0xA8A JUMP JUMPDEST POP POP POP JUMP JUMPDEST DUP2 DUP4 LT ISZERO PUSH2 0xAE6 JUMPI PUSH2 0xAC0 DUP3 PUSH2 0x986 JUMP JUMPDEST PUSH2 0xAC9 DUP5 PUSH2 0x986 JUMP JUMPDEST PUSH2 0xAD2 DUP4 PUSH2 0x99B JUMP JUMPDEST DUP2 DUP2 ADD PUSH2 0xAE1 DUP4 DUP6 SUB DUP3 PUSH2 0xA87 JUMP JUMPDEST POP POP POP POP JUMPDEST POP POP POP JUMP JUMPDEST PUSH9 0x10000000000000000 DUP3 GT ISZERO PUSH2 0xB05 JUMPI PUSH2 0xB04 PUSH2 0x8DB JUMP JUMPDEST JUMPDEST PUSH2 0xB0E DUP2 PUSH2 0x90A JUMP JUMPDEST DUP3 DUP3 SSTORE PUSH2 0xB1C DUP4 DUP3 DUP5 PUSH2 0xAAF JUMP JUMPDEST POP POP POP JUMP JUMPDEST PUSH1 0x0 DUP2 MLOAD SWAP1 POP SWAP2 SWAP1 POP JUMP JUMPDEST PUSH1 0x0 PUSH2 0xB38 DUP3 MLOAD PUSH2 0x74A JUMP JUMPDEST DUP1 SWAP2 POP POP SWAP2 SWAP1 POP JUMP JUMPDEST PUSH1 0x0 DUP2 SWAP1 POP PUSH1 0x20 DUP3 ADD SWAP1 POP SWAP2 SWAP1 POP JUMP JUMPDEST PUSH1 0x0 DUP2 SWAP1 POP SWAP2 SWAP1 POP JUMP JUMPDEST PUSH2 0xB64 DUP3 PUSH2 0xB21 JUMP JUMPDEST PUSH8 0xFFFFFFFFFFFFFFFF DUP2 GT ISZERO PUSH2 0xB7D JUMPI PUSH2 0xB7C PUSH2 0x8DB JUMP JUMPDEST JUMPDEST PUSH2 0xB87 DUP2 DUP4 PUSH2 0xAEB JUMP JUMPDEST PUSH2 0xB90 DUP4 PUSH2 0xB41 JUMP JUMPDEST PUSH2 0xB99 DUP4 PUSH2 0x99B JUMP JUMPDEST PUSH1 0x1 DUP4 DIV PUSH1 0x0 JUMPDEST DUP2 DUP2 LT ISZERO PUSH2 0xBD8 JUMPI PUSH1 0x0 PUSH2 0xBB3 DUP6 PUSH2 0xB2C JUMP JUMPDEST PUSH2 0xBBC DUP2 PUSH2 0xB51 JUMP JUMPDEST DUP1 SWAP3 POP PUSH1 0x20 DUP8 ADD SWAP7 POP POP POP DUP1 DUP3 DUP6 ADD SSTORE POP PUSH1 0x1 DUP2 ADD SWAP1 POP PUSH2 0xBA0 JUMP JUMPDEST POP POP POP POP POP POP POP JUMP JUMPDEST PUSH1 0x0 DUP2 SWAP1 POP SWAP3 SWAP2 POP POP JUMP JUMPDEST POP JUMP JUMPDEST PUSH1 0x0 PUSH2 0xBFC PUSH1 0x0 DUP4 PUSH2 0xBE1 JUMP JUMPDEST SWAP2 POP PUSH2 0xC07 DUP3 PUSH2 0xBEC JUMP JUMPDEST PUSH1 0x0 DUP3 ADD SWAP1 POP SWAP2 SWAP1 POP JUMP JUMPDEST PUSH1 0x0 PUSH2 0xC1D DUP3 PUSH2 0xBEF JUMP JUMPDEST SWAP2 POP DUP2 SWAP1 POP SWAP2 SWAP1 POP JUMP JUMPDEST PUSH32 0x5472616E73204661696C65640000000000000000000000000000000000000000 PUSH1 0x0 DUP3 ADD MSTORE POP JUMP JUMPDEST PUSH1 0x0 PUSH2 0xC5D PUSH1 0xC DUP4 PUSH2 0x809 JUMP JUMPDEST SWAP2 POP PUSH2 0xC68 DUP3 PUSH2 0xC27 JUMP JUMPDEST PUSH1 0x20 DUP3 ADD SWAP1 POP SWAP2 SWAP1 POP JUMP JUMPDEST PUSH1 0x0 PUSH1 0x20 DUP3 ADD SWAP1 POP DUP2 DUP2 SUB PUSH1 0x0 DUP4 ADD MSTORE PUSH2 0xC8C DUP2 PUSH2 0xC50 JUMP JUMPDEST SWAP1 POP SWAP2 SWAP1 POP JUMP JUMPDEST PUSH1 0x0 PUSH10 0xFFFFFFFFFFFFFFFFFFFF DUP3 AND SWAP1 POP SWAP2 SWAP1 POP JUMP JUMPDEST PUSH2 0xCB2 DUP2 PUSH2 0xC93 JUMP JUMPDEST DUP2 EQ PUSH2 0xCBD JUMPI PUSH1 0x0 DUP1 REVERT JUMPDEST POP JUMP JUMPDEST PUSH1 0x0 DUP2 MLOAD SWAP1 POP PUSH2 0xCCF DUP2 PUSH2 0xCA9 JUMP JUMPDEST SWAP3 SWAP2 POP POP JUMP JUMPDEST PUSH1 0x0 DUP2 SWAP1 POP SWAP2 SWAP1 POP JUMP JUMPDEST PUSH2 0xCE8 DUP2 PUSH2 0xCD5 JUMP JUMPDEST DUP2 EQ PUSH2 0xCF3 JUMPI PUSH1 0x0 DUP1 REVERT JUMPDEST POP JUMP JUMPDEST PUSH1 0x0 DUP2 MLOAD SWAP1 POP PUSH2 0xD05 DUP2 PUSH2 0xCDF JUMP JUMPDEST SWAP3 SWAP2 POP POP JUMP JUMPDEST PUSH1 0x0 DUP2 MLOAD SWAP1 POP PUSH2 0xD1A DUP2 PUSH2 0x6D1 JUMP JUMPDEST SWAP3 SWAP2 POP POP JUMP JUMPDEST PUSH1 0x0 DUP1 PUSH1 0x0 DUP1 PUSH1 0x0 PUSH1 0xA0 DUP7 DUP9 SUB SLT ISZERO PUSH2 0xD3C JUMPI PUSH2 0xD3B PUSH2 0x6C2 JUMP JUMPDEST JUMPDEST PUSH1 0x0 PUSH2 0xD4A DUP9 DUP3 DUP10 ADD PUSH2 0xCC0 JUMP JUMPDEST SWAP6 POP POP PUSH1 0x20 PUSH2 0xD5B DUP9 DUP3 DUP10 ADD PUSH2 0xCF6 JUMP JUMPDEST SWAP5 POP POP PUSH1 0x40 PUSH2 0xD6C DUP9 DUP3 DUP10 ADD PUSH2 0xD0B JUMP JUMPDEST SWAP4 POP POP PUSH1 0x60 PUSH2 0xD7D DUP9 DUP3 DUP10 ADD PUSH2 0xD0B JUMP JUMPDEST SWAP3 POP POP PUSH1 0x80 PUSH2 0xD8E DUP9 DUP3 DUP10 ADD PUSH2 0xCC0 JUMP JUMPDEST SWAP2 POP POP SWAP3 SWAP6 POP SWAP3 SWAP6 SWAP1 SWAP4 POP JUMP JUMPDEST PUSH1 0x0 PUSH2 0xDA6 DUP3 PUSH2 0xCD5 JUMP JUMPDEST SWAP2 POP PUSH2 0xDB1 DUP4 PUSH2 0xCD5 JUMP JUMPDEST SWAP3 POP DUP3 DUP3 MUL PUSH2 0xDBF DUP2 PUSH2 0xCD5 JUMP JUMPDEST SWAP2 POP PUSH32 0x8000000000000000000000000000000000000000000000000000000000000000 DUP5 EQ PUSH1 0x0 DUP5 SLT AND ISZERO PUSH2 0xDF7 JUMPI PUSH2 0xDF6 PUSH2 0x915 JUMP JUMPDEST JUMPDEST DUP3 DUP3 SDIV DUP5 EQ DUP4 ISZERO OR PUSH2 0xE0C JUMPI PUSH2 0xE0B PUSH2 0x915 JUMP JUMPDEST JUMPDEST POP SWAP3 SWAP2 POP POP JUMP JUMPDEST PUSH32 0x576F726B206861726420616E6420706179206D65206D6F726520455448206272 PUSH1 0x0 DUP3 ADD MSTORE PUSH32 0x6F6F6F0000000000000000000000000000000000000000000000000000000000 PUSH1 0x20 DUP3 ADD MSTORE POP JUMP JUMPDEST PUSH1 0x0 PUSH2 0xE6F PUSH1 0x23 DUP4 PUSH2 0x809 JUMP JUMPDEST SWAP2 POP PUSH2 0xE7A DUP3 PUSH2 0xE13 JUMP JUMPDEST PUSH1 0x40 DUP3 ADD SWAP1 POP SWAP2 SWAP1 POP JUMP JUMPDEST PUSH1 0x0 PUSH1 0x20 DUP3 ADD SWAP1 POP DUP2 DUP2 SUB PUSH1 0x0 DUP4 ADD MSTORE PUSH2 0xE9E DUP2 PUSH2 0xE62 JUMP JUMPDEST SWAP1 POP SWAP2 SWAP1 POP JUMP JUMPDEST PUSH1 0x0 PUSH2 0xEB0 DUP3 PUSH2 0x6C7 JUMP JUMPDEST SWAP2 POP PUSH2 0xEBB DUP4 PUSH2 0x6C7 JUMP JUMPDEST SWAP3 POP DUP3 DUP3 ADD SWAP1 POP DUP1 DUP3 GT ISZERO PUSH2 0xED3 JUMPI PUSH2 0xED2 PUSH2 0x915 JUMP JUMPDEST JUMPDEST SWAP3 SWAP2 POP POP JUMP JUMPDEST PUSH32 0x4E487B7100000000000000000000000000000000000000000000000000000000 PUSH1 0x0 MSTORE PUSH1 0x12 PUSH1 0x4 MSTORE PUSH1 0x24 PUSH1 0x0 REVERT JUMPDEST PUSH1 0x0 PUSH2 0xF13 DUP3 PUSH2 0x6C7 JUMP JUMPDEST SWAP2 POP PUSH2 0xF1E DUP4 PUSH2 0x6C7 JUMP JUMPDEST SWAP3 POP DUP3 PUSH2 0xF2E JUMPI PUSH2 0xF2D PUSH2 0xED9 JUMP JUMPDEST JUMPDEST DUP3 DUP3 DIV SWAP1 POP SWAP3 SWAP2 POP POP JUMP INVALID LOG2 PUSH5 0x6970667358 0x22 SLT KECCAK256 PUSH21 0x93F0EEC806CE508756E67CEF63387E730C2D576019 ISZERO PUSH24 0xE88B1F1E246F897F64736F6C634300082200330000000000 "
				},
				"gasEstimates": {
					"creation": {
						"codeDepositCost": "790200",
						"executionCost": "25091",
						"totalCost": "815291"
					},
					"external": {
						"AddToAmnt(address)": "2858",
						"AmntInUsd(uint256)": "infinite",
						"Minimum_USD()": "351",
						"UsersAddress(uint256)": "4979",
						"fund()": "infinite",
						"getPrice()": "infinite",
						"owner()": "2559",
						"withdraw()": "infinite"
					}
				},
				"methodIdentifiers": {
					"AddToAmnt(address)": "ea8906e9",
					"AmntInUsd(uint256)": "f6d24a20",
					"Minimum_USD()": "bd6d2adb",
					"UsersAddress(uint256)": "819188cf",
					"fund()": "b60d4288",
					"getPrice()": "98d5fdca",
					"owner()": "8da5cb5b",
					"withdraw()": "3ccfd60b"
				}
			},
			"storageLayout": {
				"storage": [
					{
						"astId": 57,
						"contract": "Project/FundMe9Prac.sol:giveMeFund",
						"label": "UsersAddress",
						"offset": 0,
						"slot": "0",
						"type": "t_array(t_address)dyn_storage"
					},
					{
						"astId": 61,
						"contract": "Project/FundMe9Prac.sol:giveMeFund",
						"label": "AddToAmnt",
						"offset": 0,
						"slot": "1",
						"type": "t_mapping(t_address,t_uint256)"
					},
					{
						"astId": 63,
						"contract": "Project/FundMe9Prac.sol:giveMeFund",
						"label": "owner",
						"offset": 0,
						"slot": "2",
						"type": "t_address"
					}
				],
				"types": {
					"t_address": {
						"encoding": "inplace",
						"label": "address",
						"numberOfBytes": "20"
					},
					"t_array(t_address)dyn_storage": {
						"base": "t_address",
						"encoding": "dynamic_array",
						"label": "address[]",
						"numberOfBytes": "32"
					},
					"t_mapping(t_address,t_uint256)": {
						"encoding": "mapping",
						"key": "t_address",
						"label": "mapping(address => uint256)",
						"numberOfBytes": "32",
						"value": "t_uint256"
					},
					"t_uint256": {
						"encoding": "inplace",
						"label": "uint256",
						"numberOfBytes": "32"
					}
				}
			},
			"userdoc": {
				"kind": "user",
				"methods": {},
				"version": 1
			}
		}
	}
}