{
	"StorageFactory/SimpleStorage.sol": {
		"dataStorage": {
			"abi": [
				{
					"inputs": [
						{
							"internalType": "int256",
							"name": "_age",
							"type": "int256"
						},
						{
							"internalType": "string",
							"name": "_name",
							"type": "string"
						},
						{
							"internalType": "string",
							"name": "_degree",
							"type": "string"
						}
					],
					"name": "addDetails",
					"outputs": [],
					"stateMutability": "nonpayable",
					"type": "function"
				},
				{
					"inputs": [
						{
							"internalType": "int256",
							"name": "n",
							"type": "int256"
						}
					],
					"name": "getNum",
					"outputs": [],
					"stateMutability": "nonpayable",
					"type": "function"
				},
				{
					"inputs": [
						{
							"internalType": "uint256",
							"name": "",
							"type": "uint256"
						}
					],
					"name": "infoList",
					"outputs": [
						{
							"internalType": "int256",
							"name": "age",
							"type": "int256"
						},
						{
							"internalType": "string",
							"name": "name",
							"type": "string"
						},
						{
							"internalType": "string",
							"name": "degree",
							"type": "string"
						}
					],
					"stateMutability": "view",
					"type": "function"
				},
				{
					"inputs": [
						{
							"internalType": "string",
							"name": "",
							"type": "string"
						}
					],
					"name": "nameToDegree",
					"outputs": [
						{
							"internalType": "string",
							"name": "",
							"type": "string"
						}
					],
					"stateMutability": "view",
					"type": "function"
				},
				{
					"inputs": [],
					"name": "num",
					"outputs": [
						{
							"internalType": "int256",
							"name": "",
							"type": "int256"
						}
					],
					"stateMutability": "view",
					"type": "function"
				},
				{
					"inputs": [
						{
							"internalType": "int256",
							"name": "a",
							"type": "int256"
						},
						{
							"internalType": "int256",
							"name": "b",
							"type": "int256"
						}
					],
					"name": "onlyPure",
					"outputs": [
						{
							"internalType": "int256",
							"name": "",
							"type": "int256"
						}
					],
					"stateMutability": "pure",
					"type": "function"
				},
				{
					"inputs": [],
					"name": "onlyView",
					"outputs": [
						{
							"internalType": "int256",
							"name": "",
							"type": "int256"
						}
					],
					"stateMutability": "view",
					"type": "function"
				}
			],
			"devdoc": {
				"kind": "dev",
				"methods": {},
				"version": 1
			},
			"evm": {
				"assembly": "    /* \"StorageFactory/SimpleStorage.sol\":63:773  contract dataStorage{... */\n  mstore(0x40, 0x80)\n  callvalue\n  dup1\n  iszero\n  tag_1\n  jumpi\n  revert(0x00, 0x00)\ntag_1:\n  pop\n  dataSize(sub_0)\n  dup1\n  dataOffset(sub_0)\n  0x00\n  codecopy\n  0x00\n  return\nstop\n\nsub_0: assembly {\n        /* \"StorageFactory/SimpleStorage.sol\":63:773  contract dataStorage{... */\n      mstore(0x40, 0x80)\n      callvalue\n      dup1\n      iszero\n      tag_1\n      jumpi\n      revert(0x00, 0x00)\n    tag_1:\n      pop\n      jumpi(tag_2, lt(calldatasize, 0x04))\n      shr(0xe0, calldataload(0x00))\n      dup1\n      0xb0e1e1b5\n      gt\n      tag_10\n      jumpi\n      dup1\n      0xb0e1e1b5\n      eq\n      tag_6\n      jumpi\n      dup1\n      0xdee940d9\n      eq\n      tag_7\n      jumpi\n      dup1\n      0xe14d2632\n      eq\n      tag_8\n      jumpi\n      dup1\n      0xfb74ad85\n      eq\n      tag_9\n      jumpi\n      jump(tag_2)\n    tag_10:\n      dup1\n      0x46e762df\n      eq\n      tag_3\n      jumpi\n      dup1\n      0x4e70b1dc\n      eq\n      tag_4\n      jumpi\n      dup1\n      0x5ae5c08f\n      eq\n      tag_5\n      jumpi\n    tag_2:\n      revert(0x00, 0x00)\n        /* \"StorageFactory/SimpleStorage.sol\":547:605  function getNum(int256 n) public virtual{... */\n    tag_3:\n      tag_11\n      0x04\n      dup1\n      calldatasize\n      sub\n      dup2\n      add\n      swap1\n      tag_12\n      swap2\n      swap1\n      tag_13\n      jump\t// in\n    tag_12:\n      tag_14\n      jump\t// in\n    tag_11:\n      stop\n        /* \"StorageFactory/SimpleStorage.sol\":88:105  int256 public num */\n    tag_4:\n      tag_15\n      tag_16\n      jump\t// in\n    tag_15:\n      mload(0x40)\n      tag_17\n      swap2\n      swap1\n      tag_18\n      jump\t// in\n    tag_17:\n      mload(0x40)\n      dup1\n      swap2\n      sub\n      swap1\n      return\n        /* \"StorageFactory/SimpleStorage.sol\":609:677  function onlyView() public view returns(int256){... */\n    tag_5:\n      tag_19\n      tag_20\n      jump\t// in\n    tag_19:\n      mload(0x40)\n      tag_21\n      swap2\n      swap1\n      tag_18\n      jump\t// in\n    tag_21:\n      mload(0x40)\n      dup1\n      swap2\n      sub\n      swap1\n      return\n        /* \"StorageFactory/SimpleStorage.sol\":379:541  function addDetails(int _age , string memory _name , string memory _degree) public{... */\n    tag_6:\n      tag_22\n      0x04\n      dup1\n      calldatasize\n      sub\n      dup2\n      add\n      swap1\n      tag_23\n      swap2\n      swap1\n      tag_24\n      jump\t// in\n    tag_23:\n      tag_25\n      jump\t// in\n    tag_22:\n      stop\n        /* \"StorageFactory/SimpleStorage.sol\":329:374  mapping(string => string) public nameToDegree */\n    tag_7:\n      tag_26\n      0x04\n      dup1\n      calldatasize\n      sub\n      dup2\n      add\n      swap1\n      tag_27\n      swap2\n      swap1\n      tag_28\n      jump\t// in\n    tag_27:\n      tag_29\n      jump\t// in\n    tag_26:\n      mload(0x40)\n      tag_30\n      swap2\n      swap1\n      tag_31\n      jump\t// in\n    tag_30:\n      mload(0x40)\n      dup1\n      swap2\n      sub\n      swap1\n      return\n        /* \"StorageFactory/SimpleStorage.sol\":681:764  function onlyPure(int a , int b) public pure returns(int256){... */\n    tag_8:\n      tag_32\n      0x04\n      dup1\n      calldatasize\n      sub\n      dup2\n      add\n      swap1\n      tag_33\n      swap2\n      swap1\n      tag_34\n      jump\t// in\n    tag_33:\n      tag_35\n      jump\t// in\n    tag_32:\n      mload(0x40)\n      tag_36\n      swap2\n      swap1\n      tag_18\n      jump\t// in\n    tag_36:\n      mload(0x40)\n      dup1\n      swap2\n      sub\n      swap1\n      return\n        /* \"StorageFactory/SimpleStorage.sol\":301:323  Info[] public infoList */\n    tag_9:\n      tag_37\n      0x04\n      dup1\n      calldatasize\n      sub\n      dup2\n      add\n      swap1\n      tag_38\n      swap2\n      swap1\n      tag_39\n      jump\t// in\n    tag_38:\n      tag_40\n      jump\t// in\n    tag_37:\n      mload(0x40)\n      tag_41\n      swap4\n      swap3\n      swap2\n      swap1\n      tag_42\n      jump\t// in\n    tag_41:\n      mload(0x40)\n      dup1\n      swap2\n      sub\n      swap1\n      return\n        /* \"StorageFactory/SimpleStorage.sol\":547:605  function getNum(int256 n) public virtual{... */\n    tag_14:\n        /* \"StorageFactory/SimpleStorage.sol\":600:601  n */\n      dup1\n        /* \"StorageFactory/SimpleStorage.sol\":594:597  num */\n      0x00\n        /* \"StorageFactory/SimpleStorage.sol\":594:601  num = n */\n      dup2\n      swap1\n      sstore\n      pop\n        /* \"StorageFactory/SimpleStorage.sol\":547:605  function getNum(int256 n) public virtual{... */\n      pop\n      jump\t// out\n        /* \"StorageFactory/SimpleStorage.sol\":88:105  int256 public num */\n    tag_16:\n      sload(0x00)\n      dup2\n      jump\t// out\n        /* \"StorageFactory/SimpleStorage.sol\":609:677  function onlyView() public view returns(int256){... */\n    tag_20:\n        /* \"StorageFactory/SimpleStorage.sol\":649:655  int256 */\n      0x00\n        /* \"StorageFactory/SimpleStorage.sol\":670:673  num */\n      sload(0x00)\n        /* \"StorageFactory/SimpleStorage.sol\":663:673  return num */\n      swap1\n      pop\n        /* \"StorageFactory/SimpleStorage.sol\":609:677  function onlyView() public view returns(int256){... */\n      swap1\n      jump\t// out\n        /* \"StorageFactory/SimpleStorage.sol\":379:541  function addDetails(int _age , string memory _name , string memory _degree) public{... */\n    tag_25:\n        /* \"StorageFactory/SimpleStorage.sol\":464:472  infoList */\n      0x01\n        /* \"StorageFactory/SimpleStorage.sol\":478:504  Info(_age ,_name ,_degree) */\n      mload(0x40)\n      dup1\n      0x60\n      add\n      0x40\n      mstore\n      dup1\n        /* \"StorageFactory/SimpleStorage.sol\":483:487  _age */\n      dup6\n        /* \"StorageFactory/SimpleStorage.sol\":478:504  Info(_age ,_name ,_degree) */\n      dup2\n      mstore\n      0x20\n      add\n        /* \"StorageFactory/SimpleStorage.sol\":489:494  _name */\n      dup5\n        /* \"StorageFactory/SimpleStorage.sol\":478:504  Info(_age ,_name ,_degree) */\n      dup2\n      mstore\n      0x20\n      add\n        /* \"StorageFactory/SimpleStorage.sol\":496:503  _degree */\n      dup4\n        /* \"StorageFactory/SimpleStorage.sol\":478:504  Info(_age ,_name ,_degree) */\n      dup2\n      mstore\n      pop\n        /* \"StorageFactory/SimpleStorage.sol\":464:505  infoList.push(Info(_age ,_name ,_degree)) */\n      swap1\n      dup1\n      0x01\n      dup2\n      sload\n      add\n      dup1\n      dup3\n      sstore\n      dup1\n      swap2\n      pop\n      pop\n      0x01\n      swap1\n      sub\n      swap1\n      0x00\n      mstore\n      keccak256(0x00, 0x20)\n      swap1\n      0x03\n      mul\n      add\n      0x00\n      swap1\n      swap2\n      swap1\n      swap2\n      swap1\n      swap2\n      pop\n      0x00\n      dup3\n      add\n      mload\n      dup2\n      0x00\n      add\n      sstore\n      0x20\n      dup3\n      add\n      mload\n      dup2\n      0x01\n      add\n      swap1\n      dup2\n      tag_47\n      swap2\n      swap1\n      tag_48\n      jump\t// in\n    tag_47:\n      pop\n      0x40\n      dup3\n      add\n      mload\n      dup2\n      0x02\n      add\n      swap1\n      dup2\n      tag_49\n      swap2\n      swap1\n      tag_48\n      jump\t// in\n    tag_49:\n      pop\n      pop\n      pop\n        /* \"StorageFactory/SimpleStorage.sol\":530:537  _degree */\n      dup1\n        /* \"StorageFactory/SimpleStorage.sol\":508:520  nameToDegree */\n      0x02\n        /* \"StorageFactory/SimpleStorage.sol\":521:526  _name */\n      dup4\n        /* \"StorageFactory/SimpleStorage.sol\":508:527  nameToDegree[_name] */\n      mload(0x40)\n      tag_50\n      swap2\n      swap1\n      tag_51\n      jump\t// in\n    tag_50:\n      swap1\n      dup2\n      mstore\n      0x20\n      add\n      mload(0x40)\n      dup1\n      swap2\n      sub\n      swap1\n      keccak256\n        /* \"StorageFactory/SimpleStorage.sol\":508:537  nameToDegree[_name] = _degree */\n      swap1\n      dup2\n      tag_52\n      swap2\n      swap1\n      tag_48\n      jump\t// in\n    tag_52:\n      pop\n        /* \"StorageFactory/SimpleStorage.sol\":379:541  function addDetails(int _age , string memory _name , string memory _degree) public{... */\n      pop\n      pop\n      pop\n      jump\t// out\n        /* \"StorageFactory/SimpleStorage.sol\":329:374  mapping(string => string) public nameToDegree */\n    tag_29:\n      0x02\n      dup2\n      dup1\n      mload\n      0x20\n      dup2\n      add\n      dup3\n      add\n      dup1\n      mload\n      dup5\n      dup3\n      mstore\n      0x20\n      dup4\n      add\n      0x20\n      dup6\n      add\n      keccak256\n      dup2\n      dup4\n      mstore\n      dup1\n      swap6\n      pop\n      pop\n      pop\n      pop\n      pop\n      pop\n      0x00\n      swap2\n      pop\n      swap1\n      pop\n      dup1\n      sload\n      tag_53\n      swap1\n      tag_54\n      jump\t// in\n    tag_53:\n      dup1\n      0x1f\n      add\n      0x20\n      dup1\n      swap2\n      div\n      mul\n      0x20\n      add\n      mload(0x40)\n      swap1\n      dup2\n      add\n      0x40\n      mstore\n      dup1\n      swap3\n      swap2\n      swap1\n      dup2\n      dup2\n      mstore\n      0x20\n      add\n      dup3\n      dup1\n      sload\n      tag_55\n      swap1\n      tag_54\n      jump\t// in\n    tag_55:\n      dup1\n      iszero\n      tag_56\n      jumpi\n      dup1\n      0x1f\n      lt\n      tag_57\n      jumpi\n      0x0100\n      dup1\n      dup4\n      sload\n      div\n      mul\n      dup4\n      mstore\n      swap2\n      0x20\n      add\n      swap2\n      jump(tag_56)\n    tag_57:\n      dup3\n      add\n      swap2\n      swap1\n      0x00\n      mstore\n      keccak256(0x00, 0x20)\n      swap1\n    tag_58:\n      dup2\n      sload\n      dup2\n      mstore\n      swap1\n      0x01\n      add\n      swap1\n      0x20\n      add\n      dup1\n      dup4\n      gt\n      tag_58\n      jumpi\n      dup3\n      swap1\n      sub\n      0x1f\n      and\n      dup3\n      add\n      swap2\n    tag_56:\n      pop\n      pop\n      pop\n      pop\n      pop\n      dup2\n      jump\t// out\n        /* \"StorageFactory/SimpleStorage.sol\":681:764  function onlyPure(int a , int b) public pure returns(int256){... */\n    tag_35:\n        /* \"StorageFactory/SimpleStorage.sol\":734:740  int256 */\n      0x00\n        /* \"StorageFactory/SimpleStorage.sol\":759:760  b */\n      dup2\n        /* \"StorageFactory/SimpleStorage.sol\":755:756  a */\n      dup4\n        /* \"StorageFactory/SimpleStorage.sol\":755:760  a + b */\n      tag_60\n      swap2\n      swap1\n      tag_61\n      jump\t// in\n    tag_60:\n        /* \"StorageFactory/SimpleStorage.sol\":748:760  return a + b */\n      swap1\n      pop\n        /* \"StorageFactory/SimpleStorage.sol\":681:764  function onlyPure(int a , int b) public pure returns(int256){... */\n      swap3\n      swap2\n      pop\n      pop\n      jump\t// out\n        /* \"StorageFactory/SimpleStorage.sol\":301:323  Info[] public infoList */\n    tag_40:\n      0x01\n      dup2\n      dup2\n      sload\n      dup2\n      lt\n      tag_62\n      jumpi\n      0x00\n      dup1\n      revert\n    tag_62:\n      swap1\n      0x00\n      mstore\n      keccak256(0x00, 0x20)\n      swap1\n      0x03\n      mul\n      add\n      0x00\n      swap2\n      pop\n      swap1\n      pop\n      dup1\n      0x00\n      add\n      sload\n      swap1\n      dup1\n      0x01\n      add\n      dup1\n      sload\n      tag_64\n      swap1\n      tag_54\n      jump\t// in\n    tag_64:\n      dup1\n      0x1f\n      add\n      0x20\n      dup1\n      swap2\n      div\n      mul\n      0x20\n      add\n      mload(0x40)\n      swap1\n      dup2\n      add\n      0x40\n      mstore\n      dup1\n      swap3\n      swap2\n      swap1\n      dup2\n      dup2\n      mstore\n      0x20\n      add\n      dup3\n      dup1\n      sload\n      tag_65\n      swap1\n      tag_54\n      jump\t// in\n    tag_65:\n      dup1\n      iszero\n      tag_66\n      jumpi\n      dup1\n      0x1f\n      lt\n      tag_67\n      jumpi\n      0x0100\n      dup1\n      dup4\n      sload\n      div\n      mul\n      dup4\n      mstore\n      swap2\n      0x20\n      add\n      swap2\n      jump(tag_66)\n    tag_67:\n      dup3\n      add\n      swap2\n      swap1\n      0x00\n      mstore\n      keccak256(0x00, 0x20)\n      swap1\n    tag_68:\n      dup2\n      sload\n      dup2\n      mstore\n      swap1\n      0x01\n      add\n      swap1\n      0x20\n      add\n      dup1\n      dup4\n      gt\n      tag_68\n      jumpi\n      dup3\n      swap1\n      sub\n      0x1f\n      and\n      dup3\n      add\n      swap2\n    tag_66:\n      pop\n      pop\n      pop\n      pop\n      pop\n      swap1\n      dup1\n      0x02\n      add\n      dup1\n      sload\n      tag_69\n      swap1\n      tag_54\n      jump\t// in\n    tag_69:\n      dup1\n      0x1f\n      add\n      0x20\n      dup1\n      swap2\n      div\n      mul\n      0x20\n      add\n      mload(0x40)\n      swap1\n      dup2\n      add\n      0x40\n      mstore\n      dup1\n      swap3\n      swap2\n      swap1\n      dup2\n      dup2\n      mstore\n      0x20\n      add\n      dup3\n      dup1\n      sload\n      tag_70\n      swap1\n      tag_54\n      jump\t// in\n    tag_70:\n      dup1\n      iszero\n      tag_71\n      jumpi\n      dup1\n      0x1f\n      lt\n      tag_72\n      jumpi\n      0x0100\n      dup1\n      dup4\n      sload\n      div\n      mul\n      dup4\n      mstore\n      swap2\n      0x20\n      add\n      swap2\n      jump(tag_71)\n    tag_72:\n      dup3\n      add\n      swap2\n      swap1\n      0x00\n      mstore\n      keccak256(0x00, 0x20)\n      swap1\n    tag_73:\n      dup2\n      sload\n      dup2\n      mstore\n      swap1\n      0x01\n      add\n      swap1\n      0x20\n      add\n      dup1\n      dup4\n      gt\n      tag_73\n      jumpi\n      dup3\n      swap1\n      sub\n      0x1f\n      and\n      dup3\n      add\n      swap2\n    tag_71:\n      pop\n      pop\n      pop\n      pop\n      pop\n      swap1\n      pop\n      dup4\n      jump\t// out\n        /* \"#utility.yul\":7:82   */\n    tag_74:\n        /* \"#utility.yul\":40:46   */\n      0x00\n        /* \"#utility.yul\":73:75   */\n      0x40\n        /* \"#utility.yul\":67:76   */\n      mload\n        /* \"#utility.yul\":57:76   */\n      swap1\n      pop\n        /* \"#utility.yul\":7:82   */\n      swap1\n      jump\t// out\n        /* \"#utility.yul\":88:205   */\n    tag_75:\n        /* \"#utility.yul\":197:198   */\n      0x00\n        /* \"#utility.yul\":194:195   */\n      0x00\n        /* \"#utility.yul\":187:199   */\n      revert\n        /* \"#utility.yul\":211:328   */\n    tag_76:\n        /* \"#utility.yul\":320:321   */\n      0x00\n        /* \"#utility.yul\":317:318   */\n      0x00\n        /* \"#utility.yul\":310:322   */\n      revert\n        /* \"#utility.yul\":334:410   */\n    tag_77:\n        /* \"#utility.yul\":370:377   */\n      0x00\n        /* \"#utility.yul\":399:404   */\n      dup2\n        /* \"#utility.yul\":388:404   */\n      swap1\n      pop\n        /* \"#utility.yul\":334:410   */\n      swap2\n      swap1\n      pop\n      jump\t// out\n        /* \"#utility.yul\":416:536   */\n    tag_78:\n        /* \"#utility.yul\":488:511   */\n      tag_123\n        /* \"#utility.yul\":505:510   */\n      dup2\n        /* \"#utility.yul\":488:511   */\n      tag_77\n      jump\t// in\n    tag_123:\n        /* \"#utility.yul\":481:486   */\n      dup2\n        /* \"#utility.yul\":478:512   */\n      eq\n        /* \"#utility.yul\":468:530   */\n      tag_124\n      jumpi\n        /* \"#utility.yul\":526:527   */\n      0x00\n        /* \"#utility.yul\":523:524   */\n      0x00\n        /* \"#utility.yul\":516:528   */\n      revert\n        /* \"#utility.yul\":468:530   */\n    tag_124:\n        /* \"#utility.yul\":416:536   */\n      pop\n      jump\t// out\n        /* \"#utility.yul\":542:679   */\n    tag_79:\n        /* \"#utility.yul\":587:592   */\n      0x00\n        /* \"#utility.yul\":625:631   */\n      dup2\n        /* \"#utility.yul\":612:632   */\n      calldataload\n        /* \"#utility.yul\":603:632   */\n      swap1\n      pop\n        /* \"#utility.yul\":641:673   */\n      tag_126\n        /* \"#utility.yul\":667:672   */\n      dup2\n        /* \"#utility.yul\":641:673   */\n      tag_78\n      jump\t// in\n    tag_126:\n        /* \"#utility.yul\":542:679   */\n      swap3\n      swap2\n      pop\n      pop\n      jump\t// out\n        /* \"#utility.yul\":685:1012   */\n    tag_13:\n        /* \"#utility.yul\":743:749   */\n      0x00\n        /* \"#utility.yul\":792:794   */\n      0x20\n        /* \"#utility.yul\":780:789   */\n      dup3\n        /* \"#utility.yul\":771:778   */\n      dup5\n        /* \"#utility.yul\":767:790   */\n      sub\n        /* \"#utility.yul\":763:795   */\n      slt\n        /* \"#utility.yul\":760:879   */\n      iszero\n      tag_128\n      jumpi\n        /* \"#utility.yul\":798:877   */\n      tag_129\n      tag_75\n      jump\t// in\n    tag_129:\n        /* \"#utility.yul\":760:879   */\n    tag_128:\n        /* \"#utility.yul\":918:919   */\n      0x00\n        /* \"#utility.yul\":943:995   */\n      tag_130\n        /* \"#utility.yul\":987:994   */\n      dup5\n        /* \"#utility.yul\":978:984   */\n      dup3\n        /* \"#utility.yul\":967:976   */\n      dup6\n        /* \"#utility.yul\":963:985   */\n      add\n        /* \"#utility.yul\":943:995   */\n      tag_79\n      jump\t// in\n    tag_130:\n        /* \"#utility.yul\":933:995   */\n      swap2\n      pop\n        /* \"#utility.yul\":889:1005   */\n      pop\n        /* \"#utility.yul\":685:1012   */\n      swap3\n      swap2\n      pop\n      pop\n      jump\t// out\n        /* \"#utility.yul\":1018:1133   */\n    tag_80:\n        /* \"#utility.yul\":1103:1126   */\n      tag_132\n        /* \"#utility.yul\":1120:1125   */\n      dup2\n        /* \"#utility.yul\":1103:1126   */\n      tag_77\n      jump\t// in\n    tag_132:\n        /* \"#utility.yul\":1098:1101   */\n      dup3\n        /* \"#utility.yul\":1091:1127   */\n      mstore\n        /* \"#utility.yul\":1018:1133   */\n      pop\n      pop\n      jump\t// out\n        /* \"#utility.yul\":1139:1357   */\n    tag_18:\n        /* \"#utility.yul\":1230:1234   */\n      0x00\n        /* \"#utility.yul\":1268:1270   */\n      0x20\n        /* \"#utility.yul\":1257:1266   */\n      dup3\n        /* \"#utility.yul\":1253:1271   */\n      add\n        /* \"#utility.yul\":1245:1271   */\n      swap1\n      pop\n        /* \"#utility.yul\":1281:1350   */\n      tag_134\n        /* \"#utility.yul\":1347:1348   */\n      0x00\n        /* \"#utility.yul\":1336:1345   */\n      dup4\n        /* \"#utility.yul\":1332:1349   */\n      add\n        /* \"#utility.yul\":1323:1329   */\n      dup5\n        /* \"#utility.yul\":1281:1350   */\n      tag_80\n      jump\t// in\n    tag_134:\n        /* \"#utility.yul\":1139:1357   */\n      swap3\n      swap2\n      pop\n      pop\n      jump\t// out\n        /* \"#utility.yul\":1363:1480   */\n    tag_81:\n        /* \"#utility.yul\":1472:1473   */\n      0x00\n        /* \"#utility.yul\":1469:1470   */\n      0x00\n        /* \"#utility.yul\":1462:1474   */\n      revert\n        /* \"#utility.yul\":1486:1603   */\n    tag_82:\n        /* \"#utility.yul\":1595:1596   */\n      0x00\n        /* \"#utility.yul\":1592:1593   */\n      0x00\n        /* \"#utility.yul\":1585:1597   */\n      revert\n        /* \"#utility.yul\":1609:1711   */\n    tag_83:\n        /* \"#utility.yul\":1650:1656   */\n      0x00\n        /* \"#utility.yul\":1701:1703   */\n      0x1f\n        /* \"#utility.yul\":1697:1704   */\n      not\n        /* \"#utility.yul\":1692:1694   */\n      0x1f\n        /* \"#utility.yul\":1685:1690   */\n      dup4\n        /* \"#utility.yul\":1681:1695   */\n      add\n        /* \"#utility.yul\":1677:1705   */\n      and\n        /* \"#utility.yul\":1667:1705   */\n      swap1\n      pop\n        /* \"#utility.yul\":1609:1711   */\n      swap2\n      swap1\n      pop\n      jump\t// out\n        /* \"#utility.yul\":1717:1897   */\n    tag_84:\n        /* \"#utility.yul\":1765:1842   */\n      0x4e487b7100000000000000000000000000000000000000000000000000000000\n        /* \"#utility.yul\":1762:1763   */\n      0x00\n        /* \"#utility.yul\":1755:1843   */\n      mstore\n        /* \"#utility.yul\":1862:1866   */\n      0x41\n        /* \"#utility.yul\":1859:1860   */\n      0x04\n        /* \"#utility.yul\":1852:1867   */\n      mstore\n        /* \"#utility.yul\":1886:1890   */\n      0x24\n        /* \"#utility.yul\":1883:1884   */\n      0x00\n        /* \"#utility.yul\":1876:1891   */\n      revert\n        /* \"#utility.yul\":1903:2184   */\n    tag_85:\n        /* \"#utility.yul\":1986:2013   */\n      tag_140\n        /* \"#utility.yul\":2008:2012   */\n      dup3\n        /* \"#utility.yul\":1986:2013   */\n      tag_83\n      jump\t// in\n    tag_140:\n        /* \"#utility.yul\":1978:1984   */\n      dup2\n        /* \"#utility.yul\":1974:2014   */\n      add\n        /* \"#utility.yul\":2116:2122   */\n      dup2\n        /* \"#utility.yul\":2104:2114   */\n      dup2\n        /* \"#utility.yul\":2101:2123   */\n      lt\n        /* \"#utility.yul\":2080:2098   */\n      0xffffffffffffffff\n        /* \"#utility.yul\":2068:2078   */\n      dup3\n        /* \"#utility.yul\":2065:2099   */\n      gt\n        /* \"#utility.yul\":2062:2124   */\n      or\n        /* \"#utility.yul\":2059:2147   */\n      iszero\n      tag_141\n      jumpi\n        /* \"#utility.yul\":2127:2145   */\n      tag_142\n      tag_84\n      jump\t// in\n    tag_142:\n        /* \"#utility.yul\":2059:2147   */\n    tag_141:\n        /* \"#utility.yul\":2167:2177   */\n      dup1\n        /* \"#utility.yul\":2163:2165   */\n      0x40\n        /* \"#utility.yul\":2156:2178   */\n      mstore\n        /* \"#utility.yul\":1946:2184   */\n      pop\n        /* \"#utility.yul\":1903:2184   */\n      pop\n      pop\n      jump\t// out\n        /* \"#utility.yul\":2190:2319   */\n    tag_86:\n        /* \"#utility.yul\":2224:2230   */\n      0x00\n        /* \"#utility.yul\":2251:2271   */\n      tag_144\n      tag_74\n      jump\t// in\n    tag_144:\n        /* \"#utility.yul\":2241:2271   */\n      swap1\n      pop\n        /* \"#utility.yul\":2280:2313   */\n      tag_145\n        /* \"#utility.yul\":2308:2312   */\n      dup3\n        /* \"#utility.yul\":2300:2306   */\n      dup3\n        /* \"#utility.yul\":2280:2313   */\n      tag_85\n      jump\t// in\n    tag_145:\n        /* \"#utility.yul\":2190:2319   */\n      swap2\n      swap1\n      pop\n      jump\t// out\n        /* \"#utility.yul\":2325:2633   */\n    tag_87:\n        /* \"#utility.yul\":2387:2391   */\n      0x00\n        /* \"#utility.yul\":2477:2495   */\n      0xffffffffffffffff\n        /* \"#utility.yul\":2469:2475   */\n      dup3\n        /* \"#utility.yul\":2466:2496   */\n      gt\n        /* \"#utility.yul\":2463:2519   */\n      iszero\n      tag_147\n      jumpi\n        /* \"#utility.yul\":2499:2517   */\n      tag_148\n      tag_84\n      jump\t// in\n    tag_148:\n        /* \"#utility.yul\":2463:2519   */\n    tag_147:\n        /* \"#utility.yul\":2537:2566   */\n      tag_149\n        /* \"#utility.yul\":2559:2565   */\n      dup3\n        /* \"#utility.yul\":2537:2566   */\n      tag_83\n      jump\t// in\n    tag_149:\n        /* \"#utility.yul\":2529:2566   */\n      swap1\n      pop\n        /* \"#utility.yul\":2621:2625   */\n      0x20\n        /* \"#utility.yul\":2615:2619   */\n      dup2\n        /* \"#utility.yul\":2611:2626   */\n      add\n        /* \"#utility.yul\":2603:2626   */\n      swap1\n      pop\n        /* \"#utility.yul\":2325:2633   */\n      swap2\n      swap1\n      pop\n      jump\t// out\n        /* \"#utility.yul\":2639:2787   */\n    tag_88:\n        /* \"#utility.yul\":2737:2743   */\n      dup3\n        /* \"#utility.yul\":2732:2735   */\n      dup2\n        /* \"#utility.yul\":2727:2730   */\n      dup4\n        /* \"#utility.yul\":2714:2744   */\n      calldatacopy\n        /* \"#utility.yul\":2778:2779   */\n      0x00\n        /* \"#utility.yul\":2769:2775   */\n      dup4\n        /* \"#utility.yul\":2764:2767   */\n      dup4\n        /* \"#utility.yul\":2760:2776   */\n      add\n        /* \"#utility.yul\":2753:2780   */\n      mstore\n        /* \"#utility.yul\":2639:2787   */\n      pop\n      pop\n      pop\n      jump\t// out\n        /* \"#utility.yul\":2793:3218   */\n    tag_89:\n        /* \"#utility.yul\":2871:2876   */\n      0x00\n        /* \"#utility.yul\":2896:2962   */\n      tag_152\n        /* \"#utility.yul\":2912:2961   */\n      tag_153\n        /* \"#utility.yul\":2954:2960   */\n      dup5\n        /* \"#utility.yul\":2912:2961   */\n      tag_87\n      jump\t// in\n    tag_153:\n        /* \"#utility.yul\":2896:2962   */\n      tag_86\n      jump\t// in\n    tag_152:\n        /* \"#utility.yul\":2887:2962   */\n      swap1\n      pop\n        /* \"#utility.yul\":2985:2991   */\n      dup3\n        /* \"#utility.yul\":2978:2983   */\n      dup2\n        /* \"#utility.yul\":2971:2992   */\n      mstore\n        /* \"#utility.yul\":3023:3027   */\n      0x20\n        /* \"#utility.yul\":3016:3021   */\n      dup2\n        /* \"#utility.yul\":3012:3028   */\n      add\n        /* \"#utility.yul\":3061:3064   */\n      dup5\n        /* \"#utility.yul\":3052:3058   */\n      dup5\n        /* \"#utility.yul\":3047:3050   */\n      dup5\n        /* \"#utility.yul\":3043:3059   */\n      add\n        /* \"#utility.yul\":3040:3065   */\n      gt\n        /* \"#utility.yul\":3037:3149   */\n      iszero\n      tag_154\n      jumpi\n        /* \"#utility.yul\":3068:3147   */\n      tag_155\n      tag_82\n      jump\t// in\n    tag_155:\n        /* \"#utility.yul\":3037:3149   */\n    tag_154:\n        /* \"#utility.yul\":3158:3212   */\n      tag_156\n        /* \"#utility.yul\":3205:3211   */\n      dup5\n        /* \"#utility.yul\":3200:3203   */\n      dup3\n        /* \"#utility.yul\":3195:3198   */\n      dup6\n        /* \"#utility.yul\":3158:3212   */\n      tag_88\n      jump\t// in\n    tag_156:\n        /* \"#utility.yul\":2877:3218   */\n      pop\n        /* \"#utility.yul\":2793:3218   */\n      swap4\n      swap3\n      pop\n      pop\n      pop\n      jump\t// out\n        /* \"#utility.yul\":3238:3578   */\n    tag_90:\n        /* \"#utility.yul\":3294:3299   */\n      0x00\n        /* \"#utility.yul\":3343:3346   */\n      dup3\n        /* \"#utility.yul\":3336:3340   */\n      0x1f\n        /* \"#utility.yul\":3328:3334   */\n      dup4\n        /* \"#utility.yul\":3324:3341   */\n      add\n        /* \"#utility.yul\":3320:3347   */\n      slt\n        /* \"#utility.yul\":3310:3432   */\n      tag_158\n      jumpi\n        /* \"#utility.yul\":3351:3430   */\n      tag_159\n      tag_81\n      jump\t// in\n    tag_159:\n        /* \"#utility.yul\":3310:3432   */\n    tag_158:\n        /* \"#utility.yul\":3468:3474   */\n      dup2\n        /* \"#utility.yul\":3455:3475   */\n      calldataload\n        /* \"#utility.yul\":3493:3572   */\n      tag_160\n        /* \"#utility.yul\":3568:3571   */\n      dup5\n        /* \"#utility.yul\":3560:3566   */\n      dup3\n        /* \"#utility.yul\":3553:3557   */\n      0x20\n        /* \"#utility.yul\":3545:3551   */\n      dup7\n        /* \"#utility.yul\":3541:3558   */\n      add\n        /* \"#utility.yul\":3493:3572   */\n      tag_89\n      jump\t// in\n    tag_160:\n        /* \"#utility.yul\":3484:3572   */\n      swap2\n      pop\n        /* \"#utility.yul\":3300:3578   */\n      pop\n        /* \"#utility.yul\":3238:3578   */\n      swap3\n      swap2\n      pop\n      pop\n      jump\t// out\n        /* \"#utility.yul\":3584:4561   */\n    tag_24:\n        /* \"#utility.yul\":3680:3686   */\n      0x00\n        /* \"#utility.yul\":3688:3694   */\n      0x00\n        /* \"#utility.yul\":3696:3702   */\n      0x00\n        /* \"#utility.yul\":3745:3747   */\n      0x60\n        /* \"#utility.yul\":3733:3742   */\n      dup5\n        /* \"#utility.yul\":3724:3731   */\n      dup7\n        /* \"#utility.yul\":3720:3743   */\n      sub\n        /* \"#utility.yul\":3716:3748   */\n      slt\n        /* \"#utility.yul\":3713:3832   */\n      iszero\n      tag_162\n      jumpi\n        /* \"#utility.yul\":3751:3830   */\n      tag_163\n      tag_75\n      jump\t// in\n    tag_163:\n        /* \"#utility.yul\":3713:3832   */\n    tag_162:\n        /* \"#utility.yul\":3871:3872   */\n      0x00\n        /* \"#utility.yul\":3896:3948   */\n      tag_164\n        /* \"#utility.yul\":3940:3947   */\n      dup7\n        /* \"#utility.yul\":3931:3937   */\n      dup3\n        /* \"#utility.yul\":3920:3929   */\n      dup8\n        /* \"#utility.yul\":3916:3938   */\n      add\n        /* \"#utility.yul\":3896:3948   */\n      tag_79\n      jump\t// in\n    tag_164:\n        /* \"#utility.yul\":3886:3948   */\n      swap4\n      pop\n        /* \"#utility.yul\":3842:3958   */\n      pop\n        /* \"#utility.yul\":4025:4027   */\n      0x20\n        /* \"#utility.yul\":4014:4023   */\n      dup5\n        /* \"#utility.yul\":4010:4028   */\n      add\n        /* \"#utility.yul\":3997:4029   */\n      calldataload\n        /* \"#utility.yul\":4056:4074   */\n      0xffffffffffffffff\n        /* \"#utility.yul\":4048:4054   */\n      dup2\n        /* \"#utility.yul\":4045:4075   */\n      gt\n        /* \"#utility.yul\":4042:4159   */\n      iszero\n      tag_165\n      jumpi\n        /* \"#utility.yul\":4078:4157   */\n      tag_166\n      tag_76\n      jump\t// in\n    tag_166:\n        /* \"#utility.yul\":4042:4159   */\n    tag_165:\n        /* \"#utility.yul\":4183:4246   */\n      tag_167\n        /* \"#utility.yul\":4238:4245   */\n      dup7\n        /* \"#utility.yul\":4229:4235   */\n      dup3\n        /* \"#utility.yul\":4218:4227   */\n      dup8\n        /* \"#utility.yul\":4214:4236   */\n      add\n        /* \"#utility.yul\":4183:4246   */\n      tag_90\n      jump\t// in\n    tag_167:\n        /* \"#utility.yul\":4173:4246   */\n      swap3\n      pop\n        /* \"#utility.yul\":3968:4256   */\n      pop\n        /* \"#utility.yul\":4323:4325   */\n      0x40\n        /* \"#utility.yul\":4312:4321   */\n      dup5\n        /* \"#utility.yul\":4308:4326   */\n      add\n        /* \"#utility.yul\":4295:4327   */\n      calldataload\n        /* \"#utility.yul\":4354:4372   */\n      0xffffffffffffffff\n        /* \"#utility.yul\":4346:4352   */\n      dup2\n        /* \"#utility.yul\":4343:4373   */\n      gt\n        /* \"#utility.yul\":4340:4457   */\n      iszero\n      tag_168\n      jumpi\n        /* \"#utility.yul\":4376:4455   */\n      tag_169\n      tag_76\n      jump\t// in\n    tag_169:\n        /* \"#utility.yul\":4340:4457   */\n    tag_168:\n        /* \"#utility.yul\":4481:4544   */\n      tag_170\n        /* \"#utility.yul\":4536:4543   */\n      dup7\n        /* \"#utility.yul\":4527:4533   */\n      dup3\n        /* \"#utility.yul\":4516:4525   */\n      dup8\n        /* \"#utility.yul\":4512:4534   */\n      add\n        /* \"#utility.yul\":4481:4544   */\n      tag_90\n      jump\t// in\n    tag_170:\n        /* \"#utility.yul\":4471:4544   */\n      swap2\n      pop\n        /* \"#utility.yul\":4266:4554   */\n      pop\n        /* \"#utility.yul\":3584:4561   */\n      swap3\n      pop\n      swap3\n      pop\n      swap3\n      jump\t// out\n        /* \"#utility.yul\":4567:5076   */\n    tag_28:\n        /* \"#utility.yul\":4636:4642   */\n      0x00\n        /* \"#utility.yul\":4685:4687   */\n      0x20\n        /* \"#utility.yul\":4673:4682   */\n      dup3\n        /* \"#utility.yul\":4664:4671   */\n      dup5\n        /* \"#utility.yul\":4660:4683   */\n      sub\n        /* \"#utility.yul\":4656:4688   */\n      slt\n        /* \"#utility.yul\":4653:4772   */\n      iszero\n      tag_172\n      jumpi\n        /* \"#utility.yul\":4691:4770   */\n      tag_173\n      tag_75\n      jump\t// in\n    tag_173:\n        /* \"#utility.yul\":4653:4772   */\n    tag_172:\n        /* \"#utility.yul\":4839:4840   */\n      0x00\n        /* \"#utility.yul\":4828:4837   */\n      dup3\n        /* \"#utility.yul\":4824:4841   */\n      add\n        /* \"#utility.yul\":4811:4842   */\n      calldataload\n        /* \"#utility.yul\":4869:4887   */\n      0xffffffffffffffff\n        /* \"#utility.yul\":4861:4867   */\n      dup2\n        /* \"#utility.yul\":4858:4888   */\n      gt\n        /* \"#utility.yul\":4855:4972   */\n      iszero\n      tag_174\n      jumpi\n        /* \"#utility.yul\":4891:4970   */\n      tag_175\n      tag_76\n      jump\t// in\n    tag_175:\n        /* \"#utility.yul\":4855:4972   */\n    tag_174:\n        /* \"#utility.yul\":4996:5059   */\n      tag_176\n        /* \"#utility.yul\":5051:5058   */\n      dup5\n        /* \"#utility.yul\":5042:5048   */\n      dup3\n        /* \"#utility.yul\":5031:5040   */\n      dup6\n        /* \"#utility.yul\":5027:5049   */\n      add\n        /* \"#utility.yul\":4996:5059   */\n      tag_90\n      jump\t// in\n    tag_176:\n        /* \"#utility.yul\":4986:5059   */\n      swap2\n      pop\n        /* \"#utility.yul\":4782:5069   */\n      pop\n        /* \"#utility.yul\":4567:5076   */\n      swap3\n      swap2\n      pop\n      pop\n      jump\t// out\n        /* \"#utility.yul\":5082:5181   */\n    tag_91:\n        /* \"#utility.yul\":5134:5140   */\n      0x00\n        /* \"#utility.yul\":5168:5173   */\n      dup2\n        /* \"#utility.yul\":5162:5174   */\n      mload\n        /* \"#utility.yul\":5152:5174   */\n      swap1\n      pop\n        /* \"#utility.yul\":5082:5181   */\n      swap2\n      swap1\n      pop\n      jump\t// out\n        /* \"#utility.yul\":5187:5356   */\n    tag_92:\n        /* \"#utility.yul\":5271:5282   */\n      0x00\n        /* \"#utility.yul\":5305:5311   */\n      dup3\n        /* \"#utility.yul\":5300:5303   */\n      dup3\n        /* \"#utility.yul\":5293:5312   */\n      mstore\n        /* \"#utility.yul\":5345:5349   */\n      0x20\n        /* \"#utility.yul\":5340:5343   */\n      dup3\n        /* \"#utility.yul\":5336:5350   */\n      add\n        /* \"#utility.yul\":5321:5350   */\n      swap1\n      pop\n        /* \"#utility.yul\":5187:5356   */\n      swap3\n      swap2\n      pop\n      pop\n      jump\t// out\n        /* \"#utility.yul\":5362:5501   */\n    tag_93:\n        /* \"#utility.yul\":5451:5457   */\n      dup3\n        /* \"#utility.yul\":5446:5449   */\n      dup2\n        /* \"#utility.yul\":5441:5444   */\n      dup4\n        /* \"#utility.yul\":5435:5458   */\n      mcopy\n        /* \"#utility.yul\":5492:5493   */\n      0x00\n        /* \"#utility.yul\":5483:5489   */\n      dup4\n        /* \"#utility.yul\":5478:5481   */\n      dup4\n        /* \"#utility.yul\":5474:5490   */\n      add\n        /* \"#utility.yul\":5467:5494   */\n      mstore\n        /* \"#utility.yul\":5362:5501   */\n      pop\n      pop\n      pop\n      jump\t// out\n        /* \"#utility.yul\":5507:5884   */\n    tag_94:\n        /* \"#utility.yul\":5595:5598   */\n      0x00\n        /* \"#utility.yul\":5623:5662   */\n      tag_181\n        /* \"#utility.yul\":5656:5661   */\n      dup3\n        /* \"#utility.yul\":5623:5662   */\n      tag_91\n      jump\t// in\n    tag_181:\n        /* \"#utility.yul\":5678:5749   */\n      tag_182\n        /* \"#utility.yul\":5742:5748   */\n      dup2\n        /* \"#utility.yul\":5737:5740   */\n      dup6\n        /* \"#utility.yul\":5678:5749   */\n      tag_92\n      jump\t// in\n    tag_182:\n        /* \"#utility.yul\":5671:5749   */\n      swap4\n      pop\n        /* \"#utility.yul\":5758:5823   */\n      tag_183\n        /* \"#utility.yul\":5816:5822   */\n      dup2\n        /* \"#utility.yul\":5811:5814   */\n      dup6\n        /* \"#utility.yul\":5804:5808   */\n      0x20\n        /* \"#utility.yul\":5797:5802   */\n      dup7\n        /* \"#utility.yul\":5793:5809   */\n      add\n        /* \"#utility.yul\":5758:5823   */\n      tag_93\n      jump\t// in\n    tag_183:\n        /* \"#utility.yul\":5848:5877   */\n      tag_184\n        /* \"#utility.yul\":5870:5876   */\n      dup2\n        /* \"#utility.yul\":5848:5877   */\n      tag_83\n      jump\t// in\n    tag_184:\n        /* \"#utility.yul\":5843:5846   */\n      dup5\n        /* \"#utility.yul\":5839:5878   */\n      add\n        /* \"#utility.yul\":5832:5878   */\n      swap2\n      pop\n        /* \"#utility.yul\":5599:5884   */\n      pop\n        /* \"#utility.yul\":5507:5884   */\n      swap3\n      swap2\n      pop\n      pop\n      jump\t// out\n        /* \"#utility.yul\":5890:6203   */\n    tag_31:\n        /* \"#utility.yul\":6003:6007   */\n      0x00\n        /* \"#utility.yul\":6041:6043   */\n      0x20\n        /* \"#utility.yul\":6030:6039   */\n      dup3\n        /* \"#utility.yul\":6026:6044   */\n      add\n        /* \"#utility.yul\":6018:6044   */\n      swap1\n      pop\n        /* \"#utility.yul\":6090:6099   */\n      dup2\n        /* \"#utility.yul\":6084:6088   */\n      dup2\n        /* \"#utility.yul\":6080:6100   */\n      sub\n        /* \"#utility.yul\":6076:6077   */\n      0x00\n        /* \"#utility.yul\":6065:6074   */\n      dup4\n        /* \"#utility.yul\":6061:6078   */\n      add\n        /* \"#utility.yul\":6054:6101   */\n      mstore\n        /* \"#utility.yul\":6118:6196   */\n      tag_186\n        /* \"#utility.yul\":6191:6195   */\n      dup2\n        /* \"#utility.yul\":6182:6188   */\n      dup5\n        /* \"#utility.yul\":6118:6196   */\n      tag_94\n      jump\t// in\n    tag_186:\n        /* \"#utility.yul\":6110:6196   */\n      swap1\n      pop\n        /* \"#utility.yul\":5890:6203   */\n      swap3\n      swap2\n      pop\n      pop\n      jump\t// out\n        /* \"#utility.yul\":6209:6679   */\n    tag_34:\n        /* \"#utility.yul\":6275:6281   */\n      0x00\n        /* \"#utility.yul\":6283:6289   */\n      0x00\n        /* \"#utility.yul\":6332:6334   */\n      0x40\n        /* \"#utility.yul\":6320:6329   */\n      dup4\n        /* \"#utility.yul\":6311:6318   */\n      dup6\n        /* \"#utility.yul\":6307:6330   */\n      sub\n        /* \"#utility.yul\":6303:6335   */\n      slt\n        /* \"#utility.yul\":6300:6419   */\n      iszero\n      tag_188\n      jumpi\n        /* \"#utility.yul\":6338:6417   */\n      tag_189\n      tag_75\n      jump\t// in\n    tag_189:\n        /* \"#utility.yul\":6300:6419   */\n    tag_188:\n        /* \"#utility.yul\":6458:6459   */\n      0x00\n        /* \"#utility.yul\":6483:6535   */\n      tag_190\n        /* \"#utility.yul\":6527:6534   */\n      dup6\n        /* \"#utility.yul\":6518:6524   */\n      dup3\n        /* \"#utility.yul\":6507:6516   */\n      dup7\n        /* \"#utility.yul\":6503:6525   */\n      add\n        /* \"#utility.yul\":6483:6535   */\n      tag_79\n      jump\t// in\n    tag_190:\n        /* \"#utility.yul\":6473:6535   */\n      swap3\n      pop\n        /* \"#utility.yul\":6429:6545   */\n      pop\n        /* \"#utility.yul\":6584:6586   */\n      0x20\n        /* \"#utility.yul\":6610:6662   */\n      tag_191\n        /* \"#utility.yul\":6654:6661   */\n      dup6\n        /* \"#utility.yul\":6645:6651   */\n      dup3\n        /* \"#utility.yul\":6634:6643   */\n      dup7\n        /* \"#utility.yul\":6630:6652   */\n      add\n        /* \"#utility.yul\":6610:6662   */\n      tag_79\n      jump\t// in\n    tag_191:\n        /* \"#utility.yul\":6600:6662   */\n      swap2\n      pop\n        /* \"#utility.yul\":6555:6672   */\n      pop\n        /* \"#utility.yul\":6209:6679   */\n      swap3\n      pop\n      swap3\n      swap1\n      pop\n      jump\t// out\n        /* \"#utility.yul\":6685:6762   */\n    tag_95:\n        /* \"#utility.yul\":6722:6729   */\n      0x00\n        /* \"#utility.yul\":6751:6756   */\n      dup2\n        /* \"#utility.yul\":6740:6756   */\n      swap1\n      pop\n        /* \"#utility.yul\":6685:6762   */\n      swap2\n      swap1\n      pop\n      jump\t// out\n        /* \"#utility.yul\":6768:6890   */\n    tag_96:\n        /* \"#utility.yul\":6841:6865   */\n      tag_194\n        /* \"#utility.yul\":6859:6864   */\n      dup2\n        /* \"#utility.yul\":6841:6865   */\n      tag_95\n      jump\t// in\n    tag_194:\n        /* \"#utility.yul\":6834:6839   */\n      dup2\n        /* \"#utility.yul\":6831:6866   */\n      eq\n        /* \"#utility.yul\":6821:6884   */\n      tag_195\n      jumpi\n        /* \"#utility.yul\":6880:6881   */\n      0x00\n        /* \"#utility.yul\":6877:6878   */\n      0x00\n        /* \"#utility.yul\":6870:6882   */\n      revert\n        /* \"#utility.yul\":6821:6884   */\n    tag_195:\n        /* \"#utility.yul\":6768:6890   */\n      pop\n      jump\t// out\n        /* \"#utility.yul\":6896:7035   */\n    tag_97:\n        /* \"#utility.yul\":6942:6947   */\n      0x00\n        /* \"#utility.yul\":6980:6986   */\n      dup2\n        /* \"#utility.yul\":6967:6987   */\n      calldataload\n        /* \"#utility.yul\":6958:6987   */\n      swap1\n      pop\n        /* \"#utility.yul\":6996:7029   */\n      tag_197\n        /* \"#utility.yul\":7023:7028   */\n      dup2\n        /* \"#utility.yul\":6996:7029   */\n      tag_96\n      jump\t// in\n    tag_197:\n        /* \"#utility.yul\":6896:7035   */\n      swap3\n      swap2\n      pop\n      pop\n      jump\t// out\n        /* \"#utility.yul\":7041:7370   */\n    tag_39:\n        /* \"#utility.yul\":7100:7106   */\n      0x00\n        /* \"#utility.yul\":7149:7151   */\n      0x20\n        /* \"#utility.yul\":7137:7146   */\n      dup3\n        /* \"#utility.yul\":7128:7135   */\n      dup5\n        /* \"#utility.yul\":7124:7147   */\n      sub\n        /* \"#utility.yul\":7120:7152   */\n      slt\n        /* \"#utility.yul\":7117:7236   */\n      iszero\n      tag_199\n      jumpi\n        /* \"#utility.yul\":7155:7234   */\n      tag_200\n      tag_75\n      jump\t// in\n    tag_200:\n        /* \"#utility.yul\":7117:7236   */\n    tag_199:\n        /* \"#utility.yul\":7275:7276   */\n      0x00\n        /* \"#utility.yul\":7300:7353   */\n      tag_201\n        /* \"#utility.yul\":7345:7352   */\n      dup5\n        /* \"#utility.yul\":7336:7342   */\n      dup3\n        /* \"#utility.yul\":7325:7334   */\n      dup6\n        /* \"#utility.yul\":7321:7343   */\n      add\n        /* \"#utility.yul\":7300:7353   */\n      tag_97\n      jump\t// in\n    tag_201:\n        /* \"#utility.yul\":7290:7353   */\n      swap2\n      pop\n        /* \"#utility.yul\":7246:7363   */\n      pop\n        /* \"#utility.yul\":7041:7370   */\n      swap3\n      swap2\n      pop\n      pop\n      jump\t// out\n        /* \"#utility.yul\":7376:7996   */\n    tag_42:\n        /* \"#utility.yul\":7563:7567   */\n      0x00\n        /* \"#utility.yul\":7601:7603   */\n      0x60\n        /* \"#utility.yul\":7590:7599   */\n      dup3\n        /* \"#utility.yul\":7586:7604   */\n      add\n        /* \"#utility.yul\":7578:7604   */\n      swap1\n      pop\n        /* \"#utility.yul\":7614:7683   */\n      tag_203\n        /* \"#utility.yul\":7680:7681   */\n      0x00\n        /* \"#utility.yul\":7669:7678   */\n      dup4\n        /* \"#utility.yul\":7665:7682   */\n      add\n        /* \"#utility.yul\":7656:7662   */\n      dup7\n        /* \"#utility.yul\":7614:7683   */\n      tag_80\n      jump\t// in\n    tag_203:\n        /* \"#utility.yul\":7730:7739   */\n      dup2\n        /* \"#utility.yul\":7724:7728   */\n      dup2\n        /* \"#utility.yul\":7720:7740   */\n      sub\n        /* \"#utility.yul\":7715:7717   */\n      0x20\n        /* \"#utility.yul\":7704:7713   */\n      dup4\n        /* \"#utility.yul\":7700:7718   */\n      add\n        /* \"#utility.yul\":7693:7741   */\n      mstore\n        /* \"#utility.yul\":7758:7836   */\n      tag_204\n        /* \"#utility.yul\":7831:7835   */\n      dup2\n        /* \"#utility.yul\":7822:7828   */\n      dup6\n        /* \"#utility.yul\":7758:7836   */\n      tag_94\n      jump\t// in\n    tag_204:\n        /* \"#utility.yul\":7750:7836   */\n      swap1\n      pop\n        /* \"#utility.yul\":7883:7892   */\n      dup2\n        /* \"#utility.yul\":7877:7881   */\n      dup2\n        /* \"#utility.yul\":7873:7893   */\n      sub\n        /* \"#utility.yul\":7868:7870   */\n      0x40\n        /* \"#utility.yul\":7857:7866   */\n      dup4\n        /* \"#utility.yul\":7853:7871   */\n      add\n        /* \"#utility.yul\":7846:7894   */\n      mstore\n        /* \"#utility.yul\":7911:7989   */\n      tag_205\n        /* \"#utility.yul\":7984:7988   */\n      dup2\n        /* \"#utility.yul\":7975:7981   */\n      dup5\n        /* \"#utility.yul\":7911:7989   */\n      tag_94\n      jump\t// in\n    tag_205:\n        /* \"#utility.yul\":7903:7989   */\n      swap1\n      pop\n        /* \"#utility.yul\":7376:7996   */\n      swap5\n      swap4\n      pop\n      pop\n      pop\n      pop\n      jump\t// out\n        /* \"#utility.yul\":8002:8182   */\n    tag_98:\n        /* \"#utility.yul\":8050:8127   */\n      0x4e487b7100000000000000000000000000000000000000000000000000000000\n        /* \"#utility.yul\":8047:8048   */\n      0x00\n        /* \"#utility.yul\":8040:8128   */\n      mstore\n        /* \"#utility.yul\":8147:8151   */\n      0x22\n        /* \"#utility.yul\":8144:8145   */\n      0x04\n        /* \"#utility.yul\":8137:8152   */\n      mstore\n        /* \"#utility.yul\":8171:8175   */\n      0x24\n        /* \"#utility.yul\":8168:8169   */\n      0x00\n        /* \"#utility.yul\":8161:8176   */\n      revert\n        /* \"#utility.yul\":8188:8508   */\n    tag_54:\n        /* \"#utility.yul\":8232:8238   */\n      0x00\n        /* \"#utility.yul\":8269:8270   */\n      0x02\n        /* \"#utility.yul\":8263:8267   */\n      dup3\n        /* \"#utility.yul\":8259:8271   */\n      div\n        /* \"#utility.yul\":8249:8271   */\n      swap1\n      pop\n        /* \"#utility.yul\":8316:8317   */\n      0x01\n        /* \"#utility.yul\":8310:8314   */\n      dup3\n        /* \"#utility.yul\":8306:8318   */\n      and\n        /* \"#utility.yul\":8337:8355   */\n      dup1\n        /* \"#utility.yul\":8327:8408   */\n      tag_208\n      jumpi\n        /* \"#utility.yul\":8393:8397   */\n      0x7f\n        /* \"#utility.yul\":8385:8391   */\n      dup3\n        /* \"#utility.yul\":8381:8398   */\n      and\n        /* \"#utility.yul\":8371:8398   */\n      swap2\n      pop\n        /* \"#utility.yul\":8327:8408   */\n    tag_208:\n        /* \"#utility.yul\":8455:8457   */\n      0x20\n        /* \"#utility.yul\":8447:8453   */\n      dup3\n        /* \"#utility.yul\":8444:8458   */\n      lt\n        /* \"#utility.yul\":8424:8442   */\n      dup2\n        /* \"#utility.yul\":8421:8459   */\n      sub\n        /* \"#utility.yul\":8418:8502   */\n      tag_209\n      jumpi\n        /* \"#utility.yul\":8474:8492   */\n      tag_210\n      tag_98\n      jump\t// in\n    tag_210:\n        /* \"#utility.yul\":8418:8502   */\n    tag_209:\n        /* \"#utility.yul\":8239:8508   */\n      pop\n        /* \"#utility.yul\":8188:8508   */\n      swap2\n      swap1\n      pop\n      jump\t// out\n        /* \"#utility.yul\":8514:8655   */\n    tag_99:\n        /* \"#utility.yul\":8563:8567   */\n      0x00\n        /* \"#utility.yul\":8586:8589   */\n      dup2\n        /* \"#utility.yul\":8578:8589   */\n      swap1\n      pop\n        /* \"#utility.yul\":8609:8612   */\n      dup2\n        /* \"#utility.yul\":8606:8607   */\n      0x00\n        /* \"#utility.yul\":8599:8613   */\n      mstore\n        /* \"#utility.yul\":8643:8647   */\n      0x20\n        /* \"#utility.yul\":8640:8641   */\n      0x00\n        /* \"#utility.yul\":8630:8648   */\n      keccak256\n        /* \"#utility.yul\":8622:8648   */\n      swap1\n      pop\n        /* \"#utility.yul\":8514:8655   */\n      swap2\n      swap1\n      pop\n      jump\t// out\n        /* \"#utility.yul\":8661:8754   */\n    tag_100:\n        /* \"#utility.yul\":8698:8704   */\n      0x00\n        /* \"#utility.yul\":8745:8747   */\n      0x20\n        /* \"#utility.yul\":8740:8742   */\n      0x1f\n        /* \"#utility.yul\":8733:8738   */\n      dup4\n        /* \"#utility.yul\":8729:8743   */\n      add\n        /* \"#utility.yul\":8725:8748   */\n      div\n        /* \"#utility.yul\":8715:8748   */\n      swap1\n      pop\n        /* \"#utility.yul\":8661:8754   */\n      swap2\n      swap1\n      pop\n      jump\t// out\n        /* \"#utility.yul\":8760:8867   */\n    tag_101:\n        /* \"#utility.yul\":8804:8812   */\n      0x00\n        /* \"#utility.yul\":8854:8859   */\n      dup3\n        /* \"#utility.yul\":8848:8852   */\n      dup3\n        /* \"#utility.yul\":8844:8860   */\n      shl\n        /* \"#utility.yul\":8823:8860   */\n      swap1\n      pop\n        /* \"#utility.yul\":8760:8867   */\n      swap3\n      swap2\n      pop\n      pop\n      jump\t// out\n        /* \"#utility.yul\":8873:9266   */\n    tag_102:\n        /* \"#utility.yul\":8942:8948   */\n      0x00\n        /* \"#utility.yul\":8992:8993   */\n      0x08\n        /* \"#utility.yul\":8980:8990   */\n      dup4\n        /* \"#utility.yul\":8976:8994   */\n      mul\n        /* \"#utility.yul\":9015:9112   */\n      tag_215\n        /* \"#utility.yul\":9045:9111   */\n      0xffffffffffffffffffffffffffffffffffffffffffffffffffffffffffffffff\n        /* \"#utility.yul\":9034:9043   */\n      dup3\n        /* \"#utility.yul\":9015:9112   */\n      tag_101\n      jump\t// in\n    tag_215:\n        /* \"#utility.yul\":9133:9172   */\n      tag_216\n        /* \"#utility.yul\":9163:9171   */\n      dup7\n        /* \"#utility.yul\":9152:9161   */\n      dup4\n        /* \"#utility.yul\":9133:9172   */\n      tag_101\n      jump\t// in\n    tag_216:\n        /* \"#utility.yul\":9121:9172   */\n      swap6\n      pop\n        /* \"#utility.yul\":9205:9209   */\n      dup1\n        /* \"#utility.yul\":9201:9210   */\n      not\n        /* \"#utility.yul\":9194:9199   */\n      dup5\n        /* \"#utility.yul\":9190:9211   */\n      and\n        /* \"#utility.yul\":9181:9211   */\n      swap4\n      pop\n        /* \"#utility.yul\":9254:9258   */\n      dup1\n        /* \"#utility.yul\":9244:9252   */\n      dup7\n        /* \"#utility.yul\":9240:9259   */\n      and\n        /* \"#utility.yul\":9233:9238   */\n      dup5\n        /* \"#utility.yul\":9230:9260   */\n      or\n        /* \"#utility.yul\":9220:9260   */\n      swap3\n      pop\n        /* \"#utility.yul\":8949:9266   */\n      pop\n      pop\n        /* \"#utility.yul\":8873:9266   */\n      swap4\n      swap3\n      pop\n      pop\n      pop\n      jump\t// out\n        /* \"#utility.yul\":9272:9332   */\n    tag_103:\n        /* \"#utility.yul\":9300:9303   */\n      0x00\n        /* \"#utility.yul\":9321:9326   */\n      dup2\n        /* \"#utility.yul\":9314:9326   */\n      swap1\n      pop\n        /* \"#utility.yul\":9272:9332   */\n      swap2\n      swap1\n      pop\n      jump\t// out\n        /* \"#utility.yul\":9338:9480   */\n    tag_104:\n        /* \"#utility.yul\":9388:9397   */\n      0x00\n        /* \"#utility.yul\":9421:9474   */\n      tag_219\n        /* \"#utility.yul\":9439:9473   */\n      tag_220\n        /* \"#utility.yul\":9448:9472   */\n      tag_221\n        /* \"#utility.yul\":9466:9471   */\n      dup5\n        /* \"#utility.yul\":9448:9472   */\n      tag_95\n      jump\t// in\n    tag_221:\n        /* \"#utility.yul\":9439:9473   */\n      tag_103\n      jump\t// in\n    tag_220:\n        /* \"#utility.yul\":9421:9474   */\n      tag_95\n      jump\t// in\n    tag_219:\n        /* \"#utility.yul\":9408:9474   */\n      swap1\n      pop\n        /* \"#utility.yul\":9338:9480   */\n      swap2\n      swap1\n      pop\n      jump\t// out\n        /* \"#utility.yul\":9486:9561   */\n    tag_105:\n        /* \"#utility.yul\":9529:9532   */\n      0x00\n        /* \"#utility.yul\":9550:9555   */\n      dup2\n        /* \"#utility.yul\":9543:9555   */\n      swap1\n      pop\n        /* \"#utility.yul\":9486:9561   */\n      swap2\n      swap1\n      pop\n      jump\t// out\n        /* \"#utility.yul\":9567:9836   */\n    tag_106:\n        /* \"#utility.yul\":9677:9716   */\n      tag_224\n        /* \"#utility.yul\":9708:9715   */\n      dup4\n        /* \"#utility.yul\":9677:9716   */\n      tag_104\n      jump\t// in\n    tag_224:\n        /* \"#utility.yul\":9738:9829   */\n      tag_225\n        /* \"#utility.yul\":9787:9828   */\n      tag_226\n        /* \"#utility.yul\":9811:9827   */\n      dup3\n        /* \"#utility.yul\":9787:9828   */\n      tag_105\n      jump\t// in\n    tag_226:\n        /* \"#utility.yul\":9779:9785   */\n      dup5\n        /* \"#utility.yul\":9772:9776   */\n      dup5\n        /* \"#utility.yul\":9766:9777   */\n      sload\n        /* \"#utility.yul\":9738:9829   */\n      tag_102\n      jump\t// in\n    tag_225:\n        /* \"#utility.yul\":9732:9736   */\n      dup3\n        /* \"#utility.yul\":9725:9830   */\n      sstore\n        /* \"#utility.yul\":9643:9836   */\n      pop\n        /* \"#utility.yul\":9567:9836   */\n      pop\n      pop\n      pop\n      jump\t// out\n        /* \"#utility.yul\":9842:9915   */\n    tag_107:\n        /* \"#utility.yul\":9887:9890   */\n      0x00\n        /* \"#utility.yul\":9908:9909   */\n      0x00\n        /* \"#utility.yul\":9901:9909   */\n      swap1\n      pop\n        /* \"#utility.yul\":9842:9915   */\n      swap1\n      jump\t// out\n        /* \"#utility.yul\":9921:10110   */\n    tag_108:\n        /* \"#utility.yul\":9998:10030   */\n      tag_229\n      tag_107\n      jump\t// in\n    tag_229:\n        /* \"#utility.yul\":10039:10104   */\n      tag_230\n        /* \"#utility.yul\":10097:10103   */\n      dup2\n        /* \"#utility.yul\":10089:10095   */\n      dup5\n        /* \"#utility.yul\":10083:10087   */\n      dup5\n        /* \"#utility.yul\":10039:10104   */\n      tag_106\n      jump\t// in\n    tag_230:\n        /* \"#utility.yul\":9974:10110   */\n      pop\n        /* \"#utility.yul\":9921:10110   */\n      pop\n      pop\n      jump\t// out\n        /* \"#utility.yul\":10116:10330   */\n    tag_109:\n        /* \"#utility.yul\":10201:10202   */\n      0x00\n        /* \"#utility.yul\":10186:10324   */\n    tag_232:\n        /* \"#utility.yul\":10211:10220   */\n      dup3\n        /* \"#utility.yul\":10208:10209   */\n      dup2\n        /* \"#utility.yul\":10205:10221   */\n      lt\n        /* \"#utility.yul\":10186:10324   */\n      iszero\n      tag_234\n      jumpi\n        /* \"#utility.yul\":10263:10314   */\n      tag_235\n        /* \"#utility.yul\":10312:10313   */\n      0x00\n        /* \"#utility.yul\":10308:10309   */\n      dup3\n        /* \"#utility.yul\":10297:10306   */\n      dup5\n        /* \"#utility.yul\":10293:10310   */\n      add\n        /* \"#utility.yul\":10263:10314   */\n      tag_108\n      jump\t// in\n    tag_235:\n        /* \"#utility.yul\":10236:10237   */\n      0x01\n        /* \"#utility.yul\":10233:10234   */\n      dup2\n        /* \"#utility.yul\":10229:10238   */\n      add\n        /* \"#utility.yul\":10224:10238   */\n      swap1\n      pop\n        /* \"#utility.yul\":10186:10324   */\n      jump(tag_232)\n    tag_234:\n        /* \"#utility.yul\":10190:10204   */\n      pop\n        /* \"#utility.yul\":10116:10330   */\n      pop\n      pop\n      jump\t// out\n        /* \"#utility.yul\":10336:11082   */\n    tag_110:\n        /* \"#utility.yul\":10437:10439   */\n      0x1f\n        /* \"#utility.yul\":10432:10435   */\n      dup3\n        /* \"#utility.yul\":10429:10440   */\n      gt\n        /* \"#utility.yul\":10426:11075   */\n      iszero\n      tag_237\n      jumpi\n        /* \"#utility.yul\":10466:10476   */\n      dup3\n        /* \"#utility.yul\":10461:10464   */\n      dup3\n        /* \"#utility.yul\":10458:10477   */\n      gt\n        /* \"#utility.yul\":10455:11065   */\n      iszero\n      tag_238\n      jumpi\n        /* \"#utility.yul\":10512:10550   */\n      tag_239\n        /* \"#utility.yul\":10544:10549   */\n      dup2\n        /* \"#utility.yul\":10512:10550   */\n      tag_99\n      jump\t// in\n    tag_239:\n        /* \"#utility.yul\":10587:10609   */\n      tag_240\n        /* \"#utility.yul\":10605:10608   */\n      dup4\n        /* \"#utility.yul\":10587:10609   */\n      tag_100\n      jump\t// in\n    tag_240:\n        /* \"#utility.yul\":10646:10675   */\n      tag_241\n        /* \"#utility.yul\":10664:10674   */\n      dup6\n        /* \"#utility.yul\":10646:10675   */\n      tag_100\n      jump\t// in\n    tag_241:\n        /* \"#utility.yul\":10836:10838   */\n      0x20\n        /* \"#utility.yul\":10824:10834   */\n      dup7\n        /* \"#utility.yul\":10821:10839   */\n      lt\n        /* \"#utility.yul\":10818:10897   */\n      iszero\n      tag_242\n      jumpi\n        /* \"#utility.yul\":10878:10879   */\n      0x00\n        /* \"#utility.yul\":10862:10879   */\n      swap1\n      pop\n        /* \"#utility.yul\":10818:10897   */\n    tag_242:\n        /* \"#utility.yul\":10947:10959   */\n      dup1\n        /* \"#utility.yul\":10937:10945   */\n      dup4\n        /* \"#utility.yul\":10933:10960   */\n      add\n        /* \"#utility.yul\":10977:11051   */\n      tag_243\n        /* \"#utility.yul\":11037:11049   */\n      dup3\n        /* \"#utility.yul\":11023:11035   */\n      dup5\n        /* \"#utility.yul\":11019:11050   */\n      sub\n        /* \"#utility.yul\":11006:11017   */\n      dup3\n        /* \"#utility.yul\":10977:11051   */\n      tag_109\n      jump\t// in\n    tag_243:\n        /* \"#utility.yul\":10478:11065   */\n      pop\n      pop\n      pop\n      pop\n        /* \"#utility.yul\":10455:11065   */\n    tag_238:\n        /* \"#utility.yul\":10426:11075   */\n    tag_237:\n        /* \"#utility.yul\":10336:11082   */\n      pop\n      pop\n      pop\n      jump\t// out\n        /* \"#utility.yul\":11088:11205   */\n    tag_111:\n        /* \"#utility.yul\":11142:11150   */\n      0x00\n        /* \"#utility.yul\":11192:11197   */\n      dup3\n        /* \"#utility.yul\":11186:11190   */\n      dup3\n        /* \"#utility.yul\":11182:11198   */\n      shr\n        /* \"#utility.yul\":11161:11198   */\n      swap1\n      pop\n        /* \"#utility.yul\":11088:11205   */\n      swap3\n      swap2\n      pop\n      pop\n      jump\t// out\n        /* \"#utility.yul\":11211:11380   */\n    tag_112:\n        /* \"#utility.yul\":11255:11261   */\n      0x00\n        /* \"#utility.yul\":11288:11339   */\n      tag_246\n        /* \"#utility.yul\":11336:11337   */\n      0x00\n        /* \"#utility.yul\":11332:11338   */\n      not\n        /* \"#utility.yul\":11324:11329   */\n      dup5\n        /* \"#utility.yul\":11321:11322   */\n      0x08\n        /* \"#utility.yul\":11317:11330   */\n      mul\n        /* \"#utility.yul\":11288:11339   */\n      tag_111\n      jump\t// in\n    tag_246:\n        /* \"#utility.yul\":11284:11340   */\n      not\n        /* \"#utility.yul\":11369:11373   */\n      dup1\n        /* \"#utility.yul\":11363:11367   */\n      dup4\n        /* \"#utility.yul\":11359:11374   */\n      and\n        /* \"#utility.yul\":11349:11374   */\n      swap2\n      pop\n        /* \"#utility.yul\":11262:11380   */\n      pop\n        /* \"#utility.yul\":11211:11380   */\n      swap3\n      swap2\n      pop\n      pop\n      jump\t// out\n        /* \"#utility.yul\":11385:11680   */\n    tag_113:\n        /* \"#utility.yul\":11461:11465   */\n      0x00\n        /* \"#utility.yul\":11607:11636   */\n      tag_248\n        /* \"#utility.yul\":11632:11635   */\n      dup4\n        /* \"#utility.yul\":11626:11630   */\n      dup4\n        /* \"#utility.yul\":11607:11636   */\n      tag_112\n      jump\t// in\n    tag_248:\n        /* \"#utility.yul\":11599:11636   */\n      swap2\n      pop\n        /* \"#utility.yul\":11669:11672   */\n      dup3\n        /* \"#utility.yul\":11666:11667   */\n      0x02\n        /* \"#utility.yul\":11662:11673   */\n      mul\n        /* \"#utility.yul\":11656:11660   */\n      dup3\n        /* \"#utility.yul\":11653:11674   */\n      or\n        /* \"#utility.yul\":11645:11674   */\n      swap1\n      pop\n        /* \"#utility.yul\":11385:11680   */\n      swap3\n      swap2\n      pop\n      pop\n      jump\t// out\n        /* \"#utility.yul\":11685:13080   */\n    tag_48:\n        /* \"#utility.yul\":11802:11839   */\n      tag_250\n        /* \"#utility.yul\":11835:11838   */\n      dup3\n        /* \"#utility.yul\":11802:11839   */\n      tag_91\n      jump\t// in\n    tag_250:\n        /* \"#utility.yul\":11904:11922   */\n      0xffffffffffffffff\n        /* \"#utility.yul\":11896:11902   */\n      dup2\n        /* \"#utility.yul\":11893:11923   */\n      gt\n        /* \"#utility.yul\":11890:11946   */\n      iszero\n      tag_251\n      jumpi\n        /* \"#utility.yul\":11926:11944   */\n      tag_252\n      tag_84\n      jump\t// in\n    tag_252:\n        /* \"#utility.yul\":11890:11946   */\n    tag_251:\n        /* \"#utility.yul\":11970:12008   */\n      tag_253\n        /* \"#utility.yul\":12002:12006   */\n      dup3\n        /* \"#utility.yul\":11996:12007   */\n      sload\n        /* \"#utility.yul\":11970:12008   */\n      tag_54\n      jump\t// in\n    tag_253:\n        /* \"#utility.yul\":12055:12122   */\n      tag_254\n        /* \"#utility.yul\":12115:12121   */\n      dup3\n        /* \"#utility.yul\":12107:12113   */\n      dup3\n        /* \"#utility.yul\":12101:12105   */\n      dup6\n        /* \"#utility.yul\":12055:12122   */\n      tag_110\n      jump\t// in\n    tag_254:\n        /* \"#utility.yul\":12149:12150   */\n      0x00\n        /* \"#utility.yul\":12173:12177   */\n      0x20\n        /* \"#utility.yul\":12160:12177   */\n      swap1\n      pop\n        /* \"#utility.yul\":12205:12207   */\n      0x1f\n        /* \"#utility.yul\":12197:12203   */\n      dup4\n        /* \"#utility.yul\":12194:12208   */\n      gt\n        /* \"#utility.yul\":12222:12223   */\n      0x01\n        /* \"#utility.yul\":12217:12835   */\n      dup2\n      eq\n      tag_256\n      jumpi\n        /* \"#utility.yul\":12879:12880   */\n      0x00\n        /* \"#utility.yul\":12896:12902   */\n      dup5\n        /* \"#utility.yul\":12893:12970   */\n      iszero\n      tag_257\n      jumpi\n        /* \"#utility.yul\":12945:12954   */\n      dup3\n        /* \"#utility.yul\":12940:12943   */\n      dup8\n        /* \"#utility.yul\":12936:12955   */\n      add\n        /* \"#utility.yul\":12930:12956   */\n      mload\n        /* \"#utility.yul\":12921:12956   */\n      swap1\n      pop\n        /* \"#utility.yul\":12893:12970   */\n    tag_257:\n        /* \"#utility.yul\":12996:13063   */\n      tag_258\n        /* \"#utility.yul\":13056:13062   */\n      dup6\n        /* \"#utility.yul\":13049:13054   */\n      dup3\n        /* \"#utility.yul\":12996:13063   */\n      tag_113\n      jump\t// in\n    tag_258:\n        /* \"#utility.yul\":12990:12994   */\n      dup7\n        /* \"#utility.yul\":12983:13064   */\n      sstore\n        /* \"#utility.yul\":12852:13074   */\n      pop\n        /* \"#utility.yul\":12187:13074   */\n      jump(tag_255)\n        /* \"#utility.yul\":12217:12835   */\n    tag_256:\n        /* \"#utility.yul\":12269:12273   */\n      0x1f\n        /* \"#utility.yul\":12265:12274   */\n      not\n        /* \"#utility.yul\":12257:12263   */\n      dup5\n        /* \"#utility.yul\":12253:12275   */\n      and\n        /* \"#utility.yul\":12303:12340   */\n      tag_259\n        /* \"#utility.yul\":12335:12339   */\n      dup7\n        /* \"#utility.yul\":12303:12340   */\n      tag_99\n      jump\t// in\n    tag_259:\n        /* \"#utility.yul\":12362:12363   */\n      0x00\n        /* \"#utility.yul\":12376:12584   */\n    tag_260:\n        /* \"#utility.yul\":12390:12397   */\n      dup3\n        /* \"#utility.yul\":12387:12388   */\n      dup2\n        /* \"#utility.yul\":12384:12398   */\n      lt\n        /* \"#utility.yul\":12376:12584   */\n      iszero\n      tag_262\n      jumpi\n        /* \"#utility.yul\":12469:12478   */\n      dup5\n        /* \"#utility.yul\":12464:12467   */\n      dup10\n        /* \"#utility.yul\":12460:12479   */\n      add\n        /* \"#utility.yul\":12454:12480   */\n      mload\n        /* \"#utility.yul\":12446:12452   */\n      dup3\n        /* \"#utility.yul\":12439:12481   */\n      sstore\n        /* \"#utility.yul\":12520:12521   */\n      0x01\n        /* \"#utility.yul\":12512:12518   */\n      dup3\n        /* \"#utility.yul\":12508:12522   */\n      add\n        /* \"#utility.yul\":12498:12522   */\n      swap2\n      pop\n        /* \"#utility.yul\":12567:12569   */\n      0x20\n        /* \"#utility.yul\":12556:12565   */\n      dup6\n        /* \"#utility.yul\":12552:12570   */\n      add\n        /* \"#utility.yul\":12539:12570   */\n      swap5\n      pop\n        /* \"#utility.yul\":12413:12417   */\n      0x20\n        /* \"#utility.yul\":12410:12411   */\n      dup2\n        /* \"#utility.yul\":12406:12418   */\n      add\n        /* \"#utility.yul\":12401:12418   */\n      swap1\n      pop\n        /* \"#utility.yul\":12376:12584   */\n      jump(tag_260)\n    tag_262:\n        /* \"#utility.yul\":12612:12618   */\n      dup7\n        /* \"#utility.yul\":12603:12610   */\n      dup4\n        /* \"#utility.yul\":12600:12619   */\n      lt\n        /* \"#utility.yul\":12597:12776   */\n      iszero\n      tag_263\n      jumpi\n        /* \"#utility.yul\":12670:12679   */\n      dup5\n        /* \"#utility.yul\":12665:12668   */\n      dup10\n        /* \"#utility.yul\":12661:12680   */\n      add\n        /* \"#utility.yul\":12655:12681   */\n      mload\n        /* \"#utility.yul\":12713:12761   */\n      tag_264\n        /* \"#utility.yul\":12755:12759   */\n      0x1f\n        /* \"#utility.yul\":12747:12753   */\n      dup10\n        /* \"#utility.yul\":12743:12760   */\n      and\n        /* \"#utility.yul\":12732:12741   */\n      dup3\n        /* \"#utility.yul\":12713:12761   */\n      tag_112\n      jump\t// in\n    tag_264:\n        /* \"#utility.yul\":12705:12711   */\n      dup4\n        /* \"#utility.yul\":12698:12762   */\n      sstore\n        /* \"#utility.yul\":12620:12776   */\n      pop\n        /* \"#utility.yul\":12597:12776   */\n    tag_263:\n        /* \"#utility.yul\":12822:12823   */\n      0x01\n        /* \"#utility.yul\":12818:12819   */\n      0x02\n        /* \"#utility.yul\":12810:12816   */\n      dup9\n        /* \"#utility.yul\":12806:12820   */\n      mul\n        /* \"#utility.yul\":12802:12824   */\n      add\n        /* \"#utility.yul\":12796:12800   */\n      dup9\n        /* \"#utility.yul\":12789:12825   */\n      sstore\n        /* \"#utility.yul\":12224:12835   */\n      pop\n      pop\n      pop\n        /* \"#utility.yul\":12187:13074   */\n    tag_255:\n      pop\n        /* \"#utility.yul\":11777:13080   */\n      pop\n      pop\n      pop\n        /* \"#utility.yul\":11685:13080   */\n      pop\n      pop\n      jump\t// out\n        /* \"#utility.yul\":13086:13234   */\n    tag_114:\n        /* \"#utility.yul\":13188:13199   */\n      0x00\n        /* \"#utility.yul\":13225:13228   */\n      dup2\n        /* \"#utility.yul\":13210:13228   */\n      swap1\n      pop\n        /* \"#utility.yul\":13086:13234   */\n      swap3\n      swap2\n      pop\n      pop\n      jump\t// out\n        /* \"#utility.yul\":13240:13630   */\n    tag_115:\n        /* \"#utility.yul\":13346:13349   */\n      0x00\n        /* \"#utility.yul\":13374:13413   */\n      tag_267\n        /* \"#utility.yul\":13407:13412   */\n      dup3\n        /* \"#utility.yul\":13374:13413   */\n      tag_91\n      jump\t// in\n    tag_267:\n        /* \"#utility.yul\":13429:13518   */\n      tag_268\n        /* \"#utility.yul\":13511:13517   */\n      dup2\n        /* \"#utility.yul\":13506:13509   */\n      dup6\n        /* \"#utility.yul\":13429:13518   */\n      tag_114\n      jump\t// in\n    tag_268:\n        /* \"#utility.yul\":13422:13518   */\n      swap4\n      pop\n        /* \"#utility.yul\":13527:13592   */\n      tag_269\n        /* \"#utility.yul\":13585:13591   */\n      dup2\n        /* \"#utility.yul\":13580:13583   */\n      dup6\n        /* \"#utility.yul\":13573:13577   */\n      0x20\n        /* \"#utility.yul\":13566:13571   */\n      dup7\n        /* \"#utility.yul\":13562:13578   */\n      add\n        /* \"#utility.yul\":13527:13592   */\n      tag_93\n      jump\t// in\n    tag_269:\n        /* \"#utility.yul\":13617:13623   */\n      dup1\n        /* \"#utility.yul\":13612:13615   */\n      dup5\n        /* \"#utility.yul\":13608:13624   */\n      add\n        /* \"#utility.yul\":13601:13624   */\n      swap2\n      pop\n        /* \"#utility.yul\":13350:13630   */\n      pop\n        /* \"#utility.yul\":13240:13630   */\n      swap3\n      swap2\n      pop\n      pop\n      jump\t// out\n        /* \"#utility.yul\":13636:13911   */\n    tag_51:\n        /* \"#utility.yul\":13768:13771   */\n      0x00\n        /* \"#utility.yul\":13790:13885   */\n      tag_271\n        /* \"#utility.yul\":13881:13884   */\n      dup3\n        /* \"#utility.yul\":13872:13878   */\n      dup5\n        /* \"#utility.yul\":13790:13885   */\n      tag_115\n      jump\t// in\n    tag_271:\n        /* \"#utility.yul\":13783:13885   */\n      swap2\n      pop\n        /* \"#utility.yul\":13902:13905   */\n      dup2\n        /* \"#utility.yul\":13895:13905   */\n      swap1\n      pop\n        /* \"#utility.yul\":13636:13911   */\n      swap3\n      swap2\n      pop\n      pop\n      jump\t// out\n        /* \"#utility.yul\":13917:14097   */\n    tag_116:\n        /* \"#utility.yul\":13965:14042   */\n      0x4e487b7100000000000000000000000000000000000000000000000000000000\n        /* \"#utility.yul\":13962:13963   */\n      0x00\n        /* \"#utility.yul\":13955:14043   */\n      mstore\n        /* \"#utility.yul\":14062:14066   */\n      0x11\n        /* \"#utility.yul\":14059:14060   */\n      0x04\n        /* \"#utility.yul\":14052:14067   */\n      mstore\n        /* \"#utility.yul\":14086:14090   */\n      0x24\n        /* \"#utility.yul\":14083:14084   */\n      0x00\n        /* \"#utility.yul\":14076:14091   */\n      revert\n        /* \"#utility.yul\":14103:14478   */\n    tag_61:\n        /* \"#utility.yul\":14142:14145   */\n      0x00\n        /* \"#utility.yul\":14161:14180   */\n      tag_274\n        /* \"#utility.yul\":14178:14179   */\n      dup3\n        /* \"#utility.yul\":14161:14180   */\n      tag_77\n      jump\t// in\n    tag_274:\n        /* \"#utility.yul\":14156:14180   */\n      swap2\n      pop\n        /* \"#utility.yul\":14194:14213   */\n      tag_275\n        /* \"#utility.yul\":14211:14212   */\n      dup4\n        /* \"#utility.yul\":14194:14213   */\n      tag_77\n      jump\t// in\n    tag_275:\n        /* \"#utility.yul\":14189:14213   */\n      swap3\n      pop\n        /* \"#utility.yul\":14236:14237   */\n      dup3\n        /* \"#utility.yul\":14233:14234   */\n      dup3\n        /* \"#utility.yul\":14229:14238   */\n      add\n        /* \"#utility.yul\":14222:14238   */\n      swap1\n      pop\n        /* \"#utility.yul\":14434:14435   */\n      dup3\n        /* \"#utility.yul\":14429:14432   */\n      dup2\n        /* \"#utility.yul\":14425:14436   */\n      slt\n        /* \"#utility.yul\":14418:14437   */\n      iszero\n        /* \"#utility.yul\":14414:14415   */\n      0x00\n        /* \"#utility.yul\":14411:14412   */\n      dup4\n        /* \"#utility.yul\":14407:14416   */\n      slt\n        /* \"#utility.yul\":14403:14438   */\n      and\n        /* \"#utility.yul\":14386:14387   */\n      dup4\n        /* \"#utility.yul\":14381:14384   */\n      dup3\n        /* \"#utility.yul\":14377:14388   */\n      slt\n        /* \"#utility.yul\":14372:14373   */\n      0x00\n        /* \"#utility.yul\":14369:14370   */\n      dup5\n        /* \"#utility.yul\":14365:14374   */\n      slt\n        /* \"#utility.yul\":14358:14375   */\n      iszero\n        /* \"#utility.yul\":14354:14389   */\n      and\n        /* \"#utility.yul\":14338:14448   */\n      or\n        /* \"#utility.yul\":14335:14471   */\n      iszero\n      tag_276\n      jumpi\n        /* \"#utility.yul\":14451:14469   */\n      tag_277\n      tag_116\n      jump\t// in\n    tag_277:\n        /* \"#utility.yul\":14335:14471   */\n    tag_276:\n        /* \"#utility.yul\":14103:14478   */\n      swap3\n      swap2\n      pop\n      pop\n      jump\t// out\n\n    auxdata: 0xa2646970667358221220418edfb25a7335c104991d9c80a6b8e804a3f0a661196feb6b13cdff6751dfa764736f6c63430008220033\n}\n",
				"bytecode": {
					"linkReferences": {},
					"object": "6080604052348015600e575f5ffd5b50610c208061001c5f395ff3fe608060405234801561000f575f5ffd5b506004361061007b575f3560e01c8063b0e1e1b511610059578063b0e1e1b5146100d7578063dee940d9146100f3578063e14d263214610123578063fb74ad85146101535761007b565b806346e762df1461007f5780634e70b1dc1461009b5780635ae5c08f146100b9575b5f5ffd5b61009960048036038101906100949190610492565b610185565b005b6100a361018e565b6040516100b091906104cc565b60405180910390f35b6100c1610193565b6040516100ce91906104cc565b60405180910390f35b6100f160048036038101906100ec9190610621565b61019b565b005b61010d600480360381019061010891906106a9565b610245565b60405161011a9190610750565b60405180910390f35b61013d60048036038101906101389190610770565b6102f8565b60405161014a91906104cc565b60405180910390f35b61016d600480360381019061016891906107e1565b61030d565b60405161017c9392919061080c565b60405180910390f35b805f8190555050565b5f5481565b5f5f54905090565b6001604051806060016040528085815260200184815260200183815250908060018154018082558091505060019003905f5260205f2090600302015f909190919091505f820151815f015560208201518160010190816101fb9190610a5d565b5060408201518160020190816102119190610a5d565b505050806002836040516102259190610b66565b9081526020016040518091039020908161023f9190610a5d565b50505050565b6002818051602081018201805184825260208301602085012081835280955050505050505f9150905080546102799061087c565b80601f01602080910402602001604051908101604052809291908181526020018280546102a59061087c565b80156102f05780601f106102c7576101008083540402835291602001916102f0565b820191905f5260205f20905b8154815290600101906020018083116102d357829003601f168201915b505050505081565b5f81836103059190610ba9565b905092915050565b6001818154811061031c575f80fd5b905f5260205f2090600302015f91509050805f0154908060010180546103419061087c565b80601f016020809104026020016040519081016040528092919081815260200182805461036d9061087c565b80156103b85780601f1061038f576101008083540402835291602001916103b8565b820191905f5260205f20905b81548152906001019060200180831161039b57829003601f168201915b5050505050908060020180546103cd9061087c565b80601f01602080910402602001604051908101604052809291908181526020018280546103f99061087c565b80156104445780601f1061041b57610100808354040283529160200191610444565b820191905f5260205f20905b81548152906001019060200180831161042757829003601f168201915b5050505050905083565b5f604051905090565b5f5ffd5b5f5ffd5b5f819050919050565b6104718161045f565b811461047b575f5ffd5b50565b5f8135905061048c81610468565b92915050565b5f602082840312156104a7576104a6610457565b5b5f6104b48482850161047e565b91505092915050565b6104c68161045f565b82525050565b5f6020820190506104df5f8301846104bd565b92915050565b5f5ffd5b5f5ffd5b5f601f19601f8301169050919050565b7f4e487b71000000000000000000000000000000000000000000000000000000005f52604160045260245ffd5b610533826104ed565b810181811067ffffffffffffffff82111715610552576105516104fd565b5b80604052505050565b5f61056461044e565b9050610570828261052a565b919050565b5f67ffffffffffffffff82111561058f5761058e6104fd565b5b610598826104ed565b9050602081019050919050565b828183375f83830152505050565b5f6105c56105c084610575565b61055b565b9050828152602081018484840111156105e1576105e06104e9565b5b6105ec8482856105a5565b509392505050565b5f82601f830112610608576106076104e5565b5b81356106188482602086016105b3565b91505092915050565b5f5f5f6060848603121561063857610637610457565b5b5f6106458682870161047e565b935050602084013567ffffffffffffffff8111156106665761066561045b565b5b610672868287016105f4565b925050604084013567ffffffffffffffff8111156106935761069261045b565b5b61069f868287016105f4565b9150509250925092565b5f602082840312156106be576106bd610457565b5b5f82013567ffffffffffffffff8111156106db576106da61045b565b5b6106e7848285016105f4565b91505092915050565b5f81519050919050565b5f82825260208201905092915050565b8281835e5f83830152505050565b5f610722826106f0565b61072c81856106fa565b935061073c81856020860161070a565b610745816104ed565b840191505092915050565b5f6020820190508181035f8301526107688184610718565b905092915050565b5f5f6040838503121561078657610785610457565b5b5f6107938582860161047e565b92505060206107a48582860161047e565b9150509250929050565b5f819050919050565b6107c0816107ae565b81146107ca575f5ffd5b50565b5f813590506107db816107b7565b92915050565b5f602082840312156107f6576107f5610457565b5b5f610803848285016107cd565b91505092915050565b5f60608201905061081f5f8301866104bd565b81810360208301526108318185610718565b905081810360408301526108458184610718565b9050949350505050565b7f4e487b71000000000000000000000000000000000000000000000000000000005f52602260045260245ffd5b5f600282049050600182168061089357607f821691505b6020821081036108a6576108a561084f565b5b50919050565b5f819050815f5260205f209050919050565b5f6020601f8301049050919050565b5f82821b905092915050565b5f600883026109087fffffffffffffffffffffffffffffffffffffffffffffffffffffffffffffffff826108cd565b61091286836108cd565b95508019841693508086168417925050509392505050565b5f819050919050565b5f61094d610948610943846107ae565b61092a565b6107ae565b9050919050565b5f819050919050565b61096683610933565b61097a61097282610954565b8484546108d9565b825550505050565b5f5f905090565b610991610982565b61099c81848461095d565b505050565b5f5b828110156109c2576109b75f828401610989565b6001810190506109a3565b505050565b601f821115610a155782821115610a14576109e1816108ac565b6109ea836108be565b6109f3856108be565b6020861015610a00575f90505b808301610a0f828403826109a1565b505050505b5b505050565b5f82821c905092915050565b5f610a355f1984600802610a1a565b1980831691505092915050565b5f610a4d8383610a26565b9150826002028217905092915050565b610a66826106f0565b67ffffffffffffffff811115610a7f57610a7e6104fd565b5b610a89825461087c565b610a948282856109c7565b5f60209050601f831160018114610ac5575f8415610ab3578287015190505b610abd8582610a42565b865550610b24565b601f198416610ad3866108ac565b5f5b82811015610afa57848901518255600182019150602085019450602081019050610ad5565b86831015610b175784890151610b13601f891682610a26565b8355505b6001600288020188555050505b505050505050565b5f81905092915050565b5f610b40826106f0565b610b4a8185610b2c565b9350610b5a81856020860161070a565b80840191505092915050565b5f610b718284610b36565b915081905092915050565b7f4e487b71000000000000000000000000000000000000000000000000000000005f52601160045260245ffd5b5f610bb38261045f565b9150610bbe8361045f565b92508282019050828112155f8312168382125f841215161715610be457610be3610b7c565b5b9291505056fea2646970667358221220418edfb25a7335c104991d9c80a6b8e804a3f0a661196feb6b13cdff6751dfa764736f6c63430008220033",
					"opcodes": "PUSH1 0x80 PUSH1 0x40 MSTORE CALLVALUE DUP1 ISZERO PUSH1 0xE JUMPI PUSH0 PUSH0 REVERT JUMPDEST POP PUSH2 0xC20 DUP1 PUSH2 0x1C PUSH0 CODECOPY PUSH0 RETURN INVALID PUSH1 0x80 PUSH1 0x40 MSTORE CALLVALUE DUP1 ISZERO PUSH2 0xF JUMPI PUSH0 PUSH0 REVERT JUMPDEST POP PUSH1 0x4 CALLDATASIZE LT PUSH2 0x7B JUMPI PUSH0 CALLDATALOAD PUSH1 0xE0 SHR DUP1 PUSH4 0xB0E1E1B5 GT PUSH2 0x59 JUMPI DUP1 PUSH4 0xB0E1E1B5 EQ PUSH2 0xD7 JUMPI DUP1 PUSH4 0xDEE940D9 EQ PUSH2 0xF3 JUMPI DUP1 PUSH4 0xE14D2632 EQ PUSH2 0x123 JUMPI DUP1 PUSH4 0xFB74AD85 EQ PUSH2 0x153 JUMPI PUSH2 0x7B JUMP JUMPDEST DUP1 PUSH4 0x46E762DF EQ PUSH2 0x7F JUMPI DUP1 PUSH4 0x4E70B1DC EQ PUSH2 0x9B JUMPI DUP1 PUSH4 0x5AE5C08F EQ PUSH2 0xB9 JUMPI JUMPDEST PUSH0 PUSH0 REVERT JUMPDEST PUSH2 0x99 PUSH1 0x4 DUP1 CALLDATASIZE SUB DUP2 ADD SWAP1 PUSH2 0x94 SWAP2 SWAP1 PUSH2 0x492 JUMP JUMPDEST PUSH2 0x185 JUMP JUMPDEST STOP JUMPDEST PUSH2 0xA3 PUSH2 0x18E JUMP JUMPDEST PUSH1 0x40 MLOAD PUSH2 0xB0 SWAP2 SWAP1 PUSH2 0x4CC JUMP JUMPDEST PUSH1 0x40 MLOAD DUP1 SWAP2 SUB SWAP1 RETURN JUMPDEST PUSH2 0xC1 PUSH2 0x193 JUMP JUMPDEST PUSH1 0x40 MLOAD PUSH2 0xCE SWAP2 SWAP1 PUSH2 0x4CC JUMP JUMPDEST PUSH1 0x40 MLOAD DUP1 SWAP2 SUB SWAP1 RETURN JUMPDEST PUSH2 0xF1 PUSH1 0x4 DUP1 CALLDATASIZE SUB DUP2 ADD SWAP1 PUSH2 0xEC SWAP2 SWAP1 PUSH2 0x621 JUMP JUMPDEST PUSH2 0x19B JUMP JUMPDEST STOP JUMPDEST PUSH2 0x10D PUSH1 0x4 DUP1 CALLDATASIZE SUB DUP2 ADD SWAP1 PUSH2 0x108 SWAP2 SWAP1 PUSH2 0x6A9 JUMP JUMPDEST PUSH2 0x245 JUMP JUMPDEST PUSH1 0x40 MLOAD PUSH2 0x11A SWAP2 SWAP1 PUSH2 0x750 JUMP JUMPDEST PUSH1 0x40 MLOAD DUP1 SWAP2 SUB SWAP1 RETURN JUMPDEST PUSH2 0x13D PUSH1 0x4 DUP1 CALLDATASIZE SUB DUP2 ADD SWAP1 PUSH2 0x138 SWAP2 SWAP1 PUSH2 0x770 JUMP JUMPDEST PUSH2 0x2F8 JUMP JUMPDEST PUSH1 0x40 MLOAD PUSH2 0x14A SWAP2 SWAP1 PUSH2 0x4CC JUMP JUMPDEST PUSH1 0x40 MLOAD DUP1 SWAP2 SUB SWAP1 RETURN JUMPDEST PUSH2 0x16D PUSH1 0x4 DUP1 CALLDATASIZE SUB DUP2 ADD SWAP1 PUSH2 0x168 SWAP2 SWAP1 PUSH2 0x7E1 JUMP JUMPDEST PUSH2 0x30D JUMP JUMPDEST PUSH1 0x40 MLOAD PUSH2 0x17C SWAP4 SWAP3 SWAP2 SWAP1 PUSH2 0x80C JUMP JUMPDEST PUSH1 0x40 MLOAD DUP1 SWAP2 SUB SWAP1 RETURN JUMPDEST DUP1 PUSH0 DUP2 SWAP1 SSTORE POP POP JUMP JUMPDEST PUSH0 SLOAD DUP2 JUMP JUMPDEST PUSH0 PUSH0 SLOAD SWAP1 POP SWAP1 JUMP JUMPDEST PUSH1 0x1 PUSH1 0x40 MLOAD DUP1 PUSH1 0x60 ADD PUSH1 0x40 MSTORE DUP1 DUP6 DUP2 MSTORE PUSH1 0x20 ADD DUP5 DUP2 MSTORE PUSH1 0x20 ADD DUP4 DUP2 MSTORE POP SWAP1 DUP1 PUSH1 0x1 DUP2 SLOAD ADD DUP1 DUP3 SSTORE DUP1 SWAP2 POP POP PUSH1 0x1 SWAP1 SUB SWAP1 PUSH0 MSTORE PUSH1 0x20 PUSH0 KECCAK256 SWAP1 PUSH1 0x3 MUL ADD PUSH0 SWAP1 SWAP2 SWAP1 SWAP2 SWAP1 SWAP2 POP PUSH0 DUP3 ADD MLOAD DUP2 PUSH0 ADD SSTORE PUSH1 0x20 DUP3 ADD MLOAD DUP2 PUSH1 0x1 ADD SWAP1 DUP2 PUSH2 0x1FB SWAP2 SWAP1 PUSH2 0xA5D JUMP JUMPDEST POP PUSH1 0x40 DUP3 ADD MLOAD DUP2 PUSH1 0x2 ADD SWAP1 DUP2 PUSH2 0x211 SWAP2 SWAP1 PUSH2 0xA5D JUMP JUMPDEST POP POP POP DUP1 PUSH1 0x2 DUP4 PUSH1 0x40 MLOAD PUSH2 0x225 SWAP2 SWAP1 PUSH2 0xB66 JUMP JUMPDEST SWAP1 DUP2 MSTORE PUSH1 0x20 ADD PUSH1 0x40 MLOAD DUP1 SWAP2 SUB SWAP1 KECCAK256 SWAP1 DUP2 PUSH2 0x23F SWAP2 SWAP1 PUSH2 0xA5D JUMP JUMPDEST POP POP POP POP JUMP JUMPDEST PUSH1 0x2 DUP2 DUP1 MLOAD PUSH1 0x20 DUP2 ADD DUP3 ADD DUP1 MLOAD DUP5 DUP3 MSTORE PUSH1 0x20 DUP4 ADD PUSH1 0x20 DUP6 ADD KECCAK256 DUP2 DUP4 MSTORE DUP1 SWAP6 POP POP POP POP POP POP PUSH0 SWAP2 POP SWAP1 POP DUP1 SLOAD PUSH2 0x279 SWAP1 PUSH2 0x87C JUMP JUMPDEST DUP1 PUSH1 0x1F ADD PUSH1 0x20 DUP1 SWAP2 DIV MUL PUSH1 0x20 ADD PUSH1 0x40 MLOAD SWAP1 DUP2 ADD PUSH1 0x40 MSTORE DUP1 SWAP3 SWAP2 SWAP1 DUP2 DUP2 MSTORE PUSH1 0x20 ADD DUP3 DUP1 SLOAD PUSH2 0x2A5 SWAP1 PUSH2 0x87C JUMP JUMPDEST DUP1 ISZERO PUSH2 0x2F0 JUMPI DUP1 PUSH1 0x1F LT PUSH2 0x2C7 JUMPI PUSH2 0x100 DUP1 DUP4 SLOAD DIV MUL DUP4 MSTORE SWAP2 PUSH1 0x20 ADD SWAP2 PUSH2 0x2F0 JUMP JUMPDEST DUP3 ADD SWAP2 SWAP1 PUSH0 MSTORE PUSH1 0x20 PUSH0 KECCAK256 SWAP1 JUMPDEST DUP2 SLOAD DUP2 MSTORE SWAP1 PUSH1 0x1 ADD SWAP1 PUSH1 0x20 ADD DUP1 DUP4 GT PUSH2 0x2D3 JUMPI DUP3 SWAP1 SUB PUSH1 0x1F AND DUP3 ADD SWAP2 JUMPDEST POP POP POP POP POP DUP2 JUMP JUMPDEST PUSH0 DUP2 DUP4 PUSH2 0x305 SWAP2 SWAP1 PUSH2 0xBA9 JUMP JUMPDEST SWAP1 POP SWAP3 SWAP2 POP POP JUMP JUMPDEST PUSH1 0x1 DUP2 DUP2 SLOAD DUP2 LT PUSH2 0x31C JUMPI PUSH0 DUP1 REVERT JUMPDEST SWAP1 PUSH0 MSTORE PUSH1 0x20 PUSH0 KECCAK256 SWAP1 PUSH1 0x3 MUL ADD PUSH0 SWAP2 POP SWAP1 POP DUP1 PUSH0 ADD SLOAD SWAP1 DUP1 PUSH1 0x1 ADD DUP1 SLOAD PUSH2 0x341 SWAP1 PUSH2 0x87C JUMP JUMPDEST DUP1 PUSH1 0x1F ADD PUSH1 0x20 DUP1 SWAP2 DIV MUL PUSH1 0x20 ADD PUSH1 0x40 MLOAD SWAP1 DUP2 ADD PUSH1 0x40 MSTORE DUP1 SWAP3 SWAP2 SWAP1 DUP2 DUP2 MSTORE PUSH1 0x20 ADD DUP3 DUP1 SLOAD PUSH2 0x36D SWAP1 PUSH2 0x87C JUMP JUMPDEST DUP1 ISZERO PUSH2 0x3B8 JUMPI DUP1 PUSH1 0x1F LT PUSH2 0x38F JUMPI PUSH2 0x100 DUP1 DUP4 SLOAD DIV MUL DUP4 MSTORE SWAP2 PUSH1 0x20 ADD SWAP2 PUSH2 0x3B8 JUMP JUMPDEST DUP3 ADD SWAP2 SWAP1 PUSH0 MSTORE PUSH1 0x20 PUSH0 KECCAK256 SWAP1 JUMPDEST DUP2 SLOAD DUP2 MSTORE SWAP1 PUSH1 0x1 ADD SWAP1 PUSH1 0x20 ADD DUP1 DUP4 GT PUSH2 0x39B JUMPI DUP3 SWAP1 SUB PUSH1 0x1F AND DUP3 ADD SWAP2 JUMPDEST POP POP POP POP POP SWAP1 DUP1 PUSH1 0x2 ADD DUP1 SLOAD PUSH2 0x3CD SWAP1 PUSH2 0x87C JUMP JUMPDEST DUP1 PUSH1 0x1F ADD PUSH1 0x20 DUP1 SWAP2 DIV MUL PUSH1 0x20 ADD PUSH1 0x40 MLOAD SWAP1 DUP2 ADD PUSH1 0x40 MSTORE DUP1 SWAP3 SWAP2 SWAP1 DUP2 DUP2 MSTORE PUSH1 0x20 ADD DUP3 DUP1 SLOAD PUSH2 0x3F9 SWAP1 PUSH2 0x87C JUMP JUMPDEST DUP1 ISZERO PUSH2 0x444 JUMPI DUP1 PUSH1 0x1F LT PUSH2 0x41B JUMPI PUSH2 0x100 DUP1 DUP4 SLOAD DIV MUL DUP4 MSTORE SWAP2 PUSH1 0x20 ADD SWAP2 PUSH2 0x444 JUMP JUMPDEST DUP3 ADD SWAP2 SWAP1 PUSH0 MSTORE PUSH1 0x20 PUSH0 KECCAK256 SWAP1 JUMPDEST DUP2 SLOAD DUP2 MSTORE SWAP1 PUSH1 0x1 ADD SWAP1 PUSH1 0x20 ADD DUP1 DUP4 GT PUSH2 0x427 JUMPI DUP3 SWAP1 SUB PUSH1 0x1F AND DUP3 ADD SWAP2 JUMPDEST POP POP POP POP POP SWAP1 POP DUP4 JUMP JUMPDEST PUSH0 PUSH1 0x40 MLOAD SWAP1 POP SWAP1 JUMP JUMPDEST PUSH0 PUSH0 REVERT JUMPDEST PUSH0 PUSH0 REVERT JUMPDEST PUSH0 DUP2 SWAP1 POP SWAP2 SWAP1 POP JUMP JUMPDEST PUSH2 0x471 DUP2 PUSH2 0x45F JUMP JUMPDEST DUP2 EQ PUSH2 0x47B JUMPI PUSH0 PUSH0 REVERT JUMPDEST POP JUMP JUMPDEST PUSH0 DUP2 CALLDATALOAD SWAP1 POP PUSH2 0x48C DUP2 PUSH2 0x468 JUMP JUMPDEST SWAP3 SWAP2 POP POP JUMP JUMPDEST PUSH0 PUSH1 0x20 DUP3 DUP5 SUB SLT ISZERO PUSH2 0x4A7 JUMPI PUSH2 0x4A6 PUSH2 0x457 JUMP JUMPDEST JUMPDEST PUSH0 PUSH2 0x4B4 DUP5 DUP3 DUP6 ADD PUSH2 0x47E JUMP JUMPDEST SWAP2 POP POP SWAP3 SWAP2 POP POP JUMP JUMPDEST PUSH2 0x4C6 DUP2 PUSH2 0x45F JUMP JUMPDEST DUP3 MSTORE POP POP JUMP JUMPDEST PUSH0 PUSH1 0x20 DUP3 ADD SWAP1 POP PUSH2 0x4DF PUSH0 DUP4 ADD DUP5 PUSH2 0x4BD JUMP JUMPDEST SWAP3 SWAP2 POP POP JUMP JUMPDEST PUSH0 PUSH0 REVERT JUMPDEST PUSH0 PUSH0 REVERT JUMPDEST PUSH0 PUSH1 0x1F NOT PUSH1 0x1F DUP4 ADD AND SWAP1 POP SWAP2 SWAP1 POP JUMP JUMPDEST PUSH32 0x4E487B7100000000000000000000000000000000000000000000000000000000 PUSH0 MSTORE PUSH1 0x41 PUSH1 0x4 MSTORE PUSH1 0x24 PUSH0 REVERT JUMPDEST PUSH2 0x533 DUP3 PUSH2 0x4ED JUMP JUMPDEST DUP2 ADD DUP2 DUP2 LT PUSH8 0xFFFFFFFFFFFFFFFF DUP3 GT OR ISZERO PUSH2 0x552 JUMPI PUSH2 0x551 PUSH2 0x4FD JUMP JUMPDEST JUMPDEST DUP1 PUSH1 0x40 MSTORE POP POP POP JUMP JUMPDEST PUSH0 PUSH2 0x564 PUSH2 0x44E JUMP JUMPDEST SWAP1 POP PUSH2 0x570 DUP3 DUP3 PUSH2 0x52A JUMP JUMPDEST SWAP2 SWAP1 POP JUMP JUMPDEST PUSH0 PUSH8 0xFFFFFFFFFFFFFFFF DUP3 GT ISZERO PUSH2 0x58F JUMPI PUSH2 0x58E PUSH2 0x4FD JUMP JUMPDEST JUMPDEST PUSH2 0x598 DUP3 PUSH2 0x4ED JUMP JUMPDEST SWAP1 POP PUSH1 0x20 DUP2 ADD SWAP1 POP SWAP2 SWAP1 POP JUMP JUMPDEST DUP3 DUP2 DUP4 CALLDATACOPY PUSH0 DUP4 DUP4 ADD MSTORE POP POP POP JUMP JUMPDEST PUSH0 PUSH2 0x5C5 PUSH2 0x5C0 DUP5 PUSH2 0x575 JUMP JUMPDEST PUSH2 0x55B JUMP JUMPDEST SWAP1 POP DUP3 DUP2 MSTORE PUSH1 0x20 DUP2 ADD DUP5 DUP5 DUP5 ADD GT ISZERO PUSH2 0x5E1 JUMPI PUSH2 0x5E0 PUSH2 0x4E9 JUMP JUMPDEST JUMPDEST PUSH2 0x5EC DUP5 DUP3 DUP6 PUSH2 0x5A5 JUMP JUMPDEST POP SWAP4 SWAP3 POP POP POP JUMP JUMPDEST PUSH0 DUP3 PUSH1 0x1F DUP4 ADD SLT PUSH2 0x608 JUMPI PUSH2 0x607 PUSH2 0x4E5 JUMP JUMPDEST JUMPDEST DUP2 CALLDATALOAD PUSH2 0x618 DUP5 DUP3 PUSH1 0x20 DUP7 ADD PUSH2 0x5B3 JUMP JUMPDEST SWAP2 POP POP SWAP3 SWAP2 POP POP JUMP JUMPDEST PUSH0 PUSH0 PUSH0 PUSH1 0x60 DUP5 DUP7 SUB SLT ISZERO PUSH2 0x638 JUMPI PUSH2 0x637 PUSH2 0x457 JUMP JUMPDEST JUMPDEST PUSH0 PUSH2 0x645 DUP7 DUP3 DUP8 ADD PUSH2 0x47E JUMP JUMPDEST SWAP4 POP POP PUSH1 0x20 DUP5 ADD CALLDATALOAD PUSH8 0xFFFFFFFFFFFFFFFF DUP2 GT ISZERO PUSH2 0x666 JUMPI PUSH2 0x665 PUSH2 0x45B JUMP JUMPDEST JUMPDEST PUSH2 0x672 DUP7 DUP3 DUP8 ADD PUSH2 0x5F4 JUMP JUMPDEST SWAP3 POP POP PUSH1 0x40 DUP5 ADD CALLDATALOAD PUSH8 0xFFFFFFFFFFFFFFFF DUP2 GT ISZERO PUSH2 0x693 JUMPI PUSH2 0x692 PUSH2 0x45B JUMP JUMPDEST JUMPDEST PUSH2 0x69F DUP7 DUP3 DUP8 ADD PUSH2 0x5F4 JUMP JUMPDEST SWAP2 POP POP SWAP3 POP SWAP3 POP SWAP3 JUMP JUMPDEST PUSH0 PUSH1 0x20 DUP3 DUP5 SUB SLT ISZERO PUSH2 0x6BE JUMPI PUSH2 0x6BD PUSH2 0x457 JUMP JUMPDEST JUMPDEST PUSH0 DUP3 ADD CALLDATALOAD PUSH8 0xFFFFFFFFFFFFFFFF DUP2 GT ISZERO PUSH2 0x6DB JUMPI PUSH2 0x6DA PUSH2 0x45B JUMP JUMPDEST JUMPDEST PUSH2 0x6E7 DUP5 DUP3 DUP6 ADD PUSH2 0x5F4 JUMP JUMPDEST SWAP2 POP POP SWAP3 SWAP2 POP POP JUMP JUMPDEST PUSH0 DUP2 MLOAD SWAP1 POP SWAP2 SWAP1 POP JUMP JUMPDEST PUSH0 DUP3 DUP3 MSTORE PUSH1 0x20 DUP3 ADD SWAP1 POP SWAP3 SWAP2 POP POP JUMP JUMPDEST DUP3 DUP2 DUP4 MCOPY PUSH0 DUP4 DUP4 ADD MSTORE POP POP POP JUMP JUMPDEST PUSH0 PUSH2 0x722 DUP3 PUSH2 0x6F0 JUMP JUMPDEST PUSH2 0x72C DUP2 DUP6 PUSH2 0x6FA JUMP JUMPDEST SWAP4 POP PUSH2 0x73C DUP2 DUP6 PUSH1 0x20 DUP7 ADD PUSH2 0x70A JUMP JUMPDEST PUSH2 0x745 DUP2 PUSH2 0x4ED JUMP JUMPDEST DUP5 ADD SWAP2 POP POP SWAP3 SWAP2 POP POP JUMP JUMPDEST PUSH0 PUSH1 0x20 DUP3 ADD SWAP1 POP DUP2 DUP2 SUB PUSH0 DUP4 ADD MSTORE PUSH2 0x768 DUP2 DUP5 PUSH2 0x718 JUMP JUMPDEST SWAP1 POP SWAP3 SWAP2 POP POP JUMP JUMPDEST PUSH0 PUSH0 PUSH1 0x40 DUP4 DUP6 SUB SLT ISZERO PUSH2 0x786 JUMPI PUSH2 0x785 PUSH2 0x457 JUMP JUMPDEST JUMPDEST PUSH0 PUSH2 0x793 DUP6 DUP3 DUP7 ADD PUSH2 0x47E JUMP JUMPDEST SWAP3 POP POP PUSH1 0x20 PUSH2 0x7A4 DUP6 DUP3 DUP7 ADD PUSH2 0x47E JUMP JUMPDEST SWAP2 POP POP SWAP3 POP SWAP3 SWAP1 POP JUMP JUMPDEST PUSH0 DUP2 SWAP1 POP SWAP2 SWAP1 POP JUMP JUMPDEST PUSH2 0x7C0 DUP2 PUSH2 0x7AE JUMP JUMPDEST DUP2 EQ PUSH2 0x7CA JUMPI PUSH0 PUSH0 REVERT JUMPDEST POP JUMP JUMPDEST PUSH0 DUP2 CALLDATALOAD SWAP1 POP PUSH2 0x7DB DUP2 PUSH2 0x7B7 JUMP JUMPDEST SWAP3 SWAP2 POP POP JUMP JUMPDEST PUSH0 PUSH1 0x20 DUP3 DUP5 SUB SLT ISZERO PUSH2 0x7F6 JUMPI PUSH2 0x7F5 PUSH2 0x457 JUMP JUMPDEST JUMPDEST PUSH0 PUSH2 0x803 DUP5 DUP3 DUP6 ADD PUSH2 0x7CD JUMP JUMPDEST SWAP2 POP POP SWAP3 SWAP2 POP POP JUMP JUMPDEST PUSH0 PUSH1 0x60 DUP3 ADD SWAP1 POP PUSH2 0x81F PUSH0 DUP4 ADD DUP7 PUSH2 0x4BD JUMP JUMPDEST DUP2 DUP2 SUB PUSH1 0x20 DUP4 ADD MSTORE PUSH2 0x831 DUP2 DUP6 PUSH2 0x718 JUMP JUMPDEST SWAP1 POP DUP2 DUP2 SUB PUSH1 0x40 DUP4 ADD MSTORE PUSH2 0x845 DUP2 DUP5 PUSH2 0x718 JUMP JUMPDEST SWAP1 POP SWAP5 SWAP4 POP POP POP POP JUMP JUMPDEST PUSH32 0x4E487B7100000000000000000000000000000000000000000000000000000000 PUSH0 MSTORE PUSH1 0x22 PUSH1 0x4 MSTORE PUSH1 0x24 PUSH0 REVERT JUMPDEST PUSH0 PUSH1 0x2 DUP3 DIV SWAP1 POP PUSH1 0x1 DUP3 AND DUP1 PUSH2 0x893 JUMPI PUSH1 0x7F DUP3 AND SWAP2 POP JUMPDEST PUSH1 0x20 DUP3 LT DUP2 SUB PUSH2 0x8A6 JUMPI PUSH2 0x8A5 PUSH2 0x84F JUMP JUMPDEST JUMPDEST POP SWAP2 SWAP1 POP JUMP JUMPDEST PUSH0 DUP2 SWAP1 POP DUP2 PUSH0 MSTORE PUSH1 0x20 PUSH0 KECCAK256 SWAP1 POP SWAP2 SWAP1 POP JUMP JUMPDEST PUSH0 PUSH1 0x20 PUSH1 0x1F DUP4 ADD DIV SWAP1 POP SWAP2 SWAP1 POP JUMP JUMPDEST PUSH0 DUP3 DUP3 SHL SWAP1 POP SWAP3 SWAP2 POP POP JUMP JUMPDEST PUSH0 PUSH1 0x8 DUP4 MUL PUSH2 0x908 PUSH32 0xFFFFFFFFFFFFFFFFFFFFFFFFFFFFFFFFFFFFFFFFFFFFFFFFFFFFFFFFFFFFFFFF DUP3 PUSH2 0x8CD JUMP JUMPDEST PUSH2 0x912 DUP7 DUP4 PUSH2 0x8CD JUMP JUMPDEST SWAP6 POP DUP1 NOT DUP5 AND SWAP4 POP DUP1 DUP7 AND DUP5 OR SWAP3 POP POP POP SWAP4 SWAP3 POP POP POP JUMP JUMPDEST PUSH0 DUP2 SWAP1 POP SWAP2 SWAP1 POP JUMP JUMPDEST PUSH0 PUSH2 0x94D PUSH2 0x948 PUSH2 0x943 DUP5 PUSH2 0x7AE JUMP JUMPDEST PUSH2 0x92A JUMP JUMPDEST PUSH2 0x7AE JUMP JUMPDEST SWAP1 POP SWAP2 SWAP1 POP JUMP JUMPDEST PUSH0 DUP2 SWAP1 POP SWAP2 SWAP1 POP JUMP JUMPDEST PUSH2 0x966 DUP4 PUSH2 0x933 JUMP JUMPDEST PUSH2 0x97A PUSH2 0x972 DUP3 PUSH2 0x954 JUMP JUMPDEST DUP5 DUP5 SLOAD PUSH2 0x8D9 JUMP JUMPDEST DUP3 SSTORE POP POP POP POP JUMP JUMPDEST PUSH0 PUSH0 SWAP1 POP SWAP1 JUMP JUMPDEST PUSH2 0x991 PUSH2 0x982 JUMP JUMPDEST PUSH2 0x99C DUP2 DUP5 DUP5 PUSH2 0x95D JUMP JUMPDEST POP POP POP JUMP JUMPDEST PUSH0 JUMPDEST DUP3 DUP2 LT ISZERO PUSH2 0x9C2 JUMPI PUSH2 0x9B7 PUSH0 DUP3 DUP5 ADD PUSH2 0x989 JUMP JUMPDEST PUSH1 0x1 DUP2 ADD SWAP1 POP PUSH2 0x9A3 JUMP JUMPDEST POP POP POP JUMP JUMPDEST PUSH1 0x1F DUP3 GT ISZERO PUSH2 0xA15 JUMPI DUP3 DUP3 GT ISZERO PUSH2 0xA14 JUMPI PUSH2 0x9E1 DUP2 PUSH2 0x8AC JUMP JUMPDEST PUSH2 0x9EA DUP4 PUSH2 0x8BE JUMP JUMPDEST PUSH2 0x9F3 DUP6 PUSH2 0x8BE JUMP JUMPDEST PUSH1 0x20 DUP7 LT ISZERO PUSH2 0xA00 JUMPI PUSH0 SWAP1 POP JUMPDEST DUP1 DUP4 ADD PUSH2 0xA0F DUP3 DUP5 SUB DUP3 PUSH2 0x9A1 JUMP JUMPDEST POP POP POP POP JUMPDEST JUMPDEST POP POP POP JUMP JUMPDEST PUSH0 DUP3 DUP3 SHR SWAP1 POP SWAP3 SWAP2 POP POP JUMP JUMPDEST PUSH0 PUSH2 0xA35 PUSH0 NOT DUP5 PUSH1 0x8 MUL PUSH2 0xA1A JUMP JUMPDEST NOT DUP1 DUP4 AND SWAP2 POP POP SWAP3 SWAP2 POP POP JUMP JUMPDEST PUSH0 PUSH2 0xA4D DUP4 DUP4 PUSH2 0xA26 JUMP JUMPDEST SWAP2 POP DUP3 PUSH1 0x2 MUL DUP3 OR SWAP1 POP SWAP3 SWAP2 POP POP JUMP JUMPDEST PUSH2 0xA66 DUP3 PUSH2 0x6F0 JUMP JUMPDEST PUSH8 0xFFFFFFFFFFFFFFFF DUP2 GT ISZERO PUSH2 0xA7F JUMPI PUSH2 0xA7E PUSH2 0x4FD JUMP JUMPDEST JUMPDEST PUSH2 0xA89 DUP3 SLOAD PUSH2 0x87C JUMP JUMPDEST PUSH2 0xA94 DUP3 DUP3 DUP6 PUSH2 0x9C7 JUMP JUMPDEST PUSH0 PUSH1 0x20 SWAP1 POP PUSH1 0x1F DUP4 GT PUSH1 0x1 DUP2 EQ PUSH2 0xAC5 JUMPI PUSH0 DUP5 ISZERO PUSH2 0xAB3 JUMPI DUP3 DUP8 ADD MLOAD SWAP1 POP JUMPDEST PUSH2 0xABD DUP6 DUP3 PUSH2 0xA42 JUMP JUMPDEST DUP7 SSTORE POP PUSH2 0xB24 JUMP JUMPDEST PUSH1 0x1F NOT DUP5 AND PUSH2 0xAD3 DUP7 PUSH2 0x8AC JUMP JUMPDEST PUSH0 JUMPDEST DUP3 DUP2 LT ISZERO PUSH2 0xAFA JUMPI DUP5 DUP10 ADD MLOAD DUP3 SSTORE PUSH1 0x1 DUP3 ADD SWAP2 POP PUSH1 0x20 DUP6 ADD SWAP5 POP PUSH1 0x20 DUP2 ADD SWAP1 POP PUSH2 0xAD5 JUMP JUMPDEST DUP7 DUP4 LT ISZERO PUSH2 0xB17 JUMPI DUP5 DUP10 ADD MLOAD PUSH2 0xB13 PUSH1 0x1F DUP10 AND DUP3 PUSH2 0xA26 JUMP JUMPDEST DUP4 SSTORE POP JUMPDEST PUSH1 0x1 PUSH1 0x2 DUP9 MUL ADD DUP9 SSTORE POP POP POP JUMPDEST POP POP POP POP POP POP JUMP JUMPDEST PUSH0 DUP2 SWAP1 POP SWAP3 SWAP2 POP POP JUMP JUMPDEST PUSH0 PUSH2 0xB40 DUP3 PUSH2 0x6F0 JUMP JUMPDEST PUSH2 0xB4A DUP2 DUP6 PUSH2 0xB2C JUMP JUMPDEST SWAP4 POP PUSH2 0xB5A DUP2 DUP6 PUSH1 0x20 DUP7 ADD PUSH2 0x70A JUMP JUMPDEST DUP1 DUP5 ADD SWAP2 POP POP SWAP3 SWAP2 POP POP JUMP JUMPDEST PUSH0 PUSH2 0xB71 DUP3 DUP5 PUSH2 0xB36 JUMP JUMPDEST SWAP2 POP DUP2 SWAP1 POP SWAP3 SWAP2 POP POP JUMP JUMPDEST PUSH32 0x4E487B7100000000000000000000000000000000000000000000000000000000 PUSH0 MSTORE PUSH1 0x11 PUSH1 0x4 MSTORE PUSH1 0x24 PUSH0 REVERT JUMPDEST PUSH0 PUSH2 0xBB3 DUP3 PUSH2 0x45F JUMP JUMPDEST SWAP2 POP PUSH2 0xBBE DUP4 PUSH2 0x45F JUMP JUMPDEST SWAP3 POP DUP3 DUP3 ADD SWAP1 POP DUP3 DUP2 SLT ISZERO PUSH0 DUP4 SLT AND DUP4 DUP3 SLT PUSH0 DUP5 SLT ISZERO AND OR ISZERO PUSH2 0xBE4 JUMPI PUSH2 0xBE3 PUSH2 0xB7C JUMP JUMPDEST JUMPDEST SWAP3 SWAP2 POP POP JUMP INVALID LOG2 PUSH5 0x6970667358 0x22 SLT KECCAK256 COINBASE DUP15 0xDF 0xB2 GAS PUSH20 0x35C104991D9C80A6B8E804A3F0A661196FEB6B13 0xCD SELFDESTRUCT PUSH8 0x51DFA764736F6C63 NUMBER STOP ADDMOD 0x22 STOP CALLER "
				},
				"gasEstimates": {
					"creation": {
						"codeDepositCost": "620800",
						"executionCost": "649",
						"totalCost": "621449"
					},
					"external": {
						"addDetails(int256,string,string)": "infinite",
						"getNum(int256)": "22515",
						"infoList(uint256)": "infinite",
						"nameToDegree(string)": "infinite",
						"num()": "2447",
						"onlyPure(int256,int256)": "infinite",
						"onlyView()": "2476"
					}
				},
				"methodIdentifiers": {
					"addDetails(int256,string,string)": "b0e1e1b5",
					"getNum(int256)": "46e762df",
					"infoList(uint256)": "fb74ad85",
					"nameToDegree(string)": "dee940d9",
					"num()": "4e70b1dc",
					"onlyPure(int256,int256)": "e14d2632",
					"onlyView()": "5ae5c08f"
				}
			},
			"storageLayout": {
				"storage": [
					{
						"astId": 23,
						"contract": "StorageFactory/SimpleStorage.sol:dataStorage",
						"label": "num",
						"offset": 0,
						"slot": "0",
						"type": "t_int256"
					},
					{
						"astId": 34,
						"contract": "StorageFactory/SimpleStorage.sol:dataStorage",
						"label": "infoList",
						"offset": 0,
						"slot": "1",
						"type": "t_array(t_struct(Info)30_storage)dyn_storage"
					},
					{
						"astId": 38,
						"contract": "StorageFactory/SimpleStorage.sol:dataStorage",
						"label": "nameToDegree",
						"offset": 0,
						"slot": "2",
						"type": "t_mapping(t_string_memory_ptr,t_string_storage)"
					}
				],
				"types": {
					"t_array(t_struct(Info)30_storage)dyn_storage": {
						"base": "t_struct(Info)30_storage",
						"encoding": "dynamic_array",
						"label": "struct dataStorage.Info[]",
						"numberOfBytes": "32"
					},
					"t_int256": {
						"encoding": "inplace",
						"label": "int256",
						"numberOfBytes": "32"
					},
					"t_mapping(t_string_memory_ptr,t_string_storage)": {
						"encoding": "mapping",
						"key": "t_string_memory_ptr",
						"label": "mapping(string => string)",
						"numberOfBytes": "32",
						"value": "t_string_storage"
					},
					"t_string_memory_ptr": {
						"encoding": "bytes",
						"label": "string",
						"numberOfBytes": "32"
					},
					"t_string_storage": {
						"encoding": "bytes",
						"label": "string",
						"numberOfBytes": "32"
					},
					"t_struct(Info)30_storage": {
						"encoding": "inplace",
						"label": "struct dataStorage.Info",
						"members": [
							{
								"astId": 25,
								"contract": "StorageFactory/SimpleStorage.sol:dataStorage",
								"label": "age",
								"offset": 0,
								"slot": "0",
								"type": "t_int256"
							},
							{
								"astId": 27,
								"contract": "StorageFactory/SimpleStorage.sol:dataStorage",
								"label": "name",
								"offset": 0,
								"slot": "1",
								"type": "t_string_storage"
							},
							{
								"astId": 29,
								"contract": "StorageFactory/SimpleStorage.sol:dataStorage",
								"label": "degree",
								"offset": 0,
								"slot": "2",
								"type": "t_string_storage"
							}
						],
						"numberOfBytes": "96"
					}
				}
			},
			"userdoc": {
				"kind": "user",
				"methods": {},
				"version": 1
			}
		}
	}
}