{
	"SimpleStorage/storageCalldataMemory.sol": {
		"Storage": {
			"abi": [
				{
					"inputs": [
						{
							"internalType": "int256",
							"name": "n",
							"type": "int256"
						}
					],
					"name": "GetNumber",
					"outputs": [],
					"stateMutability": "nonpayable",
					"type": "function"
				},
				{
					"inputs": [
						{
							"internalType": "int256",
							"name": "a",
							"type": "int256"
						},
						{
							"internalType": "int256",
							"name": "b",
							"type": "int256"
						}
					],
					"name": "Pure",
					"outputs": [
						{
							"internalType": "int256",
							"name": "",
							"type": "int256"
						}
					],
					"stateMutability": "pure",
					"type": "function"
				},
				{
					"inputs": [],
					"name": "View",
					"outputs": [
						{
							"internalType": "int256",
							"name": "",
							"type": "int256"
						}
					],
					"stateMutability": "view",
					"type": "function"
				},
				{
					"inputs": [
						{
							"internalType": "int256",
							"name": "_id",
							"type": "int256"
						},
						{
							"internalType": "string",
							"name": "_name",
							"type": "string"
						},
						{
							"internalType": "int256",
							"name": "_age",
							"type": "int256"
						}
					],
					"name": "addpeople",
					"outputs": [],
					"stateMutability": "nonpayable",
					"type": "function"
				},
				{
					"inputs": [
						{
							"internalType": "uint256",
							"name": "",
							"type": "uint256"
						}
					],
					"name": "listofPeople",
					"outputs": [
						{
							"internalType": "int256",
							"name": "id",
							"type": "int256"
						},
						{
							"internalType": "string",
							"name": "name",
							"type": "string"
						},
						{
							"internalType": "int256",
							"name": "age",
							"type": "int256"
						}
					],
					"stateMutability": "view",
					"type": "function"
				}
			],
			"devdoc": {
				"kind": "dev",
				"methods": {},
				"version": 1
			},
			"evm": {
				"assembly": "    /* \"SimpleStorage/storageCalldataMemory.sol\":63:772  contract Storage{... */\n  mstore(0x40, 0x80)\n  callvalue\n  dup1\n  iszero\n  tag_1\n  jumpi\n  revert(0x00, 0x00)\ntag_1:\n  pop\n  dataSize(sub_0)\n  dup1\n  dataOffset(sub_0)\n  0x00\n  codecopy\n  0x00\n  return\nstop\n\nsub_0: assembly {\n        /* \"SimpleStorage/storageCalldataMemory.sol\":63:772  contract Storage{... */\n      mstore(0x40, 0x80)\n      callvalue\n      dup1\n      iszero\n      tag_1\n      jumpi\n      revert(0x00, 0x00)\n    tag_1:\n      pop\n      jumpi(tag_2, lt(calldatasize, 0x04))\n      shr(0xe0, calldataload(0x00))\n      dup1\n      0x1686f265\n      eq\n      tag_3\n      jumpi\n      dup1\n      0x2e5effac\n      eq\n      tag_4\n      jumpi\n      dup1\n      0x8e201b9d\n      eq\n      tag_5\n      jumpi\n      dup1\n      0x9584c56b\n      eq\n      tag_6\n      jumpi\n      dup1\n      0xb80426d7\n      eq\n      tag_7\n      jumpi\n    tag_2:\n      revert(0x00, 0x00)\n        /* \"SimpleStorage/storageCalldataMemory.sol\":604:671  function View() public view returns(int256){... */\n    tag_3:\n      tag_8\n      tag_9\n      jump\t// in\n    tag_8:\n      mload(0x40)\n      tag_10\n      swap2\n      swap1\n      tag_11\n      jump\t// in\n    tag_10:\n      mload(0x40)\n      dup1\n      swap2\n      sub\n      swap1\n      return\n        /* \"SimpleStorage/storageCalldataMemory.sol\":213:242  Details[] public listofPeople */\n    tag_4:\n      tag_12\n      0x04\n      dup1\n      calldatasize\n      sub\n      dup2\n      add\n      swap1\n      tag_13\n      swap2\n      swap1\n      tag_14\n      jump\t// in\n    tag_13:\n      tag_15\n      jump\t// in\n    tag_12:\n      mload(0x40)\n      tag_16\n      swap4\n      swap3\n      swap2\n      swap1\n      tag_17\n      jump\t// in\n    tag_16:\n      mload(0x40)\n      dup1\n      swap2\n      sub\n      swap1\n      return\n        /* \"SimpleStorage/storageCalldataMemory.sol\":546:600  function GetNumber(int256 n) public{... */\n    tag_5:\n      tag_18\n      0x04\n      dup1\n      calldatasize\n      sub\n      dup2\n      add\n      swap1\n      tag_19\n      swap2\n      swap1\n      tag_20\n      jump\t// in\n    tag_19:\n      tag_21\n      jump\t// in\n    tag_18:\n      stop\n        /* \"SimpleStorage/storageCalldataMemory.sol\":675:759  function Pure(int256 a , int256 b ) public pure returns(int256){... */\n    tag_6:\n      tag_22\n      0x04\n      dup1\n      calldatasize\n      sub\n      dup2\n      add\n      swap1\n      tag_23\n      swap2\n      swap1\n      tag_24\n      jump\t// in\n    tag_23:\n      tag_25\n      jump\t// in\n    tag_22:\n      mload(0x40)\n      tag_26\n      swap2\n      swap1\n      tag_11\n      jump\t// in\n    tag_26:\n      mload(0x40)\n      dup1\n      swap2\n      sub\n      swap1\n      return\n        /* \"SimpleStorage/storageCalldataMemory.sol\":247:540  function addpeople(int _id , string memory _name , int _age) public{... */\n    tag_7:\n      tag_27\n      0x04\n      dup1\n      calldatasize\n      sub\n      dup2\n      add\n      swap1\n      tag_28\n      swap2\n      swap1\n      tag_29\n      jump\t// in\n    tag_28:\n      tag_30\n      jump\t// in\n    tag_27:\n      stop\n        /* \"SimpleStorage/storageCalldataMemory.sol\":604:671  function View() public view returns(int256){... */\n    tag_9:\n        /* \"SimpleStorage/storageCalldataMemory.sol\":640:646  int256 */\n      0x00\n        /* \"SimpleStorage/storageCalldataMemory.sol\":661:667  number */\n      sload(0x00)\n        /* \"SimpleStorage/storageCalldataMemory.sol\":654:667  return number */\n      swap1\n      pop\n        /* \"SimpleStorage/storageCalldataMemory.sol\":604:671  function View() public view returns(int256){... */\n      swap1\n      jump\t// out\n        /* \"SimpleStorage/storageCalldataMemory.sol\":213:242  Details[] public listofPeople */\n    tag_15:\n      0x01\n      dup2\n      dup2\n      sload\n      dup2\n      lt\n      tag_32\n      jumpi\n      0x00\n      dup1\n      revert\n    tag_32:\n      swap1\n      0x00\n      mstore\n      keccak256(0x00, 0x20)\n      swap1\n      0x03\n      mul\n      add\n      0x00\n      swap2\n      pop\n      swap1\n      pop\n      dup1\n      0x00\n      add\n      sload\n      swap1\n      dup1\n      0x01\n      add\n      dup1\n      sload\n      tag_34\n      swap1\n      tag_35\n      jump\t// in\n    tag_34:\n      dup1\n      0x1f\n      add\n      0x20\n      dup1\n      swap2\n      div\n      mul\n      0x20\n      add\n      mload(0x40)\n      swap1\n      dup2\n      add\n      0x40\n      mstore\n      dup1\n      swap3\n      swap2\n      swap1\n      dup2\n      dup2\n      mstore\n      0x20\n      add\n      dup3\n      dup1\n      sload\n      tag_36\n      swap1\n      tag_35\n      jump\t// in\n    tag_36:\n      dup1\n      iszero\n      tag_37\n      jumpi\n      dup1\n      0x1f\n      lt\n      tag_38\n      jumpi\n      0x0100\n      dup1\n      dup4\n      sload\n      div\n      mul\n      dup4\n      mstore\n      swap2\n      0x20\n      add\n      swap2\n      jump(tag_37)\n    tag_38:\n      dup3\n      add\n      swap2\n      swap1\n      0x00\n      mstore\n      keccak256(0x00, 0x20)\n      swap1\n    tag_39:\n      dup2\n      sload\n      dup2\n      mstore\n      swap1\n      0x01\n      add\n      swap1\n      0x20\n      add\n      dup1\n      dup4\n      gt\n      tag_39\n      jumpi\n      dup3\n      swap1\n      sub\n      0x1f\n      and\n      dup3\n      add\n      swap2\n    tag_37:\n      pop\n      pop\n      pop\n      pop\n      pop\n      swap1\n      dup1\n      0x02\n      add\n      sload\n      swap1\n      pop\n      dup4\n      jump\t// out\n        /* \"SimpleStorage/storageCalldataMemory.sol\":546:600  function GetNumber(int256 n) public{... */\n    tag_21:\n        /* \"SimpleStorage/storageCalldataMemory.sol\":593:594  n */\n      dup1\n        /* \"SimpleStorage/storageCalldataMemory.sol\":584:590  number */\n      0x00\n        /* \"SimpleStorage/storageCalldataMemory.sol\":584:594  number = n */\n      dup2\n      swap1\n      sstore\n      pop\n        /* \"SimpleStorage/storageCalldataMemory.sol\":546:600  function GetNumber(int256 n) public{... */\n      pop\n      jump\t// out\n        /* \"SimpleStorage/storageCalldataMemory.sol\":675:759  function Pure(int256 a , int256 b ) public pure returns(int256){... */\n    tag_25:\n        /* \"SimpleStorage/storageCalldataMemory.sol\":731:737  int256 */\n      0x00\n        /* \"SimpleStorage/storageCalldataMemory.sol\":754:755  b */\n      dup2\n        /* \"SimpleStorage/storageCalldataMemory.sol\":752:753  a */\n      dup4\n        /* \"SimpleStorage/storageCalldataMemory.sol\":752:755  a+b */\n      tag_42\n      swap2\n      swap1\n      tag_43\n      jump\t// in\n    tag_42:\n        /* \"SimpleStorage/storageCalldataMemory.sol\":745:755  return a+b */\n      swap1\n      pop\n        /* \"SimpleStorage/storageCalldataMemory.sol\":675:759  function Pure(int256 a , int256 b ) public pure returns(int256){... */\n      swap3\n      swap2\n      pop\n      pop\n      jump\t// out\n        /* \"SimpleStorage/storageCalldataMemory.sol\":247:540  function addpeople(int _id , string memory _name , int _age) public{... */\n    tag_30:\n        /* \"SimpleStorage/storageCalldataMemory.sol\":317:331  _name = \"saad\" */\n      mload(0x40)\n      dup1\n      0x40\n      add\n      0x40\n      mstore\n      dup1\n      0x04\n      dup2\n      mstore\n      0x20\n      add\n      0x7361616400000000000000000000000000000000000000000000000000000000\n      dup2\n      mstore\n      pop\n      swap2\n      pop\n        /* \"SimpleStorage/storageCalldataMemory.sol\":491:503  listofPeople */\n      0x01\n        /* \"SimpleStorage/storageCalldataMemory.sol\":509:535  Details(_id, _name , _age) */\n      mload(0x40)\n      dup1\n      0x60\n      add\n      0x40\n      mstore\n      dup1\n        /* \"SimpleStorage/storageCalldataMemory.sol\":517:520  _id */\n      dup6\n        /* \"SimpleStorage/storageCalldataMemory.sol\":509:535  Details(_id, _name , _age) */\n      dup2\n      mstore\n      0x20\n      add\n        /* \"SimpleStorage/storageCalldataMemory.sol\":522:527  _name */\n      dup5\n        /* \"SimpleStorage/storageCalldataMemory.sol\":509:535  Details(_id, _name , _age) */\n      dup2\n      mstore\n      0x20\n      add\n        /* \"SimpleStorage/storageCalldataMemory.sol\":530:534  _age */\n      dup4\n        /* \"SimpleStorage/storageCalldataMemory.sol\":509:535  Details(_id, _name , _age) */\n      dup2\n      mstore\n      pop\n        /* \"SimpleStorage/storageCalldataMemory.sol\":491:536  listofPeople.push(Details(_id, _name , _age)) */\n      swap1\n      dup1\n      0x01\n      dup2\n      sload\n      add\n      dup1\n      dup3\n      sstore\n      dup1\n      swap2\n      pop\n      pop\n      0x01\n      swap1\n      sub\n      swap1\n      0x00\n      mstore\n      keccak256(0x00, 0x20)\n      swap1\n      0x03\n      mul\n      add\n      0x00\n      swap1\n      swap2\n      swap1\n      swap2\n      swap1\n      swap2\n      pop\n      0x00\n      dup3\n      add\n      mload\n      dup2\n      0x00\n      add\n      sstore\n      0x20\n      dup3\n      add\n      mload\n      dup2\n      0x01\n      add\n      swap1\n      dup2\n      tag_46\n      swap2\n      swap1\n      tag_47\n      jump\t// in\n    tag_46:\n      pop\n      0x40\n      dup3\n      add\n      mload\n      dup2\n      0x02\n      add\n      sstore\n      pop\n      pop\n        /* \"SimpleStorage/storageCalldataMemory.sol\":247:540  function addpeople(int _id , string memory _name , int _age) public{... */\n      pop\n      pop\n      pop\n      jump\t// out\n        /* \"#utility.yul\":7:83   */\n    tag_48:\n        /* \"#utility.yul\":43:50   */\n      0x00\n        /* \"#utility.yul\":72:77   */\n      dup2\n        /* \"#utility.yul\":61:77   */\n      swap1\n      pop\n        /* \"#utility.yul\":7:83   */\n      swap2\n      swap1\n      pop\n      jump\t// out\n        /* \"#utility.yul\":89:204   */\n    tag_49:\n        /* \"#utility.yul\":174:197   */\n      tag_92\n        /* \"#utility.yul\":191:196   */\n      dup2\n        /* \"#utility.yul\":174:197   */\n      tag_48\n      jump\t// in\n    tag_92:\n        /* \"#utility.yul\":169:172   */\n      dup3\n        /* \"#utility.yul\":162:198   */\n      mstore\n        /* \"#utility.yul\":89:204   */\n      pop\n      pop\n      jump\t// out\n        /* \"#utility.yul\":210:428   */\n    tag_11:\n        /* \"#utility.yul\":301:305   */\n      0x00\n        /* \"#utility.yul\":339:341   */\n      0x20\n        /* \"#utility.yul\":328:337   */\n      dup3\n        /* \"#utility.yul\":324:342   */\n      add\n        /* \"#utility.yul\":316:342   */\n      swap1\n      pop\n        /* \"#utility.yul\":352:421   */\n      tag_94\n        /* \"#utility.yul\":418:419   */\n      0x00\n        /* \"#utility.yul\":407:416   */\n      dup4\n        /* \"#utility.yul\":403:420   */\n      add\n        /* \"#utility.yul\":394:400   */\n      dup5\n        /* \"#utility.yul\":352:421   */\n      tag_49\n      jump\t// in\n    tag_94:\n        /* \"#utility.yul\":210:428   */\n      swap3\n      swap2\n      pop\n      pop\n      jump\t// out\n        /* \"#utility.yul\":434:509   */\n    tag_50:\n        /* \"#utility.yul\":467:473   */\n      0x00\n        /* \"#utility.yul\":500:502   */\n      0x40\n        /* \"#utility.yul\":494:503   */\n      mload\n        /* \"#utility.yul\":484:503   */\n      swap1\n      pop\n        /* \"#utility.yul\":434:509   */\n      swap1\n      jump\t// out\n        /* \"#utility.yul\":515:632   */\n    tag_51:\n        /* \"#utility.yul\":624:625   */\n      0x00\n        /* \"#utility.yul\":621:622   */\n      0x00\n        /* \"#utility.yul\":614:626   */\n      revert\n        /* \"#utility.yul\":638:755   */\n    tag_52:\n        /* \"#utility.yul\":747:748   */\n      0x00\n        /* \"#utility.yul\":744:745   */\n      0x00\n        /* \"#utility.yul\":737:749   */\n      revert\n        /* \"#utility.yul\":761:838   */\n    tag_53:\n        /* \"#utility.yul\":798:805   */\n      0x00\n        /* \"#utility.yul\":827:832   */\n      dup2\n        /* \"#utility.yul\":816:832   */\n      swap1\n      pop\n        /* \"#utility.yul\":761:838   */\n      swap2\n      swap1\n      pop\n      jump\t// out\n        /* \"#utility.yul\":844:966   */\n    tag_54:\n        /* \"#utility.yul\":917:941   */\n      tag_100\n        /* \"#utility.yul\":935:940   */\n      dup2\n        /* \"#utility.yul\":917:941   */\n      tag_53\n      jump\t// in\n    tag_100:\n        /* \"#utility.yul\":910:915   */\n      dup2\n        /* \"#utility.yul\":907:942   */\n      eq\n        /* \"#utility.yul\":897:960   */\n      tag_101\n      jumpi\n        /* \"#utility.yul\":956:957   */\n      0x00\n        /* \"#utility.yul\":953:954   */\n      0x00\n        /* \"#utility.yul\":946:958   */\n      revert\n        /* \"#utility.yul\":897:960   */\n    tag_101:\n        /* \"#utility.yul\":844:966   */\n      pop\n      jump\t// out\n        /* \"#utility.yul\":972:1111   */\n    tag_55:\n        /* \"#utility.yul\":1018:1023   */\n      0x00\n        /* \"#utility.yul\":1056:1062   */\n      dup2\n        /* \"#utility.yul\":1043:1063   */\n      calldataload\n        /* \"#utility.yul\":1034:1063   */\n      swap1\n      pop\n        /* \"#utility.yul\":1072:1105   */\n      tag_103\n        /* \"#utility.yul\":1099:1104   */\n      dup2\n        /* \"#utility.yul\":1072:1105   */\n      tag_54\n      jump\t// in\n    tag_103:\n        /* \"#utility.yul\":972:1111   */\n      swap3\n      swap2\n      pop\n      pop\n      jump\t// out\n        /* \"#utility.yul\":1117:1446   */\n    tag_14:\n        /* \"#utility.yul\":1176:1182   */\n      0x00\n        /* \"#utility.yul\":1225:1227   */\n      0x20\n        /* \"#utility.yul\":1213:1222   */\n      dup3\n        /* \"#utility.yul\":1204:1211   */\n      dup5\n        /* \"#utility.yul\":1200:1223   */\n      sub\n        /* \"#utility.yul\":1196:1228   */\n      slt\n        /* \"#utility.yul\":1193:1312   */\n      iszero\n      tag_105\n      jumpi\n        /* \"#utility.yul\":1231:1310   */\n      tag_106\n      tag_51\n      jump\t// in\n    tag_106:\n        /* \"#utility.yul\":1193:1312   */\n    tag_105:\n        /* \"#utility.yul\":1351:1352   */\n      0x00\n        /* \"#utility.yul\":1376:1429   */\n      tag_107\n        /* \"#utility.yul\":1421:1428   */\n      dup5\n        /* \"#utility.yul\":1412:1418   */\n      dup3\n        /* \"#utility.yul\":1401:1410   */\n      dup6\n        /* \"#utility.yul\":1397:1419   */\n      add\n        /* \"#utility.yul\":1376:1429   */\n      tag_55\n      jump\t// in\n    tag_107:\n        /* \"#utility.yul\":1366:1429   */\n      swap2\n      pop\n        /* \"#utility.yul\":1322:1439   */\n      pop\n        /* \"#utility.yul\":1117:1446   */\n      swap3\n      swap2\n      pop\n      pop\n      jump\t// out\n        /* \"#utility.yul\":1452:1551   */\n    tag_56:\n        /* \"#utility.yul\":1504:1510   */\n      0x00\n        /* \"#utility.yul\":1538:1543   */\n      dup2\n        /* \"#utility.yul\":1532:1544   */\n      mload\n        /* \"#utility.yul\":1522:1544   */\n      swap1\n      pop\n        /* \"#utility.yul\":1452:1551   */\n      swap2\n      swap1\n      pop\n      jump\t// out\n        /* \"#utility.yul\":1557:1726   */\n    tag_57:\n        /* \"#utility.yul\":1641:1652   */\n      0x00\n        /* \"#utility.yul\":1675:1681   */\n      dup3\n        /* \"#utility.yul\":1670:1673   */\n      dup3\n        /* \"#utility.yul\":1663:1682   */\n      mstore\n        /* \"#utility.yul\":1715:1719   */\n      0x20\n        /* \"#utility.yul\":1710:1713   */\n      dup3\n        /* \"#utility.yul\":1706:1720   */\n      add\n        /* \"#utility.yul\":1691:1720   */\n      swap1\n      pop\n        /* \"#utility.yul\":1557:1726   */\n      swap3\n      swap2\n      pop\n      pop\n      jump\t// out\n        /* \"#utility.yul\":1732:1871   */\n    tag_58:\n        /* \"#utility.yul\":1821:1827   */\n      dup3\n        /* \"#utility.yul\":1816:1819   */\n      dup2\n        /* \"#utility.yul\":1811:1814   */\n      dup4\n        /* \"#utility.yul\":1805:1828   */\n      mcopy\n        /* \"#utility.yul\":1862:1863   */\n      0x00\n        /* \"#utility.yul\":1853:1859   */\n      dup4\n        /* \"#utility.yul\":1848:1851   */\n      dup4\n        /* \"#utility.yul\":1844:1860   */\n      add\n        /* \"#utility.yul\":1837:1864   */\n      mstore\n        /* \"#utility.yul\":1732:1871   */\n      pop\n      pop\n      pop\n      jump\t// out\n        /* \"#utility.yul\":1877:1979   */\n    tag_59:\n        /* \"#utility.yul\":1918:1924   */\n      0x00\n        /* \"#utility.yul\":1969:1971   */\n      0x1f\n        /* \"#utility.yul\":1965:1972   */\n      not\n        /* \"#utility.yul\":1960:1962   */\n      0x1f\n        /* \"#utility.yul\":1953:1958   */\n      dup4\n        /* \"#utility.yul\":1949:1963   */\n      add\n        /* \"#utility.yul\":1945:1973   */\n      and\n        /* \"#utility.yul\":1935:1973   */\n      swap1\n      pop\n        /* \"#utility.yul\":1877:1979   */\n      swap2\n      swap1\n      pop\n      jump\t// out\n        /* \"#utility.yul\":1985:2362   */\n    tag_60:\n        /* \"#utility.yul\":2073:2076   */\n      0x00\n        /* \"#utility.yul\":2101:2140   */\n      tag_113\n        /* \"#utility.yul\":2134:2139   */\n      dup3\n        /* \"#utility.yul\":2101:2140   */\n      tag_56\n      jump\t// in\n    tag_113:\n        /* \"#utility.yul\":2156:2227   */\n      tag_114\n        /* \"#utility.yul\":2220:2226   */\n      dup2\n        /* \"#utility.yul\":2215:2218   */\n      dup6\n        /* \"#utility.yul\":2156:2227   */\n      tag_57\n      jump\t// in\n    tag_114:\n        /* \"#utility.yul\":2149:2227   */\n      swap4\n      pop\n        /* \"#utility.yul\":2236:2301   */\n      tag_115\n        /* \"#utility.yul\":2294:2300   */\n      dup2\n        /* \"#utility.yul\":2289:2292   */\n      dup6\n        /* \"#utility.yul\":2282:2286   */\n      0x20\n        /* \"#utility.yul\":2275:2280   */\n      dup7\n        /* \"#utility.yul\":2271:2287   */\n      add\n        /* \"#utility.yul\":2236:2301   */\n      tag_58\n      jump\t// in\n    tag_115:\n        /* \"#utility.yul\":2326:2355   */\n      tag_116\n        /* \"#utility.yul\":2348:2354   */\n      dup2\n        /* \"#utility.yul\":2326:2355   */\n      tag_59\n      jump\t// in\n    tag_116:\n        /* \"#utility.yul\":2321:2324   */\n      dup5\n        /* \"#utility.yul\":2317:2356   */\n      add\n        /* \"#utility.yul\":2310:2356   */\n      swap2\n      pop\n        /* \"#utility.yul\":2077:2362   */\n      pop\n        /* \"#utility.yul\":1985:2362   */\n      swap3\n      swap2\n      pop\n      pop\n      jump\t// out\n        /* \"#utility.yul\":2368:2893   */\n    tag_17:\n        /* \"#utility.yul\":2533:2537   */\n      0x00\n        /* \"#utility.yul\":2571:2573   */\n      0x60\n        /* \"#utility.yul\":2560:2569   */\n      dup3\n        /* \"#utility.yul\":2556:2574   */\n      add\n        /* \"#utility.yul\":2548:2574   */\n      swap1\n      pop\n        /* \"#utility.yul\":2584:2653   */\n      tag_118\n        /* \"#utility.yul\":2650:2651   */\n      0x00\n        /* \"#utility.yul\":2639:2648   */\n      dup4\n        /* \"#utility.yul\":2635:2652   */\n      add\n        /* \"#utility.yul\":2626:2632   */\n      dup7\n        /* \"#utility.yul\":2584:2653   */\n      tag_49\n      jump\t// in\n    tag_118:\n        /* \"#utility.yul\":2700:2709   */\n      dup2\n        /* \"#utility.yul\":2694:2698   */\n      dup2\n        /* \"#utility.yul\":2690:2710   */\n      sub\n        /* \"#utility.yul\":2685:2687   */\n      0x20\n        /* \"#utility.yul\":2674:2683   */\n      dup4\n        /* \"#utility.yul\":2670:2688   */\n      add\n        /* \"#utility.yul\":2663:2711   */\n      mstore\n        /* \"#utility.yul\":2728:2806   */\n      tag_119\n        /* \"#utility.yul\":2801:2805   */\n      dup2\n        /* \"#utility.yul\":2792:2798   */\n      dup6\n        /* \"#utility.yul\":2728:2806   */\n      tag_60\n      jump\t// in\n    tag_119:\n        /* \"#utility.yul\":2720:2806   */\n      swap1\n      pop\n        /* \"#utility.yul\":2816:2886   */\n      tag_120\n        /* \"#utility.yul\":2882:2884   */\n      0x40\n        /* \"#utility.yul\":2871:2880   */\n      dup4\n        /* \"#utility.yul\":2867:2885   */\n      add\n        /* \"#utility.yul\":2858:2864   */\n      dup5\n        /* \"#utility.yul\":2816:2886   */\n      tag_49\n      jump\t// in\n    tag_120:\n        /* \"#utility.yul\":2368:2893   */\n      swap5\n      swap4\n      pop\n      pop\n      pop\n      pop\n      jump\t// out\n        /* \"#utility.yul\":2899:3019   */\n    tag_61:\n        /* \"#utility.yul\":2971:2994   */\n      tag_122\n        /* \"#utility.yul\":2988:2993   */\n      dup2\n        /* \"#utility.yul\":2971:2994   */\n      tag_48\n      jump\t// in\n    tag_122:\n        /* \"#utility.yul\":2964:2969   */\n      dup2\n        /* \"#utility.yul\":2961:2995   */\n      eq\n        /* \"#utility.yul\":2951:3013   */\n      tag_123\n      jumpi\n        /* \"#utility.yul\":3009:3010   */\n      0x00\n        /* \"#utility.yul\":3006:3007   */\n      0x00\n        /* \"#utility.yul\":2999:3011   */\n      revert\n        /* \"#utility.yul\":2951:3013   */\n    tag_123:\n        /* \"#utility.yul\":2899:3019   */\n      pop\n      jump\t// out\n        /* \"#utility.yul\":3025:3162   */\n    tag_62:\n        /* \"#utility.yul\":3070:3075   */\n      0x00\n        /* \"#utility.yul\":3108:3114   */\n      dup2\n        /* \"#utility.yul\":3095:3115   */\n      calldataload\n        /* \"#utility.yul\":3086:3115   */\n      swap1\n      pop\n        /* \"#utility.yul\":3124:3156   */\n      tag_125\n        /* \"#utility.yul\":3150:3155   */\n      dup2\n        /* \"#utility.yul\":3124:3156   */\n      tag_61\n      jump\t// in\n    tag_125:\n        /* \"#utility.yul\":3025:3162   */\n      swap3\n      swap2\n      pop\n      pop\n      jump\t// out\n        /* \"#utility.yul\":3168:3495   */\n    tag_20:\n        /* \"#utility.yul\":3226:3232   */\n      0x00\n        /* \"#utility.yul\":3275:3277   */\n      0x20\n        /* \"#utility.yul\":3263:3272   */\n      dup3\n        /* \"#utility.yul\":3254:3261   */\n      dup5\n        /* \"#utility.yul\":3250:3273   */\n      sub\n        /* \"#utility.yul\":3246:3278   */\n      slt\n        /* \"#utility.yul\":3243:3362   */\n      iszero\n      tag_127\n      jumpi\n        /* \"#utility.yul\":3281:3360   */\n      tag_128\n      tag_51\n      jump\t// in\n    tag_128:\n        /* \"#utility.yul\":3243:3362   */\n    tag_127:\n        /* \"#utility.yul\":3401:3402   */\n      0x00\n        /* \"#utility.yul\":3426:3478   */\n      tag_129\n        /* \"#utility.yul\":3470:3477   */\n      dup5\n        /* \"#utility.yul\":3461:3467   */\n      dup3\n        /* \"#utility.yul\":3450:3459   */\n      dup6\n        /* \"#utility.yul\":3446:3468   */\n      add\n        /* \"#utility.yul\":3426:3478   */\n      tag_62\n      jump\t// in\n    tag_129:\n        /* \"#utility.yul\":3416:3478   */\n      swap2\n      pop\n        /* \"#utility.yul\":3372:3488   */\n      pop\n        /* \"#utility.yul\":3168:3495   */\n      swap3\n      swap2\n      pop\n      pop\n      jump\t// out\n        /* \"#utility.yul\":3501:3971   */\n    tag_24:\n        /* \"#utility.yul\":3567:3573   */\n      0x00\n        /* \"#utility.yul\":3575:3581   */\n      0x00\n        /* \"#utility.yul\":3624:3626   */\n      0x40\n        /* \"#utility.yul\":3612:3621   */\n      dup4\n        /* \"#utility.yul\":3603:3610   */\n      dup6\n        /* \"#utility.yul\":3599:3622   */\n      sub\n        /* \"#utility.yul\":3595:3627   */\n      slt\n        /* \"#utility.yul\":3592:3711   */\n      iszero\n      tag_131\n      jumpi\n        /* \"#utility.yul\":3630:3709   */\n      tag_132\n      tag_51\n      jump\t// in\n    tag_132:\n        /* \"#utility.yul\":3592:3711   */\n    tag_131:\n        /* \"#utility.yul\":3750:3751   */\n      0x00\n        /* \"#utility.yul\":3775:3827   */\n      tag_133\n        /* \"#utility.yul\":3819:3826   */\n      dup6\n        /* \"#utility.yul\":3810:3816   */\n      dup3\n        /* \"#utility.yul\":3799:3808   */\n      dup7\n        /* \"#utility.yul\":3795:3817   */\n      add\n        /* \"#utility.yul\":3775:3827   */\n      tag_62\n      jump\t// in\n    tag_133:\n        /* \"#utility.yul\":3765:3827   */\n      swap3\n      pop\n        /* \"#utility.yul\":3721:3837   */\n      pop\n        /* \"#utility.yul\":3876:3878   */\n      0x20\n        /* \"#utility.yul\":3902:3954   */\n      tag_134\n        /* \"#utility.yul\":3946:3953   */\n      dup6\n        /* \"#utility.yul\":3937:3943   */\n      dup3\n        /* \"#utility.yul\":3926:3935   */\n      dup7\n        /* \"#utility.yul\":3922:3944   */\n      add\n        /* \"#utility.yul\":3902:3954   */\n      tag_62\n      jump\t// in\n    tag_134:\n        /* \"#utility.yul\":3892:3954   */\n      swap2\n      pop\n        /* \"#utility.yul\":3847:3964   */\n      pop\n        /* \"#utility.yul\":3501:3971   */\n      swap3\n      pop\n      swap3\n      swap1\n      pop\n      jump\t// out\n        /* \"#utility.yul\":3977:4094   */\n    tag_63:\n        /* \"#utility.yul\":4086:4087   */\n      0x00\n        /* \"#utility.yul\":4083:4084   */\n      0x00\n        /* \"#utility.yul\":4076:4088   */\n      revert\n        /* \"#utility.yul\":4100:4217   */\n    tag_64:\n        /* \"#utility.yul\":4209:4210   */\n      0x00\n        /* \"#utility.yul\":4206:4207   */\n      0x00\n        /* \"#utility.yul\":4199:4211   */\n      revert\n        /* \"#utility.yul\":4223:4403   */\n    tag_65:\n        /* \"#utility.yul\":4271:4348   */\n      0x4e487b7100000000000000000000000000000000000000000000000000000000\n        /* \"#utility.yul\":4268:4269   */\n      0x00\n        /* \"#utility.yul\":4261:4349   */\n      mstore\n        /* \"#utility.yul\":4368:4372   */\n      0x41\n        /* \"#utility.yul\":4365:4366   */\n      0x04\n        /* \"#utility.yul\":4358:4373   */\n      mstore\n        /* \"#utility.yul\":4392:4396   */\n      0x24\n        /* \"#utility.yul\":4389:4390   */\n      0x00\n        /* \"#utility.yul\":4382:4397   */\n      revert\n        /* \"#utility.yul\":4409:4690   */\n    tag_66:\n        /* \"#utility.yul\":4492:4519   */\n      tag_139\n        /* \"#utility.yul\":4514:4518   */\n      dup3\n        /* \"#utility.yul\":4492:4519   */\n      tag_59\n      jump\t// in\n    tag_139:\n        /* \"#utility.yul\":4484:4490   */\n      dup2\n        /* \"#utility.yul\":4480:4520   */\n      add\n        /* \"#utility.yul\":4622:4628   */\n      dup2\n        /* \"#utility.yul\":4610:4620   */\n      dup2\n        /* \"#utility.yul\":4607:4629   */\n      lt\n        /* \"#utility.yul\":4586:4604   */\n      0xffffffffffffffff\n        /* \"#utility.yul\":4574:4584   */\n      dup3\n        /* \"#utility.yul\":4571:4605   */\n      gt\n        /* \"#utility.yul\":4568:4630   */\n      or\n        /* \"#utility.yul\":4565:4653   */\n      iszero\n      tag_140\n      jumpi\n        /* \"#utility.yul\":4633:4651   */\n      tag_141\n      tag_65\n      jump\t// in\n    tag_141:\n        /* \"#utility.yul\":4565:4653   */\n    tag_140:\n        /* \"#utility.yul\":4673:4683   */\n      dup1\n        /* \"#utility.yul\":4669:4671   */\n      0x40\n        /* \"#utility.yul\":4662:4684   */\n      mstore\n        /* \"#utility.yul\":4452:4690   */\n      pop\n        /* \"#utility.yul\":4409:4690   */\n      pop\n      pop\n      jump\t// out\n        /* \"#utility.yul\":4696:4825   */\n    tag_67:\n        /* \"#utility.yul\":4730:4736   */\n      0x00\n        /* \"#utility.yul\":4757:4777   */\n      tag_143\n      tag_50\n      jump\t// in\n    tag_143:\n        /* \"#utility.yul\":4747:4777   */\n      swap1\n      pop\n        /* \"#utility.yul\":4786:4819   */\n      tag_144\n        /* \"#utility.yul\":4814:4818   */\n      dup3\n        /* \"#utility.yul\":4806:4812   */\n      dup3\n        /* \"#utility.yul\":4786:4819   */\n      tag_66\n      jump\t// in\n    tag_144:\n        /* \"#utility.yul\":4696:4825   */\n      swap2\n      swap1\n      pop\n      jump\t// out\n        /* \"#utility.yul\":4831:5139   */\n    tag_68:\n        /* \"#utility.yul\":4893:4897   */\n      0x00\n        /* \"#utility.yul\":4983:5001   */\n      0xffffffffffffffff\n        /* \"#utility.yul\":4975:4981   */\n      dup3\n        /* \"#utility.yul\":4972:5002   */\n      gt\n        /* \"#utility.yul\":4969:5025   */\n      iszero\n      tag_146\n      jumpi\n        /* \"#utility.yul\":5005:5023   */\n      tag_147\n      tag_65\n      jump\t// in\n    tag_147:\n        /* \"#utility.yul\":4969:5025   */\n    tag_146:\n        /* \"#utility.yul\":5043:5072   */\n      tag_148\n        /* \"#utility.yul\":5065:5071   */\n      dup3\n        /* \"#utility.yul\":5043:5072   */\n      tag_59\n      jump\t// in\n    tag_148:\n        /* \"#utility.yul\":5035:5072   */\n      swap1\n      pop\n        /* \"#utility.yul\":5127:5131   */\n      0x20\n        /* \"#utility.yul\":5121:5125   */\n      dup2\n        /* \"#utility.yul\":5117:5132   */\n      add\n        /* \"#utility.yul\":5109:5132   */\n      swap1\n      pop\n        /* \"#utility.yul\":4831:5139   */\n      swap2\n      swap1\n      pop\n      jump\t// out\n        /* \"#utility.yul\":5145:5293   */\n    tag_69:\n        /* \"#utility.yul\":5243:5249   */\n      dup3\n        /* \"#utility.yul\":5238:5241   */\n      dup2\n        /* \"#utility.yul\":5233:5236   */\n      dup4\n        /* \"#utility.yul\":5220:5250   */\n      calldatacopy\n        /* \"#utility.yul\":5284:5285   */\n      0x00\n        /* \"#utility.yul\":5275:5281   */\n      dup4\n        /* \"#utility.yul\":5270:5273   */\n      dup4\n        /* \"#utility.yul\":5266:5282   */\n      add\n        /* \"#utility.yul\":5259:5286   */\n      mstore\n        /* \"#utility.yul\":5145:5293   */\n      pop\n      pop\n      pop\n      jump\t// out\n        /* \"#utility.yul\":5299:5724   */\n    tag_70:\n        /* \"#utility.yul\":5377:5382   */\n      0x00\n        /* \"#utility.yul\":5402:5468   */\n      tag_151\n        /* \"#utility.yul\":5418:5467   */\n      tag_152\n        /* \"#utility.yul\":5460:5466   */\n      dup5\n        /* \"#utility.yul\":5418:5467   */\n      tag_68\n      jump\t// in\n    tag_152:\n        /* \"#utility.yul\":5402:5468   */\n      tag_67\n      jump\t// in\n    tag_151:\n        /* \"#utility.yul\":5393:5468   */\n      swap1\n      pop\n        /* \"#utility.yul\":5491:5497   */\n      dup3\n        /* \"#utility.yul\":5484:5489   */\n      dup2\n        /* \"#utility.yul\":5477:5498   */\n      mstore\n        /* \"#utility.yul\":5529:5533   */\n      0x20\n        /* \"#utility.yul\":5522:5527   */\n      dup2\n        /* \"#utility.yul\":5518:5534   */\n      add\n        /* \"#utility.yul\":5567:5570   */\n      dup5\n        /* \"#utility.yul\":5558:5564   */\n      dup5\n        /* \"#utility.yul\":5553:5556   */\n      dup5\n        /* \"#utility.yul\":5549:5565   */\n      add\n        /* \"#utility.yul\":5546:5571   */\n      gt\n        /* \"#utility.yul\":5543:5655   */\n      iszero\n      tag_153\n      jumpi\n        /* \"#utility.yul\":5574:5653   */\n      tag_154\n      tag_64\n      jump\t// in\n    tag_154:\n        /* \"#utility.yul\":5543:5655   */\n    tag_153:\n        /* \"#utility.yul\":5664:5718   */\n      tag_155\n        /* \"#utility.yul\":5711:5717   */\n      dup5\n        /* \"#utility.yul\":5706:5709   */\n      dup3\n        /* \"#utility.yul\":5701:5704   */\n      dup6\n        /* \"#utility.yul\":5664:5718   */\n      tag_69\n      jump\t// in\n    tag_155:\n        /* \"#utility.yul\":5383:5724   */\n      pop\n        /* \"#utility.yul\":5299:5724   */\n      swap4\n      swap3\n      pop\n      pop\n      pop\n      jump\t// out\n        /* \"#utility.yul\":5744:6084   */\n    tag_71:\n        /* \"#utility.yul\":5800:5805   */\n      0x00\n        /* \"#utility.yul\":5849:5852   */\n      dup3\n        /* \"#utility.yul\":5842:5846   */\n      0x1f\n        /* \"#utility.yul\":5834:5840   */\n      dup4\n        /* \"#utility.yul\":5830:5847   */\n      add\n        /* \"#utility.yul\":5826:5853   */\n      slt\n        /* \"#utility.yul\":5816:5938   */\n      tag_157\n      jumpi\n        /* \"#utility.yul\":5857:5936   */\n      tag_158\n      tag_63\n      jump\t// in\n    tag_158:\n        /* \"#utility.yul\":5816:5938   */\n    tag_157:\n        /* \"#utility.yul\":5974:5980   */\n      dup2\n        /* \"#utility.yul\":5961:5981   */\n      calldataload\n        /* \"#utility.yul\":5999:6078   */\n      tag_159\n        /* \"#utility.yul\":6074:6077   */\n      dup5\n        /* \"#utility.yul\":6066:6072   */\n      dup3\n        /* \"#utility.yul\":6059:6063   */\n      0x20\n        /* \"#utility.yul\":6051:6057   */\n      dup7\n        /* \"#utility.yul\":6047:6064   */\n      add\n        /* \"#utility.yul\":5999:6078   */\n      tag_70\n      jump\t// in\n    tag_159:\n        /* \"#utility.yul\":5990:6078   */\n      swap2\n      pop\n        /* \"#utility.yul\":5806:6084   */\n      pop\n        /* \"#utility.yul\":5744:6084   */\n      swap3\n      swap2\n      pop\n      pop\n      jump\t// out\n        /* \"#utility.yul\":6090:6885   */\n    tag_29:\n        /* \"#utility.yul\":6175:6181   */\n      0x00\n        /* \"#utility.yul\":6183:6189   */\n      0x00\n        /* \"#utility.yul\":6191:6197   */\n      0x00\n        /* \"#utility.yul\":6240:6242   */\n      0x60\n        /* \"#utility.yul\":6228:6237   */\n      dup5\n        /* \"#utility.yul\":6219:6226   */\n      dup7\n        /* \"#utility.yul\":6215:6238   */\n      sub\n        /* \"#utility.yul\":6211:6243   */\n      slt\n        /* \"#utility.yul\":6208:6327   */\n      iszero\n      tag_161\n      jumpi\n        /* \"#utility.yul\":6246:6325   */\n      tag_162\n      tag_51\n      jump\t// in\n    tag_162:\n        /* \"#utility.yul\":6208:6327   */\n    tag_161:\n        /* \"#utility.yul\":6366:6367   */\n      0x00\n        /* \"#utility.yul\":6391:6443   */\n      tag_163\n        /* \"#utility.yul\":6435:6442   */\n      dup7\n        /* \"#utility.yul\":6426:6432   */\n      dup3\n        /* \"#utility.yul\":6415:6424   */\n      dup8\n        /* \"#utility.yul\":6411:6433   */\n      add\n        /* \"#utility.yul\":6391:6443   */\n      tag_62\n      jump\t// in\n    tag_163:\n        /* \"#utility.yul\":6381:6443   */\n      swap4\n      pop\n        /* \"#utility.yul\":6337:6453   */\n      pop\n        /* \"#utility.yul\":6520:6522   */\n      0x20\n        /* \"#utility.yul\":6509:6518   */\n      dup5\n        /* \"#utility.yul\":6505:6523   */\n      add\n        /* \"#utility.yul\":6492:6524   */\n      calldataload\n        /* \"#utility.yul\":6551:6569   */\n      0xffffffffffffffff\n        /* \"#utility.yul\":6543:6549   */\n      dup2\n        /* \"#utility.yul\":6540:6570   */\n      gt\n        /* \"#utility.yul\":6537:6654   */\n      iszero\n      tag_164\n      jumpi\n        /* \"#utility.yul\":6573:6652   */\n      tag_165\n      tag_52\n      jump\t// in\n    tag_165:\n        /* \"#utility.yul\":6537:6654   */\n    tag_164:\n        /* \"#utility.yul\":6678:6741   */\n      tag_166\n        /* \"#utility.yul\":6733:6740   */\n      dup7\n        /* \"#utility.yul\":6724:6730   */\n      dup3\n        /* \"#utility.yul\":6713:6722   */\n      dup8\n        /* \"#utility.yul\":6709:6731   */\n      add\n        /* \"#utility.yul\":6678:6741   */\n      tag_71\n      jump\t// in\n    tag_166:\n        /* \"#utility.yul\":6668:6741   */\n      swap3\n      pop\n        /* \"#utility.yul\":6463:6751   */\n      pop\n        /* \"#utility.yul\":6790:6792   */\n      0x40\n        /* \"#utility.yul\":6816:6868   */\n      tag_167\n        /* \"#utility.yul\":6860:6867   */\n      dup7\n        /* \"#utility.yul\":6851:6857   */\n      dup3\n        /* \"#utility.yul\":6840:6849   */\n      dup8\n        /* \"#utility.yul\":6836:6858   */\n      add\n        /* \"#utility.yul\":6816:6868   */\n      tag_62\n      jump\t// in\n    tag_167:\n        /* \"#utility.yul\":6806:6868   */\n      swap2\n      pop\n        /* \"#utility.yul\":6761:6878   */\n      pop\n        /* \"#utility.yul\":6090:6885   */\n      swap3\n      pop\n      swap3\n      pop\n      swap3\n      jump\t// out\n        /* \"#utility.yul\":6891:7071   */\n    tag_72:\n        /* \"#utility.yul\":6939:7016   */\n      0x4e487b7100000000000000000000000000000000000000000000000000000000\n        /* \"#utility.yul\":6936:6937   */\n      0x00\n        /* \"#utility.yul\":6929:7017   */\n      mstore\n        /* \"#utility.yul\":7036:7040   */\n      0x22\n        /* \"#utility.yul\":7033:7034   */\n      0x04\n        /* \"#utility.yul\":7026:7041   */\n      mstore\n        /* \"#utility.yul\":7060:7064   */\n      0x24\n        /* \"#utility.yul\":7057:7058   */\n      0x00\n        /* \"#utility.yul\":7050:7065   */\n      revert\n        /* \"#utility.yul\":7077:7397   */\n    tag_35:\n        /* \"#utility.yul\":7121:7127   */\n      0x00\n        /* \"#utility.yul\":7158:7159   */\n      0x02\n        /* \"#utility.yul\":7152:7156   */\n      dup3\n        /* \"#utility.yul\":7148:7160   */\n      div\n        /* \"#utility.yul\":7138:7160   */\n      swap1\n      pop\n        /* \"#utility.yul\":7205:7206   */\n      0x01\n        /* \"#utility.yul\":7199:7203   */\n      dup3\n        /* \"#utility.yul\":7195:7207   */\n      and\n        /* \"#utility.yul\":7226:7244   */\n      dup1\n        /* \"#utility.yul\":7216:7297   */\n      tag_170\n      jumpi\n        /* \"#utility.yul\":7282:7286   */\n      0x7f\n        /* \"#utility.yul\":7274:7280   */\n      dup3\n        /* \"#utility.yul\":7270:7287   */\n      and\n        /* \"#utility.yul\":7260:7287   */\n      swap2\n      pop\n        /* \"#utility.yul\":7216:7297   */\n    tag_170:\n        /* \"#utility.yul\":7344:7346   */\n      0x20\n        /* \"#utility.yul\":7336:7342   */\n      dup3\n        /* \"#utility.yul\":7333:7347   */\n      lt\n        /* \"#utility.yul\":7313:7331   */\n      dup2\n        /* \"#utility.yul\":7310:7348   */\n      sub\n        /* \"#utility.yul\":7307:7391   */\n      tag_171\n      jumpi\n        /* \"#utility.yul\":7363:7381   */\n      tag_172\n      tag_72\n      jump\t// in\n    tag_172:\n        /* \"#utility.yul\":7307:7391   */\n    tag_171:\n        /* \"#utility.yul\":7128:7397   */\n      pop\n        /* \"#utility.yul\":7077:7397   */\n      swap2\n      swap1\n      pop\n      jump\t// out\n        /* \"#utility.yul\":7403:7583   */\n    tag_73:\n        /* \"#utility.yul\":7451:7528   */\n      0x4e487b7100000000000000000000000000000000000000000000000000000000\n        /* \"#utility.yul\":7448:7449   */\n      0x00\n        /* \"#utility.yul\":7441:7529   */\n      mstore\n        /* \"#utility.yul\":7548:7552   */\n      0x11\n        /* \"#utility.yul\":7545:7546   */\n      0x04\n        /* \"#utility.yul\":7538:7553   */\n      mstore\n        /* \"#utility.yul\":7572:7576   */\n      0x24\n        /* \"#utility.yul\":7569:7570   */\n      0x00\n        /* \"#utility.yul\":7562:7577   */\n      revert\n        /* \"#utility.yul\":7589:7964   */\n    tag_43:\n        /* \"#utility.yul\":7628:7631   */\n      0x00\n        /* \"#utility.yul\":7647:7666   */\n      tag_175\n        /* \"#utility.yul\":7664:7665   */\n      dup3\n        /* \"#utility.yul\":7647:7666   */\n      tag_48\n      jump\t// in\n    tag_175:\n        /* \"#utility.yul\":7642:7666   */\n      swap2\n      pop\n        /* \"#utility.yul\":7680:7699   */\n      tag_176\n        /* \"#utility.yul\":7697:7698   */\n      dup4\n        /* \"#utility.yul\":7680:7699   */\n      tag_48\n      jump\t// in\n    tag_176:\n        /* \"#utility.yul\":7675:7699   */\n      swap3\n      pop\n        /* \"#utility.yul\":7722:7723   */\n      dup3\n        /* \"#utility.yul\":7719:7720   */\n      dup3\n        /* \"#utility.yul\":7715:7724   */\n      add\n        /* \"#utility.yul\":7708:7724   */\n      swap1\n      pop\n        /* \"#utility.yul\":7920:7921   */\n      dup3\n        /* \"#utility.yul\":7915:7918   */\n      dup2\n        /* \"#utility.yul\":7911:7922   */\n      slt\n        /* \"#utility.yul\":7904:7923   */\n      iszero\n        /* \"#utility.yul\":7900:7901   */\n      0x00\n        /* \"#utility.yul\":7897:7898   */\n      dup4\n        /* \"#utility.yul\":7893:7902   */\n      slt\n        /* \"#utility.yul\":7889:7924   */\n      and\n        /* \"#utility.yul\":7872:7873   */\n      dup4\n        /* \"#utility.yul\":7867:7870   */\n      dup3\n        /* \"#utility.yul\":7863:7874   */\n      slt\n        /* \"#utility.yul\":7858:7859   */\n      0x00\n        /* \"#utility.yul\":7855:7856   */\n      dup5\n        /* \"#utility.yul\":7851:7860   */\n      slt\n        /* \"#utility.yul\":7844:7861   */\n      iszero\n        /* \"#utility.yul\":7840:7875   */\n      and\n        /* \"#utility.yul\":7824:7934   */\n      or\n        /* \"#utility.yul\":7821:7957   */\n      iszero\n      tag_177\n      jumpi\n        /* \"#utility.yul\":7937:7955   */\n      tag_178\n      tag_73\n      jump\t// in\n    tag_178:\n        /* \"#utility.yul\":7821:7957   */\n    tag_177:\n        /* \"#utility.yul\":7589:7964   */\n      swap3\n      swap2\n      pop\n      pop\n      jump\t// out\n        /* \"#utility.yul\":7970:8111   */\n    tag_74:\n        /* \"#utility.yul\":8019:8023   */\n      0x00\n        /* \"#utility.yul\":8042:8045   */\n      dup2\n        /* \"#utility.yul\":8034:8045   */\n      swap1\n      pop\n        /* \"#utility.yul\":8065:8068   */\n      dup2\n        /* \"#utility.yul\":8062:8063   */\n      0x00\n        /* \"#utility.yul\":8055:8069   */\n      mstore\n        /* \"#utility.yul\":8099:8103   */\n      0x20\n        /* \"#utility.yul\":8096:8097   */\n      0x00\n        /* \"#utility.yul\":8086:8104   */\n      keccak256\n        /* \"#utility.yul\":8078:8104   */\n      swap1\n      pop\n        /* \"#utility.yul\":7970:8111   */\n      swap2\n      swap1\n      pop\n      jump\t// out\n        /* \"#utility.yul\":8117:8210   */\n    tag_75:\n        /* \"#utility.yul\":8154:8160   */\n      0x00\n        /* \"#utility.yul\":8201:8203   */\n      0x20\n        /* \"#utility.yul\":8196:8198   */\n      0x1f\n        /* \"#utility.yul\":8189:8194   */\n      dup4\n        /* \"#utility.yul\":8185:8199   */\n      add\n        /* \"#utility.yul\":8181:8204   */\n      div\n        /* \"#utility.yul\":8171:8204   */\n      swap1\n      pop\n        /* \"#utility.yul\":8117:8210   */\n      swap2\n      swap1\n      pop\n      jump\t// out\n        /* \"#utility.yul\":8216:8323   */\n    tag_76:\n        /* \"#utility.yul\":8260:8268   */\n      0x00\n        /* \"#utility.yul\":8310:8315   */\n      dup3\n        /* \"#utility.yul\":8304:8308   */\n      dup3\n        /* \"#utility.yul\":8300:8316   */\n      shl\n        /* \"#utility.yul\":8279:8316   */\n      swap1\n      pop\n        /* \"#utility.yul\":8216:8323   */\n      swap3\n      swap2\n      pop\n      pop\n      jump\t// out\n        /* \"#utility.yul\":8329:8722   */\n    tag_77:\n        /* \"#utility.yul\":8398:8404   */\n      0x00\n        /* \"#utility.yul\":8448:8449   */\n      0x08\n        /* \"#utility.yul\":8436:8446   */\n      dup4\n        /* \"#utility.yul\":8432:8450   */\n      mul\n        /* \"#utility.yul\":8471:8568   */\n      tag_183\n        /* \"#utility.yul\":8501:8567   */\n      0xffffffffffffffffffffffffffffffffffffffffffffffffffffffffffffffff\n        /* \"#utility.yul\":8490:8499   */\n      dup3\n        /* \"#utility.yul\":8471:8568   */\n      tag_76\n      jump\t// in\n    tag_183:\n        /* \"#utility.yul\":8589:8628   */\n      tag_184\n        /* \"#utility.yul\":8619:8627   */\n      dup7\n        /* \"#utility.yul\":8608:8617   */\n      dup4\n        /* \"#utility.yul\":8589:8628   */\n      tag_76\n      jump\t// in\n    tag_184:\n        /* \"#utility.yul\":8577:8628   */\n      swap6\n      pop\n        /* \"#utility.yul\":8661:8665   */\n      dup1\n        /* \"#utility.yul\":8657:8666   */\n      not\n        /* \"#utility.yul\":8650:8655   */\n      dup5\n        /* \"#utility.yul\":8646:8667   */\n      and\n        /* \"#utility.yul\":8637:8667   */\n      swap4\n      pop\n        /* \"#utility.yul\":8710:8714   */\n      dup1\n        /* \"#utility.yul\":8700:8708   */\n      dup7\n        /* \"#utility.yul\":8696:8715   */\n      and\n        /* \"#utility.yul\":8689:8694   */\n      dup5\n        /* \"#utility.yul\":8686:8716   */\n      or\n        /* \"#utility.yul\":8676:8716   */\n      swap3\n      pop\n        /* \"#utility.yul\":8405:8722   */\n      pop\n      pop\n        /* \"#utility.yul\":8329:8722   */\n      swap4\n      swap3\n      pop\n      pop\n      pop\n      jump\t// out\n        /* \"#utility.yul\":8728:8788   */\n    tag_78:\n        /* \"#utility.yul\":8756:8759   */\n      0x00\n        /* \"#utility.yul\":8777:8782   */\n      dup2\n        /* \"#utility.yul\":8770:8782   */\n      swap1\n      pop\n        /* \"#utility.yul\":8728:8788   */\n      swap2\n      swap1\n      pop\n      jump\t// out\n        /* \"#utility.yul\":8794:8936   */\n    tag_79:\n        /* \"#utility.yul\":8844:8853   */\n      0x00\n        /* \"#utility.yul\":8877:8930   */\n      tag_187\n        /* \"#utility.yul\":8895:8929   */\n      tag_188\n        /* \"#utility.yul\":8904:8928   */\n      tag_189\n        /* \"#utility.yul\":8922:8927   */\n      dup5\n        /* \"#utility.yul\":8904:8928   */\n      tag_53\n      jump\t// in\n    tag_189:\n        /* \"#utility.yul\":8895:8929   */\n      tag_78\n      jump\t// in\n    tag_188:\n        /* \"#utility.yul\":8877:8930   */\n      tag_53\n      jump\t// in\n    tag_187:\n        /* \"#utility.yul\":8864:8930   */\n      swap1\n      pop\n        /* \"#utility.yul\":8794:8936   */\n      swap2\n      swap1\n      pop\n      jump\t// out\n        /* \"#utility.yul\":8942:9017   */\n    tag_80:\n        /* \"#utility.yul\":8985:8988   */\n      0x00\n        /* \"#utility.yul\":9006:9011   */\n      dup2\n        /* \"#utility.yul\":8999:9011   */\n      swap1\n      pop\n        /* \"#utility.yul\":8942:9017   */\n      swap2\n      swap1\n      pop\n      jump\t// out\n        /* \"#utility.yul\":9023:9292   */\n    tag_81:\n        /* \"#utility.yul\":9133:9172   */\n      tag_192\n        /* \"#utility.yul\":9164:9171   */\n      dup4\n        /* \"#utility.yul\":9133:9172   */\n      tag_79\n      jump\t// in\n    tag_192:\n        /* \"#utility.yul\":9194:9285   */\n      tag_193\n        /* \"#utility.yul\":9243:9284   */\n      tag_194\n        /* \"#utility.yul\":9267:9283   */\n      dup3\n        /* \"#utility.yul\":9243:9284   */\n      tag_80\n      jump\t// in\n    tag_194:\n        /* \"#utility.yul\":9235:9241   */\n      dup5\n        /* \"#utility.yul\":9228:9232   */\n      dup5\n        /* \"#utility.yul\":9222:9233   */\n      sload\n        /* \"#utility.yul\":9194:9285   */\n      tag_77\n      jump\t// in\n    tag_193:\n        /* \"#utility.yul\":9188:9192   */\n      dup3\n        /* \"#utility.yul\":9181:9286   */\n      sstore\n        /* \"#utility.yul\":9099:9292   */\n      pop\n        /* \"#utility.yul\":9023:9292   */\n      pop\n      pop\n      pop\n      jump\t// out\n        /* \"#utility.yul\":9298:9371   */\n    tag_82:\n        /* \"#utility.yul\":9343:9346   */\n      0x00\n        /* \"#utility.yul\":9364:9365   */\n      0x00\n        /* \"#utility.yul\":9357:9365   */\n      swap1\n      pop\n        /* \"#utility.yul\":9298:9371   */\n      swap1\n      jump\t// out\n        /* \"#utility.yul\":9377:9566   */\n    tag_83:\n        /* \"#utility.yul\":9454:9486   */\n      tag_197\n      tag_82\n      jump\t// in\n    tag_197:\n        /* \"#utility.yul\":9495:9560   */\n      tag_198\n        /* \"#utility.yul\":9553:9559   */\n      dup2\n        /* \"#utility.yul\":9545:9551   */\n      dup5\n        /* \"#utility.yul\":9539:9543   */\n      dup5\n        /* \"#utility.yul\":9495:9560   */\n      tag_81\n      jump\t// in\n    tag_198:\n        /* \"#utility.yul\":9430:9566   */\n      pop\n        /* \"#utility.yul\":9377:9566   */\n      pop\n      pop\n      jump\t// out\n        /* \"#utility.yul\":9572:9786   */\n    tag_84:\n        /* \"#utility.yul\":9657:9658   */\n      0x00\n        /* \"#utility.yul\":9642:9780   */\n    tag_200:\n        /* \"#utility.yul\":9667:9676   */\n      dup3\n        /* \"#utility.yul\":9664:9665   */\n      dup2\n        /* \"#utility.yul\":9661:9677   */\n      lt\n        /* \"#utility.yul\":9642:9780   */\n      iszero\n      tag_202\n      jumpi\n        /* \"#utility.yul\":9719:9770   */\n      tag_203\n        /* \"#utility.yul\":9768:9769   */\n      0x00\n        /* \"#utility.yul\":9764:9765   */\n      dup3\n        /* \"#utility.yul\":9753:9762   */\n      dup5\n        /* \"#utility.yul\":9749:9766   */\n      add\n        /* \"#utility.yul\":9719:9770   */\n      tag_83\n      jump\t// in\n    tag_203:\n        /* \"#utility.yul\":9692:9693   */\n      0x01\n        /* \"#utility.yul\":9689:9690   */\n      dup2\n        /* \"#utility.yul\":9685:9694   */\n      add\n        /* \"#utility.yul\":9680:9694   */\n      swap1\n      pop\n        /* \"#utility.yul\":9642:9780   */\n      jump(tag_200)\n    tag_202:\n        /* \"#utility.yul\":9646:9660   */\n      pop\n        /* \"#utility.yul\":9572:9786   */\n      pop\n      pop\n      jump\t// out\n        /* \"#utility.yul\":9792:10538   */\n    tag_85:\n        /* \"#utility.yul\":9893:9895   */\n      0x1f\n        /* \"#utility.yul\":9888:9891   */\n      dup3\n        /* \"#utility.yul\":9885:9896   */\n      gt\n        /* \"#utility.yul\":9882:10531   */\n      iszero\n      tag_205\n      jumpi\n        /* \"#utility.yul\":9922:9932   */\n      dup3\n        /* \"#utility.yul\":9917:9920   */\n      dup3\n        /* \"#utility.yul\":9914:9933   */\n      gt\n        /* \"#utility.yul\":9911:10521   */\n      iszero\n      tag_206\n      jumpi\n        /* \"#utility.yul\":9968:10006   */\n      tag_207\n        /* \"#utility.yul\":10000:10005   */\n      dup2\n        /* \"#utility.yul\":9968:10006   */\n      tag_74\n      jump\t// in\n    tag_207:\n        /* \"#utility.yul\":10043:10065   */\n      tag_208\n        /* \"#utility.yul\":10061:10064   */\n      dup4\n        /* \"#utility.yul\":10043:10065   */\n      tag_75\n      jump\t// in\n    tag_208:\n        /* \"#utility.yul\":10102:10131   */\n      tag_209\n        /* \"#utility.yul\":10120:10130   */\n      dup6\n        /* \"#utility.yul\":10102:10131   */\n      tag_75\n      jump\t// in\n    tag_209:\n        /* \"#utility.yul\":10292:10294   */\n      0x20\n        /* \"#utility.yul\":10280:10290   */\n      dup7\n        /* \"#utility.yul\":10277:10295   */\n      lt\n        /* \"#utility.yul\":10274:10353   */\n      iszero\n      tag_210\n      jumpi\n        /* \"#utility.yul\":10334:10335   */\n      0x00\n        /* \"#utility.yul\":10318:10335   */\n      swap1\n      pop\n        /* \"#utility.yul\":10274:10353   */\n    tag_210:\n        /* \"#utility.yul\":10403:10415   */\n      dup1\n        /* \"#utility.yul\":10393:10401   */\n      dup4\n        /* \"#utility.yul\":10389:10416   */\n      add\n        /* \"#utility.yul\":10433:10507   */\n      tag_211\n        /* \"#utility.yul\":10493:10505   */\n      dup3\n        /* \"#utility.yul\":10479:10491   */\n      dup5\n        /* \"#utility.yul\":10475:10506   */\n      sub\n        /* \"#utility.yul\":10462:10473   */\n      dup3\n        /* \"#utility.yul\":10433:10507   */\n      tag_84\n      jump\t// in\n    tag_211:\n        /* \"#utility.yul\":9934:10521   */\n      pop\n      pop\n      pop\n      pop\n        /* \"#utility.yul\":9911:10521   */\n    tag_206:\n        /* \"#utility.yul\":9882:10531   */\n    tag_205:\n        /* \"#utility.yul\":9792:10538   */\n      pop\n      pop\n      pop\n      jump\t// out\n        /* \"#utility.yul\":10544:10661   */\n    tag_86:\n        /* \"#utility.yul\":10598:10606   */\n      0x00\n        /* \"#utility.yul\":10648:10653   */\n      dup3\n        /* \"#utility.yul\":10642:10646   */\n      dup3\n        /* \"#utility.yul\":10638:10654   */\n      shr\n        /* \"#utility.yul\":10617:10654   */\n      swap1\n      pop\n        /* \"#utility.yul\":10544:10661   */\n      swap3\n      swap2\n      pop\n      pop\n      jump\t// out\n        /* \"#utility.yul\":10667:10836   */\n    tag_87:\n        /* \"#utility.yul\":10711:10717   */\n      0x00\n        /* \"#utility.yul\":10744:10795   */\n      tag_214\n        /* \"#utility.yul\":10792:10793   */\n      0x00\n        /* \"#utility.yul\":10788:10794   */\n      not\n        /* \"#utility.yul\":10780:10785   */\n      dup5\n        /* \"#utility.yul\":10777:10778   */\n      0x08\n        /* \"#utility.yul\":10773:10786   */\n      mul\n        /* \"#utility.yul\":10744:10795   */\n      tag_86\n      jump\t// in\n    tag_214:\n        /* \"#utility.yul\":10740:10796   */\n      not\n        /* \"#utility.yul\":10825:10829   */\n      dup1\n        /* \"#utility.yul\":10819:10823   */\n      dup4\n        /* \"#utility.yul\":10815:10830   */\n      and\n        /* \"#utility.yul\":10805:10830   */\n      swap2\n      pop\n        /* \"#utility.yul\":10718:10836   */\n      pop\n        /* \"#utility.yul\":10667:10836   */\n      swap3\n      swap2\n      pop\n      pop\n      jump\t// out\n        /* \"#utility.yul\":10841:11136   */\n    tag_88:\n        /* \"#utility.yul\":10917:10921   */\n      0x00\n        /* \"#utility.yul\":11063:11092   */\n      tag_216\n        /* \"#utility.yul\":11088:11091   */\n      dup4\n        /* \"#utility.yul\":11082:11086   */\n      dup4\n        /* \"#utility.yul\":11063:11092   */\n      tag_87\n      jump\t// in\n    tag_216:\n        /* \"#utility.yul\":11055:11092   */\n      swap2\n      pop\n        /* \"#utility.yul\":11125:11128   */\n      dup3\n        /* \"#utility.yul\":11122:11123   */\n      0x02\n        /* \"#utility.yul\":11118:11129   */\n      mul\n        /* \"#utility.yul\":11112:11116   */\n      dup3\n        /* \"#utility.yul\":11109:11130   */\n      or\n        /* \"#utility.yul\":11101:11130   */\n      swap1\n      pop\n        /* \"#utility.yul\":10841:11136   */\n      swap3\n      swap2\n      pop\n      pop\n      jump\t// out\n        /* \"#utility.yul\":11141:12536   */\n    tag_47:\n        /* \"#utility.yul\":11258:11295   */\n      tag_218\n        /* \"#utility.yul\":11291:11294   */\n      dup3\n        /* \"#utility.yul\":11258:11295   */\n      tag_56\n      jump\t// in\n    tag_218:\n        /* \"#utility.yul\":11360:11378   */\n      0xffffffffffffffff\n        /* \"#utility.yul\":11352:11358   */\n      dup2\n        /* \"#utility.yul\":11349:11379   */\n      gt\n        /* \"#utility.yul\":11346:11402   */\n      iszero\n      tag_219\n      jumpi\n        /* \"#utility.yul\":11382:11400   */\n      tag_220\n      tag_65\n      jump\t// in\n    tag_220:\n        /* \"#utility.yul\":11346:11402   */\n    tag_219:\n        /* \"#utility.yul\":11426:11464   */\n      tag_221\n        /* \"#utility.yul\":11458:11462   */\n      dup3\n        /* \"#utility.yul\":11452:11463   */\n      sload\n        /* \"#utility.yul\":11426:11464   */\n      tag_35\n      jump\t// in\n    tag_221:\n        /* \"#utility.yul\":11511:11578   */\n      tag_222\n        /* \"#utility.yul\":11571:11577   */\n      dup3\n        /* \"#utility.yul\":11563:11569   */\n      dup3\n        /* \"#utility.yul\":11557:11561   */\n      dup6\n        /* \"#utility.yul\":11511:11578   */\n      tag_85\n      jump\t// in\n    tag_222:\n        /* \"#utility.yul\":11605:11606   */\n      0x00\n        /* \"#utility.yul\":11629:11633   */\n      0x20\n        /* \"#utility.yul\":11616:11633   */\n      swap1\n      pop\n        /* \"#utility.yul\":11661:11663   */\n      0x1f\n        /* \"#utility.yul\":11653:11659   */\n      dup4\n        /* \"#utility.yul\":11650:11664   */\n      gt\n        /* \"#utility.yul\":11678:11679   */\n      0x01\n        /* \"#utility.yul\":11673:12291   */\n      dup2\n      eq\n      tag_224\n      jumpi\n        /* \"#utility.yul\":12335:12336   */\n      0x00\n        /* \"#utility.yul\":12352:12358   */\n      dup5\n        /* \"#utility.yul\":12349:12426   */\n      iszero\n      tag_225\n      jumpi\n        /* \"#utility.yul\":12401:12410   */\n      dup3\n        /* \"#utility.yul\":12396:12399   */\n      dup8\n        /* \"#utility.yul\":12392:12411   */\n      add\n        /* \"#utility.yul\":12386:12412   */\n      mload\n        /* \"#utility.yul\":12377:12412   */\n      swap1\n      pop\n        /* \"#utility.yul\":12349:12426   */\n    tag_225:\n        /* \"#utility.yul\":12452:12519   */\n      tag_226\n        /* \"#utility.yul\":12512:12518   */\n      dup6\n        /* \"#utility.yul\":12505:12510   */\n      dup3\n        /* \"#utility.yul\":12452:12519   */\n      tag_88\n      jump\t// in\n    tag_226:\n        /* \"#utility.yul\":12446:12450   */\n      dup7\n        /* \"#utility.yul\":12439:12520   */\n      sstore\n        /* \"#utility.yul\":12308:12530   */\n      pop\n        /* \"#utility.yul\":11643:12530   */\n      jump(tag_223)\n        /* \"#utility.yul\":11673:12291   */\n    tag_224:\n        /* \"#utility.yul\":11725:11729   */\n      0x1f\n        /* \"#utility.yul\":11721:11730   */\n      not\n        /* \"#utility.yul\":11713:11719   */\n      dup5\n        /* \"#utility.yul\":11709:11731   */\n      and\n        /* \"#utility.yul\":11759:11796   */\n      tag_227\n        /* \"#utility.yul\":11791:11795   */\n      dup7\n        /* \"#utility.yul\":11759:11796   */\n      tag_74\n      jump\t// in\n    tag_227:\n        /* \"#utility.yul\":11818:11819   */\n      0x00\n        /* \"#utility.yul\":11832:12040   */\n    tag_228:\n        /* \"#utility.yul\":11846:11853   */\n      dup3\n        /* \"#utility.yul\":11843:11844   */\n      dup2\n        /* \"#utility.yul\":11840:11854   */\n      lt\n        /* \"#utility.yul\":11832:12040   */\n      iszero\n      tag_230\n      jumpi\n        /* \"#utility.yul\":11925:11934   */\n      dup5\n        /* \"#utility.yul\":11920:11923   */\n      dup10\n        /* \"#utility.yul\":11916:11935   */\n      add\n        /* \"#utility.yul\":11910:11936   */\n      mload\n        /* \"#utility.yul\":11902:11908   */\n      dup3\n        /* \"#utility.yul\":11895:11937   */\n      sstore\n        /* \"#utility.yul\":11976:11977   */\n      0x01\n        /* \"#utility.yul\":11968:11974   */\n      dup3\n        /* \"#utility.yul\":11964:11978   */\n      add\n        /* \"#utility.yul\":11954:11978   */\n      swap2\n      pop\n        /* \"#utility.yul\":12023:12025   */\n      0x20\n        /* \"#utility.yul\":12012:12021   */\n      dup6\n        /* \"#utility.yul\":12008:12026   */\n      add\n        /* \"#utility.yul\":11995:12026   */\n      swap5\n      pop\n        /* \"#utility.yul\":11869:11873   */\n      0x20\n        /* \"#utility.yul\":11866:11867   */\n      dup2\n        /* \"#utility.yul\":11862:11874   */\n      add\n        /* \"#utility.yul\":11857:11874   */\n      swap1\n      pop\n        /* \"#utility.yul\":11832:12040   */\n      jump(tag_228)\n    tag_230:\n        /* \"#utility.yul\":12068:12074   */\n      dup7\n        /* \"#utility.yul\":12059:12066   */\n      dup4\n        /* \"#utility.yul\":12056:12075   */\n      lt\n        /* \"#utility.yul\":12053:12232   */\n      iszero\n      tag_231\n      jumpi\n        /* \"#utility.yul\":12126:12135   */\n      dup5\n        /* \"#utility.yul\":12121:12124   */\n      dup10\n        /* \"#utility.yul\":12117:12136   */\n      add\n        /* \"#utility.yul\":12111:12137   */\n      mload\n        /* \"#utility.yul\":12169:12217   */\n      tag_232\n        /* \"#utility.yul\":12211:12215   */\n      0x1f\n        /* \"#utility.yul\":12203:12209   */\n      dup10\n        /* \"#utility.yul\":12199:12216   */\n      and\n        /* \"#utility.yul\":12188:12197   */\n      dup3\n        /* \"#utility.yul\":12169:12217   */\n      tag_87\n      jump\t// in\n    tag_232:\n        /* \"#utility.yul\":12161:12167   */\n      dup4\n        /* \"#utility.yul\":12154:12218   */\n      sstore\n        /* \"#utility.yul\":12076:12232   */\n      pop\n        /* \"#utility.yul\":12053:12232   */\n    tag_231:\n        /* \"#utility.yul\":12278:12279   */\n      0x01\n        /* \"#utility.yul\":12274:12275   */\n      0x02\n        /* \"#utility.yul\":12266:12272   */\n      dup9\n        /* \"#utility.yul\":12262:12276   */\n      mul\n        /* \"#utility.yul\":12258:12280   */\n      add\n        /* \"#utility.yul\":12252:12256   */\n      dup9\n        /* \"#utility.yul\":12245:12281   */\n      sstore\n        /* \"#utility.yul\":11680:12291   */\n      pop\n      pop\n      pop\n        /* \"#utility.yul\":11643:12530   */\n    tag_223:\n      pop\n        /* \"#utility.yul\":11233:12536   */\n      pop\n      pop\n      pop\n        /* \"#utility.yul\":11141:12536   */\n      pop\n      pop\n      jump\t// out\n\n    auxdata: 0xa2646970667358221220c42cf58f04b6605ca782dfd04a476fffbbf59eb22005ef935510984b560e898364736f6c63430008220033\n}\n",
				"bytecode": {
					"linkReferences": {},
					"object": "6080604052348015600e575f5ffd5b506109948061001c5f395ff3fe608060405234801561000f575f5ffd5b5060043610610055575f3560e01c80631686f265146100595780632e5effac146100775780638e201b9d146100a95780639584c56b146100c5578063b80426d7146100f5575b5f5ffd5b610061610111565b60405161006e91906102b4565b60405180910390f35b610091600480360381019061008c9190610311565b610119565b6040516100a0939291906103ac565b60405180910390f35b6100c360048036038101906100be9190610412565b6101d4565b005b6100df60048036038101906100da919061043d565b6101dd565b6040516100ec91906102b4565b60405180910390f35b61010f600480360381019061010a91906105a7565b6101f2565b005b5f5f54905090565b60018181548110610128575f80fd5b905f5260205f2090600302015f91509050805f01549080600101805461014d90610640565b80601f016020809104026020016040519081016040528092919081815260200182805461017990610640565b80156101c45780601f1061019b576101008083540402835291602001916101c4565b820191905f5260205f20905b8154815290600101906020018083116101a757829003601f168201915b5050505050908060020154905083565b805f8190555050565b5f81836101ea919061069d565b905092915050565b6040518060400160405280600481526020017f736161640000000000000000000000000000000000000000000000000000000081525091506001604051806060016040528085815260200184815260200183815250908060018154018082558091505060019003905f5260205f2090600302015f909190919091505f820151815f0155602082015181600101908161028a919061088f565b50604082015181600201555050505050565b5f819050919050565b6102ae8161029c565b82525050565b5f6020820190506102c75f8301846102a5565b92915050565b5f604051905090565b5f5ffd5b5f5ffd5b5f819050919050565b6102f0816102de565b81146102fa575f5ffd5b50565b5f8135905061030b816102e7565b92915050565b5f60208284031215610326576103256102d6565b5b5f610333848285016102fd565b91505092915050565b5f81519050919050565b5f82825260208201905092915050565b8281835e5f83830152505050565b5f601f19601f8301169050919050565b5f61037e8261033c565b6103888185610346565b9350610398818560208601610356565b6103a181610364565b840191505092915050565b5f6060820190506103bf5f8301866102a5565b81810360208301526103d18185610374565b90506103e060408301846102a5565b949350505050565b6103f18161029c565b81146103fb575f5ffd5b50565b5f8135905061040c816103e8565b92915050565b5f60208284031215610427576104266102d6565b5b5f610434848285016103fe565b91505092915050565b5f5f60408385031215610453576104526102d6565b5b5f610460858286016103fe565b9250506020610471858286016103fe565b9150509250929050565b5f5ffd5b5f5ffd5b7f4e487b71000000000000000000000000000000000000000000000000000000005f52604160045260245ffd5b6104b982610364565b810181811067ffffffffffffffff821117156104d8576104d7610483565b5b80604052505050565b5f6104ea6102cd565b90506104f682826104b0565b919050565b5f67ffffffffffffffff82111561051557610514610483565b5b61051e82610364565b9050602081019050919050565b828183375f83830152505050565b5f61054b610546846104fb565b6104e1565b9050828152602081018484840111156105675761056661047f565b5b61057284828561052b565b509392505050565b5f82601f83011261058e5761058d61047b565b5b813561059e848260208601610539565b91505092915050565b5f5f5f606084860312156105be576105bd6102d6565b5b5f6105cb868287016103fe565b935050602084013567ffffffffffffffff8111156105ec576105eb6102da565b5b6105f88682870161057a565b9250506040610609868287016103fe565b9150509250925092565b7f4e487b71000000000000000000000000000000000000000000000000000000005f52602260045260245ffd5b5f600282049050600182168061065757607f821691505b60208210810361066a57610669610613565b5b50919050565b7f4e487b71000000000000000000000000000000000000000000000000000000005f52601160045260245ffd5b5f6106a78261029c565b91506106b28361029c565b92508282019050828112155f8312168382125f8412151617156106d8576106d7610670565b5b92915050565b5f819050815f5260205f209050919050565b5f6020601f8301049050919050565b5f82821b905092915050565b5f6008830261073a7fffffffffffffffffffffffffffffffffffffffffffffffffffffffffffffffff826106ff565b61074486836106ff565b95508019841693508086168417925050509392505050565b5f819050919050565b5f61077f61077a610775846102de565b61075c565b6102de565b9050919050565b5f819050919050565b61079883610765565b6107ac6107a482610786565b84845461070b565b825550505050565b5f5f905090565b6107c36107b4565b6107ce81848461078f565b505050565b5f5b828110156107f4576107e95f8284016107bb565b6001810190506107d5565b505050565b601f821115610847578282111561084657610813816106de565b61081c836106f0565b610825856106f0565b6020861015610832575f90505b808301610841828403826107d3565b505050505b5b505050565b5f82821c905092915050565b5f6108675f198460080261084c565b1980831691505092915050565b5f61087f8383610858565b9150826002028217905092915050565b6108988261033c565b67ffffffffffffffff8111156108b1576108b0610483565b5b6108bb8254610640565b6108c68282856107f9565b5f60209050601f8311600181146108f7575f84156108e5578287015190505b6108ef8582610874565b865550610956565b601f198416610905866106de565b5f5b8281101561092c57848901518255600182019150602085019450602081019050610907565b868310156109495784890151610945601f891682610858565b8355505b6001600288020188555050505b50505050505056fea2646970667358221220c42cf58f04b6605ca782dfd04a476fffbbf59eb22005ef935510984b560e898364736f6c63430008220033",
					"opcodes": "PUSH1 0x80 PUSH1 0x40 MSTORE CALLVALUE DUP1 ISZERO PUSH1 0xE JUMPI PUSH0 PUSH0 REVERT JUMPDEST POP PUSH2 0x994 DUP1 PUSH2 0x1C PUSH0 CODECOPY PUSH0 RETURN INVALID PUSH1 0x80 PUSH1 0x40 MSTORE CALLVALUE DUP1 ISZERO PUSH2 0xF JUMPI PUSH0 PUSH0 REVERT JUMPDEST POP PUSH1 0x4 CALLDATASIZE LT PUSH2 0x55 JUMPI PUSH0 CALLDATALOAD PUSH1 0xE0 SHR DUP1 PUSH4 0x1686F265 EQ PUSH2 0x59 JUMPI DUP1 PUSH4 0x2E5EFFAC EQ PUSH2 0x77 JUMPI DUP1 PUSH4 0x8E201B9D EQ PUSH2 0xA9 JUMPI DUP1 PUSH4 0x9584C56B EQ PUSH2 0xC5 JUMPI DUP1 PUSH4 0xB80426D7 EQ PUSH2 0xF5 JUMPI JUMPDEST PUSH0 PUSH0 REVERT JUMPDEST PUSH2 0x61 PUSH2 0x111 JUMP JUMPDEST PUSH1 0x40 MLOAD PUSH2 0x6E SWAP2 SWAP1 PUSH2 0x2B4 JUMP JUMPDEST PUSH1 0x40 MLOAD DUP1 SWAP2 SUB SWAP1 RETURN JUMPDEST PUSH2 0x91 PUSH1 0x4 DUP1 CALLDATASIZE SUB DUP2 ADD SWAP1 PUSH2 0x8C SWAP2 SWAP1 PUSH2 0x311 JUMP JUMPDEST PUSH2 0x119 JUMP JUMPDEST PUSH1 0x40 MLOAD PUSH2 0xA0 SWAP4 SWAP3 SWAP2 SWAP1 PUSH2 0x3AC JUMP JUMPDEST PUSH1 0x40 MLOAD DUP1 SWAP2 SUB SWAP1 RETURN JUMPDEST PUSH2 0xC3 PUSH1 0x4 DUP1 CALLDATASIZE SUB DUP2 ADD SWAP1 PUSH2 0xBE SWAP2 SWAP1 PUSH2 0x412 JUMP JUMPDEST PUSH2 0x1D4 JUMP JUMPDEST STOP JUMPDEST PUSH2 0xDF PUSH1 0x4 DUP1 CALLDATASIZE SUB DUP2 ADD SWAP1 PUSH2 0xDA SWAP2 SWAP1 PUSH2 0x43D JUMP JUMPDEST PUSH2 0x1DD JUMP JUMPDEST PUSH1 0x40 MLOAD PUSH2 0xEC SWAP2 SWAP1 PUSH2 0x2B4 JUMP JUMPDEST PUSH1 0x40 MLOAD DUP1 SWAP2 SUB SWAP1 RETURN JUMPDEST PUSH2 0x10F PUSH1 0x4 DUP1 CALLDATASIZE SUB DUP2 ADD SWAP1 PUSH2 0x10A SWAP2 SWAP1 PUSH2 0x5A7 JUMP JUMPDEST PUSH2 0x1F2 JUMP JUMPDEST STOP JUMPDEST PUSH0 PUSH0 SLOAD SWAP1 POP SWAP1 JUMP JUMPDEST PUSH1 0x1 DUP2 DUP2 SLOAD DUP2 LT PUSH2 0x128 JUMPI PUSH0 DUP1 REVERT JUMPDEST SWAP1 PUSH0 MSTORE PUSH1 0x20 PUSH0 KECCAK256 SWAP1 PUSH1 0x3 MUL ADD PUSH0 SWAP2 POP SWAP1 POP DUP1 PUSH0 ADD SLOAD SWAP1 DUP1 PUSH1 0x1 ADD DUP1 SLOAD PUSH2 0x14D SWAP1 PUSH2 0x640 JUMP JUMPDEST DUP1 PUSH1 0x1F ADD PUSH1 0x20 DUP1 SWAP2 DIV MUL PUSH1 0x20 ADD PUSH1 0x40 MLOAD SWAP1 DUP2 ADD PUSH1 0x40 MSTORE DUP1 SWAP3 SWAP2 SWAP1 DUP2 DUP2 MSTORE PUSH1 0x20 ADD DUP3 DUP1 SLOAD PUSH2 0x179 SWAP1 PUSH2 0x640 JUMP JUMPDEST DUP1 ISZERO PUSH2 0x1C4 JUMPI DUP1 PUSH1 0x1F LT PUSH2 0x19B JUMPI PUSH2 0x100 DUP1 DUP4 SLOAD DIV MUL DUP4 MSTORE SWAP2 PUSH1 0x20 ADD SWAP2 PUSH2 0x1C4 JUMP JUMPDEST DUP3 ADD SWAP2 SWAP1 PUSH0 MSTORE PUSH1 0x20 PUSH0 KECCAK256 SWAP1 JUMPDEST DUP2 SLOAD DUP2 MSTORE SWAP1 PUSH1 0x1 ADD SWAP1 PUSH1 0x20 ADD DUP1 DUP4 GT PUSH2 0x1A7 JUMPI DUP3 SWAP1 SUB PUSH1 0x1F AND DUP3 ADD SWAP2 JUMPDEST POP POP POP POP POP SWAP1 DUP1 PUSH1 0x2 ADD SLOAD SWAP1 POP DUP4 JUMP JUMPDEST DUP1 PUSH0 DUP2 SWAP1 SSTORE POP POP JUMP JUMPDEST PUSH0 DUP2 DUP4 PUSH2 0x1EA SWAP2 SWAP1 PUSH2 0x69D JUMP JUMPDEST SWAP1 POP SWAP3 SWAP2 POP POP JUMP JUMPDEST PUSH1 0x40 MLOAD DUP1 PUSH1 0x40 ADD PUSH1 0x40 MSTORE DUP1 PUSH1 0x4 DUP2 MSTORE PUSH1 0x20 ADD PUSH32 0x7361616400000000000000000000000000000000000000000000000000000000 DUP2 MSTORE POP SWAP2 POP PUSH1 0x1 PUSH1 0x40 MLOAD DUP1 PUSH1 0x60 ADD PUSH1 0x40 MSTORE DUP1 DUP6 DUP2 MSTORE PUSH1 0x20 ADD DUP5 DUP2 MSTORE PUSH1 0x20 ADD DUP4 DUP2 MSTORE POP SWAP1 DUP1 PUSH1 0x1 DUP2 SLOAD ADD DUP1 DUP3 SSTORE DUP1 SWAP2 POP POP PUSH1 0x1 SWAP1 SUB SWAP1 PUSH0 MSTORE PUSH1 0x20 PUSH0 KECCAK256 SWAP1 PUSH1 0x3 MUL ADD PUSH0 SWAP1 SWAP2 SWAP1 SWAP2 SWAP1 SWAP2 POP PUSH0 DUP3 ADD MLOAD DUP2 PUSH0 ADD SSTORE PUSH1 0x20 DUP3 ADD MLOAD DUP2 PUSH1 0x1 ADD SWAP1 DUP2 PUSH2 0x28A SWAP2 SWAP1 PUSH2 0x88F JUMP JUMPDEST POP PUSH1 0x40 DUP3 ADD MLOAD DUP2 PUSH1 0x2 ADD SSTORE POP POP POP POP POP JUMP JUMPDEST PUSH0 DUP2 SWAP1 POP SWAP2 SWAP1 POP JUMP JUMPDEST PUSH2 0x2AE DUP2 PUSH2 0x29C JUMP JUMPDEST DUP3 MSTORE POP POP JUMP JUMPDEST PUSH0 PUSH1 0x20 DUP3 ADD SWAP1 POP PUSH2 0x2C7 PUSH0 DUP4 ADD DUP5 PUSH2 0x2A5 JUMP JUMPDEST SWAP3 SWAP2 POP POP JUMP JUMPDEST PUSH0 PUSH1 0x40 MLOAD SWAP1 POP SWAP1 JUMP JUMPDEST PUSH0 PUSH0 REVERT JUMPDEST PUSH0 PUSH0 REVERT JUMPDEST PUSH0 DUP2 SWAP1 POP SWAP2 SWAP1 POP JUMP JUMPDEST PUSH2 0x2F0 DUP2 PUSH2 0x2DE JUMP JUMPDEST DUP2 EQ PUSH2 0x2FA JUMPI PUSH0 PUSH0 REVERT JUMPDEST POP JUMP JUMPDEST PUSH0 DUP2 CALLDATALOAD SWAP1 POP PUSH2 0x30B DUP2 PUSH2 0x2E7 JUMP JUMPDEST SWAP3 SWAP2 POP POP JUMP JUMPDEST PUSH0 PUSH1 0x20 DUP3 DUP5 SUB SLT ISZERO PUSH2 0x326 JUMPI PUSH2 0x325 PUSH2 0x2D6 JUMP JUMPDEST JUMPDEST PUSH0 PUSH2 0x333 DUP5 DUP3 DUP6 ADD PUSH2 0x2FD JUMP JUMPDEST SWAP2 POP POP SWAP3 SWAP2 POP POP JUMP JUMPDEST PUSH0 DUP2 MLOAD SWAP1 POP SWAP2 SWAP1 POP JUMP JUMPDEST PUSH0 DUP3 DUP3 MSTORE PUSH1 0x20 DUP3 ADD SWAP1 POP SWAP3 SWAP2 POP POP JUMP JUMPDEST DUP3 DUP2 DUP4 MCOPY PUSH0 DUP4 DUP4 ADD MSTORE POP POP POP JUMP JUMPDEST PUSH0 PUSH1 0x1F NOT PUSH1 0x1F DUP4 ADD AND SWAP1 POP SWAP2 SWAP1 POP JUMP JUMPDEST PUSH0 PUSH2 0x37E DUP3 PUSH2 0x33C JUMP JUMPDEST PUSH2 0x388 DUP2 DUP6 PUSH2 0x346 JUMP JUMPDEST SWAP4 POP PUSH2 0x398 DUP2 DUP6 PUSH1 0x20 DUP7 ADD PUSH2 0x356 JUMP JUMPDEST PUSH2 0x3A1 DUP2 PUSH2 0x364 JUMP JUMPDEST DUP5 ADD SWAP2 POP POP SWAP3 SWAP2 POP POP JUMP JUMPDEST PUSH0 PUSH1 0x60 DUP3 ADD SWAP1 POP PUSH2 0x3BF PUSH0 DUP4 ADD DUP7 PUSH2 0x2A5 JUMP JUMPDEST DUP2 DUP2 SUB PUSH1 0x20 DUP4 ADD MSTORE PUSH2 0x3D1 DUP2 DUP6 PUSH2 0x374 JUMP JUMPDEST SWAP1 POP PUSH2 0x3E0 PUSH1 0x40 DUP4 ADD DUP5 PUSH2 0x2A5 JUMP JUMPDEST SWAP5 SWAP4 POP POP POP POP JUMP JUMPDEST PUSH2 0x3F1 DUP2 PUSH2 0x29C JUMP JUMPDEST DUP2 EQ PUSH2 0x3FB JUMPI PUSH0 PUSH0 REVERT JUMPDEST POP JUMP JUMPDEST PUSH0 DUP2 CALLDATALOAD SWAP1 POP PUSH2 0x40C DUP2 PUSH2 0x3E8 JUMP JUMPDEST SWAP3 SWAP2 POP POP JUMP JUMPDEST PUSH0 PUSH1 0x20 DUP3 DUP5 SUB SLT ISZERO PUSH2 0x427 JUMPI PUSH2 0x426 PUSH2 0x2D6 JUMP JUMPDEST JUMPDEST PUSH0 PUSH2 0x434 DUP5 DUP3 DUP6 ADD PUSH2 0x3FE JUMP JUMPDEST SWAP2 POP POP SWAP3 SWAP2 POP POP JUMP JUMPDEST PUSH0 PUSH0 PUSH1 0x40 DUP4 DUP6 SUB SLT ISZERO PUSH2 0x453 JUMPI PUSH2 0x452 PUSH2 0x2D6 JUMP JUMPDEST JUMPDEST PUSH0 PUSH2 0x460 DUP6 DUP3 DUP7 ADD PUSH2 0x3FE JUMP JUMPDEST SWAP3 POP POP PUSH1 0x20 PUSH2 0x471 DUP6 DUP3 DUP7 ADD PUSH2 0x3FE JUMP JUMPDEST SWAP2 POP POP SWAP3 POP SWAP3 SWAP1 POP JUMP JUMPDEST PUSH0 PUSH0 REVERT JUMPDEST PUSH0 PUSH0 REVERT JUMPDEST PUSH32 0x4E487B7100000000000000000000000000000000000000000000000000000000 PUSH0 MSTORE PUSH1 0x41 PUSH1 0x4 MSTORE PUSH1 0x24 PUSH0 REVERT JUMPDEST PUSH2 0x4B9 DUP3 PUSH2 0x364 JUMP JUMPDEST DUP2 ADD DUP2 DUP2 LT PUSH8 0xFFFFFFFFFFFFFFFF DUP3 GT OR ISZERO PUSH2 0x4D8 JUMPI PUSH2 0x4D7 PUSH2 0x483 JUMP JUMPDEST JUMPDEST DUP1 PUSH1 0x40 MSTORE POP POP POP JUMP JUMPDEST PUSH0 PUSH2 0x4EA PUSH2 0x2CD JUMP JUMPDEST SWAP1 POP PUSH2 0x4F6 DUP3 DUP3 PUSH2 0x4B0 JUMP JUMPDEST SWAP2 SWAP1 POP JUMP JUMPDEST PUSH0 PUSH8 0xFFFFFFFFFFFFFFFF DUP3 GT ISZERO PUSH2 0x515 JUMPI PUSH2 0x514 PUSH2 0x483 JUMP JUMPDEST JUMPDEST PUSH2 0x51E DUP3 PUSH2 0x364 JUMP JUMPDEST SWAP1 POP PUSH1 0x20 DUP2 ADD SWAP1 POP SWAP2 SWAP1 POP JUMP JUMPDEST DUP3 DUP2 DUP4 CALLDATACOPY PUSH0 DUP4 DUP4 ADD MSTORE POP POP POP JUMP JUMPDEST PUSH0 PUSH2 0x54B PUSH2 0x546 DUP5 PUSH2 0x4FB JUMP JUMPDEST PUSH2 0x4E1 JUMP JUMPDEST SWAP1 POP DUP3 DUP2 MSTORE PUSH1 0x20 DUP2 ADD DUP5 DUP5 DUP5 ADD GT ISZERO PUSH2 0x567 JUMPI PUSH2 0x566 PUSH2 0x47F JUMP JUMPDEST JUMPDEST PUSH2 0x572 DUP5 DUP3 DUP6 PUSH2 0x52B JUMP JUMPDEST POP SWAP4 SWAP3 POP POP POP JUMP JUMPDEST PUSH0 DUP3 PUSH1 0x1F DUP4 ADD SLT PUSH2 0x58E JUMPI PUSH2 0x58D PUSH2 0x47B JUMP JUMPDEST JUMPDEST DUP2 CALLDATALOAD PUSH2 0x59E DUP5 DUP3 PUSH1 0x20 DUP7 ADD PUSH2 0x539 JUMP JUMPDEST SWAP2 POP POP SWAP3 SWAP2 POP POP JUMP JUMPDEST PUSH0 PUSH0 PUSH0 PUSH1 0x60 DUP5 DUP7 SUB SLT ISZERO PUSH2 0x5BE JUMPI PUSH2 0x5BD PUSH2 0x2D6 JUMP JUMPDEST JUMPDEST PUSH0 PUSH2 0x5CB DUP7 DUP3 DUP8 ADD PUSH2 0x3FE JUMP JUMPDEST SWAP4 POP POP PUSH1 0x20 DUP5 ADD CALLDATALOAD PUSH8 0xFFFFFFFFFFFFFFFF DUP2 GT ISZERO PUSH2 0x5EC JUMPI PUSH2 0x5EB PUSH2 0x2DA JUMP JUMPDEST JUMPDEST PUSH2 0x5F8 DUP7 DUP3 DUP8 ADD PUSH2 0x57A JUMP JUMPDEST SWAP3 POP POP PUSH1 0x40 PUSH2 0x609 DUP7 DUP3 DUP8 ADD PUSH2 0x3FE JUMP JUMPDEST SWAP2 POP POP SWAP3 POP SWAP3 POP SWAP3 JUMP JUMPDEST PUSH32 0x4E487B7100000000000000000000000000000000000000000000000000000000 PUSH0 MSTORE PUSH1 0x22 PUSH1 0x4 MSTORE PUSH1 0x24 PUSH0 REVERT JUMPDEST PUSH0 PUSH1 0x2 DUP3 DIV SWAP1 POP PUSH1 0x1 DUP3 AND DUP1 PUSH2 0x657 JUMPI PUSH1 0x7F DUP3 AND SWAP2 POP JUMPDEST PUSH1 0x20 DUP3 LT DUP2 SUB PUSH2 0x66A JUMPI PUSH2 0x669 PUSH2 0x613 JUMP JUMPDEST JUMPDEST POP SWAP2 SWAP1 POP JUMP JUMPDEST PUSH32 0x4E487B7100000000000000000000000000000000000000000000000000000000 PUSH0 MSTORE PUSH1 0x11 PUSH1 0x4 MSTORE PUSH1 0x24 PUSH0 REVERT JUMPDEST PUSH0 PUSH2 0x6A7 DUP3 PUSH2 0x29C JUMP JUMPDEST SWAP2 POP PUSH2 0x6B2 DUP4 PUSH2 0x29C JUMP JUMPDEST SWAP3 POP DUP3 DUP3 ADD SWAP1 POP DUP3 DUP2 SLT ISZERO PUSH0 DUP4 SLT AND DUP4 DUP3 SLT PUSH0 DUP5 SLT ISZERO AND OR ISZERO PUSH2 0x6D8 JUMPI PUSH2 0x6D7 PUSH2 0x670 JUMP JUMPDEST JUMPDEST SWAP3 SWAP2 POP POP JUMP JUMPDEST PUSH0 DUP2 SWAP1 POP DUP2 PUSH0 MSTORE PUSH1 0x20 PUSH0 KECCAK256 SWAP1 POP SWAP2 SWAP1 POP JUMP JUMPDEST PUSH0 PUSH1 0x20 PUSH1 0x1F DUP4 ADD DIV SWAP1 POP SWAP2 SWAP1 POP JUMP JUMPDEST PUSH0 DUP3 DUP3 SHL SWAP1 POP SWAP3 SWAP2 POP POP JUMP JUMPDEST PUSH0 PUSH1 0x8 DUP4 MUL PUSH2 0x73A PUSH32 0xFFFFFFFFFFFFFFFFFFFFFFFFFFFFFFFFFFFFFFFFFFFFFFFFFFFFFFFFFFFFFFFF DUP3 PUSH2 0x6FF JUMP JUMPDEST PUSH2 0x744 DUP7 DUP4 PUSH2 0x6FF JUMP JUMPDEST SWAP6 POP DUP1 NOT DUP5 AND SWAP4 POP DUP1 DUP7 AND DUP5 OR SWAP3 POP POP POP SWAP4 SWAP3 POP POP POP JUMP JUMPDEST PUSH0 DUP2 SWAP1 POP SWAP2 SWAP1 POP JUMP JUMPDEST PUSH0 PUSH2 0x77F PUSH2 0x77A PUSH2 0x775 DUP5 PUSH2 0x2DE JUMP JUMPDEST PUSH2 0x75C JUMP JUMPDEST PUSH2 0x2DE JUMP JUMPDEST SWAP1 POP SWAP2 SWAP1 POP JUMP JUMPDEST PUSH0 DUP2 SWAP1 POP SWAP2 SWAP1 POP JUMP JUMPDEST PUSH2 0x798 DUP4 PUSH2 0x765 JUMP JUMPDEST PUSH2 0x7AC PUSH2 0x7A4 DUP3 PUSH2 0x786 JUMP JUMPDEST DUP5 DUP5 SLOAD PUSH2 0x70B JUMP JUMPDEST DUP3 SSTORE POP POP POP POP JUMP JUMPDEST PUSH0 PUSH0 SWAP1 POP SWAP1 JUMP JUMPDEST PUSH2 0x7C3 PUSH2 0x7B4 JUMP JUMPDEST PUSH2 0x7CE DUP2 DUP5 DUP5 PUSH2 0x78F JUMP JUMPDEST POP POP POP JUMP JUMPDEST PUSH0 JUMPDEST DUP3 DUP2 LT ISZERO PUSH2 0x7F4 JUMPI PUSH2 0x7E9 PUSH0 DUP3 DUP5 ADD PUSH2 0x7BB JUMP JUMPDEST PUSH1 0x1 DUP2 ADD SWAP1 POP PUSH2 0x7D5 JUMP JUMPDEST POP POP POP JUMP JUMPDEST PUSH1 0x1F DUP3 GT ISZERO PUSH2 0x847 JUMPI DUP3 DUP3 GT ISZERO PUSH2 0x846 JUMPI PUSH2 0x813 DUP2 PUSH2 0x6DE JUMP JUMPDEST PUSH2 0x81C DUP4 PUSH2 0x6F0 JUMP JUMPDEST PUSH2 0x825 DUP6 PUSH2 0x6F0 JUMP JUMPDEST PUSH1 0x20 DUP7 LT ISZERO PUSH2 0x832 JUMPI PUSH0 SWAP1 POP JUMPDEST DUP1 DUP4 ADD PUSH2 0x841 DUP3 DUP5 SUB DUP3 PUSH2 0x7D3 JUMP JUMPDEST POP POP POP POP JUMPDEST JUMPDEST POP POP POP JUMP JUMPDEST PUSH0 DUP3 DUP3 SHR SWAP1 POP SWAP3 SWAP2 POP POP JUMP JUMPDEST PUSH0 PUSH2 0x867 PUSH0 NOT DUP5 PUSH1 0x8 MUL PUSH2 0x84C JUMP JUMPDEST NOT DUP1 DUP4 AND SWAP2 POP POP SWAP3 SWAP2 POP POP JUMP JUMPDEST PUSH0 PUSH2 0x87F DUP4 DUP4 PUSH2 0x858 JUMP JUMPDEST SWAP2 POP DUP3 PUSH1 0x2 MUL DUP3 OR SWAP1 POP SWAP3 SWAP2 POP POP JUMP JUMPDEST PUSH2 0x898 DUP3 PUSH2 0x33C JUMP JUMPDEST PUSH8 0xFFFFFFFFFFFFFFFF DUP2 GT ISZERO PUSH2 0x8B1 JUMPI PUSH2 0x8B0 PUSH2 0x483 JUMP JUMPDEST JUMPDEST PUSH2 0x8BB DUP3 SLOAD PUSH2 0x640 JUMP JUMPDEST PUSH2 0x8C6 DUP3 DUP3 DUP6 PUSH2 0x7F9 JUMP JUMPDEST PUSH0 PUSH1 0x20 SWAP1 POP PUSH1 0x1F DUP4 GT PUSH1 0x1 DUP2 EQ PUSH2 0x8F7 JUMPI PUSH0 DUP5 ISZERO PUSH2 0x8E5 JUMPI DUP3 DUP8 ADD MLOAD SWAP1 POP JUMPDEST PUSH2 0x8EF DUP6 DUP3 PUSH2 0x874 JUMP JUMPDEST DUP7 SSTORE POP PUSH2 0x956 JUMP JUMPDEST PUSH1 0x1F NOT DUP5 AND PUSH2 0x905 DUP7 PUSH2 0x6DE JUMP JUMPDEST PUSH0 JUMPDEST DUP3 DUP2 LT ISZERO PUSH2 0x92C JUMPI DUP5 DUP10 ADD MLOAD DUP3 SSTORE PUSH1 0x1 DUP3 ADD SWAP2 POP PUSH1 0x20 DUP6 ADD SWAP5 POP PUSH1 0x20 DUP2 ADD SWAP1 POP PUSH2 0x907 JUMP JUMPDEST DUP7 DUP4 LT ISZERO PUSH2 0x949 JUMPI DUP5 DUP10 ADD MLOAD PUSH2 0x945 PUSH1 0x1F DUP10 AND DUP3 PUSH2 0x858 JUMP JUMPDEST DUP4 SSTORE POP JUMPDEST PUSH1 0x1 PUSH1 0x2 DUP9 MUL ADD DUP9 SSTORE POP POP POP JUMPDEST POP POP POP POP POP POP JUMP INVALID LOG2 PUSH5 0x6970667358 0x22 SLT KECCAK256 0xC4 0x2C CREATE2 DUP16 DIV 0xB6 PUSH1 0x5C 0xA7 DUP3 0xDF 0xD0 BLOBBASEFEE SELFBALANCE PUSH16 0xFFBBF59EB22005EF935510984B560E89 DUP4 PUSH5 0x736F6C6343 STOP ADDMOD 0x22 STOP CALLER "
				},
				"gasEstimates": {
					"creation": {
						"codeDepositCost": "490400",
						"executionCost": "522",
						"totalCost": "490922"
					},
					"external": {
						"GetNumber(int256)": "22536",
						"Pure(int256,int256)": "infinite",
						"View()": "2409",
						"addpeople(int256,string,int256)": "infinite",
						"listofPeople(uint256)": "infinite"
					}
				},
				"methodIdentifiers": {
					"GetNumber(int256)": "8e201b9d",
					"Pure(int256,int256)": "9584c56b",
					"View()": "1686f265",
					"addpeople(int256,string,int256)": "b80426d7",
					"listofPeople(uint256)": "2e5effac"
				}
			},
			"storageLayout": {
				"storage": [
					{
						"astId": 3,
						"contract": "SimpleStorage/storageCalldataMemory.sol:Storage",
						"label": "number",
						"offset": 0,
						"slot": "0",
						"type": "t_int256"
					},
					{
						"astId": 14,
						"contract": "SimpleStorage/storageCalldataMemory.sol:Storage",
						"label": "listofPeople",
						"offset": 0,
						"slot": "1",
						"type": "t_array(t_struct(Details)10_storage)dyn_storage"
					}
				],
				"types": {
					"t_array(t_struct(Details)10_storage)dyn_storage": {
						"base": "t_struct(Details)10_storage",
						"encoding": "dynamic_array",
						"label": "struct Storage.Details[]",
						"numberOfBytes": "32"
					},
					"t_int256": {
						"encoding": "inplace",
						"label": "int256",
						"numberOfBytes": "32"
					},
					"t_string_storage": {
						"encoding": "bytes",
						"label": "string",
						"numberOfBytes": "32"
					},
					"t_struct(Details)10_storage": {
						"encoding": "inplace",
						"label": "struct Storage.Details",
						"members": [
							{
								"astId": 5,
								"contract": "SimpleStorage/storageCalldataMemory.sol:Storage",
								"label": "id",
								"offset": 0,
								"slot": "0",
								"type": "t_int256"
							},
							{
								"astId": 7,
								"contract": "SimpleStorage/storageCalldataMemory.sol:Storage",
								"label": "name",
								"offset": 0,
								"slot": "1",
								"type": "t_string_storage"
							},
							{
								"astId": 9,
								"contract": "SimpleStorage/storageCalldataMemory.sol:Storage",
								"label": "age",
								"offset": 0,
								"slot": "2",
								"type": "t_int256"
							}
						],
						"numberOfBytes": "96"
					}
				}
			},
			"userdoc": {
				"kind": "user",
				"methods": {},
				"version": 1
			}
		}
	}
}