{
	"data": {
		"bytecode": {
			"linkReferences": {},
			"object": "6080604052348015600e575f5ffd5b50610c2c8061001c5f395ff3fe608060405234801561000f575f5ffd5b506004361061007b575f3560e01c8063b0e1e1b511610059578063b0e1e1b5146100d7578063dee940d9146100f3578063e14d263214610123578063fb74ad85146101535761007b565b806346e762df1461007f5780634e70b1dc1461009b5780635ae5c08f146100b9575b5f5ffd5b6100996004803603810190610094919061049e565b610185565b005b6100a361019a565b6040516100b091906104d8565b60405180910390f35b6100c161019f565b6040516100ce91906104d8565b60405180910390f35b6100f160048036038101906100ec919061062d565b6101a7565b005b61010d600480360381019061010891906106b5565b610251565b60405161011a919061075c565b60405180910390f35b61013d6004803603810190610138919061077c565b610304565b60405161014a91906104d8565b60405180910390f35b61016d600480360381019061016891906107ed565b610319565b60405161017c93929190610818565b60405180910390f35b6005816101929190610888565b5f8190555050565b5f5481565b5f5f54905090565b6001604051806060016040528085815260200184815260200183815250908060018154018082558091505060019003905f5260205f2090600302015f909190919091505f820151815f015560208201518160010190816102079190610ad7565b50604082015181600201908161021d9190610ad7565b505050806002836040516102319190610be0565b9081526020016040518091039020908161024b9190610ad7565b50505050565b6002818051602081018201805184825260208301602085012081835280955050505050505f915090508054610285906108f6565b80601f01602080910402602001604051908101604052809291908181526020018280546102b1906108f6565b80156102fc5780601f106102d3576101008083540402835291602001916102fc565b820191905f5260205f20905b8154815290600101906020018083116102df57829003601f168201915b505050505081565b5f81836103119190610888565b905092915050565b60018181548110610328575f80fd5b905f5260205f2090600302015f91509050805f01549080600101805461034d906108f6565b80601f0160208091040260200160405190810160405280929190818152602001828054610379906108f6565b80156103c45780601f1061039b576101008083540402835291602001916103c4565b820191905f5260205f20905b8154815290600101906020018083116103a757829003601f168201915b5050505050908060020180546103d9906108f6565b80601f0160208091040260200160405190810160405280929190818152602001828054610405906108f6565b80156104505780601f1061042757610100808354040283529160200191610450565b820191905f5260205f20905b81548152906001019060200180831161043357829003601f168201915b5050505050905083565b5f604051905090565b5f5ffd5b5f5ffd5b5f819050919050565b61047d8161046b565b8114610487575f5ffd5b50565b5f8135905061049881610474565b92915050565b5f602082840312156104b3576104b2610463565b5b5f6104c08482850161048a565b91505092915050565b6104d28161046b565b82525050565b5f6020820190506104eb5f8301846104c9565b92915050565b5f5ffd5b5f5ffd5b5f601f19601f8301169050919050565b7f4e487b71000000000000000000000000000000000000000000000000000000005f52604160045260245ffd5b61053f826104f9565b810181811067ffffffffffffffff8211171561055e5761055d610509565b5b80604052505050565b5f61057061045a565b905061057c8282610536565b919050565b5f67ffffffffffffffff82111561059b5761059a610509565b5b6105a4826104f9565b9050602081019050919050565b828183375f83830152505050565b5f6105d16105cc84610581565b610567565b9050828152602081018484840111156105ed576105ec6104f5565b5b6105f88482856105b1565b509392505050565b5f82601f830112610614576106136104f1565b5b81356106248482602086016105bf565b91505092915050565b5f5f5f6060848603121561064457610643610463565b5b5f6106518682870161048a565b935050602084013567ffffffffffffffff81111561067257610671610467565b5b61067e86828701610600565b925050604084013567ffffffffffffffff81111561069f5761069e610467565b5b6106ab86828701610600565b9150509250925092565b5f602082840312156106ca576106c9610463565b5b5f82013567ffffffffffffffff8111156106e7576106e6610467565b5b6106f384828501610600565b91505092915050565b5f81519050919050565b5f82825260208201905092915050565b8281835e5f83830152505050565b5f61072e826106fc565b6107388185610706565b9350610748818560208601610716565b610751816104f9565b840191505092915050565b5f6020820190508181035f8301526107748184610724565b905092915050565b5f5f6040838503121561079257610791610463565b5b5f61079f8582860161048a565b92505060206107b08582860161048a565b9150509250929050565b5f819050919050565b6107cc816107ba565b81146107d6575f5ffd5b50565b5f813590506107e7816107c3565b92915050565b5f6020828403121561080257610801610463565b5b5f61080f848285016107d9565b91505092915050565b5f60608201905061082b5f8301866104c9565b818103602083015261083d8185610724565b905081810360408301526108518184610724565b9050949350505050565b7f4e487b71000000000000000000000000000000000000000000000000000000005f52601160045260245ffd5b5f6108928261046b565b915061089d8361046b565b92508282019050828112155f8312168382125f8412151617156108c3576108c261085b565b5b92915050565b7f4e487b71000000000000000000000000000000000000000000000000000000005f52602260045260245ffd5b5f600282049050600182168061090d57607f821691505b6020821081036109205761091f6108c9565b5b50919050565b5f819050815f5260205f209050919050565b5f6020601f8301049050919050565b5f82821b905092915050565b5f600883026109827fffffffffffffffffffffffffffffffffffffffffffffffffffffffffffffffff82610947565b61098c8683610947565b95508019841693508086168417925050509392505050565b5f819050919050565b5f6109c76109c26109bd846107ba565b6109a4565b6107ba565b9050919050565b5f819050919050565b6109e0836109ad565b6109f46109ec826109ce565b848454610953565b825550505050565b5f5f905090565b610a0b6109fc565b610a168184846109d7565b505050565b5f5b82811015610a3c57610a315f828401610a03565b600181019050610a1d565b505050565b601f821115610a8f5782821115610a8e57610a5b81610926565b610a6483610938565b610a6d85610938565b6020861015610a7a575f90505b808301610a8982840382610a1b565b505050505b5b505050565b5f82821c905092915050565b5f610aaf5f1984600802610a94565b1980831691505092915050565b5f610ac78383610aa0565b9150826002028217905092915050565b610ae0826106fc565b67ffffffffffffffff811115610af957610af8610509565b5b610b0382546108f6565b610b0e828285610a41565b5f60209050601f831160018114610b3f575f8415610b2d578287015190505b610b378582610abc565b865550610b9e565b601f198416610b4d86610926565b5f5b82811015610b7457848901518255600182019150602085019450602081019050610b4f565b86831015610b915784890151610b8d601f891682610aa0565b8355505b6001600288020188555050505b505050505050565b5f81905092915050565b5f610bba826106fc565b610bc48185610ba6565b9350610bd4818560208601610716565b80840191505092915050565b5f610beb8284610bb0565b91508190509291505056fea2646970667358221220204748a158ef228f0d3fde22c6906cd67e0c9380ed641b245071c881a329b79f64736f6c63430008220033",
			"opcodes": "PUSH1 0x80 PUSH1 0x40 MSTORE CALLVALUE DUP1 ISZERO PUSH1 0xE JUMPI PUSH0 PUSH0 REVERT JUMPDEST POP PUSH2 0xC2C DUP1 PUSH2 0x1C PUSH0 CODECOPY PUSH0 RETURN INVALID PUSH1 0x80 PUSH1 0x40 MSTORE CALLVALUE DUP1 ISZERO PUSH2 0xF JUMPI PUSH0 PUSH0 REVERT JUMPDEST POP PUSH1 0x4 CALLDATASIZE LT PUSH2 0x7B JUMPI PUSH0 CALLDATALOAD PUSH1 0xE0 SHR DUP1 PUSH4 0xB0E1E1B5 GT PUSH2 0x59 JUMPI DUP1 PUSH4 0xB0E1E1B5 EQ PUSH2 0xD7 JUMPI DUP1 PUSH4 0xDEE940D9 EQ PUSH2 0xF3 JUMPI DUP1 PUSH4 0xE14D2632 EQ PUSH2 0x123 JUMPI DUP1 PUSH4 0xFB74AD85 EQ PUSH2 0x153 JUMPI PUSH2 0x7B JUMP JUMPDEST DUP1 PUSH4 0x46E762DF EQ PUSH2 0x7F JUMPI DUP1 PUSH4 0x4E70B1DC EQ PUSH2 0x9B JUMPI DUP1 PUSH4 0x5AE5C08F EQ PUSH2 0xB9 JUMPI JUMPDEST PUSH0 PUSH0 REVERT JUMPDEST PUSH2 0x99 PUSH1 0x4 DUP1 CALLDATASIZE SUB DUP2 ADD SWAP1 PUSH2 0x94 SWAP2 SWAP1 PUSH2 0x49E JUMP JUMPDEST PUSH2 0x185 JUMP JUMPDEST STOP JUMPDEST PUSH2 0xA3 PUSH2 0x19A JUMP JUMPDEST PUSH1 0x40 MLOAD PUSH2 0xB0 SWAP2 SWAP1 PUSH2 0x4D8 JUMP JUMPDEST PUSH1 0x40 MLOAD DUP1 SWAP2 SUB SWAP1 RETURN JUMPDEST PUSH2 0xC1 PUSH2 0x19F JUMP JUMPDEST PUSH1 0x40 MLOAD PUSH2 0xCE SWAP2 SWAP1 PUSH2 0x4D8 JUMP JUMPDEST PUSH1 0x40 MLOAD DUP1 SWAP2 SUB SWAP1 RETURN JUMPDEST PUSH2 0xF1 PUSH1 0x4 DUP1 CALLDATASIZE SUB DUP2 ADD SWAP1 PUSH2 0xEC SWAP2 SWAP1 PUSH2 0x62D JUMP JUMPDEST PUSH2 0x1A7 JUMP JUMPDEST STOP JUMPDEST PUSH2 0x10D PUSH1 0x4 DUP1 CALLDATASIZE SUB DUP2 ADD SWAP1 PUSH2 0x108 SWAP2 SWAP1 PUSH2 0x6B5 JUMP JUMPDEST PUSH2 0x251 JUMP JUMPDEST PUSH1 0x40 MLOAD PUSH2 0x11A SWAP2 SWAP1 PUSH2 0x75C JUMP JUMPDEST PUSH1 0x40 MLOAD DUP1 SWAP2 SUB SWAP1 RETURN JUMPDEST PUSH2 0x13D PUSH1 0x4 DUP1 CALLDATASIZE SUB DUP2 ADD SWAP1 PUSH2 0x138 SWAP2 SWAP1 PUSH2 0x77C JUMP JUMPDEST PUSH2 0x304 JUMP JUMPDEST PUSH1 0x40 MLOAD PUSH2 0x14A SWAP2 SWAP1 PUSH2 0x4D8 JUMP JUMPDEST PUSH1 0x40 MLOAD DUP1 SWAP2 SUB SWAP1 RETURN JUMPDEST PUSH2 0x16D PUSH1 0x4 DUP1 CALLDATASIZE SUB DUP2 ADD SWAP1 PUSH2 0x168 SWAP2 SWAP1 PUSH2 0x7ED JUMP JUMPDEST PUSH2 0x319 JUMP JUMPDEST PUSH1 0x40 MLOAD PUSH2 0x17C SWAP4 SWAP3 SWAP2 SWAP1 PUSH2 0x818 JUMP JUMPDEST PUSH1 0x40 MLOAD DUP1 SWAP2 SUB SWAP1 RETURN JUMPDEST PUSH1 0x5 DUP2 PUSH2 0x192 SWAP2 SWAP1 PUSH2 0x888 JUMP JUMPDEST PUSH0 DUP2 SWAP1 SSTORE POP POP JUMP JUMPDEST PUSH0 SLOAD DUP2 JUMP JUMPDEST PUSH0 PUSH0 SLOAD SWAP1 POP SWAP1 JUMP JUMPDEST PUSH1 0x1 PUSH1 0x40 MLOAD DUP1 PUSH1 0x60 ADD PUSH1 0x40 MSTORE DUP1 DUP6 DUP2 MSTORE PUSH1 0x20 ADD DUP5 DUP2 MSTORE PUSH1 0x20 ADD DUP4 DUP2 MSTORE POP SWAP1 DUP1 PUSH1 0x1 DUP2 SLOAD ADD DUP1 DUP3 SSTORE DUP1 SWAP2 POP POP PUSH1 0x1 SWAP1 SUB SWAP1 PUSH0 MSTORE PUSH1 0x20 PUSH0 KECCAK256 SWAP1 PUSH1 0x3 MUL ADD PUSH0 SWAP1 SWAP2 SWAP1 SWAP2 SWAP1 SWAP2 POP PUSH0 DUP3 ADD MLOAD DUP2 PUSH0 ADD SSTORE PUSH1 0x20 DUP3 ADD MLOAD DUP2 PUSH1 0x1 ADD SWAP1 DUP2 PUSH2 0x207 SWAP2 SWAP1 PUSH2 0xAD7 JUMP JUMPDEST POP PUSH1 0x40 DUP3 ADD MLOAD DUP2 PUSH1 0x2 ADD SWAP1 DUP2 PUSH2 0x21D SWAP2 SWAP1 PUSH2 0xAD7 JUMP JUMPDEST POP POP POP DUP1 PUSH1 0x2 DUP4 PUSH1 0x40 MLOAD PUSH2 0x231 SWAP2 SWAP1 PUSH2 0xBE0 JUMP JUMPDEST SWAP1 DUP2 MSTORE PUSH1 0x20 ADD PUSH1 0x40 MLOAD DUP1 SWAP2 SUB SWAP1 KECCAK256 SWAP1 DUP2 PUSH2 0x24B SWAP2 SWAP1 PUSH2 0xAD7 JUMP JUMPDEST POP POP POP POP JUMP JUMPDEST PUSH1 0x2 DUP2 DUP1 MLOAD PUSH1 0x20 DUP2 ADD DUP3 ADD DUP1 MLOAD DUP5 DUP3 MSTORE PUSH1 0x20 DUP4 ADD PUSH1 0x20 DUP6 ADD KECCAK256 DUP2 DUP4 MSTORE DUP1 SWAP6 POP POP POP POP POP POP PUSH0 SWAP2 POP SWAP1 POP DUP1 SLOAD PUSH2 0x285 SWAP1 PUSH2 0x8F6 JUMP JUMPDEST DUP1 PUSH1 0x1F ADD PUSH1 0x20 DUP1 SWAP2 DIV MUL PUSH1 0x20 ADD PUSH1 0x40 MLOAD SWAP1 DUP2 ADD PUSH1 0x40 MSTORE DUP1 SWAP3 SWAP2 SWAP1 DUP2 DUP2 MSTORE PUSH1 0x20 ADD DUP3 DUP1 SLOAD PUSH2 0x2B1 SWAP1 PUSH2 0x8F6 JUMP JUMPDEST DUP1 ISZERO PUSH2 0x2FC JUMPI DUP1 PUSH1 0x1F LT PUSH2 0x2D3 JUMPI PUSH2 0x100 DUP1 DUP4 SLOAD DIV MUL DUP4 MSTORE SWAP2 PUSH1 0x20 ADD SWAP2 PUSH2 0x2FC JUMP JUMPDEST DUP3 ADD SWAP2 SWAP1 PUSH0 MSTORE PUSH1 0x20 PUSH0 KECCAK256 SWAP1 JUMPDEST DUP2 SLOAD DUP2 MSTORE SWAP1 PUSH1 0x1 ADD SWAP1 PUSH1 0x20 ADD DUP1 DUP4 GT PUSH2 0x2DF JUMPI DUP3 SWAP1 SUB PUSH1 0x1F AND DUP3 ADD SWAP2 JUMPDEST POP POP POP POP POP DUP2 JUMP JUMPDEST PUSH0 DUP2 DUP4 PUSH2 0x311 SWAP2 SWAP1 PUSH2 0x888 JUMP JUMPDEST SWAP1 POP SWAP3 SWAP2 POP POP JUMP JUMPDEST PUSH1 0x1 DUP2 DUP2 SLOAD DUP2 LT PUSH2 0x328 JUMPI PUSH0 DUP1 REVERT JUMPDEST SWAP1 PUSH0 MSTORE PUSH1 0x20 PUSH0 KECCAK256 SWAP1 PUSH1 0x3 MUL ADD PUSH0 SWAP2 POP SWAP1 POP DUP1 PUSH0 ADD SLOAD SWAP1 DUP1 PUSH1 0x1 ADD DUP1 SLOAD PUSH2 0x34D SWAP1 PUSH2 0x8F6 JUMP JUMPDEST DUP1 PUSH1 0x1F ADD PUSH1 0x20 DUP1 SWAP2 DIV MUL PUSH1 0x20 ADD PUSH1 0x40 MLOAD SWAP1 DUP2 ADD PUSH1 0x40 MSTORE DUP1 SWAP3 SWAP2 SWAP1 DUP2 DUP2 MSTORE PUSH1 0x20 ADD DUP3 DUP1 SLOAD PUSH2 0x379 SWAP1 PUSH2 0x8F6 JUMP JUMPDEST DUP1 ISZERO PUSH2 0x3C4 JUMPI DUP1 PUSH1 0x1F LT PUSH2 0x39B JUMPI PUSH2 0x100 DUP1 DUP4 SLOAD DIV MUL DUP4 MSTORE SWAP2 PUSH1 0x20 ADD SWAP2 PUSH2 0x3C4 JUMP JUMPDEST DUP3 ADD SWAP2 SWAP1 PUSH0 MSTORE PUSH1 0x20 PUSH0 KECCAK256 SWAP1 JUMPDEST DUP2 SLOAD DUP2 MSTORE SWAP1 PUSH1 0x1 ADD SWAP1 PUSH1 0x20 ADD DUP1 DUP4 GT PUSH2 0x3A7 JUMPI DUP3 SWAP1 SUB PUSH1 0x1F AND DUP3 ADD SWAP2 JUMPDEST POP POP POP POP POP SWAP1 DUP1 PUSH1 0x2 ADD DUP1 SLOAD PUSH2 0x3D9 SWAP1 PUSH2 0x8F6 JUMP JUMPDEST DUP1 PUSH1 0x1F ADD PUSH1 0x20 DUP1 SWAP2 DIV MUL PUSH1 0x20 ADD PUSH1 0x40 MLOAD SWAP1 DUP2 ADD PUSH1 0x40 MSTORE DUP1 SWAP3 SWAP2 SWAP1 DUP2 DUP2 MSTORE PUSH1 0x20 ADD DUP3 DUP1 SLOAD PUSH2 0x405 SWAP1 PUSH2 0x8F6 JUMP JUMPDEST DUP1 ISZERO PUSH2 0x450 JUMPI DUP1 PUSH1 0x1F LT PUSH2 0x427 JUMPI PUSH2 0x100 DUP1 DUP4 SLOAD DIV MUL DUP4 MSTORE SWAP2 PUSH1 0x20 ADD SWAP2 PUSH2 0x450 JUMP JUMPDEST DUP3 ADD SWAP2 SWAP1 PUSH0 MSTORE PUSH1 0x20 PUSH0 KECCAK256 SWAP1 JUMPDEST DUP2 SLOAD DUP2 MSTORE SWAP1 PUSH1 0x1 ADD SWAP1 PUSH1 0x20 ADD DUP1 DUP4 GT PUSH2 0x433 JUMPI DUP3 SWAP1 SUB PUSH1 0x1F AND DUP3 ADD SWAP2 JUMPDEST POP POP POP POP POP SWAP1 POP DUP4 JUMP JUMPDEST PUSH0 PUSH1 0x40 MLOAD SWAP1 POP SWAP1 JUMP JUMPDEST PUSH0 PUSH0 REVERT JUMPDEST PUSH0 PUSH0 REVERT JUMPDEST PUSH0 DUP2 SWAP1 POP SWAP2 SWAP1 POP JUMP JUMPDEST PUSH2 0x47D DUP2 PUSH2 0x46B JUMP JUMPDEST DUP2 EQ PUSH2 0x487 JUMPI PUSH0 PUSH0 REVERT JUMPDEST POP JUMP JUMPDEST PUSH0 DUP2 CALLDATALOAD SWAP1 POP PUSH2 0x498 DUP2 PUSH2 0x474 JUMP JUMPDEST SWAP3 SWAP2 POP POP JUMP JUMPDEST PUSH0 PUSH1 0x20 DUP3 DUP5 SUB SLT ISZERO PUSH2 0x4B3 JUMPI PUSH2 0x4B2 PUSH2 0x463 JUMP JUMPDEST JUMPDEST PUSH0 PUSH2 0x4C0 DUP5 DUP3 DUP6 ADD PUSH2 0x48A JUMP JUMPDEST SWAP2 POP POP SWAP3 SWAP2 POP POP JUMP JUMPDEST PUSH2 0x4D2 DUP2 PUSH2 0x46B JUMP JUMPDEST DUP3 MSTORE POP POP JUMP JUMPDEST PUSH0 PUSH1 0x20 DUP3 ADD SWAP1 POP PUSH2 0x4EB PUSH0 DUP4 ADD DUP5 PUSH2 0x4C9 JUMP JUMPDEST SWAP3 SWAP2 POP POP JUMP JUMPDEST PUSH0 PUSH0 REVERT JUMPDEST PUSH0 PUSH0 REVERT JUMPDEST PUSH0 PUSH1 0x1F NOT PUSH1 0x1F DUP4 ADD AND SWAP1 POP SWAP2 SWAP1 POP JUMP JUMPDEST PUSH32 0x4E487B7100000000000000000000000000000000000000000000000000000000 PUSH0 MSTORE PUSH1 0x41 PUSH1 0x4 MSTORE PUSH1 0x24 PUSH0 REVERT JUMPDEST PUSH2 0x53F DUP3 PUSH2 0x4F9 JUMP JUMPDEST DUP2 ADD DUP2 DUP2 LT PUSH8 0xFFFFFFFFFFFFFFFF DUP3 GT OR ISZERO PUSH2 0x55E JUMPI PUSH2 0x55D PUSH2 0x509 JUMP JUMPDEST JUMPDEST DUP1 PUSH1 0x40 MSTORE POP POP POP JUMP JUMPDEST PUSH0 PUSH2 0x570 PUSH2 0x45A JUMP JUMPDEST SWAP1 POP PUSH2 0x57C DUP3 DUP3 PUSH2 0x536 JUMP JUMPDEST SWAP2 SWAP1 POP JUMP JUMPDEST PUSH0 PUSH8 0xFFFFFFFFFFFFFFFF DUP3 GT ISZERO PUSH2 0x59B JUMPI PUSH2 0x59A PUSH2 0x509 JUMP JUMPDEST JUMPDEST PUSH2 0x5A4 DUP3 PUSH2 0x4F9 JUMP JUMPDEST SWAP1 POP PUSH1 0x20 DUP2 ADD SWAP1 POP SWAP2 SWAP1 POP JUMP JUMPDEST DUP3 DUP2 DUP4 CALLDATACOPY PUSH0 DUP4 DUP4 ADD MSTORE POP POP POP JUMP JUMPDEST PUSH0 PUSH2 0x5D1 PUSH2 0x5CC DUP5 PUSH2 0x581 JUMP JUMPDEST PUSH2 0x567 JUMP JUMPDEST SWAP1 POP DUP3 DUP2 MSTORE PUSH1 0x20 DUP2 ADD DUP5 DUP5 DUP5 ADD GT ISZERO PUSH2 0x5ED JUMPI PUSH2 0x5EC PUSH2 0x4F5 JUMP JUMPDEST JUMPDEST PUSH2 0x5F8 DUP5 DUP3 DUP6 PUSH2 0x5B1 JUMP JUMPDEST POP SWAP4 SWAP3 POP POP POP JUMP JUMPDEST PUSH0 DUP3 PUSH1 0x1F DUP4 ADD SLT PUSH2 0x614 JUMPI PUSH2 0x613 PUSH2 0x4F1 JUMP JUMPDEST JUMPDEST DUP2 CALLDATALOAD PUSH2 0x624 DUP5 DUP3 PUSH1 0x20 DUP7 ADD PUSH2 0x5BF JUMP JUMPDEST SWAP2 POP POP SWAP3 SWAP2 POP POP JUMP JUMPDEST PUSH0 PUSH0 PUSH0 PUSH1 0x60 DUP5 DUP7 SUB SLT ISZERO PUSH2 0x644 JUMPI PUSH2 0x643 PUSH2 0x463 JUMP JUMPDEST JUMPDEST PUSH0 PUSH2 0x651 DUP7 DUP3 DUP8 ADD PUSH2 0x48A JUMP JUMPDEST SWAP4 POP POP PUSH1 0x20 DUP5 ADD CALLDATALOAD PUSH8 0xFFFFFFFFFFFFFFFF DUP2 GT ISZERO PUSH2 0x672 JUMPI PUSH2 0x671 PUSH2 0x467 JUMP JUMPDEST JUMPDEST PUSH2 0x67E DUP7 DUP3 DUP8 ADD PUSH2 0x600 JUMP JUMPDEST SWAP3 POP POP PUSH1 0x40 DUP5 ADD CALLDATALOAD PUSH8 0xFFFFFFFFFFFFFFFF DUP2 GT ISZERO PUSH2 0x69F JUMPI PUSH2 0x69E PUSH2 0x467 JUMP JUMPDEST JUMPDEST PUSH2 0x6AB DUP7 DUP3 DUP8 ADD PUSH2 0x600 JUMP JUMPDEST SWAP2 POP POP SWAP3 POP SWAP3 POP SWAP3 JUMP JUMPDEST PUSH0 PUSH1 0x20 DUP3 DUP5 SUB SLT ISZERO PUSH2 0x6CA JUMPI PUSH2 0x6C9 PUSH2 0x463 JUMP JUMPDEST JUMPDEST PUSH0 DUP3 ADD CALLDATALOAD PUSH8 0xFFFFFFFFFFFFFFFF DUP2 GT ISZERO PUSH2 0x6E7 JUMPI PUSH2 0x6E6 PUSH2 0x467 JUMP JUMPDEST JUMPDEST PUSH2 0x6F3 DUP5 DUP3 DUP6 ADD PUSH2 0x600 JUMP JUMPDEST SWAP2 POP POP SWAP3 SWAP2 POP POP JUMP JUMPDEST PUSH0 DUP2 MLOAD SWAP1 POP SWAP2 SWAP1 POP JUMP JUMPDEST PUSH0 DUP3 DUP3 MSTORE PUSH1 0x20 DUP3 ADD SWAP1 POP SWAP3 SWAP2 POP POP JUMP JUMPDEST DUP3 DUP2 DUP4 MCOPY PUSH0 DUP4 DUP4 ADD MSTORE POP POP POP JUMP JUMPDEST PUSH0 PUSH2 0x72E DUP3 PUSH2 0x6FC JUMP JUMPDEST PUSH2 0x738 DUP2 DUP6 PUSH2 0x706 JUMP JUMPDEST SWAP4 POP PUSH2 0x748 DUP2 DUP6 PUSH1 0x20 DUP7 ADD PUSH2 0x716 JUMP JUMPDEST PUSH2 0x751 DUP2 PUSH2 0x4F9 JUMP JUMPDEST DUP5 ADD SWAP2 POP POP SWAP3 SWAP2 POP POP JUMP JUMPDEST PUSH0 PUSH1 0x20 DUP3 ADD SWAP1 POP DUP2 DUP2 SUB PUSH0 DUP4 ADD MSTORE PUSH2 0x774 DUP2 DUP5 PUSH2 0x724 JUMP JUMPDEST SWAP1 POP SWAP3 SWAP2 POP POP JUMP JUMPDEST PUSH0 PUSH0 PUSH1 0x40 DUP4 DUP6 SUB SLT ISZERO PUSH2 0x792 JUMPI PUSH2 0x791 PUSH2 0x463 JUMP JUMPDEST JUMPDEST PUSH0 PUSH2 0x79F DUP6 DUP3 DUP7 ADD PUSH2 0x48A JUMP JUMPDEST SWAP3 POP POP PUSH1 0x20 PUSH2 0x7B0 DUP6 DUP3 DUP7 ADD PUSH2 0x48A JUMP JUMPDEST SWAP2 POP POP SWAP3 POP SWAP3 SWAP1 POP JUMP JUMPDEST PUSH0 DUP2 SWAP1 POP SWAP2 SWAP1 POP JUMP JUMPDEST PUSH2 0x7CC DUP2 PUSH2 0x7BA JUMP JUMPDEST DUP2 EQ PUSH2 0x7D6 JUMPI PUSH0 PUSH0 REVERT JUMPDEST POP JUMP JUMPDEST PUSH0 DUP2 CALLDATALOAD SWAP1 POP PUSH2 0x7E7 DUP2 PUSH2 0x7C3 JUMP JUMPDEST SWAP3 SWAP2 POP POP JUMP JUMPDEST PUSH0 PUSH1 0x20 DUP3 DUP5 SUB SLT ISZERO PUSH2 0x802 JUMPI PUSH2 0x801 PUSH2 0x463 JUMP JUMPDEST JUMPDEST PUSH0 PUSH2 0x80F DUP5 DUP3 DUP6 ADD PUSH2 0x7D9 JUMP JUMPDEST SWAP2 POP POP SWAP3 SWAP2 POP POP JUMP JUMPDEST PUSH0 PUSH1 0x60 DUP3 ADD SWAP1 POP PUSH2 0x82B PUSH0 DUP4 ADD DUP7 PUSH2 0x4C9 JUMP JUMPDEST DUP2 DUP2 SUB PUSH1 0x20 DUP4 ADD MSTORE PUSH2 0x83D DUP2 DUP6 PUSH2 0x724 JUMP JUMPDEST SWAP1 POP DUP2 DUP2 SUB PUSH1 0x40 DUP4 ADD MSTORE PUSH2 0x851 DUP2 DUP5 PUSH2 0x724 JUMP JUMPDEST SWAP1 POP SWAP5 SWAP4 POP POP POP POP JUMP JUMPDEST PUSH32 0x4E487B7100000000000000000000000000000000000000000000000000000000 PUSH0 MSTORE PUSH1 0x11 PUSH1 0x4 MSTORE PUSH1 0x24 PUSH0 REVERT JUMPDEST PUSH0 PUSH2 0x892 DUP3 PUSH2 0x46B JUMP JUMPDEST SWAP2 POP PUSH2 0x89D DUP4 PUSH2 0x46B JUMP JUMPDEST SWAP3 POP DUP3 DUP3 ADD SWAP1 POP DUP3 DUP2 SLT ISZERO PUSH0 DUP4 SLT AND DUP4 DUP3 SLT PUSH0 DUP5 SLT ISZERO AND OR ISZERO PUSH2 0x8C3 JUMPI PUSH2 0x8C2 PUSH2 0x85B JUMP JUMPDEST JUMPDEST SWAP3 SWAP2 POP POP JUMP JUMPDEST PUSH32 0x4E487B7100000000000000000000000000000000000000000000000000000000 PUSH0 MSTORE PUSH1 0x22 PUSH1 0x4 MSTORE PUSH1 0x24 PUSH0 REVERT JUMPDEST PUSH0 PUSH1 0x2 DUP3 DIV SWAP1 POP PUSH1 0x1 DUP3 AND DUP1 PUSH2 0x90D JUMPI PUSH1 0x7F DUP3 AND SWAP2 POP JUMPDEST PUSH1 0x20 DUP3 LT DUP2 SUB PUSH2 0x920 JUMPI PUSH2 0x91F PUSH2 0x8C9 JUMP JUMPDEST JUMPDEST POP SWAP2 SWAP1 POP JUMP JUMPDEST PUSH0 DUP2 SWAP1 POP DUP2 PUSH0 MSTORE PUSH1 0x20 PUSH0 KECCAK256 SWAP1 POP SWAP2 SWAP1 POP JUMP JUMPDEST PUSH0 PUSH1 0x20 PUSH1 0x1F DUP4 ADD DIV SWAP1 POP SWAP2 SWAP1 POP JUMP JUMPDEST PUSH0 DUP3 DUP3 SHL SWAP1 POP SWAP3 SWAP2 POP POP JUMP JUMPDEST PUSH0 PUSH1 0x8 DUP4 MUL PUSH2 0x982 PUSH32 0xFFFFFFFFFFFFFFFFFFFFFFFFFFFFFFFFFFFFFFFFFFFFFFFFFFFFFFFFFFFFFFFF DUP3 PUSH2 0x947 JUMP JUMPDEST PUSH2 0x98C DUP7 DUP4 PUSH2 0x947 JUMP JUMPDEST SWAP6 POP DUP1 NOT DUP5 AND SWAP4 POP DUP1 DUP7 AND DUP5 OR SWAP3 POP POP POP SWAP4 SWAP3 POP POP POP JUMP JUMPDEST PUSH0 DUP2 SWAP1 POP SWAP2 SWAP1 POP JUMP JUMPDEST PUSH0 PUSH2 0x9C7 PUSH2 0x9C2 PUSH2 0x9BD DUP5 PUSH2 0x7BA JUMP JUMPDEST PUSH2 0x9A4 JUMP JUMPDEST PUSH2 0x7BA JUMP JUMPDEST SWAP1 POP SWAP2 SWAP1 POP JUMP JUMPDEST PUSH0 DUP2 SWAP1 POP SWAP2 SWAP1 POP JUMP JUMPDEST PUSH2 0x9E0 DUP4 PUSH2 0x9AD JUMP JUMPDEST PUSH2 0x9F4 PUSH2 0x9EC DUP3 PUSH2 0x9CE JUMP JUMPDEST DUP5 DUP5 SLOAD PUSH2 0x953 JUMP JUMPDEST DUP3 SSTORE POP POP POP POP JUMP JUMPDEST PUSH0 PUSH0 SWAP1 POP SWAP1 JUMP JUMPDEST PUSH2 0xA0B PUSH2 0x9FC JUMP JUMPDEST PUSH2 0xA16 DUP2 DUP5 DUP5 PUSH2 0x9D7 JUMP JUMPDEST POP POP POP JUMP JUMPDEST PUSH0 JUMPDEST DUP3 DUP2 LT ISZERO PUSH2 0xA3C JUMPI PUSH2 0xA31 PUSH0 DUP3 DUP5 ADD PUSH2 0xA03 JUMP JUMPDEST PUSH1 0x1 DUP2 ADD SWAP1 POP PUSH2 0xA1D JUMP JUMPDEST POP POP POP JUMP JUMPDEST PUSH1 0x1F DUP3 GT ISZERO PUSH2 0xA8F JUMPI DUP3 DUP3 GT ISZERO PUSH2 0xA8E JUMPI PUSH2 0xA5B DUP2 PUSH2 0x926 JUMP JUMPDEST PUSH2 0xA64 DUP4 PUSH2 0x938 JUMP JUMPDEST PUSH2 0xA6D DUP6 PUSH2 0x938 JUMP JUMPDEST PUSH1 0x20 DUP7 LT ISZERO PUSH2 0xA7A JUMPI PUSH0 SWAP1 POP JUMPDEST DUP1 DUP4 ADD PUSH2 0xA89 DUP3 DUP5 SUB DUP3 PUSH2 0xA1B JUMP JUMPDEST POP POP POP POP JUMPDEST JUMPDEST POP POP POP JUMP JUMPDEST PUSH0 DUP3 DUP3 SHR SWAP1 POP SWAP3 SWAP2 POP POP JUMP JUMPDEST PUSH0 PUSH2 0xAAF PUSH0 NOT DUP5 PUSH1 0x8 MUL PUSH2 0xA94 JUMP JUMPDEST NOT DUP1 DUP4 AND SWAP2 POP POP SWAP3 SWAP2 POP POP JUMP JUMPDEST PUSH0 PUSH2 0xAC7 DUP4 DUP4 PUSH2 0xAA0 JUMP JUMPDEST SWAP2 POP DUP3 PUSH1 0x2 MUL DUP3 OR SWAP1 POP SWAP3 SWAP2 POP POP JUMP JUMPDEST PUSH2 0xAE0 DUP3 PUSH2 0x6FC JUMP JUMPDEST PUSH8 0xFFFFFFFFFFFFFFFF DUP2 GT ISZERO PUSH2 0xAF9 JUMPI PUSH2 0xAF8 PUSH2 0x509 JUMP JUMPDEST JUMPDEST PUSH2 0xB03 DUP3 SLOAD PUSH2 0x8F6 JUMP JUMPDEST PUSH2 0xB0E DUP3 DUP3 DUP6 PUSH2 0xA41 JUMP JUMPDEST PUSH0 PUSH1 0x20 SWAP1 POP PUSH1 0x1F DUP4 GT PUSH1 0x1 DUP2 EQ PUSH2 0xB3F JUMPI PUSH0 DUP5 ISZERO PUSH2 0xB2D JUMPI DUP3 DUP8 ADD MLOAD SWAP1 POP JUMPDEST PUSH2 0xB37 DUP6 DUP3 PUSH2 0xABC JUMP JUMPDEST DUP7 SSTORE POP PUSH2 0xB9E JUMP JUMPDEST PUSH1 0x1F NOT DUP5 AND PUSH2 0xB4D DUP7 PUSH2 0x926 JUMP JUMPDEST PUSH0 JUMPDEST DUP3 DUP2 LT ISZERO PUSH2 0xB74 JUMPI DUP5 DUP10 ADD MLOAD DUP3 SSTORE PUSH1 0x1 DUP3 ADD SWAP2 POP PUSH1 0x20 DUP6 ADD SWAP5 POP PUSH1 0x20 DUP2 ADD SWAP1 POP PUSH2 0xB4F JUMP JUMPDEST DUP7 DUP4 LT ISZERO PUSH2 0xB91 JUMPI DUP5 DUP10 ADD MLOAD PUSH2 0xB8D PUSH1 0x1F DUP10 AND DUP3 PUSH2 0xAA0 JUMP JUMPDEST DUP4 SSTORE POP JUMPDEST PUSH1 0x1 PUSH1 0x2 DUP9 MUL ADD DUP9 SSTORE POP POP POP JUMPDEST POP POP POP POP POP POP JUMP JUMPDEST PUSH0 DUP2 SWAP1 POP SWAP3 SWAP2 POP POP JUMP JUMPDEST PUSH0 PUSH2 0xBBA DUP3 PUSH2 0x6FC JUMP JUMPDEST PUSH2 0xBC4 DUP2 DUP6 PUSH2 0xBA6 JUMP JUMPDEST SWAP4 POP PUSH2 0xBD4 DUP2 DUP6 PUSH1 0x20 DUP7 ADD PUSH2 0x716 JUMP JUMPDEST DUP1 DUP5 ADD SWAP2 POP POP SWAP3 SWAP2 POP POP JUMP JUMPDEST PUSH0 PUSH2 0xBEB DUP3 DUP5 PUSH2 0xBB0 JUMP JUMPDEST SWAP2 POP DUP2 SWAP1 POP SWAP3 SWAP2 POP POP JUMP INVALID LOG2 PUSH5 0x6970667358 0x22 SLT KECCAK256 KECCAK256 SELFBALANCE BASEFEE LOG1 PC 0xEF 0x22 DUP16 0xD EXTCODEHASH 0xDE 0x22 0xC6 SWAP1 PUSH13 0xD67E0C9380ED641B245071C881 LOG3 0x29 0xB7 SWAP16 PUSH5 0x736F6C6343 STOP ADDMOD 0x22 STOP CALLER "
		},
		"gasEstimates": {
			"creation": {
				"codeDepositCost": "623200",
				"executionCost": "655",
				"totalCost": "623855"
			},
			"external": {
				"addDetails(int256,string,string)": "infinite",
				"getNum(int256)": "infinite",
				"infoList(uint256)": "infinite",
				"nameToDegree(string)": "infinite",
				"num()": "2447",
				"onlyPure(int256,int256)": "infinite",
				"onlyView()": "2476"
			}
		},
		"methodIdentifiers": {
			"addDetails(int256,string,string)": "b0e1e1b5",
			"getNum(int256)": "46e762df",
			"infoList(uint256)": "fb74ad85",
			"nameToDegree(string)": "dee940d9",
			"num()": "4e70b1dc",
			"onlyPure(int256,int256)": "e14d2632",
			"onlyView()": "5ae5c08f"
		}
	},
	"abi": [
		{
			"inputs": [
				{
					"internalType": "int256",
					"name": "_age",
					"type": "int256"
				},
				{
					"internalType": "string",
					"name": "_name",
					"type": "string"
				},
				{
					"internalType": "string",
					"name": "_degree",
					"type": "string"
				}
			],
			"name": "addDetails",
			"outputs": [],
			"stateMutability": "nonpayable",
			"type": "function"
		},
		{
			"inputs": [
				{
					"internalType": "int256",
					"name": "n",
					"type": "int256"
				}
			],
			"name": "getNum",
			"outputs": [],
			"stateMutability": "nonpayable",
			"type": "function"
		},
		{
			"inputs": [
				{
					"internalType": "uint256",
					"name": "",
					"type": "uint256"
				}
			],
			"name": "infoList",
			"outputs": [
				{
					"internalType": "int256",
					"name": "age",
					"type": "int256"
				},
				{
					"internalType": "string",
					"name": "name",
					"type": "string"
				},
				{
					"internalType": "string",
					"name": "degree",
					"type": "string"
				}
			],
			"stateMutability": "view",
			"type": "function"
		},
		{
			"inputs": [
				{
					"internalType": "string",
					"name": "",
					"type": "string"
				}
			],
			"name": "nameToDegree",
			"outputs": [
				{
					"internalType": "string",
					"name": "",
					"type": "string"
				}
			],
			"stateMutability": "view",
			"type": "function"
		},
		{
			"inputs": [],
			"name": "num",
			"outputs": [
				{
					"internalType": "int256",
					"name": "",
					"type": "int256"
				}
			],
			"stateMutability": "view",
			"type": "function"
		},
		{
			"inputs": [
				{
					"internalType": "int256",
					"name": "a",
					"type": "int256"
				},
				{
					"internalType": "int256",
					"name": "b",
					"type": "int256"
				}
			],
			"name": "onlyPure",
			"outputs": [
				{
					"internalType": "int256",
					"name": "",
					"type": "int256"
				}
			],
			"stateMutability": "pure",
			"type": "function"
		},
		{
			"inputs": [],
			"name": "onlyView",
			"outputs": [
				{
					"internalType": "int256",
					"name": "",
					"type": "int256"
				}
			],
			"stateMutability": "view",
			"type": "function"
		}
	]
}