{
	"data": {
		"bytecode": {
			"linkReferences": {},
			"object": "6080604052674563918244f400005f553480156019575f5ffd5b503360035f6101000a81548173ffffffffffffffffffffffffffffffffffffffff021916908373ffffffffffffffffffffffffffffffffffffffff160217905550610ef0806100675f395ff3fe60806040526004361061007a575f3560e01c806398d5fdca1161004d57806398d5fdca14610124578063b60d42881461014e578063ea8906e914610158578063f6d24a20146101945761007a565b80633ccfd60b1461007e5780636b69a59214610094578063819188cf146100be5780638da5cb5b146100fa575b5f5ffd5b348015610089575f5ffd5b506100926101d0565b005b34801561009f575f5ffd5b506100a8610404565b6040516100b591906106a5565b60405180910390f35b3480156100c9575f5ffd5b506100e460048036038101906100df91906106ec565b610409565b6040516100f19190610756565b60405180910390f35b348015610105575f5ffd5b5061010e610444565b60405161011b9190610756565b60405180910390f35b34801561012f575f5ffd5b50610138610469565b60405161014591906106a5565b60405180910390f35b610156610509565b005b348015610163575f5ffd5b5061017e60048036038101906101799190610799565b610640565b60405161018b91906106a5565b60405180910390f35b34801561019f575f5ffd5b506101ba60048036038101906101b591906106ec565b610655565b6040516101c791906106a5565b60405180910390f35b60035f9054906101000a900473ffffffffffffffffffffffffffffffffffffffff1673ffffffffffffffffffffffffffffffffffffffff163373ffffffffffffffffffffffffffffffffffffffff161461025f576040517f08c379a000000000000000000000000000000000000000000000000000000000815260040161025690610844565b60405180910390fd5b5f5f90505b600180549050811015610300575f6001828154811061028657610285610862565b5b905f5260205f20015f9054906101000a900473ffffffffffffffffffffffffffffffffffffffff1690505f60025f8373ffffffffffffffffffffffffffffffffffffffff1673ffffffffffffffffffffffffffffffffffffffff1681526020019081526020015f2081905550508080600101915050610264565b505f67ffffffffffffffff81111561031b5761031a61088f565b5b6040519080825280602002602001820160405280156103495781602001602082028036833780820191505090505b50600190816103589190610afc565b505f3373ffffffffffffffffffffffffffffffffffffffff164760405161037e90610bad565b5f6040518083038185875af1925050503d805f81146103b8576040519150601f19603f3d011682016040523d82523d5f602084013e6103bd565b606091505b5050905080610401576040517f08c379a00000000000000000000000000000000000000000000000000000000081526004016103f890610c0b565b60405180910390fd5b50565b5f5481565b60018181548110610418575f80fd5b905f5260205f20015f915054906101000a900473ffffffffffffffffffffffffffffffffffffffff1681565b60035f9054906101000a900473ffffffffffffffffffffffffffffffffffffffff1681565b5f5f735f4ec3df9cbd43714fe2740f5e3616155c5b841973ffffffffffffffffffffffffffffffffffffffff1663feaf968c6040518163ffffffff1660e01b815260040160a060405180830381865afa1580156104c8573d5f5f3e3d5ffd5b505050506040513d601f19601f820116820180604052508101906104ec9190610caf565b5050509150506402540be400816105039190610d26565b91505090565b5f5461051434610655565b11610554576040517f08c379a000000000000000000000000000000000000000000000000000000000815260040161054b90610e0c565b60405180910390fd5b600133908060018154018082558091505060019003905f5260205f20015f9091909190916101000a81548173ffffffffffffffffffffffffffffffffffffffff021916908373ffffffffffffffffffffffffffffffffffffffff1602179055503460025f3373ffffffffffffffffffffffffffffffffffffffff1673ffffffffffffffffffffffffffffffffffffffff1681526020019081526020015f20546105fd9190610e2a565b60025f3373ffffffffffffffffffffffffffffffffffffffff1673ffffffffffffffffffffffffffffffffffffffff1681526020019081526020015f2081905550565b6002602052805f5260405f205f915090505481565b5f5f61065f610469565b90505f670de0b6b3a7640000848361067791906108f3565b6106819190610e8a565b90508092505050919050565b5f819050919050565b61069f8161068d565b82525050565b5f6020820190506106b85f830184610696565b92915050565b5f5ffd5b6106cb8161068d565b81146106d5575f5ffd5b50565b5f813590506106e6816106c2565b92915050565b5f60208284031215610701576107006106be565b5b5f61070e848285016106d8565b91505092915050565b5f73ffffffffffffffffffffffffffffffffffffffff82169050919050565b5f61074082610717565b9050919050565b61075081610736565b82525050565b5f6020820190506107695f830184610747565b92915050565b61077881610736565b8114610782575f5ffd5b50565b5f813590506107938161076f565b92915050565b5f602082840312156107ae576107ad6106be565b5b5f6107bb84828501610785565b91505092915050565b5f82825260208201905092915050565b7f596f752061696e7420616e206f776e65722062726f6f6f2c48617264204c75635f8201527f6b00000000000000000000000000000000000000000000000000000000000000602082015250565b5f61082e6021836107c4565b9150610839826107d4565b604082019050919050565b5f6020820190508181035f83015261085b81610822565b9050919050565b7f4e487b71000000000000000000000000000000000000000000000000000000005f52603260045260245ffd5b7f4e487b71000000000000000000000000000000000000000000000000000000005f52604160045260245ffd5b5f81549050919050565b7f4e487b71000000000000000000000000000000000000000000000000000000005f52601160045260245ffd5b5f6108fd8261068d565b91506109088361068d565b92508282026109168161068d565b9150828204841483151761092d5761092c6108c6565b5b5092915050565b5f8190506001806001038301049050919050565b5f819050815f5260205f209050919050565b5f82821b905092915050565b5f600883026109957fffffffffffffffffffffffffffffffffffffffffffffffffffffffffffffffff8261095a565b61099f868361095a565b95508019841693508086168417925050509392505050565b5f819050919050565b5f6109da6109d56109d08461068d565b6109b7565b61068d565b9050919050565b5f819050919050565b6109f3836109c0565b610a076109ff826109e1565b848454610966565b825550505050565b5f5f905090565b610a1e610a0f565b610a298184846109ea565b505050565b5f5b82811015610a4f57610a445f828401610a16565b600181019050610a30565b505050565b81831015610a8b57610a6582610934565b610a6e84610934565b610a7783610948565b818101610a8683850382610a2e565b505050505b505050565b68010000000000000000821115610aaa57610aa961088f565b5b610ab3816108bc565b828255610ac1838284610a54565b505050565b5f81519050919050565b5f610adb8251610736565b80915050919050565b5f819050602082019050919050565b5f819050919050565b610b0582610ac6565b67ffffffffffffffff811115610b1e57610b1d61088f565b5b610b288183610a90565b610b3183610ae4565b610b3a83610948565b600183045f5b81811015610b77575f610b5285610ad0565b610b5b81610af3565b8092506020870196505050808285015550600181019050610b40565b50505050505050565b5f81905092915050565b50565b5f610b985f83610b80565b9150610ba382610b8a565b5f82019050919050565b5f610bb782610b8d565b9150819050919050565b7f5472616e73204661696c656400000000000000000000000000000000000000005f82015250565b5f610bf5600c836107c4565b9150610c0082610bc1565b602082019050919050565b5f6020820190508181035f830152610c2281610be9565b9050919050565b5f69ffffffffffffffffffff82169050919050565b610c4781610c29565b8114610c51575f5ffd5b50565b5f81519050610c6281610c3e565b92915050565b5f819050919050565b610c7a81610c68565b8114610c84575f5ffd5b50565b5f81519050610c9581610c71565b92915050565b5f81519050610ca9816106c2565b92915050565b5f5f5f5f5f60a08688031215610cc857610cc76106be565b5b5f610cd588828901610c54565b9550506020610ce688828901610c87565b9450506040610cf788828901610c9b565b9350506060610d0888828901610c9b565b9250506080610d1988828901610c54565b9150509295509295909350565b5f610d3082610c68565b9150610d3b83610c68565b9250828202610d4981610c68565b91507f800000000000000000000000000000000000000000000000000000000000000084145f84121615610d8057610d7f6108c6565b5b8282058414831517610d9557610d946108c6565b5b5092915050565b7f576f726b206861726420616e6420706179206d65206d6f7265204554482062725f8201527f6f6f6f0000000000000000000000000000000000000000000000000000000000602082015250565b5f610df66023836107c4565b9150610e0182610d9c565b604082019050919050565b5f6020820190508181035f830152610e2381610dea565b9050919050565b5f610e348261068d565b9150610e3f8361068d565b9250828201905080821115610e5757610e566108c6565b5b92915050565b7f4e487b71000000000000000000000000000000000000000000000000000000005f52601260045260245ffd5b5f610e948261068d565b9150610e9f8361068d565b925082610eaf57610eae610e5d565b5b82820490509291505056fea264697066735822122003b5e13639ebc0711e38b8ab81728e3df0c7d02b69c93a3a9f1e0bb1f8f5ad3264736f6c63430008220033",
			"opcodes": "PUSH1 0x80 PUSH1 0x40 MSTORE PUSH8 0x4563918244F40000 PUSH0 SSTORE CALLVALUE DUP1 ISZERO PUSH1 0x19 JUMPI PUSH0 PUSH0 REVERT JUMPDEST POP CALLER PUSH1 0x3 PUSH0 PUSH2 0x100 EXP DUP2 SLOAD DUP2 PUSH20 0xFFFFFFFFFFFFFFFFFFFFFFFFFFFFFFFFFFFFFFFF MUL NOT AND SWAP1 DUP4 PUSH20 0xFFFFFFFFFFFFFFFFFFFFFFFFFFFFFFFFFFFFFFFF AND MUL OR SWAP1 SSTORE POP PUSH2 0xEF0 DUP1 PUSH2 0x67 PUSH0 CODECOPY PUSH0 RETURN INVALID PUSH1 0x80 PUSH1 0x40 MSTORE PUSH1 0x4 CALLDATASIZE LT PUSH2 0x7A JUMPI PUSH0 CALLDATALOAD PUSH1 0xE0 SHR DUP1 PUSH4 0x98D5FDCA GT PUSH2 0x4D JUMPI DUP1 PUSH4 0x98D5FDCA EQ PUSH2 0x124 JUMPI DUP1 PUSH4 0xB60D4288 EQ PUSH2 0x14E JUMPI DUP1 PUSH4 0xEA8906E9 EQ PUSH2 0x158 JUMPI DUP1 PUSH4 0xF6D24A20 EQ PUSH2 0x194 JUMPI PUSH2 0x7A JUMP JUMPDEST DUP1 PUSH4 0x3CCFD60B EQ PUSH2 0x7E JUMPI DUP1 PUSH4 0x6B69A592 EQ PUSH2 0x94 JUMPI DUP1 PUSH4 0x819188CF EQ PUSH2 0xBE JUMPI DUP1 PUSH4 0x8DA5CB5B EQ PUSH2 0xFA JUMPI JUMPDEST PUSH0 PUSH0 REVERT JUMPDEST CALLVALUE DUP1 ISZERO PUSH2 0x89 JUMPI PUSH0 PUSH0 REVERT JUMPDEST POP PUSH2 0x92 PUSH2 0x1D0 JUMP JUMPDEST STOP JUMPDEST CALLVALUE DUP1 ISZERO PUSH2 0x9F JUMPI PUSH0 PUSH0 REVERT JUMPDEST POP PUSH2 0xA8 PUSH2 0x404 JUMP JUMPDEST PUSH1 0x40 MLOAD PUSH2 0xB5 SWAP2 SWAP1 PUSH2 0x6A5 JUMP JUMPDEST PUSH1 0x40 MLOAD DUP1 SWAP2 SUB SWAP1 RETURN JUMPDEST CALLVALUE DUP1 ISZERO PUSH2 0xC9 JUMPI PUSH0 PUSH0 REVERT JUMPDEST POP PUSH2 0xE4 PUSH1 0x4 DUP1 CALLDATASIZE SUB DUP2 ADD SWAP1 PUSH2 0xDF SWAP2 SWAP1 PUSH2 0x6EC JUMP JUMPDEST PUSH2 0x409 JUMP JUMPDEST PUSH1 0x40 MLOAD PUSH2 0xF1 SWAP2 SWAP1 PUSH2 0x756 JUMP JUMPDEST PUSH1 0x40 MLOAD DUP1 SWAP2 SUB SWAP1 RETURN JUMPDEST CALLVALUE DUP1 ISZERO PUSH2 0x105 JUMPI PUSH0 PUSH0 REVERT JUMPDEST POP PUSH2 0x10E PUSH2 0x444 JUMP JUMPDEST PUSH1 0x40 MLOAD PUSH2 0x11B SWAP2 SWAP1 PUSH2 0x756 JUMP JUMPDEST PUSH1 0x40 MLOAD DUP1 SWAP2 SUB SWAP1 RETURN JUMPDEST CALLVALUE DUP1 ISZERO PUSH2 0x12F JUMPI PUSH0 PUSH0 REVERT JUMPDEST POP PUSH2 0x138 PUSH2 0x469 JUMP JUMPDEST PUSH1 0x40 MLOAD PUSH2 0x145 SWAP2 SWAP1 PUSH2 0x6A5 JUMP JUMPDEST PUSH1 0x40 MLOAD DUP1 SWAP2 SUB SWAP1 RETURN JUMPDEST PUSH2 0x156 PUSH2 0x509 JUMP JUMPDEST STOP JUMPDEST CALLVALUE DUP1 ISZERO PUSH2 0x163 JUMPI PUSH0 PUSH0 REVERT JUMPDEST POP PUSH2 0x17E PUSH1 0x4 DUP1 CALLDATASIZE SUB DUP2 ADD SWAP1 PUSH2 0x179 SWAP2 SWAP1 PUSH2 0x799 JUMP JUMPDEST PUSH2 0x640 JUMP JUMPDEST PUSH1 0x40 MLOAD PUSH2 0x18B SWAP2 SWAP1 PUSH2 0x6A5 JUMP JUMPDEST PUSH1 0x40 MLOAD DUP1 SWAP2 SUB SWAP1 RETURN JUMPDEST CALLVALUE DUP1 ISZERO PUSH2 0x19F JUMPI PUSH0 PUSH0 REVERT JUMPDEST POP PUSH2 0x1BA PUSH1 0x4 DUP1 CALLDATASIZE SUB DUP2 ADD SWAP1 PUSH2 0x1B5 SWAP2 SWAP1 PUSH2 0x6EC JUMP JUMPDEST PUSH2 0x655 JUMP JUMPDEST PUSH1 0x40 MLOAD PUSH2 0x1C7 SWAP2 SWAP1 PUSH2 0x6A5 JUMP JUMPDEST PUSH1 0x40 MLOAD DUP1 SWAP2 SUB SWAP1 RETURN JUMPDEST PUSH1 0x3 PUSH0 SWAP1 SLOAD SWAP1 PUSH2 0x100 EXP SWAP1 DIV PUSH20 0xFFFFFFFFFFFFFFFFFFFFFFFFFFFFFFFFFFFFFFFF AND PUSH20 0xFFFFFFFFFFFFFFFFFFFFFFFFFFFFFFFFFFFFFFFF AND CALLER PUSH20 0xFFFFFFFFFFFFFFFFFFFFFFFFFFFFFFFFFFFFFFFF AND EQ PUSH2 0x25F JUMPI PUSH1 0x40 MLOAD PUSH32 0x8C379A000000000000000000000000000000000000000000000000000000000 DUP2 MSTORE PUSH1 0x4 ADD PUSH2 0x256 SWAP1 PUSH2 0x844 JUMP JUMPDEST PUSH1 0x40 MLOAD DUP1 SWAP2 SUB SWAP1 REVERT JUMPDEST PUSH0 PUSH0 SWAP1 POP JUMPDEST PUSH1 0x1 DUP1 SLOAD SWAP1 POP DUP2 LT ISZERO PUSH2 0x300 JUMPI PUSH0 PUSH1 0x1 DUP3 DUP2 SLOAD DUP2 LT PUSH2 0x286 JUMPI PUSH2 0x285 PUSH2 0x862 JUMP JUMPDEST JUMPDEST SWAP1 PUSH0 MSTORE PUSH1 0x20 PUSH0 KECCAK256 ADD PUSH0 SWAP1 SLOAD SWAP1 PUSH2 0x100 EXP SWAP1 DIV PUSH20 0xFFFFFFFFFFFFFFFFFFFFFFFFFFFFFFFFFFFFFFFF AND SWAP1 POP PUSH0 PUSH1 0x2 PUSH0 DUP4 PUSH20 0xFFFFFFFFFFFFFFFFFFFFFFFFFFFFFFFFFFFFFFFF AND PUSH20 0xFFFFFFFFFFFFFFFFFFFFFFFFFFFFFFFFFFFFFFFF AND DUP2 MSTORE PUSH1 0x20 ADD SWAP1 DUP2 MSTORE PUSH1 0x20 ADD PUSH0 KECCAK256 DUP2 SWAP1 SSTORE POP POP DUP1 DUP1 PUSH1 0x1 ADD SWAP2 POP POP PUSH2 0x264 JUMP JUMPDEST POP PUSH0 PUSH8 0xFFFFFFFFFFFFFFFF DUP2 GT ISZERO PUSH2 0x31B JUMPI PUSH2 0x31A PUSH2 0x88F JUMP JUMPDEST JUMPDEST PUSH1 0x40 MLOAD SWAP1 DUP1 DUP3 MSTORE DUP1 PUSH1 0x20 MUL PUSH1 0x20 ADD DUP3 ADD PUSH1 0x40 MSTORE DUP1 ISZERO PUSH2 0x349 JUMPI DUP2 PUSH1 0x20 ADD PUSH1 0x20 DUP3 MUL DUP1 CALLDATASIZE DUP4 CALLDATACOPY DUP1 DUP3 ADD SWAP2 POP POP SWAP1 POP JUMPDEST POP PUSH1 0x1 SWAP1 DUP2 PUSH2 0x358 SWAP2 SWAP1 PUSH2 0xAFC JUMP JUMPDEST POP PUSH0 CALLER PUSH20 0xFFFFFFFFFFFFFFFFFFFFFFFFFFFFFFFFFFFFFFFF AND SELFBALANCE PUSH1 0x40 MLOAD PUSH2 0x37E SWAP1 PUSH2 0xBAD JUMP JUMPDEST PUSH0 PUSH1 0x40 MLOAD DUP1 DUP4 SUB DUP2 DUP6 DUP8 GAS CALL SWAP3 POP POP POP RETURNDATASIZE DUP1 PUSH0 DUP2 EQ PUSH2 0x3B8 JUMPI PUSH1 0x40 MLOAD SWAP2 POP PUSH1 0x1F NOT PUSH1 0x3F RETURNDATASIZE ADD AND DUP3 ADD PUSH1 0x40 MSTORE RETURNDATASIZE DUP3 MSTORE RETURNDATASIZE PUSH0 PUSH1 0x20 DUP5 ADD RETURNDATACOPY PUSH2 0x3BD JUMP JUMPDEST PUSH1 0x60 SWAP2 POP JUMPDEST POP POP SWAP1 POP DUP1 PUSH2 0x401 JUMPI PUSH1 0x40 MLOAD PUSH32 0x8C379A000000000000000000000000000000000000000000000000000000000 DUP2 MSTORE PUSH1 0x4 ADD PUSH2 0x3F8 SWAP1 PUSH2 0xC0B JUMP JUMPDEST PUSH1 0x40 MLOAD DUP1 SWAP2 SUB SWAP1 REVERT JUMPDEST POP JUMP JUMPDEST PUSH0 SLOAD DUP2 JUMP JUMPDEST PUSH1 0x1 DUP2 DUP2 SLOAD DUP2 LT PUSH2 0x418 JUMPI PUSH0 DUP1 REVERT JUMPDEST SWAP1 PUSH0 MSTORE PUSH1 0x20 PUSH0 KECCAK256 ADD PUSH0 SWAP2 POP SLOAD SWAP1 PUSH2 0x100 EXP SWAP1 DIV PUSH20 0xFFFFFFFFFFFFFFFFFFFFFFFFFFFFFFFFFFFFFFFF AND DUP2 JUMP JUMPDEST PUSH1 0x3 PUSH0 SWAP1 SLOAD SWAP1 PUSH2 0x100 EXP SWAP1 DIV PUSH20 0xFFFFFFFFFFFFFFFFFFFFFFFFFFFFFFFFFFFFFFFF AND DUP2 JUMP JUMPDEST PUSH0 PUSH0 PUSH20 0x5F4EC3DF9CBD43714FE2740F5E3616155C5B8419 PUSH20 0xFFFFFFFFFFFFFFFFFFFFFFFFFFFFFFFFFFFFFFFF AND PUSH4 0xFEAF968C PUSH1 0x40 MLOAD DUP2 PUSH4 0xFFFFFFFF AND PUSH1 0xE0 SHL DUP2 MSTORE PUSH1 0x4 ADD PUSH1 0xA0 PUSH1 0x40 MLOAD DUP1 DUP4 SUB DUP2 DUP7 GAS STATICCALL ISZERO DUP1 ISZERO PUSH2 0x4C8 JUMPI RETURNDATASIZE PUSH0 PUSH0 RETURNDATACOPY RETURNDATASIZE PUSH0 REVERT JUMPDEST POP POP POP POP PUSH1 0x40 MLOAD RETURNDATASIZE PUSH1 0x1F NOT PUSH1 0x1F DUP3 ADD AND DUP3 ADD DUP1 PUSH1 0x40 MSTORE POP DUP2 ADD SWAP1 PUSH2 0x4EC SWAP2 SWAP1 PUSH2 0xCAF JUMP JUMPDEST POP POP POP SWAP2 POP POP PUSH5 0x2540BE400 DUP2 PUSH2 0x503 SWAP2 SWAP1 PUSH2 0xD26 JUMP JUMPDEST SWAP2 POP POP SWAP1 JUMP JUMPDEST PUSH0 SLOAD PUSH2 0x514 CALLVALUE PUSH2 0x655 JUMP JUMPDEST GT PUSH2 0x554 JUMPI PUSH1 0x40 MLOAD PUSH32 0x8C379A000000000000000000000000000000000000000000000000000000000 DUP2 MSTORE PUSH1 0x4 ADD PUSH2 0x54B SWAP1 PUSH2 0xE0C JUMP JUMPDEST PUSH1 0x40 MLOAD DUP1 SWAP2 SUB SWAP1 REVERT JUMPDEST PUSH1 0x1 CALLER SWAP1 DUP1 PUSH1 0x1 DUP2 SLOAD ADD DUP1 DUP3 SSTORE DUP1 SWAP2 POP POP PUSH1 0x1 SWAP1 SUB SWAP1 PUSH0 MSTORE PUSH1 0x20 PUSH0 KECCAK256 ADD PUSH0 SWAP1 SWAP2 SWAP1 SWAP2 SWAP1 SWAP2 PUSH2 0x100 EXP DUP2 SLOAD DUP2 PUSH20 0xFFFFFFFFFFFFFFFFFFFFFFFFFFFFFFFFFFFFFFFF MUL NOT AND SWAP1 DUP4 PUSH20 0xFFFFFFFFFFFFFFFFFFFFFFFFFFFFFFFFFFFFFFFF AND MUL OR SWAP1 SSTORE POP CALLVALUE PUSH1 0x2 PUSH0 CALLER PUSH20 0xFFFFFFFFFFFFFFFFFFFFFFFFFFFFFFFFFFFFFFFF AND PUSH20 0xFFFFFFFFFFFFFFFFFFFFFFFFFFFFFFFFFFFFFFFF AND DUP2 MSTORE PUSH1 0x20 ADD SWAP1 DUP2 MSTORE PUSH1 0x20 ADD PUSH0 KECCAK256 SLOAD PUSH2 0x5FD SWAP2 SWAP1 PUSH2 0xE2A JUMP JUMPDEST PUSH1 0x2 PUSH0 CALLER PUSH20 0xFFFFFFFFFFFFFFFFFFFFFFFFFFFFFFFFFFFFFFFF AND PUSH20 0xFFFFFFFFFFFFFFFFFFFFFFFFFFFFFFFFFFFFFFFF AND DUP2 MSTORE PUSH1 0x20 ADD SWAP1 DUP2 MSTORE PUSH1 0x20 ADD PUSH0 KECCAK256 DUP2 SWAP1 SSTORE POP JUMP JUMPDEST PUSH1 0x2 PUSH1 0x20 MSTORE DUP1 PUSH0 MSTORE PUSH1 0x40 PUSH0 KECCAK256 PUSH0 SWAP2 POP SWAP1 POP SLOAD DUP2 JUMP JUMPDEST PUSH0 PUSH0 PUSH2 0x65F PUSH2 0x469 JUMP JUMPDEST SWAP1 POP PUSH0 PUSH8 0xDE0B6B3A7640000 DUP5 DUP4 PUSH2 0x677 SWAP2 SWAP1 PUSH2 0x8F3 JUMP JUMPDEST PUSH2 0x681 SWAP2 SWAP1 PUSH2 0xE8A JUMP JUMPDEST SWAP1 POP DUP1 SWAP3 POP POP POP SWAP2 SWAP1 POP JUMP JUMPDEST PUSH0 DUP2 SWAP1 POP SWAP2 SWAP1 POP JUMP JUMPDEST PUSH2 0x69F DUP2 PUSH2 0x68D JUMP JUMPDEST DUP3 MSTORE POP POP JUMP JUMPDEST PUSH0 PUSH1 0x20 DUP3 ADD SWAP1 POP PUSH2 0x6B8 PUSH0 DUP4 ADD DUP5 PUSH2 0x696 JUMP JUMPDEST SWAP3 SWAP2 POP POP JUMP JUMPDEST PUSH0 PUSH0 REVERT JUMPDEST PUSH2 0x6CB DUP2 PUSH2 0x68D JUMP JUMPDEST DUP2 EQ PUSH2 0x6D5 JUMPI PUSH0 PUSH0 REVERT JUMPDEST POP JUMP JUMPDEST PUSH0 DUP2 CALLDATALOAD SWAP1 POP PUSH2 0x6E6 DUP2 PUSH2 0x6C2 JUMP JUMPDEST SWAP3 SWAP2 POP POP JUMP JUMPDEST PUSH0 PUSH1 0x20 DUP3 DUP5 SUB SLT ISZERO PUSH2 0x701 JUMPI PUSH2 0x700 PUSH2 0x6BE JUMP JUMPDEST JUMPDEST PUSH0 PUSH2 0x70E DUP5 DUP3 DUP6 ADD PUSH2 0x6D8 JUMP JUMPDEST SWAP2 POP POP SWAP3 SWAP2 POP POP JUMP JUMPDEST PUSH0 PUSH20 0xFFFFFFFFFFFFFFFFFFFFFFFFFFFFFFFFFFFFFFFF DUP3 AND SWAP1 POP SWAP2 SWAP1 POP JUMP JUMPDEST PUSH0 PUSH2 0x740 DUP3 PUSH2 0x717 JUMP JUMPDEST SWAP1 POP SWAP2 SWAP1 POP JUMP JUMPDEST PUSH2 0x750 DUP2 PUSH2 0x736 JUMP JUMPDEST DUP3 MSTORE POP POP JUMP JUMPDEST PUSH0 PUSH1 0x20 DUP3 ADD SWAP1 POP PUSH2 0x769 PUSH0 DUP4 ADD DUP5 PUSH2 0x747 JUMP JUMPDEST SWAP3 SWAP2 POP POP JUMP JUMPDEST PUSH2 0x778 DUP2 PUSH2 0x736 JUMP JUMPDEST DUP2 EQ PUSH2 0x782 JUMPI PUSH0 PUSH0 REVERT JUMPDEST POP JUMP JUMPDEST PUSH0 DUP2 CALLDATALOAD SWAP1 POP PUSH2 0x793 DUP2 PUSH2 0x76F JUMP JUMPDEST SWAP3 SWAP2 POP POP JUMP JUMPDEST PUSH0 PUSH1 0x20 DUP3 DUP5 SUB SLT ISZERO PUSH2 0x7AE JUMPI PUSH2 0x7AD PUSH2 0x6BE JUMP JUMPDEST JUMPDEST PUSH0 PUSH2 0x7BB DUP5 DUP3 DUP6 ADD PUSH2 0x785 JUMP JUMPDEST SWAP2 POP POP SWAP3 SWAP2 POP POP JUMP JUMPDEST PUSH0 DUP3 DUP3 MSTORE PUSH1 0x20 DUP3 ADD SWAP1 POP SWAP3 SWAP2 POP POP JUMP JUMPDEST PUSH32 0x596F752061696E7420616E206F776E65722062726F6F6F2C48617264204C7563 PUSH0 DUP3 ADD MSTORE PUSH32 0x6B00000000000000000000000000000000000000000000000000000000000000 PUSH1 0x20 DUP3 ADD MSTORE POP JUMP JUMPDEST PUSH0 PUSH2 0x82E PUSH1 0x21 DUP4 PUSH2 0x7C4 JUMP JUMPDEST SWAP2 POP PUSH2 0x839 DUP3 PUSH2 0x7D4 JUMP JUMPDEST PUSH1 0x40 DUP3 ADD SWAP1 POP SWAP2 SWAP1 POP JUMP JUMPDEST PUSH0 PUSH1 0x20 DUP3 ADD SWAP1 POP DUP2 DUP2 SUB PUSH0 DUP4 ADD MSTORE PUSH2 0x85B DUP2 PUSH2 0x822 JUMP JUMPDEST SWAP1 POP SWAP2 SWAP1 POP JUMP JUMPDEST PUSH32 0x4E487B7100000000000000000000000000000000000000000000000000000000 PUSH0 MSTORE PUSH1 0x32 PUSH1 0x4 MSTORE PUSH1 0x24 PUSH0 REVERT JUMPDEST PUSH32 0x4E487B7100000000000000000000000000000000000000000000000000000000 PUSH0 MSTORE PUSH1 0x41 PUSH1 0x4 MSTORE PUSH1 0x24 PUSH0 REVERT JUMPDEST PUSH0 DUP2 SLOAD SWAP1 POP SWAP2 SWAP1 POP JUMP JUMPDEST PUSH32 0x4E487B7100000000000000000000000000000000000000000000000000000000 PUSH0 MSTORE PUSH1 0x11 PUSH1 0x4 MSTORE PUSH1 0x24 PUSH0 REVERT JUMPDEST PUSH0 PUSH2 0x8FD DUP3 PUSH2 0x68D JUMP JUMPDEST SWAP2 POP PUSH2 0x908 DUP4 PUSH2 0x68D JUMP JUMPDEST SWAP3 POP DUP3 DUP3 MUL PUSH2 0x916 DUP2 PUSH2 0x68D JUMP JUMPDEST SWAP2 POP DUP3 DUP3 DIV DUP5 EQ DUP4 ISZERO OR PUSH2 0x92D JUMPI PUSH2 0x92C PUSH2 0x8C6 JUMP JUMPDEST JUMPDEST POP SWAP3 SWAP2 POP POP JUMP JUMPDEST PUSH0 DUP2 SWAP1 POP PUSH1 0x1 DUP1 PUSH1 0x1 SUB DUP4 ADD DIV SWAP1 POP SWAP2 SWAP1 POP JUMP JUMPDEST PUSH0 DUP2 SWAP1 POP DUP2 PUSH0 MSTORE PUSH1 0x20 PUSH0 KECCAK256 SWAP1 POP SWAP2 SWAP1 POP JUMP JUMPDEST PUSH0 DUP3 DUP3 SHL SWAP1 POP SWAP3 SWAP2 POP POP JUMP JUMPDEST PUSH0 PUSH1 0x8 DUP4 MUL PUSH2 0x995 PUSH32 0xFFFFFFFFFFFFFFFFFFFFFFFFFFFFFFFFFFFFFFFFFFFFFFFFFFFFFFFFFFFFFFFF DUP3 PUSH2 0x95A JUMP JUMPDEST PUSH2 0x99F DUP7 DUP4 PUSH2 0x95A JUMP JUMPDEST SWAP6 POP DUP1 NOT DUP5 AND SWAP4 POP DUP1 DUP7 AND DUP5 OR SWAP3 POP POP POP SWAP4 SWAP3 POP POP POP JUMP JUMPDEST PUSH0 DUP2 SWAP1 POP SWAP2 SWAP1 POP JUMP JUMPDEST PUSH0 PUSH2 0x9DA PUSH2 0x9D5 PUSH2 0x9D0 DUP5 PUSH2 0x68D JUMP JUMPDEST PUSH2 0x9B7 JUMP JUMPDEST PUSH2 0x68D JUMP JUMPDEST SWAP1 POP SWAP2 SWAP1 POP JUMP JUMPDEST PUSH0 DUP2 SWAP1 POP SWAP2 SWAP1 POP JUMP JUMPDEST PUSH2 0x9F3 DUP4 PUSH2 0x9C0 JUMP JUMPDEST PUSH2 0xA07 PUSH2 0x9FF DUP3 PUSH2 0x9E1 JUMP JUMPDEST DUP5 DUP5 SLOAD PUSH2 0x966 JUMP JUMPDEST DUP3 SSTORE POP POP POP POP JUMP JUMPDEST PUSH0 PUSH0 SWAP1 POP SWAP1 JUMP JUMPDEST PUSH2 0xA1E PUSH2 0xA0F JUMP JUMPDEST PUSH2 0xA29 DUP2 DUP5 DUP5 PUSH2 0x9EA JUMP JUMPDEST POP POP POP JUMP JUMPDEST PUSH0 JUMPDEST DUP3 DUP2 LT ISZERO PUSH2 0xA4F JUMPI PUSH2 0xA44 PUSH0 DUP3 DUP5 ADD PUSH2 0xA16 JUMP JUMPDEST PUSH1 0x1 DUP2 ADD SWAP1 POP PUSH2 0xA30 JUMP JUMPDEST POP POP POP JUMP JUMPDEST DUP2 DUP4 LT ISZERO PUSH2 0xA8B JUMPI PUSH2 0xA65 DUP3 PUSH2 0x934 JUMP JUMPDEST PUSH2 0xA6E DUP5 PUSH2 0x934 JUMP JUMPDEST PUSH2 0xA77 DUP4 PUSH2 0x948 JUMP JUMPDEST DUP2 DUP2 ADD PUSH2 0xA86 DUP4 DUP6 SUB DUP3 PUSH2 0xA2E JUMP JUMPDEST POP POP POP POP JUMPDEST POP POP POP JUMP JUMPDEST PUSH9 0x10000000000000000 DUP3 GT ISZERO PUSH2 0xAAA JUMPI PUSH2 0xAA9 PUSH2 0x88F JUMP JUMPDEST JUMPDEST PUSH2 0xAB3 DUP2 PUSH2 0x8BC JUMP JUMPDEST DUP3 DUP3 SSTORE PUSH2 0xAC1 DUP4 DUP3 DUP5 PUSH2 0xA54 JUMP JUMPDEST POP POP POP JUMP JUMPDEST PUSH0 DUP2 MLOAD SWAP1 POP SWAP2 SWAP1 POP JUMP JUMPDEST PUSH0 PUSH2 0xADB DUP3 MLOAD PUSH2 0x736 JUMP JUMPDEST DUP1 SWAP2 POP POP SWAP2 SWAP1 POP JUMP JUMPDEST PUSH0 DUP2 SWAP1 POP PUSH1 0x20 DUP3 ADD SWAP1 POP SWAP2 SWAP1 POP JUMP JUMPDEST PUSH0 DUP2 SWAP1 POP SWAP2 SWAP1 POP JUMP JUMPDEST PUSH2 0xB05 DUP3 PUSH2 0xAC6 JUMP JUMPDEST PUSH8 0xFFFFFFFFFFFFFFFF DUP2 GT ISZERO PUSH2 0xB1E JUMPI PUSH2 0xB1D PUSH2 0x88F JUMP JUMPDEST JUMPDEST PUSH2 0xB28 DUP2 DUP4 PUSH2 0xA90 JUMP JUMPDEST PUSH2 0xB31 DUP4 PUSH2 0xAE4 JUMP JUMPDEST PUSH2 0xB3A DUP4 PUSH2 0x948 JUMP JUMPDEST PUSH1 0x1 DUP4 DIV PUSH0 JUMPDEST DUP2 DUP2 LT ISZERO PUSH2 0xB77 JUMPI PUSH0 PUSH2 0xB52 DUP6 PUSH2 0xAD0 JUMP JUMPDEST PUSH2 0xB5B DUP2 PUSH2 0xAF3 JUMP JUMPDEST DUP1 SWAP3 POP PUSH1 0x20 DUP8 ADD SWAP7 POP POP POP DUP1 DUP3 DUP6 ADD SSTORE POP PUSH1 0x1 DUP2 ADD SWAP1 POP PUSH2 0xB40 JUMP JUMPDEST POP POP POP POP POP POP POP JUMP JUMPDEST PUSH0 DUP2 SWAP1 POP SWAP3 SWAP2 POP POP JUMP JUMPDEST POP JUMP JUMPDEST PUSH0 PUSH2 0xB98 PUSH0 DUP4 PUSH2 0xB80 JUMP JUMPDEST SWAP2 POP PUSH2 0xBA3 DUP3 PUSH2 0xB8A JUMP JUMPDEST PUSH0 DUP3 ADD SWAP1 POP SWAP2 SWAP1 POP JUMP JUMPDEST PUSH0 PUSH2 0xBB7 DUP3 PUSH2 0xB8D JUMP JUMPDEST SWAP2 POP DUP2 SWAP1 POP SWAP2 SWAP1 POP JUMP JUMPDEST PUSH32 0x5472616E73204661696C65640000000000000000000000000000000000000000 PUSH0 DUP3 ADD MSTORE POP JUMP JUMPDEST PUSH0 PUSH2 0xBF5 PUSH1 0xC DUP4 PUSH2 0x7C4 JUMP JUMPDEST SWAP2 POP PUSH2 0xC00 DUP3 PUSH2 0xBC1 JUMP JUMPDEST PUSH1 0x20 DUP3 ADD SWAP1 POP SWAP2 SWAP1 POP JUMP JUMPDEST PUSH0 PUSH1 0x20 DUP3 ADD SWAP1 POP DUP2 DUP2 SUB PUSH0 DUP4 ADD MSTORE PUSH2 0xC22 DUP2 PUSH2 0xBE9 JUMP JUMPDEST SWAP1 POP SWAP2 SWAP1 POP JUMP JUMPDEST PUSH0 PUSH10 0xFFFFFFFFFFFFFFFFFFFF DUP3 AND SWAP1 POP SWAP2 SWAP1 POP JUMP JUMPDEST PUSH2 0xC47 DUP2 PUSH2 0xC29 JUMP JUMPDEST DUP2 EQ PUSH2 0xC51 JUMPI PUSH0 PUSH0 REVERT JUMPDEST POP JUMP JUMPDEST PUSH0 DUP2 MLOAD SWAP1 POP PUSH2 0xC62 DUP2 PUSH2 0xC3E JUMP JUMPDEST SWAP3 SWAP2 POP POP JUMP JUMPDEST PUSH0 DUP2 SWAP1 POP SWAP2 SWAP1 POP JUMP JUMPDEST PUSH2 0xC7A DUP2 PUSH2 0xC68 JUMP JUMPDEST DUP2 EQ PUSH2 0xC84 JUMPI PUSH0 PUSH0 REVERT JUMPDEST POP JUMP JUMPDEST PUSH0 DUP2 MLOAD SWAP1 POP PUSH2 0xC95 DUP2 PUSH2 0xC71 JUMP JUMPDEST SWAP3 SWAP2 POP POP JUMP JUMPDEST PUSH0 DUP2 MLOAD SWAP1 POP PUSH2 0xCA9 DUP2 PUSH2 0x6C2 JUMP JUMPDEST SWAP3 SWAP2 POP POP JUMP JUMPDEST PUSH0 PUSH0 PUSH0 PUSH0 PUSH0 PUSH1 0xA0 DUP7 DUP9 SUB SLT ISZERO PUSH2 0xCC8 JUMPI PUSH2 0xCC7 PUSH2 0x6BE JUMP JUMPDEST JUMPDEST PUSH0 PUSH2 0xCD5 DUP9 DUP3 DUP10 ADD PUSH2 0xC54 JUMP JUMPDEST SWAP6 POP POP PUSH1 0x20 PUSH2 0xCE6 DUP9 DUP3 DUP10 ADD PUSH2 0xC87 JUMP JUMPDEST SWAP5 POP POP PUSH1 0x40 PUSH2 0xCF7 DUP9 DUP3 DUP10 ADD PUSH2 0xC9B JUMP JUMPDEST SWAP4 POP POP PUSH1 0x60 PUSH2 0xD08 DUP9 DUP3 DUP10 ADD PUSH2 0xC9B JUMP JUMPDEST SWAP3 POP POP PUSH1 0x80 PUSH2 0xD19 DUP9 DUP3 DUP10 ADD PUSH2 0xC54 JUMP JUMPDEST SWAP2 POP POP SWAP3 SWAP6 POP SWAP3 SWAP6 SWAP1 SWAP4 POP JUMP JUMPDEST PUSH0 PUSH2 0xD30 DUP3 PUSH2 0xC68 JUMP JUMPDEST SWAP2 POP PUSH2 0xD3B DUP4 PUSH2 0xC68 JUMP JUMPDEST SWAP3 POP DUP3 DUP3 MUL PUSH2 0xD49 DUP2 PUSH2 0xC68 JUMP JUMPDEST SWAP2 POP PUSH32 0x8000000000000000000000000000000000000000000000000000000000000000 DUP5 EQ PUSH0 DUP5 SLT AND ISZERO PUSH2 0xD80 JUMPI PUSH2 0xD7F PUSH2 0x8C6 JUMP JUMPDEST JUMPDEST DUP3 DUP3 SDIV DUP5 EQ DUP4 ISZERO OR PUSH2 0xD95 JUMPI PUSH2 0xD94 PUSH2 0x8C6 JUMP JUMPDEST JUMPDEST POP SWAP3 SWAP2 POP POP JUMP JUMPDEST PUSH32 0x576F726B206861726420616E6420706179206D65206D6F726520455448206272 PUSH0 DUP3 ADD MSTORE PUSH32 0x6F6F6F0000000000000000000000000000000000000000000000000000000000 PUSH1 0x20 DUP3 ADD MSTORE POP JUMP JUMPDEST PUSH0 PUSH2 0xDF6 PUSH1 0x23 DUP4 PUSH2 0x7C4 JUMP JUMPDEST SWAP2 POP PUSH2 0xE01 DUP3 PUSH2 0xD9C JUMP JUMPDEST PUSH1 0x40 DUP3 ADD SWAP1 POP SWAP2 SWAP1 POP JUMP JUMPDEST PUSH0 PUSH1 0x20 DUP3 ADD SWAP1 POP DUP2 DUP2 SUB PUSH0 DUP4 ADD MSTORE PUSH2 0xE23 DUP2 PUSH2 0xDEA JUMP JUMPDEST SWAP1 POP SWAP2 SWAP1 POP JUMP JUMPDEST PUSH0 PUSH2 0xE34 DUP3 PUSH2 0x68D JUMP JUMPDEST SWAP2 POP PUSH2 0xE3F DUP4 PUSH2 0x68D JUMP JUMPDEST SWAP3 POP DUP3 DUP3 ADD SWAP1 POP DUP1 DUP3 GT ISZERO PUSH2 0xE57 JUMPI PUSH2 0xE56 PUSH2 0x8C6 JUMP JUMPDEST JUMPDEST SWAP3 SWAP2 POP POP JUMP JUMPDEST PUSH32 0x4E487B7100000000000000000000000000000000000000000000000000000000 PUSH0 MSTORE PUSH1 0x12 PUSH1 0x4 MSTORE PUSH1 0x24 PUSH0 REVERT JUMPDEST PUSH0 PUSH2 0xE94 DUP3 PUSH2 0x68D JUMP JUMPDEST SWAP2 POP PUSH2 0xE9F DUP4 PUSH2 0x68D JUMP JUMPDEST SWAP3 POP DUP3 PUSH2 0xEAF JUMPI PUSH2 0xEAE PUSH2 0xE5D JUMP JUMPDEST JUMPDEST DUP3 DUP3 DIV SWAP1 POP SWAP3 SWAP2 POP POP JUMP INVALID LOG2 PUSH5 0x6970667358 0x22 SLT KECCAK256 SUB 0xB5 RJUMPI 0x3639 0xEB 0xC0 PUSH18 0x1E38B8AB81728E3DF0C7D02B69C93A3A9F1E SIGNEXTEND 0xB1 EXTCALL CREATE2 0xAD ORIGIN PUSH5 0x736F6C6343 STOP ADDMOD 0x22 STOP CALLER "
		},
		"gasEstimates": {
			"creation": {
				"codeDepositCost": "764800",
				"executionCost": "47167",
				"totalCost": "811967"
			},
			"external": {
				"AddToAmnt(address)": "2846",
				"AmntInUsd(uint256)": "infinite",
				"MINIMUM_USD()": "2447",
				"UsersAddress(uint256)": "4989",
				"fund()": "infinite",
				"getPrice()": "infinite",
				"owner()": "2575",
				"withdraw()": "infinite"
			}
		},
		"methodIdentifiers": {
			"AddToAmnt(address)": "ea8906e9",
			"AmntInUsd(uint256)": "f6d24a20",
			"MINIMUM_USD()": "6b69a592",
			"UsersAddress(uint256)": "819188cf",
			"fund()": "b60d4288",
			"getPrice()": "98d5fdca",
			"owner()": "8da5cb5b",
			"withdraw()": "3ccfd60b"
		}
	},
	"abi": [
		{
			"inputs": [],
			"stateMutability": "nonpayable",
			"type": "constructor"
		},
		{
			"inputs": [
				{
					"internalType": "address",
					"name": "funders",
					"type": "address"
				}
			],
			"name": "AddToAmnt",
			"outputs": [
				{
					"internalType": "uint256",
					"name": "NetAmountPaid",
					"type": "uint256"
				}
			],
			"stateMutability": "view",
			"type": "function"
		},
		{
			"inputs": [
				{
					"internalType": "uint256",
					"name": "ethAmount",
					"type": "uint256"
				}
			],
			"name": "AmntInUsd",
			"outputs": [
				{
					"internalType": "uint256",
					"name": "",
					"type": "uint256"
				}
			],
			"stateMutability": "view",
			"type": "function"
		},
		{
			"inputs": [],
			"name": "MINIMUM_USD",
			"outputs": [
				{
					"internalType": "uint256",
					"name": "",
					"type": "uint256"
				}
			],
			"stateMutability": "view",
			"type": "function"
		},
		{
			"inputs": [
				{
					"internalType": "uint256",
					"name": "",
					"type": "uint256"
				}
			],
			"name": "UsersAddress",
			"outputs": [
				{
					"internalType": "address",
					"name": "",
					"type": "address"
				}
			],
			"stateMutability": "view",
			"type": "function"
		},
		{
			"inputs": [],
			"name": "fund",
			"outputs": [],
			"stateMutability": "payable",
			"type": "function"
		},
		{
			"inputs": [],
			"name": "getPrice",
			"outputs": [
				{
					"internalType": "uint256",
					"name": "",
					"type": "uint256"
				}
			],
			"stateMutability": "view",
			"type": "function"
		},
		{
			"inputs": [],
			"name": "owner",
			"outputs": [
				{
					"internalType": "address",
					"name": "",
					"type": "address"
				}
			],
			"stateMutability": "view",
			"type": "function"
		},
		{
			"inputs": [],
			"name": "withdraw",
			"outputs": [],
			"stateMutability": "nonpayable",
			"type": "function"
		}
	]
}