{
	"data": {
		"bytecode": {
			"linkReferences": {},
			"object": "6080604052348015600e575f5ffd5b506107da8061001c5f395ff3fe60806040526004361061003e575f3560e01c8063819188cf14610042578063b60d42881461007e578063bd6d2adb14610088578063ea8906e9146100b2575b5f5ffd5b34801561004d575f5ffd5b5061006860048036038101906100639190610395565b6100ee565b60405161007591906103ff565b60405180910390f35b610086610128565b005b348015610093575f5ffd5b5061009c610265565b6040516100a99190610427565b60405180910390f35b3480156100bd575f5ffd5b506100d860048036038101906100d3919061046a565b610271565b6040516100e59190610427565b60405180910390f35b5f81815481106100fc575f80fd5b905f5260205f20015f915054906101000a900473ffffffffffffffffffffffffffffffffffffffff1681565b674563918244f4000061013a34610286565b1161017a576040517f08c379a000000000000000000000000000000000000000000000000000000000815260040161017190610515565b60405180910390fd5b5f33908060018154018082558091505060019003905f5260205f20015f9091909190916101000a81548173ffffffffffffffffffffffffffffffffffffffff021916908373ffffffffffffffffffffffffffffffffffffffff1602179055503460015f3373ffffffffffffffffffffffffffffffffffffffff1673ffffffffffffffffffffffffffffffffffffffff1681526020019081526020015f20546102229190610560565b60015f3373ffffffffffffffffffffffffffffffffffffffff1673ffffffffffffffffffffffffffffffffffffffff1681526020019081526020015f2081905550565b674563918244f4000081565b6001602052805f5260405f205f915090505481565b5f5f6102906102be565b90505f670de0b6b3a764000084836102a89190610593565b6102b29190610601565b90508092505050919050565b5f5f735f4ec3df9cbd43714fe2740f5e3616155c5b841973ffffffffffffffffffffffffffffffffffffffff1663feaf968c6040518163ffffffff1660e01b815260040160a060405180830381865afa15801561031d573d5f5f3e3d5ffd5b505050506040513d601f19601f8201168201806040525081019061034191906106b7565b5050509150506402540be40081610358919061072e565b91505090565b5f5ffd5b5f819050919050565b61037481610362565b811461037e575f5ffd5b50565b5f8135905061038f8161036b565b92915050565b5f602082840312156103aa576103a961035e565b5b5f6103b784828501610381565b91505092915050565b5f73ffffffffffffffffffffffffffffffffffffffff82169050919050565b5f6103e9826103c0565b9050919050565b6103f9816103df565b82525050565b5f6020820190506104125f8301846103f0565b92915050565b61042181610362565b82525050565b5f60208201905061043a5f830184610418565b92915050565b610449816103df565b8114610453575f5ffd5b50565b5f8135905061046481610440565b92915050565b5f6020828403121561047f5761047e61035e565b5b5f61048c84828501610456565b91505092915050565b5f82825260208201905092915050565b7f576f726b206861726420616e6420706179206d65206d6f7265204554482062725f8201527f6f6f6f0000000000000000000000000000000000000000000000000000000000602082015250565b5f6104ff602383610495565b915061050a826104a5565b604082019050919050565b5f6020820190508181035f83015261052c816104f3565b9050919050565b7f4e487b71000000000000000000000000000000000000000000000000000000005f52601160045260245ffd5b5f61056a82610362565b915061057583610362565b925082820190508082111561058d5761058c610533565b5b92915050565b5f61059d82610362565b91506105a883610362565b92508282026105b681610362565b915082820484148315176105cd576105cc610533565b5b5092915050565b7f4e487b71000000000000000000000000000000000000000000000000000000005f52601260045260245ffd5b5f61060b82610362565b915061061683610362565b925082610626576106256105d4565b5b828204905092915050565b5f69ffffffffffffffffffff82169050919050565b61064f81610631565b8114610659575f5ffd5b50565b5f8151905061066a81610646565b92915050565b5f819050919050565b61068281610670565b811461068c575f5ffd5b50565b5f8151905061069d81610679565b92915050565b5f815190506106b18161036b565b92915050565b5f5f5f5f5f60a086880312156106d0576106cf61035e565b5b5f6106dd8882890161065c565b95505060206106ee8882890161068f565b94505060406106ff888289016106a3565b9350506060610710888289016106a3565b92505060806107218882890161065c565b9150509295509295909350565b5f61073882610670565b915061074383610670565b925082820261075181610670565b91507f800000000000000000000000000000000000000000000000000000000000000084145f8412161561078857610787610533565b5b828205841483151761079d5761079c610533565b5b509291505056fea2646970667358221220c8f49c02b8e569121631308531ca365c86fd7aba977f74f467553fc3428ec7c864736f6c63430008220033",
			"opcodes": "PUSH1 0x80 PUSH1 0x40 MSTORE CALLVALUE DUP1 ISZERO PUSH1 0xE JUMPI PUSH0 PUSH0 REVERT JUMPDEST POP PUSH2 0x7DA DUP1 PUSH2 0x1C PUSH0 CODECOPY PUSH0 RETURN INVALID PUSH1 0x80 PUSH1 0x40 MSTORE PUSH1 0x4 CALLDATASIZE LT PUSH2 0x3E JUMPI PUSH0 CALLDATALOAD PUSH1 0xE0 SHR DUP1 PUSH4 0x819188CF EQ PUSH2 0x42 JUMPI DUP1 PUSH4 0xB60D4288 EQ PUSH2 0x7E JUMPI DUP1 PUSH4 0xBD6D2ADB EQ PUSH2 0x88 JUMPI DUP1 PUSH4 0xEA8906E9 EQ PUSH2 0xB2 JUMPI JUMPDEST PUSH0 PUSH0 REVERT JUMPDEST CALLVALUE DUP1 ISZERO PUSH2 0x4D JUMPI PUSH0 PUSH0 REVERT JUMPDEST POP PUSH2 0x68 PUSH1 0x4 DUP1 CALLDATASIZE SUB DUP2 ADD SWAP1 PUSH2 0x63 SWAP2 SWAP1 PUSH2 0x395 JUMP JUMPDEST PUSH2 0xEE JUMP JUMPDEST PUSH1 0x40 MLOAD PUSH2 0x75 SWAP2 SWAP1 PUSH2 0x3FF JUMP JUMPDEST PUSH1 0x40 MLOAD DUP1 SWAP2 SUB SWAP1 RETURN JUMPDEST PUSH2 0x86 PUSH2 0x128 JUMP JUMPDEST STOP JUMPDEST CALLVALUE DUP1 ISZERO PUSH2 0x93 JUMPI PUSH0 PUSH0 REVERT JUMPDEST POP PUSH2 0x9C PUSH2 0x265 JUMP JUMPDEST PUSH1 0x40 MLOAD PUSH2 0xA9 SWAP2 SWAP1 PUSH2 0x427 JUMP JUMPDEST PUSH1 0x40 MLOAD DUP1 SWAP2 SUB SWAP1 RETURN JUMPDEST CALLVALUE DUP1 ISZERO PUSH2 0xBD JUMPI PUSH0 PUSH0 REVERT JUMPDEST POP PUSH2 0xD8 PUSH1 0x4 DUP1 CALLDATASIZE SUB DUP2 ADD SWAP1 PUSH2 0xD3 SWAP2 SWAP1 PUSH2 0x46A JUMP JUMPDEST PUSH2 0x271 JUMP JUMPDEST PUSH1 0x40 MLOAD PUSH2 0xE5 SWAP2 SWAP1 PUSH2 0x427 JUMP JUMPDEST PUSH1 0x40 MLOAD DUP1 SWAP2 SUB SWAP1 RETURN JUMPDEST PUSH0 DUP2 DUP2 SLOAD DUP2 LT PUSH2 0xFC JUMPI PUSH0 DUP1 REVERT JUMPDEST SWAP1 PUSH0 MSTORE PUSH1 0x20 PUSH0 KECCAK256 ADD PUSH0 SWAP2 POP SLOAD SWAP1 PUSH2 0x100 EXP SWAP1 DIV PUSH20 0xFFFFFFFFFFFFFFFFFFFFFFFFFFFFFFFFFFFFFFFF AND DUP2 JUMP JUMPDEST PUSH8 0x4563918244F40000 PUSH2 0x13A CALLVALUE PUSH2 0x286 JUMP JUMPDEST GT PUSH2 0x17A JUMPI PUSH1 0x40 MLOAD PUSH32 0x8C379A000000000000000000000000000000000000000000000000000000000 DUP2 MSTORE PUSH1 0x4 ADD PUSH2 0x171 SWAP1 PUSH2 0x515 JUMP JUMPDEST PUSH1 0x40 MLOAD DUP1 SWAP2 SUB SWAP1 REVERT JUMPDEST PUSH0 CALLER SWAP1 DUP1 PUSH1 0x1 DUP2 SLOAD ADD DUP1 DUP3 SSTORE DUP1 SWAP2 POP POP PUSH1 0x1 SWAP1 SUB SWAP1 PUSH0 MSTORE PUSH1 0x20 PUSH0 KECCAK256 ADD PUSH0 SWAP1 SWAP2 SWAP1 SWAP2 SWAP1 SWAP2 PUSH2 0x100 EXP DUP2 SLOAD DUP2 PUSH20 0xFFFFFFFFFFFFFFFFFFFFFFFFFFFFFFFFFFFFFFFF MUL NOT AND SWAP1 DUP4 PUSH20 0xFFFFFFFFFFFFFFFFFFFFFFFFFFFFFFFFFFFFFFFF AND MUL OR SWAP1 SSTORE POP CALLVALUE PUSH1 0x1 PUSH0 CALLER PUSH20 0xFFFFFFFFFFFFFFFFFFFFFFFFFFFFFFFFFFFFFFFF AND PUSH20 0xFFFFFFFFFFFFFFFFFFFFFFFFFFFFFFFFFFFFFFFF AND DUP2 MSTORE PUSH1 0x20 ADD SWAP1 DUP2 MSTORE PUSH1 0x20 ADD PUSH0 KECCAK256 SLOAD PUSH2 0x222 SWAP2 SWAP1 PUSH2 0x560 JUMP JUMPDEST PUSH1 0x1 PUSH0 CALLER PUSH20 0xFFFFFFFFFFFFFFFFFFFFFFFFFFFFFFFFFFFFFFFF AND PUSH20 0xFFFFFFFFFFFFFFFFFFFFFFFFFFFFFFFFFFFFFFFF AND DUP2 MSTORE PUSH1 0x20 ADD SWAP1 DUP2 MSTORE PUSH1 0x20 ADD PUSH0 KECCAK256 DUP2 SWAP1 SSTORE POP JUMP JUMPDEST PUSH8 0x4563918244F40000 DUP2 JUMP JUMPDEST PUSH1 0x1 PUSH1 0x20 MSTORE DUP1 PUSH0 MSTORE PUSH1 0x40 PUSH0 KECCAK256 PUSH0 SWAP2 POP SWAP1 POP SLOAD DUP2 JUMP JUMPDEST PUSH0 PUSH0 PUSH2 0x290 PUSH2 0x2BE JUMP JUMPDEST SWAP1 POP PUSH0 PUSH8 0xDE0B6B3A7640000 DUP5 DUP4 PUSH2 0x2A8 SWAP2 SWAP1 PUSH2 0x593 JUMP JUMPDEST PUSH2 0x2B2 SWAP2 SWAP1 PUSH2 0x601 JUMP JUMPDEST SWAP1 POP DUP1 SWAP3 POP POP POP SWAP2 SWAP1 POP JUMP JUMPDEST PUSH0 PUSH0 PUSH20 0x5F4EC3DF9CBD43714FE2740F5E3616155C5B8419 PUSH20 0xFFFFFFFFFFFFFFFFFFFFFFFFFFFFFFFFFFFFFFFF AND PUSH4 0xFEAF968C PUSH1 0x40 MLOAD DUP2 PUSH4 0xFFFFFFFF AND PUSH1 0xE0 SHL DUP2 MSTORE PUSH1 0x4 ADD PUSH1 0xA0 PUSH1 0x40 MLOAD DUP1 DUP4 SUB DUP2 DUP7 GAS STATICCALL ISZERO DUP1 ISZERO PUSH2 0x31D JUMPI RETURNDATASIZE PUSH0 PUSH0 RETURNDATACOPY RETURNDATASIZE PUSH0 REVERT JUMPDEST POP POP POP POP PUSH1 0x40 MLOAD RETURNDATASIZE PUSH1 0x1F NOT PUSH1 0x1F DUP3 ADD AND DUP3 ADD DUP1 PUSH1 0x40 MSTORE POP DUP2 ADD SWAP1 PUSH2 0x341 SWAP2 SWAP1 PUSH2 0x6B7 JUMP JUMPDEST POP POP POP SWAP2 POP POP PUSH5 0x2540BE400 DUP2 PUSH2 0x358 SWAP2 SWAP1 PUSH2 0x72E JUMP JUMPDEST SWAP2 POP POP SWAP1 JUMP JUMPDEST PUSH0 PUSH0 REVERT JUMPDEST PUSH0 DUP2 SWAP1 POP SWAP2 SWAP1 POP JUMP JUMPDEST PUSH2 0x374 DUP2 PUSH2 0x362 JUMP JUMPDEST DUP2 EQ PUSH2 0x37E JUMPI PUSH0 PUSH0 REVERT JUMPDEST POP JUMP JUMPDEST PUSH0 DUP2 CALLDATALOAD SWAP1 POP PUSH2 0x38F DUP2 PUSH2 0x36B JUMP JUMPDEST SWAP3 SWAP2 POP POP JUMP JUMPDEST PUSH0 PUSH1 0x20 DUP3 DUP5 SUB SLT ISZERO PUSH2 0x3AA JUMPI PUSH2 0x3A9 PUSH2 0x35E JUMP JUMPDEST JUMPDEST PUSH0 PUSH2 0x3B7 DUP5 DUP3 DUP6 ADD PUSH2 0x381 JUMP JUMPDEST SWAP2 POP POP SWAP3 SWAP2 POP POP JUMP JUMPDEST PUSH0 PUSH20 0xFFFFFFFFFFFFFFFFFFFFFFFFFFFFFFFFFFFFFFFF DUP3 AND SWAP1 POP SWAP2 SWAP1 POP JUMP JUMPDEST PUSH0 PUSH2 0x3E9 DUP3 PUSH2 0x3C0 JUMP JUMPDEST SWAP1 POP SWAP2 SWAP1 POP JUMP JUMPDEST PUSH2 0x3F9 DUP2 PUSH2 0x3DF JUMP JUMPDEST DUP3 MSTORE POP POP JUMP JUMPDEST PUSH0 PUSH1 0x20 DUP3 ADD SWAP1 POP PUSH2 0x412 PUSH0 DUP4 ADD DUP5 PUSH2 0x3F0 JUMP JUMPDEST SWAP3 SWAP2 POP POP JUMP JUMPDEST PUSH2 0x421 DUP2 PUSH2 0x362 JUMP JUMPDEST DUP3 MSTORE POP POP JUMP JUMPDEST PUSH0 PUSH1 0x20 DUP3 ADD SWAP1 POP PUSH2 0x43A PUSH0 DUP4 ADD DUP5 PUSH2 0x418 JUMP JUMPDEST SWAP3 SWAP2 POP POP JUMP JUMPDEST PUSH2 0x449 DUP2 PUSH2 0x3DF JUMP JUMPDEST DUP2 EQ PUSH2 0x453 JUMPI PUSH0 PUSH0 REVERT JUMPDEST POP JUMP JUMPDEST PUSH0 DUP2 CALLDATALOAD SWAP1 POP PUSH2 0x464 DUP2 PUSH2 0x440 JUMP JUMPDEST SWAP3 SWAP2 POP POP JUMP JUMPDEST PUSH0 PUSH1 0x20 DUP3 DUP5 SUB SLT ISZERO PUSH2 0x47F JUMPI PUSH2 0x47E PUSH2 0x35E JUMP JUMPDEST JUMPDEST PUSH0 PUSH2 0x48C DUP5 DUP3 DUP6 ADD PUSH2 0x456 JUMP JUMPDEST SWAP2 POP POP SWAP3 SWAP2 POP POP JUMP JUMPDEST PUSH0 DUP3 DUP3 MSTORE PUSH1 0x20 DUP3 ADD SWAP1 POP SWAP3 SWAP2 POP POP JUMP JUMPDEST PUSH32 0x576F726B206861726420616E6420706179206D65206D6F726520455448206272 PUSH0 DUP3 ADD MSTORE PUSH32 0x6F6F6F0000000000000000000000000000000000000000000000000000000000 PUSH1 0x20 DUP3 ADD MSTORE POP JUMP JUMPDEST PUSH0 PUSH2 0x4FF PUSH1 0x23 DUP4 PUSH2 0x495 JUMP JUMPDEST SWAP2 POP PUSH2 0x50A DUP3 PUSH2 0x4A5 JUMP JUMPDEST PUSH1 0x40 DUP3 ADD SWAP1 POP SWAP2 SWAP1 POP JUMP JUMPDEST PUSH0 PUSH1 0x20 DUP3 ADD SWAP1 POP DUP2 DUP2 SUB PUSH0 DUP4 ADD MSTORE PUSH2 0x52C DUP2 PUSH2 0x4F3 JUMP JUMPDEST SWAP1 POP SWAP2 SWAP1 POP JUMP JUMPDEST PUSH32 0x4E487B7100000000000000000000000000000000000000000000000000000000 PUSH0 MSTORE PUSH1 0x11 PUSH1 0x4 MSTORE PUSH1 0x24 PUSH0 REVERT JUMPDEST PUSH0 PUSH2 0x56A DUP3 PUSH2 0x362 JUMP JUMPDEST SWAP2 POP PUSH2 0x575 DUP4 PUSH2 0x362 JUMP JUMPDEST SWAP3 POP DUP3 DUP3 ADD SWAP1 POP DUP1 DUP3 GT ISZERO PUSH2 0x58D JUMPI PUSH2 0x58C PUSH2 0x533 JUMP JUMPDEST JUMPDEST SWAP3 SWAP2 POP POP JUMP JUMPDEST PUSH0 PUSH2 0x59D DUP3 PUSH2 0x362 JUMP JUMPDEST SWAP2 POP PUSH2 0x5A8 DUP4 PUSH2 0x362 JUMP JUMPDEST SWAP3 POP DUP3 DUP3 MUL PUSH2 0x5B6 DUP2 PUSH2 0x362 JUMP JUMPDEST SWAP2 POP DUP3 DUP3 DIV DUP5 EQ DUP4 ISZERO OR PUSH2 0x5CD JUMPI PUSH2 0x5CC PUSH2 0x533 JUMP JUMPDEST JUMPDEST POP SWAP3 SWAP2 POP POP JUMP JUMPDEST PUSH32 0x4E487B7100000000000000000000000000000000000000000000000000000000 PUSH0 MSTORE PUSH1 0x12 PUSH1 0x4 MSTORE PUSH1 0x24 PUSH0 REVERT JUMPDEST PUSH0 PUSH2 0x60B DUP3 PUSH2 0x362 JUMP JUMPDEST SWAP2 POP PUSH2 0x616 DUP4 PUSH2 0x362 JUMP JUMPDEST SWAP3 POP DUP3 PUSH2 0x626 JUMPI PUSH2 0x625 PUSH2 0x5D4 JUMP JUMPDEST JUMPDEST DUP3 DUP3 DIV SWAP1 POP SWAP3 SWAP2 POP POP JUMP JUMPDEST PUSH0 PUSH10 0xFFFFFFFFFFFFFFFFFFFF DUP3 AND SWAP1 POP SWAP2 SWAP1 POP JUMP JUMPDEST PUSH2 0x64F DUP2 PUSH2 0x631 JUMP JUMPDEST DUP2 EQ PUSH2 0x659 JUMPI PUSH0 PUSH0 REVERT JUMPDEST POP JUMP JUMPDEST PUSH0 DUP2 MLOAD SWAP1 POP PUSH2 0x66A DUP2 PUSH2 0x646 JUMP JUMPDEST SWAP3 SWAP2 POP POP JUMP JUMPDEST PUSH0 DUP2 SWAP1 POP SWAP2 SWAP1 POP JUMP JUMPDEST PUSH2 0x682 DUP2 PUSH2 0x670 JUMP JUMPDEST DUP2 EQ PUSH2 0x68C JUMPI PUSH0 PUSH0 REVERT JUMPDEST POP JUMP JUMPDEST PUSH0 DUP2 MLOAD SWAP1 POP PUSH2 0x69D DUP2 PUSH2 0x679 JUMP JUMPDEST SWAP3 SWAP2 POP POP JUMP JUMPDEST PUSH0 DUP2 MLOAD SWAP1 POP PUSH2 0x6B1 DUP2 PUSH2 0x36B JUMP JUMPDEST SWAP3 SWAP2 POP POP JUMP JUMPDEST PUSH0 PUSH0 PUSH0 PUSH0 PUSH0 PUSH1 0xA0 DUP7 DUP9 SUB SLT ISZERO PUSH2 0x6D0 JUMPI PUSH2 0x6CF PUSH2 0x35E JUMP JUMPDEST JUMPDEST PUSH0 PUSH2 0x6DD DUP9 DUP3 DUP10 ADD PUSH2 0x65C JUMP JUMPDEST SWAP6 POP POP PUSH1 0x20 PUSH2 0x6EE DUP9 DUP3 DUP10 ADD PUSH2 0x68F JUMP JUMPDEST SWAP5 POP POP PUSH1 0x40 PUSH2 0x6FF DUP9 DUP3 DUP10 ADD PUSH2 0x6A3 JUMP JUMPDEST SWAP4 POP POP PUSH1 0x60 PUSH2 0x710 DUP9 DUP3 DUP10 ADD PUSH2 0x6A3 JUMP JUMPDEST SWAP3 POP POP PUSH1 0x80 PUSH2 0x721 DUP9 DUP3 DUP10 ADD PUSH2 0x65C JUMP JUMPDEST SWAP2 POP POP SWAP3 SWAP6 POP SWAP3 SWAP6 SWAP1 SWAP4 POP JUMP JUMPDEST PUSH0 PUSH2 0x738 DUP3 PUSH2 0x670 JUMP JUMPDEST SWAP2 POP PUSH2 0x743 DUP4 PUSH2 0x670 JUMP JUMPDEST SWAP3 POP DUP3 DUP3 MUL PUSH2 0x751 DUP2 PUSH2 0x670 JUMP JUMPDEST SWAP2 POP PUSH32 0x8000000000000000000000000000000000000000000000000000000000000000 DUP5 EQ PUSH0 DUP5 SLT AND ISZERO PUSH2 0x788 JUMPI PUSH2 0x787 PUSH2 0x533 JUMP JUMPDEST JUMPDEST DUP3 DUP3 SDIV DUP5 EQ DUP4 ISZERO OR PUSH2 0x79D JUMPI PUSH2 0x79C PUSH2 0x533 JUMP JUMPDEST JUMPDEST POP SWAP3 SWAP2 POP POP JUMP INVALID LOG2 PUSH5 0x6970667358 0x22 SLT KECCAK256 0xC8 DELEGATECALL SWAP13 MUL 0xB8 JUMPF 0x6912 AND BALANCE ADDRESS DUP6 BALANCE 0xCA CALLDATASIZE TLOAD DUP7 REVERT PUSH27 0xBA977F74F467553FC3428EC7C864736F6C63430008220033000000 "
		},
		"gasEstimates": {
			"creation": {
				"codeDepositCost": "402000",
				"executionCost": "434",
				"totalCost": "402434"
			},
			"external": {
				"AddToAmnt(address)": "2846",
				"Minimum_USD()": "347",
				"UsersAddress(uint256)": "4921",
				"fund()": "infinite"
			}
		},
		"methodIdentifiers": {
			"AddToAmnt(address)": "ea8906e9",
			"Minimum_USD()": "bd6d2adb",
			"UsersAddress(uint256)": "819188cf",
			"fund()": "b60d4288"
		}
	},
	"abi": [
		{
			"inputs": [
				{
					"internalType": "address",
					"name": "funders",
					"type": "address"
				}
			],
			"name": "AddToAmnt",
			"outputs": [
				{
					"internalType": "uint256",
					"name": "NetAmountPaid",
					"type": "uint256"
				}
			],
			"stateMutability": "view",
			"type": "function"
		},
		{
			"inputs": [],
			"name": "Minimum_USD",
			"outputs": [
				{
					"internalType": "uint256",
					"name": "",
					"type": "uint256"
				}
			],
			"stateMutability": "view",
			"type": "function"
		},
		{
			"inputs": [
				{
					"internalType": "uint256",
					"name": "",
					"type": "uint256"
				}
			],
			"name": "UsersAddress",
			"outputs": [
				{
					"internalType": "address",
					"name": "",
					"type": "address"
				}
			],
			"stateMutability": "view",
			"type": "function"
		},
		{
			"inputs": [],
			"name": "fund",
			"outputs": [],
			"stateMutability": "payable",
			"type": "function"
		}
	]
}